{
  "_format": "hh-sol-artifact-1",
  "contractName": "AnnouncementModule",
  "sourceName": "contracts/contracts/dao/modules/AnnouncementModule.sol",
  "abi": [
    {
      "anonymous": false,
      "inputs": [
        {
          "indexed": true,
          "internalType": "uint256",
          "name": "announcementId",
          "type": "uint256"
        },
        {
          "indexed": false,
          "internalType": "string",
          "name": "title",
          "type": "string"
        },
        {
          "indexed": false,
          "internalType": "address",
          "name": "creator",
          "type": "address"
        },
        {
          "indexed": false,
          "internalType": "enum AnnouncementStorage.AnnouncementType",
          "name": "announcementType",
          "type": "uint8"
        }
      ],
      "name": "AnnouncementCreated",
      "type": "event"
    },
    {
      "anonymous": false,
      "inputs": [
        {
          "indexed": true,
          "internalType": "uint256",
          "name": "announcementId",
          "type": "uint256"
        }
      ],
      "name": "AnnouncementDeleted",
      "type": "event"
    },
    {
      "anonymous": false,
      "inputs": [
        {
          "indexed": true,
          "internalType": "uint256",
          "name": "announcementId",
          "type": "uint256"
        },
        {
          "indexed": false,
          "internalType": "string",
          "name": "title",
          "type": "string"
        }
      ],
      "name": "AnnouncementUpdated",
      "type": "event"
    },
    {
      "inputs": [
        {
          "internalType": "string",
          "name": "title",
          "type": "string"
        },
        {
          "internalType": "string",
          "name": "content",
          "type": "string"
        },
        {
          "internalType": "enum AnnouncementStorage.AnnouncementType",
          "name": "announcementType",
          "type": "uint8"
        },
        {
          "internalType": "uint256",
          "name": "expiresAt",
          "type": "uint256"
        }
      ],
      "name": "createAnnouncement",
      "outputs": [
        {
          "internalType": "uint256",
          "name": "",
          "type": "uint256"
        }
      ],
      "stateMutability": "nonpayable",
      "type": "function"
    },
    {
      "inputs": [
        {
          "internalType": "uint256",
          "name": "announcementId",
          "type": "uint256"
        }
      ],
      "name": "deleteAnnouncement",
      "outputs": [],
      "stateMutability": "nonpayable",
      "type": "function"
    },
    {
      "inputs": [
        {
          "internalType": "uint256",
          "name": "offset",
          "type": "uint256"
        },
        {
          "internalType": "uint256",
          "name": "limit",
          "type": "uint256"
        }
      ],
      "name": "getActiveAnnouncementsPaginated",
      "outputs": [
        {
          "internalType": "uint256[]",
          "name": "announcementIds",
          "type": "uint256[]"
        },
        {
          "internalType": "string[]",
          "name": "titles",
          "type": "string[]"
        },
        {
          "internalType": "string[]",
          "name": "contents",
          "type": "string[]"
        },
        {
          "internalType": "enum AnnouncementStorage.AnnouncementType[]",
          "name": "announcementTypes",
          "type": "uint8[]"
        },
        {
          "internalType": "address[]",
          "name": "creators",
          "type": "address[]"
        },
        {
          "internalType": "uint256[]",
          "name": "expiresAts",
          "type": "uint256[]"
        },
        {
          "internalType": "uint256",
          "name": "totalCount",
          "type": "uint256"
        }
      ],
      "stateMutability": "view",
      "type": "function"
    },
    {
      "inputs": [
        {
          "internalType": "uint256",
          "name": "announcementId",
          "type": "uint256"
        }
      ],
      "name": "getAnnouncement",
      "outputs": [
        {
          "internalType": "uint256",
          "name": "_announcementId",
          "type": "uint256"
        },
        {
          "internalType": "string",
          "name": "title",
          "type": "string"
        },
        {
          "internalType": "string",
          "name": "content",
          "type": "string"
        },
        {
          "internalType": "enum AnnouncementStorage.AnnouncementType",
          "name": "announcementType",
          "type": "uint8"
        },
        {
          "internalType": "address",
          "name": "creator",
          "type": "address"
        },
        {
          "internalType": "uint256",
          "name": "expiresAt",
          "type": "uint256"
        },
        {
          "internalType": "uint256",
          "name": "createdAt",
          "type": "uint256"
        }
      ],
      "stateMutability": "view",
      "type": "function"
    },
    {
      "inputs": [],
      "name": "getAnnouncementCount",
      "outputs": [
        {
          "internalType": "uint256",
          "name": "",
          "type": "uint256"
        }
      ],
      "stateMutability": "view",
      "type": "function"
    },
    {
      "inputs": [],
      "name": "getSelectors",
      "outputs": [
        {
          "internalType": "bytes4[]",
          "name": "selectors",
          "type": "bytes4[]"
        }
      ],
      "stateMutability": "pure",
      "type": "function"
    },
    {
      "inputs": [
        {
          "internalType": "uint256",
          "name": "announcementId",
          "type": "uint256"
        },
        {
          "internalType": "string",
          "name": "title",
          "type": "string"
        },
        {
          "internalType": "string",
          "name": "content",
          "type": "string"
        },
        {
          "internalType": "enum AnnouncementStorage.AnnouncementType",
          "name": "announcementType",
          "type": "uint8"
        },
        {
          "internalType": "uint256",
          "name": "expiresAt",
          "type": "uint256"
        }
      ],
      "name": "updateAnnouncement",
      "outputs": [],
      "stateMutability": "nonpayable",
      "type": "function"
    }
  ],
  "bytecode": "0x60808060405234601557610fda908161001b8239f35b600080fdfe6080604052600436101561001257600080fd5b60003560e01c80634b503f0b146100875780636b15e713146100825780636dc6df2d1461007d5780638fd0e6d914610078578063bfce588314610073578063d16cdae11461006e5763d99fc9c21461006957600080fd5b6109dc565b610960565b6106c1565b610552565b610527565b610361565b346101435760003660031901126101435761013f6100a3610b44565b6100bb6100af82610b7c565b63bfce588360e01b9052565b6100d36100c782610b8e565b636ccfe4e160e11b9052565b6100eb6100df82610b9e565b638fd0e6d960e01b9052565b6101036100f782610bae565b63d16cdae160e01b9052565b61011b61010f82610bbe565b636b15e71360e01b9052565b61013361012782610bce565b636dc6df2d60e01b9052565b60405191829182610148565b0390f35b600080fd5b602060408183019282815284518094520192019060005b81811061016c5750505090565b82516001600160e01b03191684526020938401939092019160010161015f565b906020808351928381520192019060005b8181106101aa5750505090565b825184526020938401939092019160010161019d565b919082519283825260005b8481106101ec575050826000602080949584010152601f8019910116010190565b806020809284010151828286010152016101cb565b9080602083519182815201916020808360051b8301019401926000915b83831061022d57505050505090565b909192939460208061024b600193601f1986820301875289516101c0565b9701930193019193929061021e565b9060038210156102675752565b634e487b7160e01b600052602160045260246000fd5b906020808351928381520192019060005b81811061029b5750505090565b82516001600160a01b031684526020938401939092019160010161028e565b9796959492906102f5926102d96102e79260e08c5260e08c019061018c565b908a820360208c0152610201565b9088820360408a0152610201565b86810360608801526020808451928381520193019060005b818110610342575050509161032f8260c0948861033d950360808a015261027d565b9086820360a088015261018c565b930152565b90919360208082610356600194895161025a565b01950192910161030d565b3461014357604036600319011261014357600435602435610392600080516020610f85833981519152549183610c08565b9080821161051f575b5081600091818111600014610517576103b49250610c1a565b905b6103bf82610c27565b6103c883610c59565b916103d284610c59565b936103dc81610c27565b6103e582610c27565b906103ef83610c27565b92600094855b8281106104215750505083855283865283875283815283825283835260405196879661013f96886102ba565b61044b61042e8284610c08565b600052600080516020610f65833981519152602052604060002090565b6004810154908b8b8b428511610469575b50505050506001016103f5565b6003846104bb8e6001999f97966104ae826104fc986104e3986104928361050c9f9d5492610bde565b5261049e8e8801610cdd565b6104a88383610bde565b52610bde565b5061049e60028501610cdd565b5001546104d460ff82166104cf878d610bde565b610d81565b60081c6001600160a01b031690565b6104ed848b610bde565b6001600160a01b039091169052565b610506828a610bde565b52610d8d565b9690388b8b8b61045c565b5050906103b6565b90503861039b565b34610143576000366003190112610143576020600080516020610f8583398151915254604051908152f35b34610143576020366003190112610143576004356000818152600080516020610f65833981519152602052604090206003015460081c6001600160a01b031633036105be577f0d6aaa9bf87658a75e5c7ee5854a3e6f9de16bfaeef5df4f2b04b7a7fe7e49b1600080a2005b60405162461bcd60e51b8152602060048201526024808201527f4f6e6c792063726561746f722063616e2064656c65746520616e6e6f756e63656044820152631b595b9d60e21b6064820152608490fd5b634e487b7160e01b600052604160045260246000fd5b90601f8019910116810190811067ffffffffffffffff82111761064757604052565b61060f565b81601f820112156101435780359067ffffffffffffffff82116106475760405192610681601f8401601f191660200185610625565b8284526020838301011161014357816000926020809301838601378301015290565b60443590600382101561014357565b60643590600382101561014357565b346101435760803660031901126101435760043567ffffffffffffffff8111610143576106f290369060040161064c565b60243567ffffffffffffffff81116101435761071290369060040161064c565b61071a6106a3565b916064359161072a428411610d9c565b600080516020610f85833981519152549261074484610d8d565b600080516020610f858339815191525583600052600080516020610f6583398151915260205260406000209184835560018301845167ffffffffffffffff81116106475761079c816107968454610ca3565b84610de8565b6020601f8211600114610870578796937f28bedf3a904382eb60f1362d03ae0fa0f9cba972cbdb30cd0d89f892c393240296936107f98461013f9c989561080595600091610865575b508160011b916000199060031b1c19161790565b90555b60028401610e3a565b610836600383016108168682610f06565b8054610100600160a81b0319163360081b610100600160a81b0316179055565b6004820155600542910155610852604051928392339084610f1e565b0390a26040519081529081906020820190565b9050880151386107e5565b601f1982169061088584600052602060002090565b9160005b8181106108f1575093600184610805948c9b989461013f9e9a977f28bedf3a904382eb60f1362d03ae0fa0f9cba972cbdb30cd0d89f892c39324029c99106108d8575b5050811b0190556107fc565b89015160001960f88460031b161c1916905538806108cc565b9192602060018192868d015181550194019201610889565b939796959261093e9061093060c0979461094994885260e0602089015260e08801906101c0565b9086820360408801526101c0565b97606085019061025a565b6001600160a01b0316608083015260a08201520152565b3461014357602036600319011261014357600435600052600080516020610f65833981519152602052604060002080549061013f600382015460048301546005840154916109bc60026109b560018801610cdd565b9601610cdd565b604051968796600884901c6001600160a01b03169360ff16929188610909565b346101435760a03660031901126101435760043560243567ffffffffffffffff811161014357610a1090369060040161064c565b60443567ffffffffffffffff811161014357610a3090369060040161064c565b90610a396106b2565b906084356000858152600080516020610f658339815191526020526040902060038101805490919060081c6001600160a01b03163303610adb57610ac8610ad695600493610ac37f0fd76c7f8b63e5f29a9fa68dee4bdcbe0f419a0ec9512c62d4a38564d8c98f0999610aad428911610d9c565b610aba8960018801610e3a565b60028601610e3a565b610f06565b015560405191829182610f50565b0390a2005b60405162461bcd60e51b8152602060048201526024808201527f4f6e6c792063726561746f722063616e2075706461746520616e6e6f756e63656044820152631b595b9d60e21b6064820152608490fd5b67ffffffffffffffff81116106475760051b60200190565b60405160e09190610b558382610625565b6006815291601f1901366020840137565b634e487b7160e01b600052603260045260246000fd5b805115610b895760200190565b610b66565b805160011015610b895760400190565b805160021015610b895760600190565b805160031015610b895760800190565b805160041015610b895760a00190565b805160051015610b895760c00190565b8051821015610b895760209160051b010190565b634e487b7160e01b600052601160045260246000fd5b91908201809211610c1557565b610bf2565b91908203918211610c1557565b90610c3182610b2c565b610c3e6040519182610625565b8281528092610c4f601f1991610b2c565b0190602036910137565b90610c6382610b2c565b610c706040519182610625565b8281528092610c81601f1991610b2c565b019060005b828110610c9257505050565b806060602080938501015201610c86565b90600182811c92168015610cd3575b6020831014610cbd57565b634e487b7160e01b600052602260045260246000fd5b91607f1691610cb2565b9060405191826000825492610cf184610ca3565b8084529360018116908115610d5f5750600114610d18575b50610d1692500383610625565b565b90506000929192526020600020906000915b818310610d43575050906020610d169282010138610d09565b6020919350806001915483858901015201910190918492610d2a565b905060209250610d1694915060ff191682840152151560051b82010138610d09565b60038210156102675752565b6000198114610c155760010190565b15610da357565b60405162461bcd60e51b815260206004820152601860248201527f457870697279206d75737420626520696e2066757475726500000000000000006044820152606490fd5b601f8211610df557505050565b6000526020600020906020601f840160051c83019310610e30575b601f0160051c01905b818110610e24575050565b60008155600101610e19565b9091508190610e10565b919091825167ffffffffffffffff811161064757610e5c816107968454610ca3565b6020601f8211600114610e9d578190610e8e939495600092610e92575b50508160011b916000199060031b1c19161790565b9055565b015190503880610e79565b601f19821690610eb284600052602060002090565b9160005b818110610eee57509583600195969710610ed5575b505050811b019055565b015160001960f88460031b161c19169055388080610ecb565b9192602060018192868b015181550194019201610eb6565b9060038110156102675760ff80198354169116179055565b604090610f39610d16949695936060835260608301906101c0565b6001600160a01b039096166020820152019061025a565b906020610f619281815201906101c0565b9056fec54d57697a5081d73a1e116fa9d7c90229b2f440a01694cc9f84d3869d9d0e56c54d57697a5081d73a1e116fa9d7c90229b2f440a01694cc9f84d3869d9d0e57a2646970667358221220005099417d8ca6fa730003a5ef26fcd0b5740a70f77cd8c9fd3e7b10f5d40ccc64736f6c634300081c0033",
  "linkReferences": {},
  "deployedLinkReferences": {}
}