{
  "_format": "hh-sol-artifact-1",
  "contractName": "CalendarModule",
  "sourceName": "contracts/contracts/dao/modules/CalendarModule.sol",
  "abi": [
    {
      "anonymous": false,
      "inputs": [
        {
          "indexed": true,
          "internalType": "uint256",
          "name": "eventId",
          "type": "uint256"
        },
        {
          "indexed": false,
          "internalType": "string",
          "name": "title",
          "type": "string"
        },
        {
          "indexed": false,
          "internalType": "address",
          "name": "creator",
          "type": "address"
        },
        {
          "indexed": false,
          "internalType": "uint256",
          "name": "startTime",
          "type": "uint256"
        }
      ],
      "name": "EventCreated",
      "type": "event"
    },
    {
      "anonymous": false,
      "inputs": [
        {
          "indexed": true,
          "internalType": "uint256",
          "name": "eventId",
          "type": "uint256"
        }
      ],
      "name": "EventDeleted",
      "type": "event"
    },
    {
      "anonymous": false,
      "inputs": [
        {
          "indexed": true,
          "internalType": "uint256",
          "name": "eventId",
          "type": "uint256"
        },
        {
          "indexed": false,
          "internalType": "string",
          "name": "title",
          "type": "string"
        },
        {
          "indexed": false,
          "internalType": "uint256",
          "name": "startTime",
          "type": "uint256"
        }
      ],
      "name": "EventUpdated",
      "type": "event"
    },
    {
      "inputs": [
        {
          "internalType": "string",
          "name": "title",
          "type": "string"
        },
        {
          "internalType": "string",
          "name": "description",
          "type": "string"
        },
        {
          "internalType": "uint256",
          "name": "startTime",
          "type": "uint256"
        },
        {
          "internalType": "uint256",
          "name": "endTime",
          "type": "uint256"
        },
        {
          "internalType": "string",
          "name": "location",
          "type": "string"
        }
      ],
      "name": "createEvent",
      "outputs": [
        {
          "internalType": "uint256",
          "name": "",
          "type": "uint256"
        }
      ],
      "stateMutability": "nonpayable",
      "type": "function"
    },
    {
      "inputs": [
        {
          "internalType": "uint256",
          "name": "eventId",
          "type": "uint256"
        }
      ],
      "name": "deleteEvent",
      "outputs": [],
      "stateMutability": "nonpayable",
      "type": "function"
    },
    {
      "inputs": [
        {
          "internalType": "uint256",
          "name": "eventId",
          "type": "uint256"
        }
      ],
      "name": "getEvent",
      "outputs": [
        {
          "internalType": "uint256",
          "name": "_eventId",
          "type": "uint256"
        },
        {
          "internalType": "string",
          "name": "title",
          "type": "string"
        },
        {
          "internalType": "string",
          "name": "description",
          "type": "string"
        },
        {
          "internalType": "uint256",
          "name": "startTime",
          "type": "uint256"
        },
        {
          "internalType": "uint256",
          "name": "endTime",
          "type": "uint256"
        },
        {
          "internalType": "string",
          "name": "location",
          "type": "string"
        },
        {
          "internalType": "address",
          "name": "creator",
          "type": "address"
        },
        {
          "internalType": "uint256",
          "name": "createdAt",
          "type": "uint256"
        }
      ],
      "stateMutability": "view",
      "type": "function"
    },
    {
      "inputs": [],
      "name": "getEventCount",
      "outputs": [
        {
          "internalType": "uint256",
          "name": "",
          "type": "uint256"
        }
      ],
      "stateMutability": "view",
      "type": "function"
    },
    {
      "inputs": [],
      "name": "getSelectors",
      "outputs": [
        {
          "internalType": "bytes4[]",
          "name": "selectors",
          "type": "bytes4[]"
        }
      ],
      "stateMutability": "pure",
      "type": "function"
    },
    {
      "inputs": [
        {
          "internalType": "uint256",
          "name": "limit",
          "type": "uint256"
        }
      ],
      "name": "getUpcomingEvents",
      "outputs": [
        {
          "internalType": "uint256[]",
          "name": "",
          "type": "uint256[]"
        }
      ],
      "stateMutability": "view",
      "type": "function"
    },
    {
      "inputs": [
        {
          "internalType": "uint256",
          "name": "eventId",
          "type": "uint256"
        },
        {
          "internalType": "string",
          "name": "title",
          "type": "string"
        },
        {
          "internalType": "string",
          "name": "description",
          "type": "string"
        },
        {
          "internalType": "uint256",
          "name": "startTime",
          "type": "uint256"
        },
        {
          "internalType": "uint256",
          "name": "endTime",
          "type": "uint256"
        },
        {
          "internalType": "string",
          "name": "location",
          "type": "string"
        }
      ],
      "name": "updateEvent",
      "outputs": [],
      "stateMutability": "nonpayable",
      "type": "function"
    }
  ],
  "bytecode": "0x60808060405234601557610c83908161001b8239f35b600080fdfe6080604052600436101561001257600080fd5b60003560e01c80634b503f0b146100875780636d1884e014610082578063836c24881461007d578063cde5f83d14610078578063d9e48f5c14610073578063f5efeb8c1461006e5763f8749a581461006957600080fd5b6105a3565b61051b565b6104f0565b61041b565b61034b565b610232565b346101435760003660031901126101435761013f6100a3610669565b6100bb6100af826106a1565b63106d849160e31b9052565b6100d36100c7826106b3565b633d7bfae360e21b9052565b6100eb6100df826106c3565b631f0e934b60e31b9052565b6101036100f7826106d3565b630368c42760e51b9052565b61011b61010f826106e3565b63cde5f83d60e01b9052565b610133610127826106f3565b63367923d760e21b9052565b60405191829182610148565b0390f35b600080fd5b602060408183019282815284518094520192019060005b81811061016c5750505090565b82516001600160e01b03191684526020938401939092019160010161015f565b919082519283825260005b8481106101b8575050826000602080949584010152601f8019910116010190565b80602080928401015182828601015201610197565b949061021e94936101f860e09894610206939c9b9a9c895261010060208a015261010089019061018c565b90878203604089015261018c565b926060860152608085015283820360a085015261018c565b6001600160a01b0390951660c08201520152565b3461014357602036600319011261014357600435600052600080516020610c0e8339815191526020526040600020805461013f60038301549260048101549060018060a01b036006820154169060078101549261029160018301610751565b966102aa60056102a360028601610751565b9401610751565b92604051988998896101cd565b634e487b7160e01b600052604160045260246000fd5b90601f8019910116810190811067ffffffffffffffff8211176102ef57604052565b6102b7565b81601f820112156101435780359067ffffffffffffffff82116102ef5760405192610329601f8401601f1916602001856102cd565b8284526020838301011161014357816000926020809301838601378301015290565b346101435760a03660031901126101435760043567ffffffffffffffff81116101435761037c9036906004016102f4565b60243567ffffffffffffffff81116101435761039c9036906004016102f4565b906084359060643560443567ffffffffffffffff84116101435761013f946103cb6103d19536906004016102f4565b93610a0c565b6040519081529081906020820190565b602060408183019282815284518094520192019060005b8181106104055750505090565b82518452602093840193909201916001016103f8565b346101435760203660031901126101435760043561043881610651565b9061044660405192836102cd565b808252601f1961045582610651565b013660208401376000918291600080516020610c2e83398151915254925b838110806104e7575b156104d65780600052600080516020610c0e83398151915260205242600360406000200154116104b5575b6104b090610897565b610473565b936104ce81866104c86104b09487610703565b52610897565b9490506104a7565b8483526040518061013f85826103e1565b5081851061047c565b34610143576000366003190112610143576020600080516020610c2e83398151915254604051908152f35b346101435760c03660031901126101435760043560243567ffffffffffffffff81116101435761054f9036906004016102f4565b9060443567ffffffffffffffff8111610143576105709036906004016102f4565b6064356084359160a4359467ffffffffffffffff86116101435761059b6105a19636906004016102f4565b94610b14565b005b34610143576020366003190112610143576004356000818152600080516020610c0e83398151915260205260409020600601546001600160a01b0316330361060c577f24089da2b94d456671c6e08e154081718367fe1b3eb2bf048f9ded0b2ce2270a600080a2005b60405162461bcd60e51b815260206004820152601d60248201527f4f6e6c792063726561746f722063616e2064656c657465206576656e740000006044820152606490fd5b67ffffffffffffffff81116102ef5760051b60200190565b60405160e0919061067a83826102cd565b6006815291601f1901366020840137565b634e487b7160e01b600052603260045260246000fd5b8051156106ae5760200190565b61068b565b8051600110156106ae5760400190565b8051600210156106ae5760600190565b8051600310156106ae5760800190565b8051600410156106ae5760a00190565b8051600510156106ae5760c00190565b80518210156106ae5760209160051b010190565b90600182811c92168015610747575b602083101461073157565b634e487b7160e01b600052602260045260246000fd5b91607f1691610726565b906040519182600082549261076584610717565b80845293600181169081156107d3575060011461078c575b5061078a925003836102cd565b565b90506000929192526020600020906000915b8183106107b757505090602061078a928201013861077d565b602091935080600191548385890101520191019091849261079e565b90506020925061078a94915060ff191682840152151560051b8201013861077d565b156107fc57565b60405162461bcd60e51b815260206004820152601c60248201527f53746172742074696d65206d75737420626520696e20667574757265000000006044820152606490fd5b1561084857565b60405162461bcd60e51b815260206004820152602160248201527f456e642074696d65206d7573742062652061667465722073746172742074696d6044820152606560f81b6064820152608490fd5b60001981146108a65760010190565b634e487b7160e01b600052601160045260246000fd5b601f82116108c957505050565b6000526020600020906020601f840160051c83019310610904575b601f0160051c01905b8181106108f8575050565b600081556001016108ed565b90915081906108e4565b919091825167ffffffffffffffff81116102ef57610936816109308454610717565b846108bc565b6020601f821160011461097757819061096893949560009261096c575b50508160011b916000199060031b1c19161790565b9055565b015190503880610953565b601f1982169061098c84600052602060002090565b9160005b8181106109c8575095836001959697106109af575b505050811b019055565b015160001960f88460031b161c191690553880806109a5565b9192602060018192868b015181550194019201610990565b6109f86040929594939560608352606083019061018c565b6001600160a01b0390951660208201520152565b7fad389ee79ceb9d0e3a1739d75d42c8727ca5946b701beaa8ef2801b04d7d7a579291610a3a4284116107f5565b610a45838611610841565b610ac0600080516020610c2e83398151915254968796610a6488610897565b600080516020610c2e8339815191525587600052600080516020610c0e833981519152602052610aac604060002094898655610aa3876001880161090e565b6002860161090e565b85600385015560048401556005830161090e565b6006810180546001600160a01b0319163390811790915542600790920191909155604051928392610af29290846109e0565b0390a290565b929190610b0f60209160408652604086019061018c565b930152565b6000818152600080516020610c0e83398151915260205260409020600681015491969095929390916001600160a01b03163303610bc8577f52e1cf95a71a4bf626ead510f76e201292e9ba26897de33655903ab896c5ba2b95610bb493610ba3600593610b82428a116107f5565b610b8d898411610841565b610b9a886001860161090e565b6002840161090e565b86600383015560048201550161090e565b610bc360405192839283610af8565b0390a2565b60405162461bcd60e51b815260206004820152601d60248201527f4f6e6c792063726561746f722063616e20757064617465206576656e740000006044820152606490fdfe3379a5dbae808d0285168c9b3c0dcf55b67ec3e3d2b9ee8b2311e2ca1fbec32c3379a5dbae808d0285168c9b3c0dcf55b67ec3e3d2b9ee8b2311e2ca1fbec32da264697066735822122093d0cac38585d39c5239ee8ff6dbd96e53f83ce3f94bf022cc7f1c6d9da7cac564736f6c634300081c0033",
  "linkReferences": {},
  "deployedLinkReferences": {}
}