{
  "_format": "hh-sol-artifact-1",
  "contractName": "ClaimVotingModule",
  "sourceName": "contracts/contracts/dao/modules/ClaimVotingModule.sol",
  "abi": [
    {
      "anonymous": false,
      "inputs": [
        {
          "indexed": false,
          "internalType": "uint256",
          "name": "approvalThreshold",
          "type": "uint256"
        }
      ],
      "name": "ApprovalThresholdInitialized",
      "type": "event"
    },
    {
      "anonymous": false,
      "inputs": [
        {
          "indexed": true,
          "internalType": "uint256",
          "name": "claimId",
          "type": "uint256"
        },
        {
          "indexed": true,
          "internalType": "address",
          "name": "claimant",
          "type": "address"
        },
        {
          "indexed": false,
          "internalType": "string",
          "name": "title",
          "type": "string"
        },
        {
          "indexed": false,
          "internalType": "uint256",
          "name": "amount",
          "type": "uint256"
        },
        {
          "indexed": false,
          "internalType": "string",
          "name": "description",
          "type": "string"
        }
      ],
      "name": "ClaimCreated",
      "type": "event"
    },
    {
      "anonymous": false,
      "inputs": [
        {
          "indexed": true,
          "internalType": "uint256",
          "name": "claimId",
          "type": "uint256"
        },
        {
          "indexed": false,
          "internalType": "bool",
          "name": "approved",
          "type": "bool"
        }
      ],
      "name": "ClaimFinalized",
      "type": "event"
    },
    {
      "anonymous": false,
      "inputs": [
        {
          "indexed": true,
          "internalType": "uint256",
          "name": "claimId",
          "type": "uint256"
        },
        {
          "indexed": true,
          "internalType": "address",
          "name": "voter",
          "type": "address"
        },
        {
          "indexed": false,
          "internalType": "bool",
          "name": "approve",
          "type": "bool"
        }
      ],
      "name": "VoteCast",
      "type": "event"
    },
    {
      "inputs": [],
      "name": "GET_ROLE_SELECTOR",
      "outputs": [
        {
          "internalType": "bytes4",
          "name": "",
          "type": "bytes4"
        }
      ],
      "stateMutability": "view",
      "type": "function"
    },
    {
      "inputs": [],
      "name": "alwaysRevert",
      "outputs": [],
      "stateMutability": "pure",
      "type": "function"
    },
    {
      "inputs": [
        {
          "internalType": "string",
          "name": "title",
          "type": "string"
        },
        {
          "internalType": "uint256",
          "name": "amount",
          "type": "uint256"
        },
        {
          "internalType": "string",
          "name": "description",
          "type": "string"
        }
      ],
      "name": "createClaim",
      "outputs": [],
      "stateMutability": "nonpayable",
      "type": "function"
    },
    {
      "inputs": [
        {
          "internalType": "uint256",
          "name": "claimId",
          "type": "uint256"
        }
      ],
      "name": "getClaim",
      "outputs": [
        {
          "components": [
            {
              "internalType": "address",
              "name": "claimant",
              "type": "address"
            },
            {
              "internalType": "string",
              "name": "title",
              "type": "string"
            },
            {
              "internalType": "uint256",
              "name": "amount",
              "type": "uint256"
            },
            {
              "internalType": "string",
              "name": "description",
              "type": "string"
            },
            {
              "internalType": "uint256",
              "name": "approvals",
              "type": "uint256"
            },
            {
              "internalType": "uint256",
              "name": "rejections",
              "type": "uint256"
            },
            {
              "internalType": "uint256",
              "name": "createdAt",
              "type": "uint256"
            },
            {
              "internalType": "uint8",
              "name": "status",
              "type": "uint8"
            }
          ],
          "internalType": "struct ClaimVotingModule.ClaimView",
          "name": "",
          "type": "tuple"
        }
      ],
      "stateMutability": "view",
      "type": "function"
    },
    {
      "inputs": [],
      "name": "getClaimCount",
      "outputs": [
        {
          "internalType": "uint256",
          "name": "",
          "type": "uint256"
        }
      ],
      "stateMutability": "view",
      "type": "function"
    },
    {
      "inputs": [
        {
          "internalType": "uint256",
          "name": "offset",
          "type": "uint256"
        },
        {
          "internalType": "uint256",
          "name": "limit",
          "type": "uint256"
        }
      ],
      "name": "getClaimsPaginated",
      "outputs": [
        {
          "components": [
            {
              "internalType": "address",
              "name": "claimant",
              "type": "address"
            },
            {
              "internalType": "string",
              "name": "title",
              "type": "string"
            },
            {
              "internalType": "uint256",
              "name": "amount",
              "type": "uint256"
            },
            {
              "internalType": "string",
              "name": "description",
              "type": "string"
            },
            {
              "internalType": "uint256",
              "name": "approvals",
              "type": "uint256"
            },
            {
              "internalType": "uint256",
              "name": "rejections",
              "type": "uint256"
            },
            {
              "internalType": "uint256",
              "name": "createdAt",
              "type": "uint256"
            },
            {
              "internalType": "uint8",
              "name": "status",
              "type": "uint8"
            }
          ],
          "internalType": "struct ClaimVotingModule.ClaimView[]",
          "name": "",
          "type": "tuple[]"
        },
        {
          "internalType": "uint256",
          "name": "total",
          "type": "uint256"
        }
      ],
      "stateMutability": "view",
      "type": "function"
    },
    {
      "inputs": [],
      "name": "getSelectors",
      "outputs": [
        {
          "internalType": "bytes4[]",
          "name": "selectors",
          "type": "bytes4[]"
        }
      ],
      "stateMutability": "pure",
      "type": "function"
    },
    {
      "inputs": [
        {
          "internalType": "bytes",
          "name": "data",
          "type": "bytes"
        }
      ],
      "name": "init",
      "outputs": [],
      "stateMutability": "nonpayable",
      "type": "function"
    },
    {
      "inputs": [
        {
          "internalType": "uint256",
          "name": "claimId",
          "type": "uint256"
        },
        {
          "internalType": "address",
          "name": "treasury",
          "type": "address"
        },
        {
          "internalType": "address",
          "name": "tokenRecipient",
          "type": "address"
        }
      ],
      "name": "payoutClaim",
      "outputs": [],
      "stateMutability": "nonpayable",
      "type": "function"
    },
    {
      "inputs": [
        {
          "internalType": "uint256",
          "name": "claimId",
          "type": "uint256"
        },
        {
          "internalType": "bool",
          "name": "approve",
          "type": "bool"
        }
      ],
      "name": "voteOnClaim",
      "outputs": [],
      "stateMutability": "nonpayable",
      "type": "function"
    }
  ],
  "bytecode": "0x6080604052348015600f57600080fd5b506129fd8061001f6000396000f3fe608060405234801561001057600080fd5b506004361061009e5760003560e01c80637eb7fa0c116100665780637eb7fa0c1461014557806391e56c9214610163578063976aa41b1461017f5780639fb37853146101b0578063ba4611d9146101ba5761009e565b80630ed6a89c146100a35780633a00df00146100bf5780634b503f0b146100db5780634ddf47d4146100f95780635aef244714610115575b600080fd5b6100bd60048036038101906100b89190611555565b6101d8565b005b6100d960048036038101906100d491906115f3565b6106fa565b005b6100e361090f565b6040516100f09190611730565b60405180910390f35b610113600480360381019061010e91906117b7565b610ca0565b005b61012f600480360381019061012a9190611804565b610d9c565b60405161013c91906119b2565b60405180910390f35b61014d610f94565b60405161015a91906119e3565b60405180910390f35b61017d60048036038101906101789190611a54565b610fb8565b005b61019960048036038101906101949190611ae9565b6111d8565b6040516101a7929190611cb1565b60405180910390f35b6101b86113f5565b005b6101c2611430565b6040516101cf9190611ce1565b60405180910390f35b60003073ffffffffffffffffffffffffffffffffffffffff166344276733336040518263ffffffff1660e01b81526004016102139190611d0b565b602060405180830381865afa158015610230573d6000803e3d6000fd5b505050506040513d601f19601f820116820180604052508101906102549190611d52565b905060018160ff16148061026b575060028160ff16145b6102aa576040517f08c379a00000000000000000000000000000000000000000000000000000000081526004016102a190611ddc565b60405180910390fd5b60006102b4611448565b905060008160020160008681526020019081526020016000209050600060038111156102e3576102e2611dfc565b5b8160070160009054906101000a900460ff16600381111561030757610306611dfc565b5b14610347576040517f08c379a000000000000000000000000000000000000000000000000000000000815260040161033e90611e77565b60405180910390fd5b8060000160009054906101000a900473ffffffffffffffffffffffffffffffffffffffff1673ffffffffffffffffffffffffffffffffffffffff163373ffffffffffffffffffffffffffffffffffffffff16036103d9576040517f08c379a00000000000000000000000000000000000000000000000000000000081526004016103d090611ee3565b60405180910390fd5b8060080160003373ffffffffffffffffffffffffffffffffffffffff1673ffffffffffffffffffffffffffffffffffffffff16815260200190815260200160002060009054906101000a900460ff1615610468576040517f08c379a000000000000000000000000000000000000000000000000000000000815260040161045f90611f4f565b60405180910390fd5b60018160080160003373ffffffffffffffffffffffffffffffffffffffff1673ffffffffffffffffffffffffffffffffffffffff16815260200190815260200160002060006101000a81548160ff02191690831515021790555083156104e7578060040160008154809291906104dd90611f9e565b9190505550610502565b8060050160008154809291906104fc90611f9e565b91905055505b3373ffffffffffffffffffffffffffffffffffffffff16857fe71fcdac32df1877c1700e7bda2a03157e20993363a28fc35ac495cefc76e4d4866040516105499190611ff5565b60405180910390a3600060013073ffffffffffffffffffffffffffffffffffffffff1663997072f76040518163ffffffff1660e01b8152600401602060405180830381865afa1580156105a0573d6000803e3d6000fd5b505050506040513d601f19601f820116820180604052508101906105c49190612025565b6105ce9190612052565b90506000606460638560000154846105e69190612086565b6105f091906120c8565b6105fa919061212b565b9050808360040154106106725760018360070160006101000a81548160ff0219169083600381111561062f5761062e611dfc565b5b0217905550867f4ec185ef82918138a60652a65bffe37ac6ee19bafe696a17d469cf7ec7c9196760016040516106659190611ff5565b60405180910390a26106f1565b808261067e9190612052565b836005015411156106f05760028360070160006101000a81548160ff021916908360038111156106b1576106b0611dfc565b5b0217905550867f4ec185ef82918138a60652a65bffe37ac6ee19bafe696a17d469cf7ec7c9196760006040516106e79190611ff5565b60405180910390a25b5b50505050505050565b60003073ffffffffffffffffffffffffffffffffffffffff166344276733336040518263ffffffff1660e01b81526004016107359190611d0b565b602060405180830381865afa158015610752573d6000803e3d6000fd5b505050506040513d601f19601f820116820180604052508101906107769190611d52565b905060018160ff16148061078d575060028160ff16145b6107cc576040517f08c379a00000000000000000000000000000000000000000000000000000000081526004016107c390611ddc565b60405180910390fd5b60006107d6611448565b9050600081600201600087815260200190815260200160002090506001600381111561080557610804611dfc565b5b8160070160009054906101000a900460ff16600381111561082957610828611dfc565b5b14610869576040517f08c379a0000000000000000000000000000000000000000000000000000000008152600401610860906121a8565b60405180910390fd5b60038160070160006101000a81548160ff0219169083600381111561089157610890611dfc565b5b02179055508473ffffffffffffffffffffffffffffffffffffffff16639e281a988583600201546040518363ffffffff1660e01b81526004016108d59291906121c8565b600060405180830381600087803b1580156108ef57600080fd5b505af1158015610903573d6000803e3d6000fd5b50505050505050505050565b6060600867ffffffffffffffff81111561092c5761092b6121f1565b5b60405190808252806020026020018201604052801561095a5781602001602082028036833780820191505090505b509050634ddf47d460e01b8160008151811061097957610978612220565b5b60200260200101907bffffffffffffffffffffffffffffffffffffffffffffffffffffffff191690817bffffffffffffffffffffffffffffffffffffffffffffffffffffffff1916815250506391e56c9260e01b816001815181106109e1576109e0612220565b5b60200260200101907bffffffffffffffffffffffffffffffffffffffffffffffffffffffff191690817bffffffffffffffffffffffffffffffffffffffffffffffffffffffff191681525050630ed6a89c60e01b81600281518110610a4957610a48612220565b5b60200260200101907bffffffffffffffffffffffffffffffffffffffffffffffffffffffff191690817bffffffffffffffffffffffffffffffffffffffffffffffffffffffff191681525050635aef244760e01b81600381518110610ab157610ab0612220565b5b60200260200101907bffffffffffffffffffffffffffffffffffffffffffffffffffffffff191690817bffffffffffffffffffffffffffffffffffffffffffffffffffffffff19168152505063976aa41b60e01b81600481518110610b1957610b18612220565b5b60200260200101907bffffffffffffffffffffffffffffffffffffffffffffffffffffffff191690817bffffffffffffffffffffffffffffffffffffffffffffffffffffffff19168152505063ba4611d960e01b81600581518110610b8157610b80612220565b5b60200260200101907bffffffffffffffffffffffffffffffffffffffffffffffffffffffff191690817bffffffffffffffffffffffffffffffffffffffffffffffffffffffff191681525050639fb3785360e01b81600681518110610be957610be8612220565b5b60200260200101907bffffffffffffffffffffffffffffffffffffffffffffffffffffffff191690817bffffffffffffffffffffffffffffffffffffffffffffffffffffffff191681525050633a00df0060e01b81600781518110610c5157610c50612220565b5b60200260200101907bffffffffffffffffffffffffffffffffffffffffffffffffffffffff191690817bffffffffffffffffffffffffffffffffffffffffffffffffffffffff19168152505090565b6000610caa611448565b90506000816000015414610cf3576040517f08c379a0000000000000000000000000000000000000000000000000000000008152600401610cea9061229b565b60405180910390fd5b60008383810190610d049190611804565b9050600081118015610d17575060648111155b610d56576040517f08c379a0000000000000000000000000000000000000000000000000000000008152600401610d4d90612307565b60405180910390fd5b8082600001819055507fbab15cb0a2ead4b4b910c1d09e3d55fdfa34935fa71653e7cf34bb84f996503281604051610d8e9190611ce1565b60405180910390a150505050565b610da4611475565b6000610dae611448565b9050600081600201600085815260200190815260200160002090506040518061010001604052808260000160009054906101000a900473ffffffffffffffffffffffffffffffffffffffff1673ffffffffffffffffffffffffffffffffffffffff168152602001826001018054610e2490612356565b80601f0160208091040260200160405190810160405280929190818152602001828054610e5090612356565b8015610e9d5780601f10610e7257610100808354040283529160200191610e9d565b820191906000526020600020905b815481529060010190602001808311610e8057829003601f168201915b5050505050815260200182600201548152602001826003018054610ec090612356565b80601f0160208091040260200160405190810160405280929190818152602001828054610eec90612356565b8015610f395780601f10610f0e57610100808354040283529160200191610f39565b820191906000526020600020905b815481529060010190602001808311610f1c57829003601f168201915b505050505081526020018260040154815260200182600501548152602001826006015481526020018260070160009054906101000a900460ff166003811115610f8557610f84611dfc565b5b60ff1681525092505050919050565b7f44276733d0e25ca74af40ce2cebf6920fd522f34caf9e361e6330a1d811fc56a81565b60003073ffffffffffffffffffffffffffffffffffffffff166344276733336040518263ffffffff1660e01b8152600401610ff39190611d0b565b602060405180830381865afa158015611010573d6000803e3d6000fd5b505050506040513d601f19601f820116820180604052508101906110349190611d52565b905060018160ff16148061104b575060028160ff16145b61108a576040517f08c379a000000000000000000000000000000000000000000000000000000000815260040161108190611ddc565b60405180910390fd5b6000611094611448565b905060008160010160008154809291906110ad90611f9e565b91905055905060008260020160008381526020019081526020016000209050338160000160006101000a81548173ffffffffffffffffffffffffffffffffffffffff021916908373ffffffffffffffffffffffffffffffffffffffff160217905550888882600101918261112292919061253e565b50868160020181905550858582600301918261113f92919061253e565b5042816006018190555060008160070160006101000a81548160ff0219169083600381111561117157611170611dfc565b5b02179055503373ffffffffffffffffffffffffffffffffffffffff16827f65b6cb0f359a35c532482cfc5ee1f738de4184a6388b2fe20883c5dd2bcacc9d8b8b8b8b8b6040516111c595949392919061264a565b60405180910390a3505050505050505050565b606060006064831115611220576040517f08c379a0000000000000000000000000000000000000000000000000000000008152600401611217906126df565b60405180910390fd5b600061122a611448565b905060008160010154905080861061129d57600067ffffffffffffffff811115611257576112566121f1565b5b60405190808252806020026020018201604052801561129057816020015b61127d611475565b8152602001906001900390816112755790505b50819350935050506113ee565b600085876112ab91906120c8565b9050818111156112b9578190505b600087826112c79190612052565b905060008167ffffffffffffffff8111156112e5576112e46121f1565b5b60405190808252806020026020018201604052801561131e57816020015b61130b611475565b8152602001906001900390816113035790505b50905060005b828110156113e1573073ffffffffffffffffffffffffffffffffffffffff16635aef2447828c61135491906120c8565b6040518263ffffffff1660e01b81526004016113709190611ce1565b600060405180830381865afa15801561138d573d6000803e3d6000fd5b505050506040513d6000823e3d601f19601f820116820180604052508101906113b69190612912565b8282815181106113c9576113c8612220565b5b60200260200101819052508080600101915050611324565b5080849650965050505050505b9250929050565b6040517f08c379a0000000000000000000000000000000000000000000000000000000008152600401611427906129a7565b60405180910390fd5b60008061143b611448565b9050806001015491505090565b6000807f2f853bbe4b8f711a1e25311d050dea585f008276d4b7ff803e429677a279012790508091505090565b604051806101000160405280600073ffffffffffffffffffffffffffffffffffffffff168152602001606081526020016000815260200160608152602001600081526020016000815260200160008152602001600060ff1681525090565b6000604051905090565b600080fd5b600080fd5b6000819050919050565b6114fa816114e7565b811461150557600080fd5b50565b600081359050611517816114f1565b92915050565b60008115159050919050565b6115328161151d565b811461153d57600080fd5b50565b60008135905061154f81611529565b92915050565b6000806040838503121561156c5761156b6114dd565b5b600061157a85828601611508565b925050602061158b85828601611540565b9150509250929050565b600073ffffffffffffffffffffffffffffffffffffffff82169050919050565b60006115c082611595565b9050919050565b6115d0816115b5565b81146115db57600080fd5b50565b6000813590506115ed816115c7565b92915050565b60008060006060848603121561160c5761160b6114dd565b5b600061161a86828701611508565b935050602061162b868287016115de565b925050604061163c868287016115de565b9150509250925092565b600081519050919050565b600082825260208201905092915050565b6000819050602082019050919050565b60007fffffffff0000000000000000000000000000000000000000000000000000000082169050919050565b6116a781611672565b82525050565b60006116b9838361169e565b60208301905092915050565b6000602082019050919050565b60006116dd82611646565b6116e78185611651565b93506116f283611662565b8060005b8381101561172357815161170a88826116ad565b9750611715836116c5565b9250506001810190506116f6565b5085935050505092915050565b6000602082019050818103600083015261174a81846116d2565b905092915050565b600080fd5b600080fd5b600080fd5b60008083601f84011261177757611776611752565b5b8235905067ffffffffffffffff81111561179457611793611757565b5b6020830191508360018202830111156117b0576117af61175c565b5b9250929050565b600080602083850312156117ce576117cd6114dd565b5b600083013567ffffffffffffffff8111156117ec576117eb6114e2565b5b6117f885828601611761565b92509250509250929050565b60006020828403121561181a576118196114dd565b5b600061182884828501611508565b91505092915050565b61183a816115b5565b82525050565b600081519050919050565b600082825260208201905092915050565b60005b8381101561187a57808201518184015260208101905061185f565b60008484015250505050565b6000601f19601f8301169050919050565b60006118a282611840565b6118ac818561184b565b93506118bc81856020860161185c565b6118c581611886565b840191505092915050565b6118d9816114e7565b82525050565b600060ff82169050919050565b6118f5816118df565b82525050565b6000610100830160008301516119146000860182611831565b506020830151848203602086015261192c8282611897565b915050604083015161194160408601826118d0565b50606083015184820360608601526119598282611897565b915050608083015161196e60808601826118d0565b5060a083015161198160a08601826118d0565b5060c083015161199460c08601826118d0565b5060e08301516119a760e08601826118ec565b508091505092915050565b600060208201905081810360008301526119cc81846118fb565b905092915050565b6119dd81611672565b82525050565b60006020820190506119f860008301846119d4565b92915050565b60008083601f840112611a1457611a13611752565b5b8235905067ffffffffffffffff811115611a3157611a30611757565b5b602083019150836001820283011115611a4d57611a4c61175c565b5b9250929050565b600080600080600060608688031215611a7057611a6f6114dd565b5b600086013567ffffffffffffffff811115611a8e57611a8d6114e2565b5b611a9a888289016119fe565b95509550506020611aad88828901611508565b935050604086013567ffffffffffffffff811115611ace57611acd6114e2565b5b611ada888289016119fe565b92509250509295509295909350565b60008060408385031215611b0057611aff6114dd565b5b6000611b0e85828601611508565b9250506020611b1f85828601611508565b9150509250929050565b600081519050919050565b600082825260208201905092915050565b6000819050602082019050919050565b600061010083016000830151611b6e6000860182611831565b5060208301518482036020860152611b868282611897565b9150506040830151611b9b60408601826118d0565b5060608301518482036060860152611bb38282611897565b9150506080830151611bc860808601826118d0565b5060a0830151611bdb60a08601826118d0565b5060c0830151611bee60c08601826118d0565b5060e0830151611c0160e08601826118ec565b508091505092915050565b6000611c188383611b55565b905092915050565b6000602082019050919050565b6000611c3882611b29565b611c428185611b34565b935083602082028501611c5485611b45565b8060005b85811015611c905784840389528151611c718582611c0c565b9450611c7c83611c20565b925060208a01995050600181019050611c58565b50829750879550505050505092915050565b611cab816114e7565b82525050565b60006040820190508181036000830152611ccb8185611c2d565b9050611cda6020830184611ca2565b9392505050565b6000602082019050611cf66000830184611ca2565b92915050565b611d05816115b5565b82525050565b6000602082019050611d206000830184611cfc565b92915050565b611d2f816118df565b8114611d3a57600080fd5b50565b600081519050611d4c81611d26565b92915050565b600060208284031215611d6857611d676114dd565b5b6000611d7684828501611d3d565b91505092915050565b600082825260208201905092915050565b7f4f6e6c79206d656d626572000000000000000000000000000000000000000000600082015250565b6000611dc6600b83611d7f565b9150611dd182611d90565b602082019050919050565b60006020820190508181036000830152611df581611db9565b9050919050565b7f4e487b7100000000000000000000000000000000000000000000000000000000600052602160045260246000fd5b7f4e6f742070656e64696e67000000000000000000000000000000000000000000600082015250565b6000611e61600b83611d7f565b9150611e6c82611e2b565b602082019050919050565b60006020820190508181036000830152611e9081611e54565b9050919050565b7f436c61696d616e742063616e6e6f7420766f7465000000000000000000000000600082015250565b6000611ecd601483611d7f565b9150611ed882611e97565b602082019050919050565b60006020820190508181036000830152611efc81611ec0565b9050919050565b7f416c726561647920766f74656400000000000000000000000000000000000000600082015250565b6000611f39600d83611d7f565b9150611f4482611f03565b602082019050919050565b60006020820190508181036000830152611f6881611f2c565b9050919050565b7f4e487b7100000000000000000000000000000000000000000000000000000000600052601160045260246000fd5b6000611fa9826114e7565b91507fffffffffffffffffffffffffffffffffffffffffffffffffffffffffffffffff8203611fdb57611fda611f6f565b5b600182019050919050565b611fef8161151d565b82525050565b600060208201905061200a6000830184611fe6565b92915050565b60008151905061201f816114f1565b92915050565b60006020828403121561203b5761203a6114dd565b5b600061204984828501612010565b91505092915050565b600061205d826114e7565b9150612068836114e7565b92508282039050818111156120805761207f611f6f565b5b92915050565b6000612091826114e7565b915061209c836114e7565b92508282026120aa816114e7565b915082820484148315176120c1576120c0611f6f565b5b5092915050565b60006120d3826114e7565b91506120de836114e7565b92508282019050808211156120f6576120f5611f6f565b5b92915050565b7f4e487b7100000000000000000000000000000000000000000000000000000000600052601260045260246000fd5b6000612136826114e7565b9150612141836114e7565b925082612151576121506120fc565b5b828204905092915050565b7f436c61696d206e6f7420617070726f7665640000000000000000000000000000600082015250565b6000612192601283611d7f565b915061219d8261215c565b602082019050919050565b600060208201905081810360008301526121c181612185565b9050919050565b60006040820190506121dd6000830185611cfc565b6121ea6020830184611ca2565b9392505050565b7f4e487b7100000000000000000000000000000000000000000000000000000000600052604160045260246000fd5b7f4e487b7100000000000000000000000000000000000000000000000000000000600052603260045260246000fd5b7f416c726561647920696e697469616c697a656400000000000000000000000000600082015250565b6000612285601383611d7f565b91506122908261224f565b602082019050919050565b600060208201905081810360008301526122b481612278565b9050919050565b7f417070726f76616c207468726573686f6c64206d75737420626520312d313030600082015250565b60006122f1602083611d7f565b91506122fc826122bb565b602082019050919050565b60006020820190508181036000830152612320816122e4565b9050919050565b7f4e487b7100000000000000000000000000000000000000000000000000000000600052602260045260246000fd5b6000600282049050600182168061236e57607f821691505b60208210810361238157612380612327565b5b50919050565b600082905092915050565b60008190508160005260206000209050919050565b60006020601f8301049050919050565b600082821b905092915050565b6000600883026123f47fffffffffffffffffffffffffffffffffffffffffffffffffffffffffffffffff826123b7565b6123fe86836123b7565b95508019841693508086168417925050509392505050565b6000819050919050565b600061243b612436612431846114e7565b612416565b6114e7565b9050919050565b6000819050919050565b61245583612420565b61246961246182612442565b8484546123c4565b825550505050565b600090565b61247e612471565b61248981848461244c565b505050565b5b818110156124ad576124a2600082612476565b60018101905061248f565b5050565b601f8211156124f2576124c381612392565b6124cc846123a7565b810160208510156124db578190505b6124ef6124e7856123a7565b83018261248e565b50505b505050565b600082821c905092915050565b6000612515600019846008026124f7565b1980831691505092915050565b600061252e8383612504565b9150826002028217905092915050565b6125488383612387565b67ffffffffffffffff811115612561576125606121f1565b5b61256b8254612356565b6125768282856124b1565b6000601f8311600181146125a55760008415612593578287013590505b61259d8582612522565b865550612605565b601f1984166125b386612392565b60005b828110156125db578489013582556001820191506020850194506020810190506125b6565b868310156125f857848901356125f4601f891682612504565b8355505b6001600288020188555050505b50505050505050565b82818337600083830152505050565b60006126298385611d7f565b935061263683858461260e565b61263f83611886565b840190509392505050565b6000606082019050818103600083015261266581878961261d565b90506126746020830186611ca2565b818103604083015261268781848661261d565b90509695505050505050565b7f4c696d697420746f6f2068696768000000000000000000000000000000000000600082015250565b60006126c9600e83611d7f565b91506126d482612693565b602082019050919050565b600060208201905081810360008301526126f8816126bc565b9050919050565b600080fd5b61270d82611886565b810181811067ffffffffffffffff8211171561272c5761272b6121f1565b5b80604052505050565b600061273f6114d3565b905061274b8282612704565b919050565b600080fd5b600081519050612764816115c7565b92915050565b600080fd5b600067ffffffffffffffff82111561278a576127896121f1565b5b61279382611886565b9050602081019050919050565b60006127b36127ae8461276f565b612735565b9050828152602081018484840111156127cf576127ce61276a565b5b6127da84828561185c565b509392505050565b600082601f8301126127f7576127f6611752565b5b81516128078482602086016127a0565b91505092915050565b60006101008284031215612827576128266126ff565b5b612832610100612735565b9050600061284284828501612755565b600083015250602082015167ffffffffffffffff81111561286657612865612750565b5b612872848285016127e2565b602083015250604061288684828501612010565b604083015250606082015167ffffffffffffffff8111156128aa576128a9612750565b5b6128b6848285016127e2565b60608301525060806128ca84828501612010565b60808301525060a06128de84828501612010565b60a08301525060c06128f284828501612010565b60c08301525060e061290684828501611d3d565b60e08301525092915050565b600060208284031215612928576129276114dd565b5b600082015167ffffffffffffffff811115612946576129456114e2565b5b61295284828501612810565b91505092915050565b7f416c77617973206661696c730000000000000000000000000000000000000000600082015250565b6000612991600c83611d7f565b915061299c8261295b565b602082019050919050565b600060208201905081810360008301526129c081612984565b905091905056fea26469706673582212206e4870e780cb64ed2fa52027e90557c3dbafa248160a11c653d72d125226854964736f6c634300081c0033",
  "linkReferences": {},
  "deployedLinkReferences": {}
}