{
  "_format": "hh-sol-artifact-1",
  "contractName": "ClaimVotingModule",
  "sourceName": "contracts/contracts/dao/modules/ClaimVotingModule.sol",
  "abi": [
    {
      "anonymous": false,
      "inputs": [
        {
          "indexed": false,
          "internalType": "uint256",
          "name": "approvalThreshold",
          "type": "uint256"
        }
      ],
      "name": "ApprovalThresholdInitialized",
      "type": "event"
    },
    {
      "anonymous": false,
      "inputs": [
        {
          "indexed": true,
          "internalType": "uint256",
          "name": "claimId",
          "type": "uint256"
        },
        {
          "indexed": true,
          "internalType": "address",
          "name": "claimant",
          "type": "address"
        },
        {
          "indexed": false,
          "internalType": "string",
          "name": "title",
          "type": "string"
        },
        {
          "indexed": false,
          "internalType": "uint256",
          "name": "amount",
          "type": "uint256"
        },
        {
          "indexed": false,
          "internalType": "string",
          "name": "description",
          "type": "string"
        }
      ],
      "name": "ClaimCreated",
      "type": "event"
    },
    {
      "anonymous": false,
      "inputs": [
        {
          "indexed": true,
          "internalType": "uint256",
          "name": "claimId",
          "type": "uint256"
        },
        {
          "indexed": false,
          "internalType": "bool",
          "name": "approved",
          "type": "bool"
        }
      ],
      "name": "ClaimFinalized",
      "type": "event"
    },
    {
      "anonymous": false,
      "inputs": [
        {
          "indexed": true,
          "internalType": "uint256",
          "name": "claimId",
          "type": "uint256"
        },
        {
          "indexed": true,
          "internalType": "address",
          "name": "voter",
          "type": "address"
        },
        {
          "indexed": false,
          "internalType": "bool",
          "name": "approve",
          "type": "bool"
        }
      ],
      "name": "VoteCast",
      "type": "event"
    },
    {
      "inputs": [],
      "name": "GET_ROLE_SELECTOR",
      "outputs": [
        {
          "internalType": "bytes4",
          "name": "",
          "type": "bytes4"
        }
      ],
      "stateMutability": "view",
      "type": "function"
    },
    {
      "inputs": [],
      "name": "alwaysRevert",
      "outputs": [],
      "stateMutability": "pure",
      "type": "function"
    },
    {
      "inputs": [
        {
          "internalType": "string",
          "name": "title",
          "type": "string"
        },
        {
          "internalType": "uint256",
          "name": "amount",
          "type": "uint256"
        },
        {
          "internalType": "string",
          "name": "description",
          "type": "string"
        }
      ],
      "name": "createClaim",
      "outputs": [],
      "stateMutability": "nonpayable",
      "type": "function"
    },
    {
      "inputs": [
        {
          "internalType": "uint256",
          "name": "claimId",
          "type": "uint256"
        }
      ],
      "name": "getClaim",
      "outputs": [
        {
          "components": [
            {
              "internalType": "address",
              "name": "claimant",
              "type": "address"
            },
            {
              "internalType": "string",
              "name": "title",
              "type": "string"
            },
            {
              "internalType": "uint256",
              "name": "amount",
              "type": "uint256"
            },
            {
              "internalType": "string",
              "name": "description",
              "type": "string"
            },
            {
              "internalType": "uint256",
              "name": "approvals",
              "type": "uint256"
            },
            {
              "internalType": "uint256",
              "name": "rejections",
              "type": "uint256"
            },
            {
              "internalType": "uint256",
              "name": "createdAt",
              "type": "uint256"
            },
            {
              "internalType": "uint8",
              "name": "status",
              "type": "uint8"
            }
          ],
          "internalType": "struct ClaimVotingModule.ClaimView",
          "name": "",
          "type": "tuple"
        }
      ],
      "stateMutability": "view",
      "type": "function"
    },
    {
      "inputs": [],
      "name": "getClaimApprovalThreshold",
      "outputs": [
        {
          "internalType": "uint256",
          "name": "",
          "type": "uint256"
        }
      ],
      "stateMutability": "view",
      "type": "function"
    },
    {
      "inputs": [],
      "name": "getClaimCount",
      "outputs": [
        {
          "internalType": "uint256",
          "name": "",
          "type": "uint256"
        }
      ],
      "stateMutability": "view",
      "type": "function"
    },
    {
      "inputs": [
        {
          "internalType": "uint256",
          "name": "offset",
          "type": "uint256"
        },
        {
          "internalType": "uint256",
          "name": "limit",
          "type": "uint256"
        }
      ],
      "name": "getClaimsPaginated",
      "outputs": [
        {
          "components": [
            {
              "internalType": "address",
              "name": "claimant",
              "type": "address"
            },
            {
              "internalType": "string",
              "name": "title",
              "type": "string"
            },
            {
              "internalType": "uint256",
              "name": "amount",
              "type": "uint256"
            },
            {
              "internalType": "string",
              "name": "description",
              "type": "string"
            },
            {
              "internalType": "uint256",
              "name": "approvals",
              "type": "uint256"
            },
            {
              "internalType": "uint256",
              "name": "rejections",
              "type": "uint256"
            },
            {
              "internalType": "uint256",
              "name": "createdAt",
              "type": "uint256"
            },
            {
              "internalType": "uint8",
              "name": "status",
              "type": "uint8"
            }
          ],
          "internalType": "struct ClaimVotingModule.ClaimView[]",
          "name": "",
          "type": "tuple[]"
        },
        {
          "internalType": "uint256",
          "name": "total",
          "type": "uint256"
        }
      ],
      "stateMutability": "view",
      "type": "function"
    },
    {
      "inputs": [],
      "name": "getSelectors",
      "outputs": [
        {
          "internalType": "bytes4[]",
          "name": "selectors",
          "type": "bytes4[]"
        }
      ],
      "stateMutability": "pure",
      "type": "function"
    },
    {
      "inputs": [
        {
          "internalType": "bytes",
          "name": "data",
          "type": "bytes"
        }
      ],
      "name": "init",
      "outputs": [],
      "stateMutability": "nonpayable",
      "type": "function"
    },
    {
      "inputs": [
        {
          "internalType": "uint256",
          "name": "claimId",
          "type": "uint256"
        },
        {
          "internalType": "address",
          "name": "treasury",
          "type": "address"
        }
      ],
      "name": "payoutClaim",
      "outputs": [],
      "stateMutability": "nonpayable",
      "type": "function"
    },
    {
      "inputs": [
        {
          "internalType": "uint256",
          "name": "claimId",
          "type": "uint256"
        },
        {
          "internalType": "bool",
          "name": "approve",
          "type": "bool"
        }
      ],
      "name": "voteOnClaim",
      "outputs": [],
      "stateMutability": "nonpayable",
      "type": "function"
    }
  ],
  "bytecode": "0x6080604052348015600f57600080fd5b50612c168061001f6000396000f3fe608060405234801561001057600080fd5b50600436106100a95760003560e01c80637eb7fa0c116100715780637eb7fa0c1461015057806391e56c921461016e578063971ca7b91461018a578063976aa41b146101a85780639fb37853146101d9578063ba4611d9146101e3576100a9565b80630269f22f146100ae5780630ed6a89c146100ca5780634b503f0b146100e65780634ddf47d4146101045780635aef244714610120575b600080fd5b6100c860048036038101906100c39190611663565b610201565b005b6100e460048036038101906100df91906116db565b61052a565b005b6100ee610a4c565b6040516100fb9190611805565b60405180910390f35b61011e6004803603810190610119919061188c565b610d75565b005b61013a600480360381019061013591906118d9565b610e71565b6040516101479190611a87565b60405180910390f35b610158611069565b6040516101659190611ab8565b60405180910390f35b61018860048036038101906101839190611b29565b61108d565b005b6101926112ad565b60405161019f9190611bcd565b60405180910390f35b6101c260048036038101906101bd9190611be8565b6112c0565b6040516101d0929190611da1565b60405180910390f35b6101e16114dd565b005b6101eb611518565b6040516101f89190611bcd565b60405180910390f35b600061020b611530565b9050600081600201600085815260200190815260200160002090508060000160009054906101000a900473ffffffffffffffffffffffffffffffffffffffff1673ffffffffffffffffffffffffffffffffffffffff163373ffffffffffffffffffffffffffffffffffffffff16146102b8576040517f08c379a00000000000000000000000000000000000000000000000000000000081526004016102af90611e2e565b60405180910390fd5b600160038111156102cc576102cb611e4e565b5b8160070160009054906101000a900460ff1660038111156102f0576102ef611e4e565b5b14610330576040517f08c379a000000000000000000000000000000000000000000000000000000000815260040161032790611ec9565b60405180910390fd5b60038081111561034357610342611e4e565b5b8160070160009054906101000a900460ff16600381111561036757610366611e4e565b5b036103a7576040517f08c379a000000000000000000000000000000000000000000000000000000000815260040161039e90611f35565b60405180910390fd5b60008373ffffffffffffffffffffffffffffffffffffffff166382b2e2576040518163ffffffff1660e01b8152600401602060405180830381865afa1580156103f4573d6000803e3d6000fd5b505050506040513d601f19601f820116820180604052508101906104189190611f6a565b90508160020154811015610461576040517f08c379a000000000000000000000000000000000000000000000000000000000815260040161045890611fe3565b60405180910390fd5b60038260070160006101000a81548160ff0219169083600381111561048957610488611e4e565b5b02179055508373ffffffffffffffffffffffffffffffffffffffff16639e281a988360000160009054906101000a900473ffffffffffffffffffffffffffffffffffffffff1684600201546040518363ffffffff1660e01b81526004016104f1929190612012565b600060405180830381600087803b15801561050b57600080fd5b505af115801561051f573d6000803e3d6000fd5b505050505050505050565b60003073ffffffffffffffffffffffffffffffffffffffff166344276733336040518263ffffffff1660e01b8152600401610565919061203b565b602060405180830381865afa158015610582573d6000803e3d6000fd5b505050506040513d601f19601f820116820180604052508101906105a69190612082565b905060018160ff1614806105bd575060028160ff16145b6105fc576040517f08c379a00000000000000000000000000000000000000000000000000000000081526004016105f3906120fb565b60405180910390fd5b6000610606611530565b9050600081600201600086815260200190815260200160002090506000600381111561063557610634611e4e565b5b8160070160009054906101000a900460ff16600381111561065957610658611e4e565b5b14610699576040517f08c379a000000000000000000000000000000000000000000000000000000000815260040161069090612167565b60405180910390fd5b8060000160009054906101000a900473ffffffffffffffffffffffffffffffffffffffff1673ffffffffffffffffffffffffffffffffffffffff163373ffffffffffffffffffffffffffffffffffffffff160361072b576040517f08c379a0000000000000000000000000000000000000000000000000000000008152600401610722906121d3565b60405180910390fd5b8060080160003373ffffffffffffffffffffffffffffffffffffffff1673ffffffffffffffffffffffffffffffffffffffff16815260200190815260200160002060009054906101000a900460ff16156107ba576040517f08c379a00000000000000000000000000000000000000000000000000000000081526004016107b19061223f565b60405180910390fd5b60018160080160003373ffffffffffffffffffffffffffffffffffffffff1673ffffffffffffffffffffffffffffffffffffffff16815260200190815260200160002060006101000a81548160ff02191690831515021790555083156108395780600401600081548092919061082f9061228e565b9190505550610854565b80600501600081548092919061084e9061228e565b91905055505b3373ffffffffffffffffffffffffffffffffffffffff16857fe71fcdac32df1877c1700e7bda2a03157e20993363a28fc35ac495cefc76e4d48660405161089b91906122e5565b60405180910390a3600060013073ffffffffffffffffffffffffffffffffffffffff1663997072f76040518163ffffffff1660e01b8152600401602060405180830381865afa1580156108f2573d6000803e3d6000fd5b505050506040513d601f19601f820116820180604052508101906109169190611f6a565b6109209190612300565b90506000606460638560000154846109389190612334565b6109429190612376565b61094c91906123d9565b9050808360040154106109c45760018360070160006101000a81548160ff0219169083600381111561098157610980611e4e565b5b0217905550867f4ec185ef82918138a60652a65bffe37ac6ee19bafe696a17d469cf7ec7c9196760016040516109b791906122e5565b60405180910390a2610a43565b80826109d09190612300565b83600501541115610a425760028360070160006101000a81548160ff02191690836003811115610a0357610a02611e4e565b5b0217905550867f4ec185ef82918138a60652a65bffe37ac6ee19bafe696a17d469cf7ec7c919676000604051610a3991906122e5565b60405180910390a25b5b50505050505050565b6060600767ffffffffffffffff811115610a6957610a6861240a565b5b604051908082528060200260200182016040528015610a975781602001602082028036833780820191505090505b5090506391e56c9260e01b81600081518110610ab657610ab5612439565b5b60200260200101907bffffffffffffffffffffffffffffffffffffffffffffffffffffffff191690817bffffffffffffffffffffffffffffffffffffffffffffffffffffffff191681525050630ed6a89c60e01b81600181518110610b1e57610b1d612439565b5b60200260200101907bffffffffffffffffffffffffffffffffffffffffffffffffffffffff191690817bffffffffffffffffffffffffffffffffffffffffffffffffffffffff191681525050630269f22f60e01b81600281518110610b8657610b85612439565b5b60200260200101907bffffffffffffffffffffffffffffffffffffffffffffffffffffffff191690817bffffffffffffffffffffffffffffffffffffffffffffffffffffffff191681525050635aef244760e01b81600381518110610bee57610bed612439565b5b60200260200101907bffffffffffffffffffffffffffffffffffffffffffffffffffffffff191690817bffffffffffffffffffffffffffffffffffffffffffffffffffffffff19168152505063976aa41b60e01b81600481518110610c5657610c55612439565b5b60200260200101907bffffffffffffffffffffffffffffffffffffffffffffffffffffffff191690817bffffffffffffffffffffffffffffffffffffffffffffffffffffffff19168152505063ba4611d960e01b81600581518110610cbe57610cbd612439565b5b60200260200101907bffffffffffffffffffffffffffffffffffffffffffffffffffffffff191690817bffffffffffffffffffffffffffffffffffffffffffffffffffffffff19168152505063971ca7b960e01b81600681518110610d2657610d25612439565b5b60200260200101907bffffffffffffffffffffffffffffffffffffffffffffffffffffffff191690817bffffffffffffffffffffffffffffffffffffffffffffffffffffffff19168152505090565b6000610d7f611530565b90506000816000015414610dc8576040517f08c379a0000000000000000000000000000000000000000000000000000000008152600401610dbf906124b4565b60405180910390fd5b60008383810190610dd991906118d9565b9050600081118015610dec575060648111155b610e2b576040517f08c379a0000000000000000000000000000000000000000000000000000000008152600401610e2290612520565b60405180910390fd5b8082600001819055507fbab15cb0a2ead4b4b910c1d09e3d55fdfa34935fa71653e7cf34bb84f996503281604051610e639190611bcd565b60405180910390a150505050565b610e7961155d565b6000610e83611530565b9050600081600201600085815260200190815260200160002090506040518061010001604052808260000160009054906101000a900473ffffffffffffffffffffffffffffffffffffffff1673ffffffffffffffffffffffffffffffffffffffff168152602001826001018054610ef99061256f565b80601f0160208091040260200160405190810160405280929190818152602001828054610f259061256f565b8015610f725780601f10610f4757610100808354040283529160200191610f72565b820191906000526020600020905b815481529060010190602001808311610f5557829003601f168201915b5050505050815260200182600201548152602001826003018054610f959061256f565b80601f0160208091040260200160405190810160405280929190818152602001828054610fc19061256f565b801561100e5780601f10610fe35761010080835404028352916020019161100e565b820191906000526020600020905b815481529060010190602001808311610ff157829003601f168201915b505050505081526020018260040154815260200182600501548152602001826006015481526020018260070160009054906101000a900460ff16600381111561105a57611059611e4e565b5b60ff1681525092505050919050565b7f44276733d0e25ca74af40ce2cebf6920fd522f34caf9e361e6330a1d811fc56a81565b60003073ffffffffffffffffffffffffffffffffffffffff166344276733336040518263ffffffff1660e01b81526004016110c8919061203b565b602060405180830381865afa1580156110e5573d6000803e3d6000fd5b505050506040513d601f19601f820116820180604052508101906111099190612082565b905060018160ff161480611120575060028160ff16145b61115f576040517f08c379a0000000000000000000000000000000000000000000000000000000008152600401611156906120fb565b60405180910390fd5b6000611169611530565b905060008160010160008154809291906111829061228e565b91905055905060008260020160008381526020019081526020016000209050338160000160006101000a81548173ffffffffffffffffffffffffffffffffffffffff021916908373ffffffffffffffffffffffffffffffffffffffff16021790555088888260010191826111f7929190612757565b508681600201819055508585826003019182611214929190612757565b5042816006018190555060008160070160006101000a81548160ff0219169083600381111561124657611245611e4e565b5b02179055503373ffffffffffffffffffffffffffffffffffffffff16827f65b6cb0f359a35c532482cfc5ee1f738de4184a6388b2fe20883c5dd2bcacc9d8b8b8b8b8b60405161129a959493929190612863565b60405180910390a3505050505050505050565b60006112b7611530565b60000154905090565b606060006064831115611308576040517f08c379a00000000000000000000000000000000000000000000000000000000081526004016112ff906128f8565b60405180910390fd5b6000611312611530565b905060008160010154905080861061138557600067ffffffffffffffff81111561133f5761133e61240a565b5b60405190808252806020026020018201604052801561137857816020015b61136561155d565b81526020019060019003908161135d5790505b50819350935050506114d6565b600085876113939190612376565b9050818111156113a1578190505b600087826113af9190612300565b905060008167ffffffffffffffff8111156113cd576113cc61240a565b5b60405190808252806020026020018201604052801561140657816020015b6113f361155d565b8152602001906001900390816113eb5790505b50905060005b828110156114c9573073ffffffffffffffffffffffffffffffffffffffff16635aef2447828c61143c9190612376565b6040518263ffffffff1660e01b81526004016114589190611bcd565b600060405180830381865afa158015611475573d6000803e3d6000fd5b505050506040513d6000823e3d601f19601f8201168201806040525081019061149e9190612b2b565b8282815181106114b1576114b0612439565b5b6020026020010181905250808060010191505061140c565b5080849650965050505050505b9250929050565b6040517f08c379a000000000000000000000000000000000000000000000000000000000815260040161150f90612bc0565b60405180910390fd5b600080611523611530565b9050806001015491505090565b6000807f2f853bbe4b8f711a1e25311d050dea585f008276d4b7ff803e429677a279012790508091505090565b604051806101000160405280600073ffffffffffffffffffffffffffffffffffffffff168152602001606081526020016000815260200160608152602001600081526020016000815260200160008152602001600060ff1681525090565b6000604051905090565b600080fd5b600080fd5b6000819050919050565b6115e2816115cf565b81146115ed57600080fd5b50565b6000813590506115ff816115d9565b92915050565b600073ffffffffffffffffffffffffffffffffffffffff82169050919050565b600061163082611605565b9050919050565b61164081611625565b811461164b57600080fd5b50565b60008135905061165d81611637565b92915050565b6000806040838503121561167a576116796115c5565b5b6000611688858286016115f0565b92505060206116998582860161164e565b9150509250929050565b60008115159050919050565b6116b8816116a3565b81146116c357600080fd5b50565b6000813590506116d5816116af565b92915050565b600080604083850312156116f2576116f16115c5565b5b6000611700858286016115f0565b9250506020611711858286016116c6565b9150509250929050565b600081519050919050565b600082825260208201905092915050565b6000819050602082019050919050565b60007fffffffff0000000000000000000000000000000000000000000000000000000082169050919050565b61177c81611747565b82525050565b600061178e8383611773565b60208301905092915050565b6000602082019050919050565b60006117b28261171b565b6117bc8185611726565b93506117c783611737565b8060005b838110156117f85781516117df8882611782565b97506117ea8361179a565b9250506001810190506117cb565b5085935050505092915050565b6000602082019050818103600083015261181f81846117a7565b905092915050565b600080fd5b600080fd5b600080fd5b60008083601f84011261184c5761184b611827565b5b8235905067ffffffffffffffff8111156118695761186861182c565b5b60208301915083600182028301111561188557611884611831565b5b9250929050565b600080602083850312156118a3576118a26115c5565b5b600083013567ffffffffffffffff8111156118c1576118c06115ca565b5b6118cd85828601611836565b92509250509250929050565b6000602082840312156118ef576118ee6115c5565b5b60006118fd848285016115f0565b91505092915050565b61190f81611625565b82525050565b600081519050919050565b600082825260208201905092915050565b60005b8381101561194f578082015181840152602081019050611934565b60008484015250505050565b6000601f19601f8301169050919050565b600061197782611915565b6119818185611920565b9350611991818560208601611931565b61199a8161195b565b840191505092915050565b6119ae816115cf565b82525050565b600060ff82169050919050565b6119ca816119b4565b82525050565b6000610100830160008301516119e96000860182611906565b5060208301518482036020860152611a01828261196c565b9150506040830151611a1660408601826119a5565b5060608301518482036060860152611a2e828261196c565b9150506080830151611a4360808601826119a5565b5060a0830151611a5660a08601826119a5565b5060c0830151611a6960c08601826119a5565b5060e0830151611a7c60e08601826119c1565b508091505092915050565b60006020820190508181036000830152611aa181846119d0565b905092915050565b611ab281611747565b82525050565b6000602082019050611acd6000830184611aa9565b92915050565b60008083601f840112611ae957611ae8611827565b5b8235905067ffffffffffffffff811115611b0657611b0561182c565b5b602083019150836001820283011115611b2257611b21611831565b5b9250929050565b600080600080600060608688031215611b4557611b446115c5565b5b600086013567ffffffffffffffff811115611b6357611b626115ca565b5b611b6f88828901611ad3565b95509550506020611b82888289016115f0565b935050604086013567ffffffffffffffff811115611ba357611ba26115ca565b5b611baf88828901611ad3565b92509250509295509295909350565b611bc7816115cf565b82525050565b6000602082019050611be26000830184611bbe565b92915050565b60008060408385031215611bff57611bfe6115c5565b5b6000611c0d858286016115f0565b9250506020611c1e858286016115f0565b9150509250929050565b600081519050919050565b600082825260208201905092915050565b6000819050602082019050919050565b600061010083016000830151611c6d6000860182611906565b5060208301518482036020860152611c85828261196c565b9150506040830151611c9a60408601826119a5565b5060608301518482036060860152611cb2828261196c565b9150506080830151611cc760808601826119a5565b5060a0830151611cda60a08601826119a5565b5060c0830151611ced60c08601826119a5565b5060e0830151611d0060e08601826119c1565b508091505092915050565b6000611d178383611c54565b905092915050565b6000602082019050919050565b6000611d3782611c28565b611d418185611c33565b935083602082028501611d5385611c44565b8060005b85811015611d8f5784840389528151611d708582611d0b565b9450611d7b83611d1f565b925060208a01995050600181019050611d57565b50829750879550505050505092915050565b60006040820190508181036000830152611dbb8185611d2c565b9050611dca6020830184611bbe565b9392505050565b600082825260208201905092915050565b7f4f6e6c7920636c61696d616e742063616e207061796f75740000000000000000600082015250565b6000611e18601883611dd1565b9150611e2382611de2565b602082019050919050565b60006020820190508181036000830152611e4781611e0b565b9050919050565b7f4e487b7100000000000000000000000000000000000000000000000000000000600052602160045260246000fd5b7f436c61696d206e6f7420617070726f7665640000000000000000000000000000600082015250565b6000611eb3601283611dd1565b9150611ebe82611e7d565b602082019050919050565b60006020820190508181036000830152611ee281611ea6565b9050919050565b7f436c61696d20616c726561647920706169640000000000000000000000000000600082015250565b6000611f1f601283611dd1565b9150611f2a82611ee9565b602082019050919050565b60006020820190508181036000830152611f4e81611f12565b9050919050565b600081519050611f64816115d9565b92915050565b600060208284031215611f8057611f7f6115c5565b5b6000611f8e84828501611f55565b91505092915050565b7f496e73756666696369656e742074726561737572792062616c616e6365000000600082015250565b6000611fcd601d83611dd1565b9150611fd882611f97565b602082019050919050565b60006020820190508181036000830152611ffc81611fc0565b9050919050565b61200c81611625565b82525050565b60006040820190506120276000830185612003565b6120346020830184611bbe565b9392505050565b60006020820190506120506000830184612003565b92915050565b61205f816119b4565b811461206a57600080fd5b50565b60008151905061207c81612056565b92915050565b600060208284031215612098576120976115c5565b5b60006120a68482850161206d565b91505092915050565b7f4f6e6c79206d656d626572000000000000000000000000000000000000000000600082015250565b60006120e5600b83611dd1565b91506120f0826120af565b602082019050919050565b60006020820190508181036000830152612114816120d8565b9050919050565b7f4e6f742070656e64696e67000000000000000000000000000000000000000000600082015250565b6000612151600b83611dd1565b915061215c8261211b565b602082019050919050565b6000602082019050818103600083015261218081612144565b9050919050565b7f436c61696d616e742063616e6e6f7420766f7465000000000000000000000000600082015250565b60006121bd601483611dd1565b91506121c882612187565b602082019050919050565b600060208201905081810360008301526121ec816121b0565b9050919050565b7f416c726561647920766f74656400000000000000000000000000000000000000600082015250565b6000612229600d83611dd1565b9150612234826121f3565b602082019050919050565b600060208201905081810360008301526122588161221c565b9050919050565b7f4e487b7100000000000000000000000000000000000000000000000000000000600052601160045260246000fd5b6000612299826115cf565b91507fffffffffffffffffffffffffffffffffffffffffffffffffffffffffffffffff82036122cb576122ca61225f565b5b600182019050919050565b6122df816116a3565b82525050565b60006020820190506122fa60008301846122d6565b92915050565b600061230b826115cf565b9150612316836115cf565b925082820390508181111561232e5761232d61225f565b5b92915050565b600061233f826115cf565b915061234a836115cf565b9250828202612358816115cf565b9150828204841483151761236f5761236e61225f565b5b5092915050565b6000612381826115cf565b915061238c836115cf565b92508282019050808211156123a4576123a361225f565b5b92915050565b7f4e487b7100000000000000000000000000000000000000000000000000000000600052601260045260246000fd5b60006123e4826115cf565b91506123ef836115cf565b9250826123ff576123fe6123aa565b5b828204905092915050565b7f4e487b7100000000000000000000000000000000000000000000000000000000600052604160045260246000fd5b7f4e487b7100000000000000000000000000000000000000000000000000000000600052603260045260246000fd5b7f416c726561647920696e697469616c697a656400000000000000000000000000600082015250565b600061249e601383611dd1565b91506124a982612468565b602082019050919050565b600060208201905081810360008301526124cd81612491565b9050919050565b7f417070726f76616c207468726573686f6c64206d75737420626520312d313030600082015250565b600061250a602083611dd1565b9150612515826124d4565b602082019050919050565b60006020820190508181036000830152612539816124fd565b9050919050565b7f4e487b7100000000000000000000000000000000000000000000000000000000600052602260045260246000fd5b6000600282049050600182168061258757607f821691505b60208210810361259a57612599612540565b5b50919050565b600082905092915050565b60008190508160005260206000209050919050565b60006020601f8301049050919050565b600082821b905092915050565b60006008830261260d7fffffffffffffffffffffffffffffffffffffffffffffffffffffffffffffffff826125d0565b61261786836125d0565b95508019841693508086168417925050509392505050565b6000819050919050565b600061265461264f61264a846115cf565b61262f565b6115cf565b9050919050565b6000819050919050565b61266e83612639565b61268261267a8261265b565b8484546125dd565b825550505050565b600090565b61269761268a565b6126a2818484612665565b505050565b5b818110156126c6576126bb60008261268f565b6001810190506126a8565b5050565b601f82111561270b576126dc816125ab565b6126e5846125c0565b810160208510156126f4578190505b612708612700856125c0565b8301826126a7565b50505b505050565b600082821c905092915050565b600061272e60001984600802612710565b1980831691505092915050565b6000612747838361271d565b9150826002028217905092915050565b61276183836125a0565b67ffffffffffffffff81111561277a5761277961240a565b5b612784825461256f565b61278f8282856126ca565b6000601f8311600181146127be57600084156127ac578287013590505b6127b6858261273b565b86555061281e565b601f1984166127cc866125ab565b60005b828110156127f4578489013582556001820191506020850194506020810190506127cf565b86831015612811578489013561280d601f89168261271d565b8355505b6001600288020188555050505b50505050505050565b82818337600083830152505050565b60006128428385611dd1565b935061284f838584612827565b6128588361195b565b840190509392505050565b6000606082019050818103600083015261287e818789612836565b905061288d6020830186611bbe565b81810360408301526128a0818486612836565b90509695505050505050565b7f4c696d697420746f6f2068696768000000000000000000000000000000000000600082015250565b60006128e2600e83611dd1565b91506128ed826128ac565b602082019050919050565b60006020820190508181036000830152612911816128d5565b9050919050565b600080fd5b6129268261195b565b810181811067ffffffffffffffff821117156129455761294461240a565b5b80604052505050565b60006129586115bb565b9050612964828261291d565b919050565b600080fd5b60008151905061297d81611637565b92915050565b600080fd5b600067ffffffffffffffff8211156129a3576129a261240a565b5b6129ac8261195b565b9050602081019050919050565b60006129cc6129c784612988565b61294e565b9050828152602081018484840111156129e8576129e7612983565b5b6129f3848285611931565b509392505050565b600082601f830112612a1057612a0f611827565b5b8151612a208482602086016129b9565b91505092915050565b60006101008284031215612a4057612a3f612918565b5b612a4b61010061294e565b90506000612a5b8482850161296e565b600083015250602082015167ffffffffffffffff811115612a7f57612a7e612969565b5b612a8b848285016129fb565b6020830152506040612a9f84828501611f55565b604083015250606082015167ffffffffffffffff811115612ac357612ac2612969565b5b612acf848285016129fb565b6060830152506080612ae384828501611f55565b60808301525060a0612af784828501611f55565b60a08301525060c0612b0b84828501611f55565b60c08301525060e0612b1f8482850161206d565b60e08301525092915050565b600060208284031215612b4157612b406115c5565b5b600082015167ffffffffffffffff811115612b5f57612b5e6115ca565b5b612b6b84828501612a29565b91505092915050565b7f416c77617973206661696c730000000000000000000000000000000000000000600082015250565b6000612baa600c83611dd1565b9150612bb582612b74565b602082019050919050565b60006020820190508181036000830152612bd981612b9d565b905091905056fea26469706673582212204a96244d4f355c1826dbd7431809888044c8cd4ec88c0d5978e443e1874e7fe064736f6c634300081c0033",
  "linkReferences": {},
  "deployedLinkReferences": {}
}