{
  "_format": "hh-sol-artifact-1",
  "contractName": "ClaimVotingModule",
  "sourceName": "contracts/contracts/dao/modules/ClaimVotingModule.sol",
  "abi": [
    {
      "anonymous": false,
      "inputs": [
        {
          "indexed": false,
          "internalType": "uint256",
          "name": "approvalThreshold",
          "type": "uint256"
        }
      ],
      "name": "ApprovalThresholdInitialized",
      "type": "event"
    },
    {
      "anonymous": false,
      "inputs": [
        {
          "indexed": true,
          "internalType": "uint256",
          "name": "claimId",
          "type": "uint256"
        },
        {
          "indexed": true,
          "internalType": "address",
          "name": "claimant",
          "type": "address"
        },
        {
          "indexed": false,
          "internalType": "string",
          "name": "title",
          "type": "string"
        },
        {
          "indexed": false,
          "internalType": "uint256",
          "name": "amount",
          "type": "uint256"
        },
        {
          "indexed": false,
          "internalType": "string",
          "name": "description",
          "type": "string"
        }
      ],
      "name": "ClaimCreated",
      "type": "event"
    },
    {
      "anonymous": false,
      "inputs": [
        {
          "indexed": true,
          "internalType": "uint256",
          "name": "claimId",
          "type": "uint256"
        },
        {
          "indexed": false,
          "internalType": "bool",
          "name": "approved",
          "type": "bool"
        }
      ],
      "name": "ClaimFinalized",
      "type": "event"
    },
    {
      "anonymous": false,
      "inputs": [
        {
          "indexed": true,
          "internalType": "uint256",
          "name": "claimId",
          "type": "uint256"
        },
        {
          "indexed": true,
          "internalType": "address",
          "name": "voter",
          "type": "address"
        },
        {
          "indexed": false,
          "internalType": "bool",
          "name": "approve",
          "type": "bool"
        }
      ],
      "name": "VoteCast",
      "type": "event"
    },
    {
      "inputs": [],
      "name": "GET_ROLE_SELECTOR",
      "outputs": [
        {
          "internalType": "bytes4",
          "name": "",
          "type": "bytes4"
        }
      ],
      "stateMutability": "view",
      "type": "function"
    },
    {
      "inputs": [],
      "name": "alwaysRevert",
      "outputs": [],
      "stateMutability": "pure",
      "type": "function"
    },
    {
      "inputs": [
        {
          "internalType": "string",
          "name": "title",
          "type": "string"
        },
        {
          "internalType": "uint256",
          "name": "amount",
          "type": "uint256"
        },
        {
          "internalType": "string",
          "name": "description",
          "type": "string"
        }
      ],
      "name": "createClaim",
      "outputs": [],
      "stateMutability": "nonpayable",
      "type": "function"
    },
    {
      "inputs": [
        {
          "internalType": "uint256",
          "name": "claimId",
          "type": "uint256"
        }
      ],
      "name": "getClaim",
      "outputs": [
        {
          "components": [
            {
              "internalType": "address",
              "name": "claimant",
              "type": "address"
            },
            {
              "internalType": "string",
              "name": "title",
              "type": "string"
            },
            {
              "internalType": "uint256",
              "name": "amount",
              "type": "uint256"
            },
            {
              "internalType": "string",
              "name": "description",
              "type": "string"
            },
            {
              "internalType": "uint256",
              "name": "approvals",
              "type": "uint256"
            },
            {
              "internalType": "uint256",
              "name": "rejections",
              "type": "uint256"
            },
            {
              "internalType": "uint256",
              "name": "createdAt",
              "type": "uint256"
            },
            {
              "internalType": "uint8",
              "name": "status",
              "type": "uint8"
            }
          ],
          "internalType": "struct ClaimVotingModule.ClaimView",
          "name": "",
          "type": "tuple"
        }
      ],
      "stateMutability": "view",
      "type": "function"
    },
    {
      "inputs": [],
      "name": "getClaimApprovalThreshold",
      "outputs": [
        {
          "internalType": "uint256",
          "name": "",
          "type": "uint256"
        }
      ],
      "stateMutability": "view",
      "type": "function"
    },
    {
      "inputs": [],
      "name": "getClaimCount",
      "outputs": [
        {
          "internalType": "uint256",
          "name": "",
          "type": "uint256"
        }
      ],
      "stateMutability": "view",
      "type": "function"
    },
    {
      "inputs": [
        {
          "internalType": "uint256",
          "name": "offset",
          "type": "uint256"
        },
        {
          "internalType": "uint256",
          "name": "limit",
          "type": "uint256"
        }
      ],
      "name": "getClaimsPaginated",
      "outputs": [
        {
          "components": [
            {
              "internalType": "address",
              "name": "claimant",
              "type": "address"
            },
            {
              "internalType": "string",
              "name": "title",
              "type": "string"
            },
            {
              "internalType": "uint256",
              "name": "amount",
              "type": "uint256"
            },
            {
              "internalType": "string",
              "name": "description",
              "type": "string"
            },
            {
              "internalType": "uint256",
              "name": "approvals",
              "type": "uint256"
            },
            {
              "internalType": "uint256",
              "name": "rejections",
              "type": "uint256"
            },
            {
              "internalType": "uint256",
              "name": "createdAt",
              "type": "uint256"
            },
            {
              "internalType": "uint8",
              "name": "status",
              "type": "uint8"
            }
          ],
          "internalType": "struct ClaimVotingModule.ClaimView[]",
          "name": "",
          "type": "tuple[]"
        },
        {
          "internalType": "uint256",
          "name": "total",
          "type": "uint256"
        }
      ],
      "stateMutability": "view",
      "type": "function"
    },
    {
      "inputs": [],
      "name": "getSelectors",
      "outputs": [
        {
          "internalType": "bytes4[]",
          "name": "selectors",
          "type": "bytes4[]"
        }
      ],
      "stateMutability": "pure",
      "type": "function"
    },
    {
      "inputs": [
        {
          "internalType": "bytes",
          "name": "data",
          "type": "bytes"
        }
      ],
      "name": "init",
      "outputs": [],
      "stateMutability": "nonpayable",
      "type": "function"
    },
    {
      "inputs": [
        {
          "internalType": "uint256",
          "name": "claimId",
          "type": "uint256"
        },
        {
          "internalType": "address",
          "name": "treasury",
          "type": "address"
        },
        {
          "internalType": "address",
          "name": "tokenRecipient",
          "type": "address"
        }
      ],
      "name": "payoutClaim",
      "outputs": [],
      "stateMutability": "nonpayable",
      "type": "function"
    },
    {
      "inputs": [
        {
          "internalType": "uint256",
          "name": "claimId",
          "type": "uint256"
        },
        {
          "internalType": "bool",
          "name": "approve",
          "type": "bool"
        }
      ],
      "name": "voteOnClaim",
      "outputs": [],
      "stateMutability": "nonpayable",
      "type": "function"
    }
  ],
  "bytecode": "0x6080604052348015600f57600080fd5b50612ad38061001f6000396000f3fe608060405234801561001057600080fd5b50600436106100a95760003560e01c80637eb7fa0c116100715780637eb7fa0c1461015057806391e56c921461016e578063971ca7b91461018a578063976aa41b146101a85780639fb37853146101d9578063ba4611d9146101e3576100a9565b80630ed6a89c146100ae5780633a00df00146100ca5780634b503f0b146100e65780634ddf47d4146101045780635aef244714610120575b600080fd5b6100c860048036038101906100c3919061162b565b610201565b005b6100e460048036038101906100df91906116c9565b610779565b005b6100ee6109e4565b6040516100fb9190611806565b60405180910390f35b61011e6004803603810190610119919061188d565b610d0d565b005b61013a600480360381019061013591906118da565b610e09565b6040516101479190611a88565b60405180910390f35b610158611001565b6040516101659190611ab9565b60405180910390f35b61018860048036038101906101839190611b2a565b611025565b005b61019261129b565b60405161019f9190611bce565b60405180910390f35b6101c260048036038101906101bd9190611be9565b6112ae565b6040516101d0929190611da2565b60405180910390f35b6101e16114cb565b005b6101eb611506565b6040516101f89190611bce565b60405180910390f35b60003073ffffffffffffffffffffffffffffffffffffffff166344276733336040518263ffffffff1660e01b815260040161023c9190611de1565b602060405180830381865afa158015610259573d6000803e3d6000fd5b505050506040513d601f19601f8201168201806040525081019061027d9190611e28565b60ff16600281111561029257610291611e55565b5b9050600160028111156102a8576102a7611e55565b5b8160028111156102bb576102ba611e55565b5b14806102ea57506002808111156102d5576102d4611e55565b5b8160028111156102e8576102e7611e55565b5b145b610329576040517f08c379a000000000000000000000000000000000000000000000000000000000815260040161032090611ee1565b60405180910390fd5b600061033361151e565b9050600081600201600086815260200190815260200160002090506000600381111561036257610361611e55565b5b8160070160009054906101000a900460ff16600381111561038657610385611e55565b5b146103c6576040517f08c379a00000000000000000000000000000000000000000000000000000000081526004016103bd90611f4d565b60405180910390fd5b8060000160009054906101000a900473ffffffffffffffffffffffffffffffffffffffff1673ffffffffffffffffffffffffffffffffffffffff163373ffffffffffffffffffffffffffffffffffffffff1603610458576040517f08c379a000000000000000000000000000000000000000000000000000000000815260040161044f90611fb9565b60405180910390fd5b8060080160003373ffffffffffffffffffffffffffffffffffffffff1673ffffffffffffffffffffffffffffffffffffffff16815260200190815260200160002060009054906101000a900460ff16156104e7576040517f08c379a00000000000000000000000000000000000000000000000000000000081526004016104de90612025565b60405180910390fd5b60018160080160003373ffffffffffffffffffffffffffffffffffffffff1673ffffffffffffffffffffffffffffffffffffffff16815260200190815260200160002060006101000a81548160ff02191690831515021790555083156105665780600401600081548092919061055c90612074565b9190505550610581565b80600501600081548092919061057b90612074565b91905055505b3373ffffffffffffffffffffffffffffffffffffffff16857fe71fcdac32df1877c1700e7bda2a03157e20993363a28fc35ac495cefc76e4d4866040516105c891906120cb565b60405180910390a3600060013073ffffffffffffffffffffffffffffffffffffffff1663997072f76040518163ffffffff1660e01b8152600401602060405180830381865afa15801561061f573d6000803e3d6000fd5b505050506040513d601f19601f8201168201806040525081019061064391906120fb565b61064d9190612128565b9050600060646063856000015484610665919061215c565b61066f919061219e565b6106799190612201565b9050808360040154106106f15760018360070160006101000a81548160ff021916908360038111156106ae576106ad611e55565b5b0217905550867f4ec185ef82918138a60652a65bffe37ac6ee19bafe696a17d469cf7ec7c9196760016040516106e491906120cb565b60405180910390a2610770565b80826106fd9190612128565b8360050154111561076f5760028360070160006101000a81548160ff021916908360038111156107305761072f611e55565b5b0217905550867f4ec185ef82918138a60652a65bffe37ac6ee19bafe696a17d469cf7ec7c91967600060405161076691906120cb565b60405180910390a25b5b50505050505050565b60003073ffffffffffffffffffffffffffffffffffffffff166344276733336040518263ffffffff1660e01b81526004016107b49190611de1565b602060405180830381865afa1580156107d1573d6000803e3d6000fd5b505050506040513d601f19601f820116820180604052508101906107f59190611e28565b60ff16600281111561080a57610809611e55565b5b9050600160028111156108205761081f611e55565b5b81600281111561083357610832611e55565b5b1480610862575060028081111561084d5761084c611e55565b5b8160028111156108605761085f611e55565b5b145b6108a1576040517f08c379a000000000000000000000000000000000000000000000000000000000815260040161089890611ee1565b60405180910390fd5b60006108ab61151e565b905060008160020160008781526020019081526020016000209050600160038111156108da576108d9611e55565b5b8160070160009054906101000a900460ff1660038111156108fe576108fd611e55565b5b1461093e576040517f08c379a00000000000000000000000000000000000000000000000000000000081526004016109359061227e565b60405180910390fd5b60038160070160006101000a81548160ff0219169083600381111561096657610965611e55565b5b02179055508473ffffffffffffffffffffffffffffffffffffffff16639e281a988583600201546040518363ffffffff1660e01b81526004016109aa92919061229e565b600060405180830381600087803b1580156109c457600080fd5b505af11580156109d8573d6000803e3d6000fd5b50505050505050505050565b6060600767ffffffffffffffff811115610a0157610a006122c7565b5b604051908082528060200260200182016040528015610a2f5781602001602082028036833780820191505090505b5090506391e56c9260e01b81600081518110610a4e57610a4d6122f6565b5b60200260200101907bffffffffffffffffffffffffffffffffffffffffffffffffffffffff191690817bffffffffffffffffffffffffffffffffffffffffffffffffffffffff191681525050630ed6a89c60e01b81600181518110610ab657610ab56122f6565b5b60200260200101907bffffffffffffffffffffffffffffffffffffffffffffffffffffffff191690817bffffffffffffffffffffffffffffffffffffffffffffffffffffffff191681525050633a00df0060e01b81600281518110610b1e57610b1d6122f6565b5b60200260200101907bffffffffffffffffffffffffffffffffffffffffffffffffffffffff191690817bffffffffffffffffffffffffffffffffffffffffffffffffffffffff191681525050635aef244760e01b81600381518110610b8657610b856122f6565b5b60200260200101907bffffffffffffffffffffffffffffffffffffffffffffffffffffffff191690817bffffffffffffffffffffffffffffffffffffffffffffffffffffffff19168152505063976aa41b60e01b81600481518110610bee57610bed6122f6565b5b60200260200101907bffffffffffffffffffffffffffffffffffffffffffffffffffffffff191690817bffffffffffffffffffffffffffffffffffffffffffffffffffffffff19168152505063ba4611d960e01b81600581518110610c5657610c556122f6565b5b60200260200101907bffffffffffffffffffffffffffffffffffffffffffffffffffffffff191690817bffffffffffffffffffffffffffffffffffffffffffffffffffffffff19168152505063971ca7b960e01b81600681518110610cbe57610cbd6122f6565b5b60200260200101907bffffffffffffffffffffffffffffffffffffffffffffffffffffffff191690817bffffffffffffffffffffffffffffffffffffffffffffffffffffffff19168152505090565b6000610d1761151e565b90506000816000015414610d60576040517f08c379a0000000000000000000000000000000000000000000000000000000008152600401610d5790612371565b60405180910390fd5b60008383810190610d7191906118da565b9050600081118015610d84575060648111155b610dc3576040517f08c379a0000000000000000000000000000000000000000000000000000000008152600401610dba906123dd565b60405180910390fd5b8082600001819055507fbab15cb0a2ead4b4b910c1d09e3d55fdfa34935fa71653e7cf34bb84f996503281604051610dfb9190611bce565b60405180910390a150505050565b610e1161154b565b6000610e1b61151e565b9050600081600201600085815260200190815260200160002090506040518061010001604052808260000160009054906101000a900473ffffffffffffffffffffffffffffffffffffffff1673ffffffffffffffffffffffffffffffffffffffff168152602001826001018054610e919061242c565b80601f0160208091040260200160405190810160405280929190818152602001828054610ebd9061242c565b8015610f0a5780601f10610edf57610100808354040283529160200191610f0a565b820191906000526020600020905b815481529060010190602001808311610eed57829003601f168201915b5050505050815260200182600201548152602001826003018054610f2d9061242c565b80601f0160208091040260200160405190810160405280929190818152602001828054610f599061242c565b8015610fa65780601f10610f7b57610100808354040283529160200191610fa6565b820191906000526020600020905b815481529060010190602001808311610f8957829003601f168201915b505050505081526020018260040154815260200182600501548152602001826006015481526020018260070160009054906101000a900460ff166003811115610ff257610ff1611e55565b5b60ff1681525092505050919050565b7f44276733d0e25ca74af40ce2cebf6920fd522f34caf9e361e6330a1d811fc56a81565b60003073ffffffffffffffffffffffffffffffffffffffff166344276733336040518263ffffffff1660e01b81526004016110609190611de1565b602060405180830381865afa15801561107d573d6000803e3d6000fd5b505050506040513d601f19601f820116820180604052508101906110a19190611e28565b60ff1660028111156110b6576110b5611e55565b5b9050600160028111156110cc576110cb611e55565b5b8160028111156110df576110de611e55565b5b148061110e57506002808111156110f9576110f8611e55565b5b81600281111561110c5761110b611e55565b5b145b61114d576040517f08c379a000000000000000000000000000000000000000000000000000000000815260040161114490611ee1565b60405180910390fd5b600061115761151e565b9050600081600101600081548092919061117090612074565b91905055905060008260020160008381526020019081526020016000209050338160000160006101000a81548173ffffffffffffffffffffffffffffffffffffffff021916908373ffffffffffffffffffffffffffffffffffffffff16021790555088888260010191826111e5929190612614565b508681600201819055508585826003019182611202929190612614565b5042816006018190555060008160070160006101000a81548160ff0219169083600381111561123457611233611e55565b5b02179055503373ffffffffffffffffffffffffffffffffffffffff16827f65b6cb0f359a35c532482cfc5ee1f738de4184a6388b2fe20883c5dd2bcacc9d8b8b8b8b8b604051611288959493929190612720565b60405180910390a3505050505050505050565b60006112a561151e565b60000154905090565b6060600060648311156112f6576040517f08c379a00000000000000000000000000000000000000000000000000000000081526004016112ed906127b5565b60405180910390fd5b600061130061151e565b905060008160010154905080861061137357600067ffffffffffffffff81111561132d5761132c6122c7565b5b60405190808252806020026020018201604052801561136657816020015b61135361154b565b81526020019060019003908161134b5790505b50819350935050506114c4565b60008587611381919061219e565b90508181111561138f578190505b6000878261139d9190612128565b905060008167ffffffffffffffff8111156113bb576113ba6122c7565b5b6040519080825280602002602001820160405280156113f457816020015b6113e161154b565b8152602001906001900390816113d95790505b50905060005b828110156114b7573073ffffffffffffffffffffffffffffffffffffffff16635aef2447828c61142a919061219e565b6040518263ffffffff1660e01b81526004016114469190611bce565b600060405180830381865afa158015611463573d6000803e3d6000fd5b505050506040513d6000823e3d601f19601f8201168201806040525081019061148c91906129e8565b82828151811061149f5761149e6122f6565b5b602002602001018190525080806001019150506113fa565b5080849650965050505050505b9250929050565b6040517f08c379a00000000000000000000000000000000000000000000000000000000081526004016114fd90612a7d565b60405180910390fd5b60008061151161151e565b9050806001015491505090565b6000807f2f853bbe4b8f711a1e25311d050dea585f008276d4b7ff803e429677a279012790508091505090565b604051806101000160405280600073ffffffffffffffffffffffffffffffffffffffff168152602001606081526020016000815260200160608152602001600081526020016000815260200160008152602001600060ff1681525090565b6000604051905090565b600080fd5b600080fd5b6000819050919050565b6115d0816115bd565b81146115db57600080fd5b50565b6000813590506115ed816115c7565b92915050565b60008115159050919050565b611608816115f3565b811461161357600080fd5b50565b600081359050611625816115ff565b92915050565b60008060408385031215611642576116416115b3565b5b6000611650858286016115de565b925050602061166185828601611616565b9150509250929050565b600073ffffffffffffffffffffffffffffffffffffffff82169050919050565b60006116968261166b565b9050919050565b6116a68161168b565b81146116b157600080fd5b50565b6000813590506116c38161169d565b92915050565b6000806000606084860312156116e2576116e16115b3565b5b60006116f0868287016115de565b9350506020611701868287016116b4565b9250506040611712868287016116b4565b9150509250925092565b600081519050919050565b600082825260208201905092915050565b6000819050602082019050919050565b60007fffffffff0000000000000000000000000000000000000000000000000000000082169050919050565b61177d81611748565b82525050565b600061178f8383611774565b60208301905092915050565b6000602082019050919050565b60006117b38261171c565b6117bd8185611727565b93506117c883611738565b8060005b838110156117f95781516117e08882611783565b97506117eb8361179b565b9250506001810190506117cc565b5085935050505092915050565b6000602082019050818103600083015261182081846117a8565b905092915050565b600080fd5b600080fd5b600080fd5b60008083601f84011261184d5761184c611828565b5b8235905067ffffffffffffffff81111561186a5761186961182d565b5b60208301915083600182028301111561188657611885611832565b5b9250929050565b600080602083850312156118a4576118a36115b3565b5b600083013567ffffffffffffffff8111156118c2576118c16115b8565b5b6118ce85828601611837565b92509250509250929050565b6000602082840312156118f0576118ef6115b3565b5b60006118fe848285016115de565b91505092915050565b6119108161168b565b82525050565b600081519050919050565b600082825260208201905092915050565b60005b83811015611950578082015181840152602081019050611935565b60008484015250505050565b6000601f19601f8301169050919050565b600061197882611916565b6119828185611921565b9350611992818560208601611932565b61199b8161195c565b840191505092915050565b6119af816115bd565b82525050565b600060ff82169050919050565b6119cb816119b5565b82525050565b6000610100830160008301516119ea6000860182611907565b5060208301518482036020860152611a02828261196d565b9150506040830151611a1760408601826119a6565b5060608301518482036060860152611a2f828261196d565b9150506080830151611a4460808601826119a6565b5060a0830151611a5760a08601826119a6565b5060c0830151611a6a60c08601826119a6565b5060e0830151611a7d60e08601826119c2565b508091505092915050565b60006020820190508181036000830152611aa281846119d1565b905092915050565b611ab381611748565b82525050565b6000602082019050611ace6000830184611aaa565b92915050565b60008083601f840112611aea57611ae9611828565b5b8235905067ffffffffffffffff811115611b0757611b0661182d565b5b602083019150836001820283011115611b2357611b22611832565b5b9250929050565b600080600080600060608688031215611b4657611b456115b3565b5b600086013567ffffffffffffffff811115611b6457611b636115b8565b5b611b7088828901611ad4565b95509550506020611b83888289016115de565b935050604086013567ffffffffffffffff811115611ba457611ba36115b8565b5b611bb088828901611ad4565b92509250509295509295909350565b611bc8816115bd565b82525050565b6000602082019050611be36000830184611bbf565b92915050565b60008060408385031215611c0057611bff6115b3565b5b6000611c0e858286016115de565b9250506020611c1f858286016115de565b9150509250929050565b600081519050919050565b600082825260208201905092915050565b6000819050602082019050919050565b600061010083016000830151611c6e6000860182611907565b5060208301518482036020860152611c86828261196d565b9150506040830151611c9b60408601826119a6565b5060608301518482036060860152611cb3828261196d565b9150506080830151611cc860808601826119a6565b5060a0830151611cdb60a08601826119a6565b5060c0830151611cee60c08601826119a6565b5060e0830151611d0160e08601826119c2565b508091505092915050565b6000611d188383611c55565b905092915050565b6000602082019050919050565b6000611d3882611c29565b611d428185611c34565b935083602082028501611d5485611c45565b8060005b85811015611d905784840389528151611d718582611d0c565b9450611d7c83611d20565b925060208a01995050600181019050611d58565b50829750879550505050505092915050565b60006040820190508181036000830152611dbc8185611d2d565b9050611dcb6020830184611bbf565b9392505050565b611ddb8161168b565b82525050565b6000602082019050611df66000830184611dd2565b92915050565b611e05816119b5565b8114611e1057600080fd5b50565b600081519050611e2281611dfc565b92915050565b600060208284031215611e3e57611e3d6115b3565b5b6000611e4c84828501611e13565b91505092915050565b7f4e487b7100000000000000000000000000000000000000000000000000000000600052602160045260246000fd5b600082825260208201905092915050565b7f4f6e6c79206d656d626572000000000000000000000000000000000000000000600082015250565b6000611ecb600b83611e84565b9150611ed682611e95565b602082019050919050565b60006020820190508181036000830152611efa81611ebe565b9050919050565b7f4e6f742070656e64696e67000000000000000000000000000000000000000000600082015250565b6000611f37600b83611e84565b9150611f4282611f01565b602082019050919050565b60006020820190508181036000830152611f6681611f2a565b9050919050565b7f436c61696d616e742063616e6e6f7420766f7465000000000000000000000000600082015250565b6000611fa3601483611e84565b9150611fae82611f6d565b602082019050919050565b60006020820190508181036000830152611fd281611f96565b9050919050565b7f416c726561647920766f74656400000000000000000000000000000000000000600082015250565b600061200f600d83611e84565b915061201a82611fd9565b602082019050919050565b6000602082019050818103600083015261203e81612002565b9050919050565b7f4e487b7100000000000000000000000000000000000000000000000000000000600052601160045260246000fd5b600061207f826115bd565b91507fffffffffffffffffffffffffffffffffffffffffffffffffffffffffffffffff82036120b1576120b0612045565b5b600182019050919050565b6120c5816115f3565b82525050565b60006020820190506120e060008301846120bc565b92915050565b6000815190506120f5816115c7565b92915050565b600060208284031215612111576121106115b3565b5b600061211f848285016120e6565b91505092915050565b6000612133826115bd565b915061213e836115bd565b925082820390508181111561215657612155612045565b5b92915050565b6000612167826115bd565b9150612172836115bd565b9250828202612180816115bd565b9150828204841483151761219757612196612045565b5b5092915050565b60006121a9826115bd565b91506121b4836115bd565b92508282019050808211156121cc576121cb612045565b5b92915050565b7f4e487b7100000000000000000000000000000000000000000000000000000000600052601260045260246000fd5b600061220c826115bd565b9150612217836115bd565b925082612227576122266121d2565b5b828204905092915050565b7f436c61696d206e6f7420617070726f7665640000000000000000000000000000600082015250565b6000612268601283611e84565b915061227382612232565b602082019050919050565b600060208201905081810360008301526122978161225b565b9050919050565b60006040820190506122b36000830185611dd2565b6122c06020830184611bbf565b9392505050565b7f4e487b7100000000000000000000000000000000000000000000000000000000600052604160045260246000fd5b7f4e487b7100000000000000000000000000000000000000000000000000000000600052603260045260246000fd5b7f416c726561647920696e697469616c697a656400000000000000000000000000600082015250565b600061235b601383611e84565b915061236682612325565b602082019050919050565b6000602082019050818103600083015261238a8161234e565b9050919050565b7f417070726f76616c207468726573686f6c64206d75737420626520312d313030600082015250565b60006123c7602083611e84565b91506123d282612391565b602082019050919050565b600060208201905081810360008301526123f6816123ba565b9050919050565b7f4e487b7100000000000000000000000000000000000000000000000000000000600052602260045260246000fd5b6000600282049050600182168061244457607f821691505b602082108103612457576124566123fd565b5b50919050565b600082905092915050565b60008190508160005260206000209050919050565b60006020601f8301049050919050565b600082821b905092915050565b6000600883026124ca7fffffffffffffffffffffffffffffffffffffffffffffffffffffffffffffffff8261248d565b6124d4868361248d565b95508019841693508086168417925050509392505050565b6000819050919050565b600061251161250c612507846115bd565b6124ec565b6115bd565b9050919050565b6000819050919050565b61252b836124f6565b61253f61253782612518565b84845461249a565b825550505050565b600090565b612554612547565b61255f818484612522565b505050565b5b818110156125835761257860008261254c565b600181019050612565565b5050565b601f8211156125c85761259981612468565b6125a28461247d565b810160208510156125b1578190505b6125c56125bd8561247d565b830182612564565b50505b505050565b600082821c905092915050565b60006125eb600019846008026125cd565b1980831691505092915050565b600061260483836125da565b9150826002028217905092915050565b61261e838361245d565b67ffffffffffffffff811115612637576126366122c7565b5b612641825461242c565b61264c828285612587565b6000601f83116001811461267b5760008415612669578287013590505b61267385826125f8565b8655506126db565b601f19841661268986612468565b60005b828110156126b15784890135825560018201915060208501945060208101905061268c565b868310156126ce57848901356126ca601f8916826125da565b8355505b6001600288020188555050505b50505050505050565b82818337600083830152505050565b60006126ff8385611e84565b935061270c8385846126e4565b6127158361195c565b840190509392505050565b6000606082019050818103600083015261273b8187896126f3565b905061274a6020830186611bbf565b818103604083015261275d8184866126f3565b90509695505050505050565b7f4c696d697420746f6f2068696768000000000000000000000000000000000000600082015250565b600061279f600e83611e84565b91506127aa82612769565b602082019050919050565b600060208201905081810360008301526127ce81612792565b9050919050565b600080fd5b6127e38261195c565b810181811067ffffffffffffffff82111715612802576128016122c7565b5b80604052505050565b60006128156115a9565b905061282182826127da565b919050565b600080fd5b60008151905061283a8161169d565b92915050565b600080fd5b600067ffffffffffffffff8211156128605761285f6122c7565b5b6128698261195c565b9050602081019050919050565b600061288961288484612845565b61280b565b9050828152602081018484840111156128a5576128a4612840565b5b6128b0848285611932565b509392505050565b600082601f8301126128cd576128cc611828565b5b81516128dd848260208601612876565b91505092915050565b600061010082840312156128fd576128fc6127d5565b5b61290861010061280b565b905060006129188482850161282b565b600083015250602082015167ffffffffffffffff81111561293c5761293b612826565b5b612948848285016128b8565b602083015250604061295c848285016120e6565b604083015250606082015167ffffffffffffffff8111156129805761297f612826565b5b61298c848285016128b8565b60608301525060806129a0848285016120e6565b60808301525060a06129b4848285016120e6565b60a08301525060c06129c8848285016120e6565b60c08301525060e06129dc84828501611e13565b60e08301525092915050565b6000602082840312156129fe576129fd6115b3565b5b600082015167ffffffffffffffff811115612a1c57612a1b6115b8565b5b612a28848285016128e6565b91505092915050565b7f416c77617973206661696c730000000000000000000000000000000000000000600082015250565b6000612a67600c83611e84565b9150612a7282612a31565b602082019050919050565b60006020820190508181036000830152612a9681612a5a565b905091905056fea2646970667358221220d90180f21fed106e5eb7f1781956e794734a9eafc285771c34c34374d8ac0d9764736f6c634300081c0033",
  "linkReferences": {},
  "deployedLinkReferences": {}
}