{
  "_format": "hh-sol-artifact-1",
  "contractName": "DaoFactory",
  "sourceName": "contracts/contracts/dao/DaoFactory.sol",
  "abi": [
    {
      "inputs": [
        {
          "internalType": "address",
          "name": "_kernelImpl",
          "type": "address"
        }
      ],
      "stateMutability": "nonpayable",
      "type": "constructor"
    },
    {
      "inputs": [],
      "name": "FailedDeployment",
      "type": "error"
    },
    {
      "inputs": [
        {
          "internalType": "uint256",
          "name": "balance",
          "type": "uint256"
        },
        {
          "internalType": "uint256",
          "name": "needed",
          "type": "uint256"
        }
      ],
      "name": "InsufficientBalance",
      "type": "error"
    },
    {
      "anonymous": false,
      "inputs": [
        {
          "indexed": true,
          "internalType": "address",
          "name": "dao",
          "type": "address"
        },
        {
          "indexed": false,
          "internalType": "address[]",
          "name": "modules",
          "type": "address[]"
        },
        {
          "indexed": false,
          "internalType": "string",
          "name": "name",
          "type": "string"
        },
        {
          "indexed": false,
          "internalType": "bool",
          "name": "isPublic",
          "type": "bool"
        }
      ],
      "name": "DaoCreated",
      "type": "event"
    },
    {
      "inputs": [
        {
          "internalType": "address[]",
          "name": "modules",
          "type": "address[]"
        },
        {
          "internalType": "bytes[]",
          "name": "initData",
          "type": "bytes[]"
        },
        {
          "components": [
            {
              "internalType": "string",
              "name": "name",
              "type": "string"
            },
            {
              "internalType": "string",
              "name": "description",
              "type": "string"
            },
            {
              "internalType": "string",
              "name": "templateId",
              "type": "string"
            },
            {
              "internalType": "string",
              "name": "mandate",
              "type": "string"
            },
            {
              "internalType": "string",
              "name": "intendedAudience",
              "type": "string"
            },
            {
              "internalType": "bool",
              "name": "isPublic",
              "type": "bool"
            }
          ],
          "internalType": "struct DaoFactory.DaoMetadata",
          "name": "metadata",
          "type": "tuple"
        },
        {
          "internalType": "address",
          "name": "treasuryLogic",
          "type": "address"
        },
        {
          "internalType": "address",
          "name": "treasuryToken",
          "type": "address"
        }
      ],
      "name": "createDao",
      "outputs": [
        {
          "internalType": "address",
          "name": "",
          "type": "address"
        }
      ],
      "stateMutability": "nonpayable",
      "type": "function"
    },
    {
      "inputs": [
        {
          "internalType": "address",
          "name": "",
          "type": "address"
        },
        {
          "internalType": "uint256",
          "name": "",
          "type": "uint256"
        }
      ],
      "name": "creatorToDaoIndexes",
      "outputs": [
        {
          "internalType": "uint256",
          "name": "",
          "type": "uint256"
        }
      ],
      "stateMutability": "view",
      "type": "function"
    },
    {
      "inputs": [
        {
          "internalType": "address",
          "name": "",
          "type": "address"
        }
      ],
      "name": "daoIndex",
      "outputs": [
        {
          "internalType": "uint256",
          "name": "",
          "type": "uint256"
        }
      ],
      "stateMutability": "view",
      "type": "function"
    },
    {
      "inputs": [
        {
          "internalType": "uint256",
          "name": "",
          "type": "uint256"
        }
      ],
      "name": "daos",
      "outputs": [
        {
          "internalType": "address",
          "name": "dao",
          "type": "address"
        },
        {
          "components": [
            {
              "internalType": "string",
              "name": "name",
              "type": "string"
            },
            {
              "internalType": "string",
              "name": "description",
              "type": "string"
            },
            {
              "internalType": "string",
              "name": "templateId",
              "type": "string"
            },
            {
              "internalType": "string",
              "name": "mandate",
              "type": "string"
            },
            {
              "internalType": "string",
              "name": "intendedAudience",
              "type": "string"
            },
            {
              "internalType": "bool",
              "name": "isPublic",
              "type": "bool"
            }
          ],
          "internalType": "struct DaoFactory.DaoMetadata",
          "name": "metadata",
          "type": "tuple"
        },
        {
          "internalType": "address",
          "name": "creator",
          "type": "address"
        },
        {
          "internalType": "uint256",
          "name": "createdAt",
          "type": "uint256"
        }
      ],
      "stateMutability": "view",
      "type": "function"
    },
    {
      "inputs": [],
      "name": "getDaoCount",
      "outputs": [
        {
          "internalType": "uint256",
          "name": "",
          "type": "uint256"
        }
      ],
      "stateMutability": "view",
      "type": "function"
    },
    {
      "inputs": [
        {
          "internalType": "address",
          "name": "creator",
          "type": "address"
        }
      ],
      "name": "getDaoCountByCreator",
      "outputs": [
        {
          "internalType": "uint256",
          "name": "",
          "type": "uint256"
        }
      ],
      "stateMutability": "view",
      "type": "function"
    },
    {
      "inputs": [
        {
          "internalType": "string",
          "name": "templateId",
          "type": "string"
        }
      ],
      "name": "getDaoCountByTemplate",
      "outputs": [
        {
          "internalType": "uint256",
          "name": "",
          "type": "uint256"
        }
      ],
      "stateMutability": "view",
      "type": "function"
    },
    {
      "inputs": [
        {
          "internalType": "uint256",
          "name": "index",
          "type": "uint256"
        }
      ],
      "name": "getDaoInfo",
      "outputs": [
        {
          "components": [
            {
              "internalType": "address",
              "name": "dao",
              "type": "address"
            },
            {
              "components": [
                {
                  "internalType": "string",
                  "name": "name",
                  "type": "string"
                },
                {
                  "internalType": "string",
                  "name": "description",
                  "type": "string"
                },
                {
                  "internalType": "string",
                  "name": "templateId",
                  "type": "string"
                },
                {
                  "internalType": "string",
                  "name": "mandate",
                  "type": "string"
                },
                {
                  "internalType": "string",
                  "name": "intendedAudience",
                  "type": "string"
                },
                {
                  "internalType": "bool",
                  "name": "isPublic",
                  "type": "bool"
                }
              ],
              "internalType": "struct DaoFactory.DaoMetadata",
              "name": "metadata",
              "type": "tuple"
            },
            {
              "internalType": "address",
              "name": "creator",
              "type": "address"
            },
            {
              "internalType": "uint256",
              "name": "createdAt",
              "type": "uint256"
            },
            {
              "internalType": "address[]",
              "name": "modules",
              "type": "address[]"
            }
          ],
          "internalType": "struct DaoFactory.DaoInfo",
          "name": "",
          "type": "tuple"
        }
      ],
      "stateMutability": "view",
      "type": "function"
    },
    {
      "inputs": [
        {
          "internalType": "address",
          "name": "dao",
          "type": "address"
        }
      ],
      "name": "getDaoInfoByAddress",
      "outputs": [
        {
          "components": [
            {
              "internalType": "address",
              "name": "dao",
              "type": "address"
            },
            {
              "components": [
                {
                  "internalType": "string",
                  "name": "name",
                  "type": "string"
                },
                {
                  "internalType": "string",
                  "name": "description",
                  "type": "string"
                },
                {
                  "internalType": "string",
                  "name": "templateId",
                  "type": "string"
                },
                {
                  "internalType": "string",
                  "name": "mandate",
                  "type": "string"
                },
                {
                  "internalType": "string",
                  "name": "intendedAudience",
                  "type": "string"
                },
                {
                  "internalType": "bool",
                  "name": "isPublic",
                  "type": "bool"
                }
              ],
              "internalType": "struct DaoFactory.DaoMetadata",
              "name": "metadata",
              "type": "tuple"
            },
            {
              "internalType": "address",
              "name": "creator",
              "type": "address"
            },
            {
              "internalType": "uint256",
              "name": "createdAt",
              "type": "uint256"
            },
            {
              "internalType": "address[]",
              "name": "modules",
              "type": "address[]"
            }
          ],
          "internalType": "struct DaoFactory.DaoInfo",
          "name": "",
          "type": "tuple"
        }
      ],
      "stateMutability": "view",
      "type": "function"
    },
    {
      "inputs": [
        {
          "internalType": "address",
          "name": "creator",
          "type": "address"
        },
        {
          "internalType": "uint256",
          "name": "offset",
          "type": "uint256"
        },
        {
          "internalType": "uint256",
          "name": "limit",
          "type": "uint256"
        }
      ],
      "name": "getDaosByCreatorPaginated",
      "outputs": [
        {
          "components": [
            {
              "internalType": "address",
              "name": "dao",
              "type": "address"
            },
            {
              "components": [
                {
                  "internalType": "string",
                  "name": "name",
                  "type": "string"
                },
                {
                  "internalType": "string",
                  "name": "description",
                  "type": "string"
                },
                {
                  "internalType": "string",
                  "name": "templateId",
                  "type": "string"
                },
                {
                  "internalType": "string",
                  "name": "mandate",
                  "type": "string"
                },
                {
                  "internalType": "string",
                  "name": "intendedAudience",
                  "type": "string"
                },
                {
                  "internalType": "bool",
                  "name": "isPublic",
                  "type": "bool"
                }
              ],
              "internalType": "struct DaoFactory.DaoMetadata",
              "name": "metadata",
              "type": "tuple"
            },
            {
              "internalType": "address",
              "name": "creator",
              "type": "address"
            },
            {
              "internalType": "uint256",
              "name": "createdAt",
              "type": "uint256"
            },
            {
              "internalType": "address[]",
              "name": "modules",
              "type": "address[]"
            }
          ],
          "internalType": "struct DaoFactory.DaoInfo[]",
          "name": "",
          "type": "tuple[]"
        },
        {
          "internalType": "uint256",
          "name": "total",
          "type": "uint256"
        }
      ],
      "stateMutability": "view",
      "type": "function"
    },
    {
      "inputs": [
        {
          "internalType": "string",
          "name": "templateId",
          "type": "string"
        },
        {
          "internalType": "uint256",
          "name": "offset",
          "type": "uint256"
        },
        {
          "internalType": "uint256",
          "name": "limit",
          "type": "uint256"
        }
      ],
      "name": "getDaosByTemplatePaginated",
      "outputs": [
        {
          "components": [
            {
              "internalType": "address",
              "name": "dao",
              "type": "address"
            },
            {
              "components": [
                {
                  "internalType": "string",
                  "name": "name",
                  "type": "string"
                },
                {
                  "internalType": "string",
                  "name": "description",
                  "type": "string"
                },
                {
                  "internalType": "string",
                  "name": "templateId",
                  "type": "string"
                },
                {
                  "internalType": "string",
                  "name": "mandate",
                  "type": "string"
                },
                {
                  "internalType": "string",
                  "name": "intendedAudience",
                  "type": "string"
                },
                {
                  "internalType": "bool",
                  "name": "isPublic",
                  "type": "bool"
                }
              ],
              "internalType": "struct DaoFactory.DaoMetadata",
              "name": "metadata",
              "type": "tuple"
            },
            {
              "internalType": "address",
              "name": "creator",
              "type": "address"
            },
            {
              "internalType": "uint256",
              "name": "createdAt",
              "type": "uint256"
            },
            {
              "internalType": "address[]",
              "name": "modules",
              "type": "address[]"
            }
          ],
          "internalType": "struct DaoFactory.DaoInfo[]",
          "name": "",
          "type": "tuple[]"
        },
        {
          "internalType": "uint256",
          "name": "total",
          "type": "uint256"
        }
      ],
      "stateMutability": "view",
      "type": "function"
    },
    {
      "inputs": [],
      "name": "getPublicDaoCount",
      "outputs": [
        {
          "internalType": "uint256",
          "name": "",
          "type": "uint256"
        }
      ],
      "stateMutability": "view",
      "type": "function"
    },
    {
      "inputs": [
        {
          "internalType": "uint256",
          "name": "offset",
          "type": "uint256"
        },
        {
          "internalType": "uint256",
          "name": "limit",
          "type": "uint256"
        }
      ],
      "name": "getPublicDaosPaginated",
      "outputs": [
        {
          "components": [
            {
              "internalType": "address",
              "name": "dao",
              "type": "address"
            },
            {
              "components": [
                {
                  "internalType": "string",
                  "name": "name",
                  "type": "string"
                },
                {
                  "internalType": "string",
                  "name": "description",
                  "type": "string"
                },
                {
                  "internalType": "string",
                  "name": "templateId",
                  "type": "string"
                },
                {
                  "internalType": "string",
                  "name": "mandate",
                  "type": "string"
                },
                {
                  "internalType": "string",
                  "name": "intendedAudience",
                  "type": "string"
                },
                {
                  "internalType": "bool",
                  "name": "isPublic",
                  "type": "bool"
                }
              ],
              "internalType": "struct DaoFactory.DaoMetadata",
              "name": "metadata",
              "type": "tuple"
            },
            {
              "internalType": "address",
              "name": "creator",
              "type": "address"
            },
            {
              "internalType": "uint256",
              "name": "createdAt",
              "type": "uint256"
            },
            {
              "internalType": "address[]",
              "name": "modules",
              "type": "address[]"
            }
          ],
          "internalType": "struct DaoFactory.DaoInfo[]",
          "name": "",
          "type": "tuple[]"
        },
        {
          "internalType": "uint256",
          "name": "total",
          "type": "uint256"
        }
      ],
      "stateMutability": "view",
      "type": "function"
    },
    {
      "inputs": [],
      "name": "kernelImpl",
      "outputs": [
        {
          "internalType": "address",
          "name": "",
          "type": "address"
        }
      ],
      "stateMutability": "view",
      "type": "function"
    },
    {
      "inputs": [
        {
          "internalType": "uint256",
          "name": "",
          "type": "uint256"
        }
      ],
      "name": "publicDaoIndexes",
      "outputs": [
        {
          "internalType": "uint256",
          "name": "",
          "type": "uint256"
        }
      ],
      "stateMutability": "view",
      "type": "function"
    },
    {
      "inputs": [
        {
          "internalType": "string",
          "name": "",
          "type": "string"
        },
        {
          "internalType": "uint256",
          "name": "",
          "type": "uint256"
        }
      ],
      "name": "templateToDaoIndexes",
      "outputs": [
        {
          "internalType": "uint256",
          "name": "",
          "type": "uint256"
        }
      ],
      "stateMutability": "view",
      "type": "function"
    }
  ],
  "bytecode": "0x608060405234801561001057600080fd5b5060405161488c38038061488c833981810160405281019061003291906100db565b806000806101000a81548173ffffffffffffffffffffffffffffffffffffffff021916908373ffffffffffffffffffffffffffffffffffffffff16021790555050610108565b600080fd5b600073ffffffffffffffffffffffffffffffffffffffff82169050919050565b60006100a88261007d565b9050919050565b6100b88161009d565b81146100c357600080fd5b50565b6000815190506100d5816100af565b92915050565b6000602082840312156100f1576100f0610078565b5b60006100ff848285016100c6565b91505092915050565b614775806101176000396000f3fe608060405234801561001057600080fd5b50600436106101005760003560e01c80636e011eda11610097578063ccbbd26011610066578063ccbbd26014610336578063d292009114610369578063d4d8f89214610387578063f55e838f146103a557610100565b80636e011eda146102755780637bda5075146102a5578063811770ad146102d65780639a7c0a831461030657610100565b80633af08f22116100d35780633af08f22146101b3578063522d13cd146101e457806352b64a6f1461021557806369ae1a4e1461024557610100565b80630f1961e6146101055780631faed37014610135578063219a2aae14610165578063234805ba14610183575b600080fd5b61011f600480360381019061011a91906130e7565b6103d5565b60405161012c91906131ce565b60405180910390f35b61014f600480360381019061014a919061323f565b610857565b60405161015c91906132a5565b60405180910390f35b61016d610885565b60405161017a91906132a5565b60405180910390f35b61019d600480360381019061019891906132ec565b610892565b6040516101aa91906132a5565b60405180910390f35b6101cd60048036038101906101c89190613319565b6108b6565b6040516101db9291906136c8565b60405180910390f35b6101fe60048036038101906101f991906136f8565b610f23565b60405161020c9291906136c8565b60405180910390f35b61022f600480360381019061022a919061376c565b611572565b60405161023c9190613816565b60405180910390f35b61025f600480360381019061025a91906132ec565b611a8e565b60405161026c9190613816565b60405180910390f35b61028f600480360381019061028a9190613838565b611f5e565b60405161029c91906132a5565b60405180910390f35b6102bf60048036038101906102ba9190613878565b611f8f565b6040516102cd9291906136c8565b60405180910390f35b6102f060048036038101906102eb91906139e8565b6125b8565b6040516102fd91906132a5565b60405180910390f35b610320600480360381019061031b919061376c565b6125ff565b60405161032d91906132a5565b60405180910390f35b610350600480360381019061034b91906132ec565b61264b565b6040516103609493929190613ae9565b60405180910390f35b6103716129ca565b60405161037e91906131ce565b60405180910390f35b61038f6129ee565b60405161039c91906132a5565b60405180910390f35b6103bf60048036038101906103ba919061376c565b6129fb565b6040516103cc91906132a5565b60405180910390f35b600085859050888890501461041f576040517f08c379a000000000000000000000000000000000000000000000000000000000815260040161041690613b92565b60405180910390fd5b600061044a60008054906101000a900473ffffffffffffffffffffffffffffffffffffffff16612a13565b905060008173ffffffffffffffffffffffffffffffffffffffff168a8a8a8a60405160240161047c9493929190613db2565b6040516020818303038152906040527f912083db000000000000000000000000000000000000000000000000000000007bffffffffffffffffffffffffffffffffffffffffffffffffffffffff19166020820180517bffffffffffffffffffffffffffffffffffffffffffffffffffffffff83818316178352505050506040516105069190613e34565b6000604051808303816000865af19150503d8060008114610543576040519150601f19603f3d011682016040523d82523d6000602084013e610548565b606091505b505090508061058c576040517f08c379a000000000000000000000000000000000000000000000000000000000815260040161058390613e97565b60405180910390fd5b60008073ffffffffffffffffffffffffffffffffffffffff168673ffffffffffffffffffffffffffffffffffffffff161461077b57600085846040516024016105d6929190613eb7565b6040516020818303038152906040527f485cc955000000000000000000000000000000000000000000000000000000007bffffffffffffffffffffffffffffffffffffffffffffffffffffffff19166020820180517bffffffffffffffffffffffffffffffffffffffffffffffffffffffff8381831617835250505050905061065e87612a13565b915060008273ffffffffffffffffffffffffffffffffffffffff16826040516106879190613e34565b6000604051808303816000865af19150503d80600081146106c4576040519150601f19603f3d011682016040523d82523d6000602084013e6106c9565b606091505b505090508061070d576040517f08c379a000000000000000000000000000000000000000000000000000000000815260040161070490613f2c565b60405180910390fd5b8473ffffffffffffffffffffffffffffffffffffffff1663797cab25846040518263ffffffff1660e01b815260040161074691906131ce565b600060405180830381600087803b15801561076057600080fd5b505af1158015610774573d6000803e3d6000fd5b5050505050505b610787838c8c8a612a27565b600180549050600260008573ffffffffffffffffffffffffffffffffffffffff1673ffffffffffffffffffffffffffffffffffffffff168152602001908152602001600020819055508273ffffffffffffffffffffffffffffffffffffffff167fc15d575826cdf3f792e13a89ca933aeca401669cd7c2ba5ce374b5ae3d833e8e8c8c8a806000019061081a9190613f5b565b8c60a001602081019061082d9190613fea565b60405161083e959493929190614053565b60405180910390a2829350505050979650505050505050565b60006005838360405161086b9291906140cc565b908152602001604051809103902080549050905092915050565b6000600380549050905090565b600381815481106108a257600080fd5b906000526020600020016000915090505481565b6060600060648311156108fe576040517f08c379a00000000000000000000000000000000000000000000000000000000081526004016108f590614131565b60405180910390fd5b6000600460008773ffffffffffffffffffffffffffffffffffffffff1673ffffffffffffffffffffffffffffffffffffffff16815260200190815260200160002090506000818054905090508086106109b257600067ffffffffffffffff81111561096c5761096b6138bd565b5b6040519080825280602002602001820160405280156109a557816020015b610992612e56565b81526020019060019003908161098a5790505b5081935093505050610f1b565b600085876109c09190614180565b9050818111156109ce578190505b600087826109dc91906141b4565b905060008167ffffffffffffffff8111156109fa576109f96138bd565b5b604051908082528060200260200182016040528015610a3357816020015b610a20612e56565b815260200190600190039081610a185790505b50905060005b82811015610f0e57600186828c610a509190614180565b81548110610a6157610a606141e8565b5b906000526020600020015481548110610a7d57610a7c6141e8565b5b90600052602060002090600a02016040518060a00160405290816000820160009054906101000a900473ffffffffffffffffffffffffffffffffffffffff1673ffffffffffffffffffffffffffffffffffffffff1673ffffffffffffffffffffffffffffffffffffffff168152602001600182016040518060c0016040529081600082018054610b0c90614246565b80601f0160208091040260200160405190810160405280929190818152602001828054610b3890614246565b8015610b855780601f10610b5a57610100808354040283529160200191610b85565b820191906000526020600020905b815481529060010190602001808311610b6857829003601f168201915b50505050508152602001600182018054610b9e90614246565b80601f0160208091040260200160405190810160405280929190818152602001828054610bca90614246565b8015610c175780601f10610bec57610100808354040283529160200191610c17565b820191906000526020600020905b815481529060010190602001808311610bfa57829003601f168201915b50505050508152602001600282018054610c3090614246565b80601f0160208091040260200160405190810160405280929190818152602001828054610c5c90614246565b8015610ca95780601f10610c7e57610100808354040283529160200191610ca9565b820191906000526020600020905b815481529060010190602001808311610c8c57829003601f168201915b50505050508152602001600382018054610cc290614246565b80601f0160208091040260200160405190810160405280929190818152602001828054610cee90614246565b8015610d3b5780601f10610d1057610100808354040283529160200191610d3b565b820191906000526020600020905b815481529060010190602001808311610d1e57829003601f168201915b50505050508152602001600482018054610d5490614246565b80601f0160208091040260200160405190810160405280929190818152602001828054610d8090614246565b8015610dcd5780601f10610da257610100808354040283529160200191610dcd565b820191906000526020600020905b815481529060010190602001808311610db057829003601f168201915b505050505081526020016005820160009054906101000a900460ff16151515158152505081526020016007820160009054906101000a900473ffffffffffffffffffffffffffffffffffffffff1673ffffffffffffffffffffffffffffffffffffffff1673ffffffffffffffffffffffffffffffffffffffff1681526020016008820154815260200160098201805480602002602001604051908101604052809291908181526020018280548015610eda57602002820191906000526020600020905b8160009054906101000a900473ffffffffffffffffffffffffffffffffffffffff1673ffffffffffffffffffffffffffffffffffffffff1681526020019060010190808311610e90575b505050505081525050828281518110610ef657610ef56141e8565b5b60200260200101819052508080600101915050610a39565b5080849650965050505050505b935093915050565b606060006064831115610f6b576040517f08c379a0000000000000000000000000000000000000000000000000000000008152600401610f6290614131565b60405180910390fd5b600060058787604051610f7f9291906140cc565b9081526020016040518091039020905060008180549050905080861061100057600067ffffffffffffffff811115610fba57610fb96138bd565b5b604051908082528060200260200182016040528015610ff357816020015b610fe0612e56565b815260200190600190039081610fd85790505b5081935093505050611569565b6000858761100e9190614180565b90508181111561101c578190505b6000878261102a91906141b4565b905060008167ffffffffffffffff811115611048576110476138bd565b5b60405190808252806020026020018201604052801561108157816020015b61106e612e56565b8152602001906001900390816110665790505b50905060005b8281101561155c57600186828c61109e9190614180565b815481106110af576110ae6141e8565b5b9060005260206000200154815481106110cb576110ca6141e8565b5b90600052602060002090600a02016040518060a00160405290816000820160009054906101000a900473ffffffffffffffffffffffffffffffffffffffff1673ffffffffffffffffffffffffffffffffffffffff1673ffffffffffffffffffffffffffffffffffffffff168152602001600182016040518060c001604052908160008201805461115a90614246565b80601f016020809104026020016040519081016040528092919081815260200182805461118690614246565b80156111d35780601f106111a8576101008083540402835291602001916111d3565b820191906000526020600020905b8154815290600101906020018083116111b657829003601f168201915b505050505081526020016001820180546111ec90614246565b80601f016020809104026020016040519081016040528092919081815260200182805461121890614246565b80156112655780601f1061123a57610100808354040283529160200191611265565b820191906000526020600020905b81548152906001019060200180831161124857829003601f168201915b5050505050815260200160028201805461127e90614246565b80601f01602080910402602001604051908101604052809291908181526020018280546112aa90614246565b80156112f75780601f106112cc576101008083540402835291602001916112f7565b820191906000526020600020905b8154815290600101906020018083116112da57829003601f168201915b5050505050815260200160038201805461131090614246565b80601f016020809104026020016040519081016040528092919081815260200182805461133c90614246565b80156113895780601f1061135e57610100808354040283529160200191611389565b820191906000526020600020905b81548152906001019060200180831161136c57829003601f168201915b505050505081526020016004820180546113a290614246565b80601f01602080910402602001604051908101604052809291908181526020018280546113ce90614246565b801561141b5780601f106113f05761010080835404028352916020019161141b565b820191906000526020600020905b8154815290600101906020018083116113fe57829003601f168201915b505050505081526020016005820160009054906101000a900460ff16151515158152505081526020016007820160009054906101000a900473ffffffffffffffffffffffffffffffffffffffff1673ffffffffffffffffffffffffffffffffffffffff1673ffffffffffffffffffffffffffffffffffffffff168152602001600882015481526020016009820180548060200260200160405190810160405280929190818152602001828054801561152857602002820191906000526020600020905b8160009054906101000a900473ffffffffffffffffffffffffffffffffffffffff1673ffffffffffffffffffffffffffffffffffffffff16815260200190600101908083116114de575b505050505081525050828281518110611544576115436141e8565b5b60200260200101819052508080600101915050611087565b5080849650965050505050505b94509492505050565b61157a612e56565b6000600260008473ffffffffffffffffffffffffffffffffffffffff1673ffffffffffffffffffffffffffffffffffffffff16815260200190815260200160002054905060008111611601576040517f08c379a00000000000000000000000000000000000000000000000000000000081526004016115f8906142c3565b60405180910390fd5b6001808261160f91906141b4565b815481106116205761161f6141e8565b5b90600052602060002090600a02016040518060a00160405290816000820160009054906101000a900473ffffffffffffffffffffffffffffffffffffffff1673ffffffffffffffffffffffffffffffffffffffff1673ffffffffffffffffffffffffffffffffffffffff168152602001600182016040518060c00160405290816000820180546116af90614246565b80601f01602080910402602001604051908101604052809291908181526020018280546116db90614246565b80156117285780601f106116fd57610100808354040283529160200191611728565b820191906000526020600020905b81548152906001019060200180831161170b57829003601f168201915b5050505050815260200160018201805461174190614246565b80601f016020809104026020016040519081016040528092919081815260200182805461176d90614246565b80156117ba5780601f1061178f576101008083540402835291602001916117ba565b820191906000526020600020905b81548152906001019060200180831161179d57829003601f168201915b505050505081526020016002820180546117d390614246565b80601f01602080910402602001604051908101604052809291908181526020018280546117ff90614246565b801561184c5780601f106118215761010080835404028352916020019161184c565b820191906000526020600020905b81548152906001019060200180831161182f57829003601f168201915b5050505050815260200160038201805461186590614246565b80601f016020809104026020016040519081016040528092919081815260200182805461189190614246565b80156118de5780601f106118b3576101008083540402835291602001916118de565b820191906000526020600020905b8154815290600101906020018083116118c157829003601f168201915b505050505081526020016004820180546118f790614246565b80601f016020809104026020016040519081016040528092919081815260200182805461192390614246565b80156119705780601f1061194557610100808354040283529160200191611970565b820191906000526020600020905b81548152906001019060200180831161195357829003601f168201915b505050505081526020016005820160009054906101000a900460ff16151515158152505081526020016007820160009054906101000a900473ffffffffffffffffffffffffffffffffffffffff1673ffffffffffffffffffffffffffffffffffffffff1673ffffffffffffffffffffffffffffffffffffffff1681526020016008820154815260200160098201805480602002602001604051908101604052809291908181526020018280548015611a7d57602002820191906000526020600020905b8160009054906101000a900473ffffffffffffffffffffffffffffffffffffffff1673ffffffffffffffffffffffffffffffffffffffff1681526020019060010190808311611a33575b505050505081525050915050919050565b611a96612e56565b6001805490508210611add576040517f08c379a0000000000000000000000000000000000000000000000000000000008152600401611ad49061432f565b60405180910390fd5b60018281548110611af157611af06141e8565b5b90600052602060002090600a02016040518060a00160405290816000820160009054906101000a900473ffffffffffffffffffffffffffffffffffffffff1673ffffffffffffffffffffffffffffffffffffffff1673ffffffffffffffffffffffffffffffffffffffff168152602001600182016040518060c0016040529081600082018054611b8090614246565b80601f0160208091040260200160405190810160405280929190818152602001828054611bac90614246565b8015611bf95780601f10611bce57610100808354040283529160200191611bf9565b820191906000526020600020905b815481529060010190602001808311611bdc57829003601f168201915b50505050508152602001600182018054611c1290614246565b80601f0160208091040260200160405190810160405280929190818152602001828054611c3e90614246565b8015611c8b5780601f10611c6057610100808354040283529160200191611c8b565b820191906000526020600020905b815481529060010190602001808311611c6e57829003601f168201915b50505050508152602001600282018054611ca490614246565b80601f0160208091040260200160405190810160405280929190818152602001828054611cd090614246565b8015611d1d5780601f10611cf257610100808354040283529160200191611d1d565b820191906000526020600020905b815481529060010190602001808311611d0057829003601f168201915b50505050508152602001600382018054611d3690614246565b80601f0160208091040260200160405190810160405280929190818152602001828054611d6290614246565b8015611daf5780601f10611d8457610100808354040283529160200191611daf565b820191906000526020600020905b815481529060010190602001808311611d9257829003601f168201915b50505050508152602001600482018054611dc890614246565b80601f0160208091040260200160405190810160405280929190818152602001828054611df490614246565b8015611e415780601f10611e1657610100808354040283529160200191611e41565b820191906000526020600020905b815481529060010190602001808311611e2457829003601f168201915b505050505081526020016005820160009054906101000a900460ff16151515158152505081526020016007820160009054906101000a900473ffffffffffffffffffffffffffffffffffffffff1673ffffffffffffffffffffffffffffffffffffffff1673ffffffffffffffffffffffffffffffffffffffff1681526020016008820154815260200160098201805480602002602001604051908101604052809291908181526020018280548015611f4e57602002820191906000526020600020905b8160009054906101000a900473ffffffffffffffffffffffffffffffffffffffff1673ffffffffffffffffffffffffffffffffffffffff1681526020019060010190808311611f04575b5050505050815250509050919050565b60046020528160005260406000208181548110611f7a57600080fd5b90600052602060002001600091509150505481565b606060006064831115611fd7576040517f08c379a0000000000000000000000000000000000000000000000000000000008152600401611fce90614131565b60405180910390fd5b6000600380549050905080851061204857600067ffffffffffffffff811115612003576120026138bd565b5b60405190808252806020026020018201604052801561203c57816020015b612029612e56565b8152602001906001900390816120215790505b508192509250506125b1565b600084866120569190614180565b905081811115612064578190505b6000868261207291906141b4565b905060008167ffffffffffffffff8111156120905761208f6138bd565b5b6040519080825280602002602001820160405280156120c957816020015b6120b6612e56565b8152602001906001900390816120ae5790505b50905060005b828110156125a55760016003828b6120e79190614180565b815481106120f8576120f76141e8565b5b906000526020600020015481548110612114576121136141e8565b5b90600052602060002090600a02016040518060a00160405290816000820160009054906101000a900473ffffffffffffffffffffffffffffffffffffffff1673ffffffffffffffffffffffffffffffffffffffff1673ffffffffffffffffffffffffffffffffffffffff168152602001600182016040518060c00160405290816000820180546121a390614246565b80601f01602080910402602001604051908101604052809291908181526020018280546121cf90614246565b801561221c5780601f106121f15761010080835404028352916020019161221c565b820191906000526020600020905b8154815290600101906020018083116121ff57829003601f168201915b5050505050815260200160018201805461223590614246565b80601f016020809104026020016040519081016040528092919081815260200182805461226190614246565b80156122ae5780601f10612283576101008083540402835291602001916122ae565b820191906000526020600020905b81548152906001019060200180831161229157829003601f168201915b505050505081526020016002820180546122c790614246565b80601f01602080910402602001604051908101604052809291908181526020018280546122f390614246565b80156123405780601f1061231557610100808354040283529160200191612340565b820191906000526020600020905b81548152906001019060200180831161232357829003601f168201915b5050505050815260200160038201805461235990614246565b80601f016020809104026020016040519081016040528092919081815260200182805461238590614246565b80156123d25780601f106123a7576101008083540402835291602001916123d2565b820191906000526020600020905b8154815290600101906020018083116123b557829003601f168201915b505050505081526020016004820180546123eb90614246565b80601f016020809104026020016040519081016040528092919081815260200182805461241790614246565b80156124645780601f1061243957610100808354040283529160200191612464565b820191906000526020600020905b81548152906001019060200180831161244757829003601f168201915b505050505081526020016005820160009054906101000a900460ff16151515158152505081526020016007820160009054906101000a900473ffffffffffffffffffffffffffffffffffffffff1673ffffffffffffffffffffffffffffffffffffffff1673ffffffffffffffffffffffffffffffffffffffff168152602001600882015481526020016009820180548060200260200160405190810160405280929190818152602001828054801561257157602002820191906000526020600020905b8160009054906101000a900473ffffffffffffffffffffffffffffffffffffffff1673ffffffffffffffffffffffffffffffffffffffff1681526020019060010190808311612527575b50505050508152505082828151811061258d5761258c6141e8565b5b602002602001018190525080806001019150506120cf565b50808495509550505050505b9250929050565b60058280516020810182018051848252602083016020850120818352809550505050505081815481106125ea57600080fd5b90600052602060002001600091509150505481565b6000600460008373ffffffffffffffffffffffffffffffffffffffff1673ffffffffffffffffffffffffffffffffffffffff168152602001908152602001600020805490509050919050565b6001818154811061265b57600080fd5b90600052602060002090600a02016000915090508060000160009054906101000a900473ffffffffffffffffffffffffffffffffffffffff1690806001016040518060c00160405290816000820180546126b490614246565b80601f01602080910402602001604051908101604052809291908181526020018280546126e090614246565b801561272d5780601f106127025761010080835404028352916020019161272d565b820191906000526020600020905b81548152906001019060200180831161271057829003601f168201915b5050505050815260200160018201805461274690614246565b80601f016020809104026020016040519081016040528092919081815260200182805461277290614246565b80156127bf5780601f10612794576101008083540402835291602001916127bf565b820191906000526020600020905b8154815290600101906020018083116127a257829003601f168201915b505050505081526020016002820180546127d890614246565b80601f016020809104026020016040519081016040528092919081815260200182805461280490614246565b80156128515780601f1061282657610100808354040283529160200191612851565b820191906000526020600020905b81548152906001019060200180831161283457829003601f168201915b5050505050815260200160038201805461286a90614246565b80601f016020809104026020016040519081016040528092919081815260200182805461289690614246565b80156128e35780601f106128b8576101008083540402835291602001916128e3565b820191906000526020600020905b8154815290600101906020018083116128c657829003601f168201915b505050505081526020016004820180546128fc90614246565b80601f016020809104026020016040519081016040528092919081815260200182805461292890614246565b80156129755780601f1061294a57610100808354040283529160200191612975565b820191906000526020600020905b81548152906001019060200180831161295857829003601f168201915b505050505081526020016005820160009054906101000a900460ff161515151581525050908060070160009054906101000a900473ffffffffffffffffffffffffffffffffffffffff16908060080154905084565b60008054906101000a900473ffffffffffffffffffffffffffffffffffffffff1681565b6000600180549050905090565b60026020528060005260406000206000915090505481565b6000612a20826000612d5e565b9050919050565b60006040518060a001604052808673ffffffffffffffffffffffffffffffffffffffff16815260200183612a5a90614485565b81526020013373ffffffffffffffffffffffffffffffffffffffff168152602001428152602001858580806020026020016040519081016040528093929190818152602001838360200280828437600081840152601f19601f82011690508083019250505050505050815250905060018190806001815401808255809150506001900390600052602060002090600a020160009091909190915060008201518160000160006101000a81548173ffffffffffffffffffffffffffffffffffffffff021916908373ffffffffffffffffffffffffffffffffffffffff1602179055506020820151816001016000820151816000019081612b599190614644565b506020820151816001019081612b6f9190614644565b506040820151816002019081612b859190614644565b506060820151816003019081612b9b9190614644565b506080820151816004019081612bb19190614644565b5060a08201518160050160006101000a81548160ff021916908315150217905550505060408201518160070160006101000a81548173ffffffffffffffffffffffffffffffffffffffff021916908373ffffffffffffffffffffffffffffffffffffffff160217905550606082015181600801556080820151816009019080519060200190612c41929190612eb7565b505050600060018080549050612c5791906141b4565b90508260a0016020810190612c6c9190613fea565b15612c9b5760038190806001815401808255809150506001900390600052602060002001600090919091909150555b600460003373ffffffffffffffffffffffffffffffffffffffff1673ffffffffffffffffffffffffffffffffffffffff1681526020019081526020016000208190806001815401808255809150506001900390600052602060002001600090919091909150556005838060400190612d139190613f5b565b604051612d219291906140cc565b9081526020016040518091039020819080600181540180825580915050600190039060005260206000200160009091909190915055505050505050565b600081471015612da75747826040517fcf479181000000000000000000000000000000000000000000000000000000008152600401612d9e929190614716565b60405180910390fd5b763d602d80600a3d3981f3363d3d373d3d3d363d730000008360601b60e81c176000526e5af43d82803e903d91602b57fd5bf38360781b176020526037600983f09050600073ffffffffffffffffffffffffffffffffffffffff168173ffffffffffffffffffffffffffffffffffffffff1603612e50576040517fb06ebf3d00000000000000000000000000000000000000000000000000000000815260040160405180910390fd5b92915050565b6040518060a00160405280600073ffffffffffffffffffffffffffffffffffffffff168152602001612e86612f41565b8152602001600073ffffffffffffffffffffffffffffffffffffffff16815260200160008152602001606081525090565b828054828255906000526020600020908101928215612f30579160200282015b82811115612f2f5782518260006101000a81548173ffffffffffffffffffffffffffffffffffffffff021916908373ffffffffffffffffffffffffffffffffffffffff16021790555091602001919060010190612ed7565b5b509050612f3d9190612f79565b5090565b6040518060c0016040528060608152602001606081526020016060815260200160608152602001606081526020016000151581525090565b5b80821115612f92576000816000905550600101612f7a565b5090565b6000604051905090565b600080fd5b600080fd5b600080fd5b600080fd5b600080fd5b60008083601f840112612fcf57612fce612faa565b5b8235905067ffffffffffffffff811115612fec57612feb612faf565b5b60208301915083602082028301111561300857613007612fb4565b5b9250929050565b60008083601f84011261302557613024612faa565b5b8235905067ffffffffffffffff81111561304257613041612faf565b5b60208301915083602082028301111561305e5761305d612fb4565b5b9250929050565b600080fd5b600060c082840312156130805761307f613065565b5b81905092915050565b600073ffffffffffffffffffffffffffffffffffffffff82169050919050565b60006130b482613089565b9050919050565b6130c4816130a9565b81146130cf57600080fd5b50565b6000813590506130e1816130bb565b92915050565b600080600080600080600060a0888a03121561310657613105612fa0565b5b600088013567ffffffffffffffff81111561312457613123612fa5565b5b6131308a828b01612fb9565b9750975050602088013567ffffffffffffffff81111561315357613152612fa5565b5b61315f8a828b0161300f565b9550955050604088013567ffffffffffffffff81111561318257613181612fa5565b5b61318e8a828b0161306a565b935050606061319f8a828b016130d2565b92505060806131b08a828b016130d2565b91505092959891949750929550565b6131c8816130a9565b82525050565b60006020820190506131e360008301846131bf565b92915050565b60008083601f8401126131ff576131fe612faa565b5b8235905067ffffffffffffffff81111561321c5761321b612faf565b5b60208301915083600182028301111561323857613237612fb4565b5b9250929050565b6000806020838503121561325657613255612fa0565b5b600083013567ffffffffffffffff81111561327457613273612fa5565b5b613280858286016131e9565b92509250509250929050565b6000819050919050565b61329f8161328c565b82525050565b60006020820190506132ba6000830184613296565b92915050565b6132c98161328c565b81146132d457600080fd5b50565b6000813590506132e6816132c0565b92915050565b60006020828403121561330257613301612fa0565b5b6000613310848285016132d7565b91505092915050565b60008060006060848603121561333257613331612fa0565b5b6000613340868287016130d2565b9350506020613351868287016132d7565b9250506040613362868287016132d7565b9150509250925092565b600081519050919050565b600082825260208201905092915050565b6000819050602082019050919050565b6133a1816130a9565b82525050565b600081519050919050565b600082825260208201905092915050565b60005b838110156133e15780820151818401526020810190506133c6565b60008484015250505050565b6000601f19601f8301169050919050565b6000613409826133a7565b61341381856133b2565b93506134238185602086016133c3565b61342c816133ed565b840191505092915050565b60008115159050919050565b61344c81613437565b82525050565b600060c083016000830151848203600086015261346f82826133fe565b9150506020830151848203602086015261348982826133fe565b915050604083015184820360408601526134a382826133fe565b915050606083015184820360608601526134bd82826133fe565b915050608083015184820360808601526134d782826133fe565b91505060a08301516134ec60a0860182613443565b508091505092915050565b6135008161328c565b82525050565b600081519050919050565b600082825260208201905092915050565b6000819050602082019050919050565b600061353e8383613398565b60208301905092915050565b6000602082019050919050565b600061356282613506565b61356c8185613511565b935061357783613522565b8060005b838110156135a857815161358f8882613532565b975061359a8361354a565b92505060018101905061357b565b5085935050505092915050565b600060a0830160008301516135cd6000860182613398565b50602083015184820360208601526135e58282613452565b91505060408301516135fa6040860182613398565b50606083015161360d60608601826134f7565b50608083015184820360808601526136258282613557565b9150508091505092915050565b600061363e83836135b5565b905092915050565b6000602082019050919050565b600061365e8261336c565b6136688185613377565b93508360208202850161367a85613388565b8060005b858110156136b657848403895281516136978582613632565b94506136a283613646565b925060208a0199505060018101905061367e565b50829750879550505050505092915050565b600060408201905081810360008301526136e28185613653565b90506136f16020830184613296565b9392505050565b6000806000806060858703121561371257613711612fa0565b5b600085013567ffffffffffffffff8111156137305761372f612fa5565b5b61373c878288016131e9565b9450945050602061374f878288016132d7565b9250506040613760878288016132d7565b91505092959194509250565b60006020828403121561378257613781612fa0565b5b6000613790848285016130d2565b91505092915050565b600060a0830160008301516137b16000860182613398565b50602083015184820360208601526137c98282613452565b91505060408301516137de6040860182613398565b5060608301516137f160608601826134f7565b50608083015184820360808601526138098282613557565b9150508091505092915050565b600060208201905081810360008301526138308184613799565b905092915050565b6000806040838503121561384f5761384e612fa0565b5b600061385d858286016130d2565b925050602061386e858286016132d7565b9150509250929050565b6000806040838503121561388f5761388e612fa0565b5b600061389d858286016132d7565b92505060206138ae858286016132d7565b9150509250929050565b600080fd5b7f4e487b7100000000000000000000000000000000000000000000000000000000600052604160045260246000fd5b6138f5826133ed565b810181811067ffffffffffffffff82111715613914576139136138bd565b5b80604052505050565b6000613927612f96565b905061393382826138ec565b919050565b600067ffffffffffffffff821115613953576139526138bd565b5b61395c826133ed565b9050602081019050919050565b82818337600083830152505050565b600061398b61398684613938565b61391d565b9050828152602081018484840111156139a7576139a66138b8565b5b6139b2848285613969565b509392505050565b600082601f8301126139cf576139ce612faa565b5b81356139df848260208601613978565b91505092915050565b600080604083850312156139ff576139fe612fa0565b5b600083013567ffffffffffffffff811115613a1d57613a1c612fa5565b5b613a29858286016139ba565b9250506020613a3a858286016132d7565b9150509250929050565b600060c0830160008301518482036000860152613a6182826133fe565b91505060208301518482036020860152613a7b82826133fe565b91505060408301518482036040860152613a9582826133fe565b91505060608301518482036060860152613aaf82826133fe565b91505060808301518482036080860152613ac982826133fe565b91505060a0830151613ade60a0860182613443565b508091505092915050565b6000608082019050613afe60008301876131bf565b8181036020830152613b108186613a44565b9050613b1f60408301856131bf565b613b2c6060830184613296565b95945050505050565b600082825260208201905092915050565b7f4d6f64756c65732f696e697444617461206c656e677468206d69736d61746368600082015250565b6000613b7c602083613b35565b9150613b8782613b46565b602082019050919050565b60006020820190508181036000830152613bab81613b6f565b9050919050565b600082825260208201905092915050565b6000819050919050565b6000613bdc60208401846130d2565b905092915050565b6000602082019050919050565b6000613bfd8385613bb2565b9350613c0882613bc3565b8060005b85811015613c4157613c1e8284613bcd565b613c288882613532565b9750613c3383613be4565b925050600181019050613c0c565b5085925050509392505050565b600082825260208201905092915050565b6000819050919050565b600082825260208201905092915050565b6000613c868385613c69565b9350613c93838584613969565b613c9c836133ed565b840190509392505050565b6000613cb4848484613c7a565b90509392505050565b600080fd5b600080fd5b600080fd5b60008083356001602003843603038112613ce957613ce8613cc7565b5b83810192508235915060208301925067ffffffffffffffff821115613d1157613d10613cbd565b5b600182023603831315613d2757613d26613cc2565b5b509250929050565b6000602082019050919050565b6000613d488385613c4e565b935083602084028501613d5a84613c5f565b8060005b87811015613da0578484038952613d758284613ccc565b613d80868284613ca7565b9550613d8b84613d2f565b935060208b019a505050600181019050613d5e565b50829750879450505050509392505050565b60006040820190508181036000830152613dcd818688613bf1565b90508181036020830152613de2818486613d3c565b905095945050505050565b600081519050919050565b600081905092915050565b6000613e0e82613ded565b613e188185613df8565b9350613e288185602086016133c3565b80840191505092915050565b6000613e408284613e03565b915081905092915050565b7f496e697469616c697a6174696f6e206661696c65640000000000000000000000600082015250565b6000613e81601583613b35565b9150613e8c82613e4b565b602082019050919050565b60006020820190508181036000830152613eb081613e74565b9050919050565b6000604082019050613ecc60008301856131bf565b613ed960208301846131bf565b9392505050565b7f54726561737572794d6f64756c6520696e6974206661696c6564000000000000600082015250565b6000613f16601a83613b35565b9150613f2182613ee0565b602082019050919050565b60006020820190508181036000830152613f4581613f09565b9050919050565b600080fd5b600080fd5b600080fd5b60008083356001602003843603038112613f7857613f77613f4c565b5b80840192508235915067ffffffffffffffff821115613f9a57613f99613f51565b5b602083019250600182023603831315613fb657613fb5613f56565b5b509250929050565b613fc781613437565b8114613fd257600080fd5b50565b600081359050613fe481613fbe565b92915050565b60006020828403121561400057613fff612fa0565b5b600061400e84828501613fd5565b91505092915050565b60006140238385613b35565b9350614030838584613969565b614039836133ed565b840190509392505050565b61404d81613437565b82525050565b6000606082019050818103600083015261406e818789613bf1565b90508181036020830152614083818587614017565b90506140926040830184614044565b9695505050505050565b600081905092915050565b60006140b3838561409c565b93506140c0838584613969565b82840190509392505050565b60006140d98284866140a7565b91508190509392505050565b7f4c696d697420746f6f2068696768000000000000000000000000000000000000600082015250565b600061411b600e83613b35565b9150614126826140e5565b602082019050919050565b6000602082019050818103600083015261414a8161410e565b9050919050565b7f4e487b7100000000000000000000000000000000000000000000000000000000600052601160045260246000fd5b600061418b8261328c565b91506141968361328c565b92508282019050808211156141ae576141ad614151565b5b92915050565b60006141bf8261328c565b91506141ca8361328c565b92508282039050818111156141e2576141e1614151565b5b92915050565b7f4e487b7100000000000000000000000000000000000000000000000000000000600052603260045260246000fd5b7f4e487b7100000000000000000000000000000000000000000000000000000000600052602260045260246000fd5b6000600282049050600182168061425e57607f821691505b60208210810361427157614270614217565b5b50919050565b7f44414f206e6f7420666f756e6400000000000000000000000000000000000000600082015250565b60006142ad600d83613b35565b91506142b882614277565b602082019050919050565b600060208201905081810360008301526142dc816142a0565b9050919050565b7f496e646578206f7574206f6620626f756e647300000000000000000000000000600082015250565b6000614319601383613b35565b9150614324826142e3565b602082019050919050565b600060208201905081810360008301526143488161430c565b9050919050565b600080fd5b600080fd5b600060c0828403121561436f5761436e61434f565b5b61437960c061391d565b9050600082013567ffffffffffffffff81111561439957614398614354565b5b6143a5848285016139ba565b600083015250602082013567ffffffffffffffff8111156143c9576143c8614354565b5b6143d5848285016139ba565b602083015250604082013567ffffffffffffffff8111156143f9576143f8614354565b5b614405848285016139ba565b604083015250606082013567ffffffffffffffff81111561442957614428614354565b5b614435848285016139ba565b606083015250608082013567ffffffffffffffff81111561445957614458614354565b5b614465848285016139ba565b60808301525060a061447984828501613fd5565b60a08301525092915050565b60006144913683614359565b9050919050565b60008190508160005260206000209050919050565b60006020601f8301049050919050565b600082821b905092915050565b6000600883026144fa7fffffffffffffffffffffffffffffffffffffffffffffffffffffffffffffffff826144bd565b61450486836144bd565b95508019841693508086168417925050509392505050565b6000819050919050565b600061454161453c6145378461328c565b61451c565b61328c565b9050919050565b6000819050919050565b61455b83614526565b61456f61456782614548565b8484546144ca565b825550505050565b600090565b614584614577565b61458f818484614552565b505050565b5b818110156145b3576145a860008261457c565b600181019050614595565b5050565b601f8211156145f8576145c981614498565b6145d2846144ad565b810160208510156145e1578190505b6145f56145ed856144ad565b830182614594565b50505b505050565b600082821c905092915050565b600061461b600019846008026145fd565b1980831691505092915050565b6000614634838361460a565b9150826002028217905092915050565b61464d826133a7565b67ffffffffffffffff811115614666576146656138bd565b5b6146708254614246565b61467b8282856145b7565b600060209050601f8311600181146146ae576000841561469c578287015190505b6146a68582614628565b86555061470e565b601f1984166146bc86614498565b60005b828110156146e4578489015182556001820191506020850194506020810190506146bf565b8683101561470157848901516146fd601f89168261460a565b8355505b6001600288020188555050505b505050505050565b600060408201905061472b6000830185613296565b6147386020830184613296565b939250505056fea26469706673582212201a5e992a3f2d89910412c0bfb6be2000b65f8678bbe0f1b2b3d2aec266342a2464736f6c634300081c0033",
  "linkReferences": {},
  "deployedLinkReferences": {}
}