{
  "_format": "hh-sol-artifact-1",
  "contractName": "DaoFactory",
  "sourceName": "contracts/contracts/dao/DaoFactory.sol",
  "abi": [
    {
      "inputs": [
        {
          "internalType": "address",
          "name": "_kernelImpl",
          "type": "address"
        }
      ],
      "stateMutability": "nonpayable",
      "type": "constructor"
    },
    {
      "inputs": [],
      "name": "FailedDeployment",
      "type": "error"
    },
    {
      "inputs": [
        {
          "internalType": "uint256",
          "name": "balance",
          "type": "uint256"
        },
        {
          "internalType": "uint256",
          "name": "needed",
          "type": "uint256"
        }
      ],
      "name": "InsufficientBalance",
      "type": "error"
    },
    {
      "anonymous": false,
      "inputs": [
        {
          "indexed": true,
          "internalType": "address",
          "name": "dao",
          "type": "address"
        },
        {
          "indexed": false,
          "internalType": "address[]",
          "name": "modules",
          "type": "address[]"
        },
        {
          "indexed": false,
          "internalType": "string",
          "name": "name",
          "type": "string"
        },
        {
          "indexed": false,
          "internalType": "bool",
          "name": "isPublic",
          "type": "bool"
        }
      ],
      "name": "DaoCreated",
      "type": "event"
    },
    {
      "inputs": [
        {
          "internalType": "address[]",
          "name": "modules",
          "type": "address[]"
        },
        {
          "internalType": "bytes[]",
          "name": "initData",
          "type": "bytes[]"
        },
        {
          "components": [
            {
              "internalType": "string",
              "name": "name",
              "type": "string"
            },
            {
              "internalType": "string",
              "name": "description",
              "type": "string"
            },
            {
              "internalType": "string",
              "name": "templateId",
              "type": "string"
            },
            {
              "internalType": "string",
              "name": "mandate",
              "type": "string"
            },
            {
              "internalType": "string",
              "name": "intendedAudience",
              "type": "string"
            },
            {
              "internalType": "bool",
              "name": "isPublic",
              "type": "bool"
            }
          ],
          "internalType": "struct DaoFactory.DaoMetadata",
          "name": "metadata",
          "type": "tuple"
        },
        {
          "internalType": "address",
          "name": "treasuryLogic",
          "type": "address"
        },
        {
          "internalType": "address",
          "name": "treasuryToken",
          "type": "address"
        }
      ],
      "name": "createDao",
      "outputs": [
        {
          "internalType": "address",
          "name": "",
          "type": "address"
        }
      ],
      "stateMutability": "nonpayable",
      "type": "function"
    },
    {
      "inputs": [
        {
          "internalType": "address",
          "name": "",
          "type": "address"
        },
        {
          "internalType": "uint256",
          "name": "",
          "type": "uint256"
        }
      ],
      "name": "creatorToDaoIndexes",
      "outputs": [
        {
          "internalType": "uint256",
          "name": "",
          "type": "uint256"
        }
      ],
      "stateMutability": "view",
      "type": "function"
    },
    {
      "inputs": [
        {
          "internalType": "address",
          "name": "",
          "type": "address"
        }
      ],
      "name": "daoIndex",
      "outputs": [
        {
          "internalType": "uint256",
          "name": "",
          "type": "uint256"
        }
      ],
      "stateMutability": "view",
      "type": "function"
    },
    {
      "inputs": [
        {
          "internalType": "uint256",
          "name": "",
          "type": "uint256"
        }
      ],
      "name": "daos",
      "outputs": [
        {
          "internalType": "address",
          "name": "dao",
          "type": "address"
        },
        {
          "components": [
            {
              "internalType": "string",
              "name": "name",
              "type": "string"
            },
            {
              "internalType": "string",
              "name": "description",
              "type": "string"
            },
            {
              "internalType": "string",
              "name": "templateId",
              "type": "string"
            },
            {
              "internalType": "string",
              "name": "mandate",
              "type": "string"
            },
            {
              "internalType": "string",
              "name": "intendedAudience",
              "type": "string"
            },
            {
              "internalType": "bool",
              "name": "isPublic",
              "type": "bool"
            }
          ],
          "internalType": "struct DaoFactory.DaoMetadata",
          "name": "metadata",
          "type": "tuple"
        },
        {
          "internalType": "address",
          "name": "creator",
          "type": "address"
        },
        {
          "internalType": "uint256",
          "name": "createdAt",
          "type": "uint256"
        }
      ],
      "stateMutability": "view",
      "type": "function"
    },
    {
      "inputs": [],
      "name": "getDaoCount",
      "outputs": [
        {
          "internalType": "uint256",
          "name": "",
          "type": "uint256"
        }
      ],
      "stateMutability": "view",
      "type": "function"
    },
    {
      "inputs": [
        {
          "internalType": "address",
          "name": "creator",
          "type": "address"
        }
      ],
      "name": "getDaoCountByCreator",
      "outputs": [
        {
          "internalType": "uint256",
          "name": "",
          "type": "uint256"
        }
      ],
      "stateMutability": "view",
      "type": "function"
    },
    {
      "inputs": [
        {
          "internalType": "string",
          "name": "templateId",
          "type": "string"
        }
      ],
      "name": "getDaoCountByTemplate",
      "outputs": [
        {
          "internalType": "uint256",
          "name": "",
          "type": "uint256"
        }
      ],
      "stateMutability": "view",
      "type": "function"
    },
    {
      "inputs": [
        {
          "internalType": "uint256",
          "name": "index",
          "type": "uint256"
        }
      ],
      "name": "getDaoInfo",
      "outputs": [
        {
          "components": [
            {
              "internalType": "address",
              "name": "dao",
              "type": "address"
            },
            {
              "components": [
                {
                  "internalType": "string",
                  "name": "name",
                  "type": "string"
                },
                {
                  "internalType": "string",
                  "name": "description",
                  "type": "string"
                },
                {
                  "internalType": "string",
                  "name": "templateId",
                  "type": "string"
                },
                {
                  "internalType": "string",
                  "name": "mandate",
                  "type": "string"
                },
                {
                  "internalType": "string",
                  "name": "intendedAudience",
                  "type": "string"
                },
                {
                  "internalType": "bool",
                  "name": "isPublic",
                  "type": "bool"
                }
              ],
              "internalType": "struct DaoFactory.DaoMetadata",
              "name": "metadata",
              "type": "tuple"
            },
            {
              "internalType": "address",
              "name": "creator",
              "type": "address"
            },
            {
              "internalType": "uint256",
              "name": "createdAt",
              "type": "uint256"
            },
            {
              "internalType": "address[]",
              "name": "modules",
              "type": "address[]"
            }
          ],
          "internalType": "struct DaoFactory.DaoInfo",
          "name": "",
          "type": "tuple"
        }
      ],
      "stateMutability": "view",
      "type": "function"
    },
    {
      "inputs": [
        {
          "internalType": "address",
          "name": "creator",
          "type": "address"
        },
        {
          "internalType": "uint256",
          "name": "offset",
          "type": "uint256"
        },
        {
          "internalType": "uint256",
          "name": "limit",
          "type": "uint256"
        }
      ],
      "name": "getDaosByCreatorPaginated",
      "outputs": [
        {
          "components": [
            {
              "internalType": "address",
              "name": "dao",
              "type": "address"
            },
            {
              "components": [
                {
                  "internalType": "string",
                  "name": "name",
                  "type": "string"
                },
                {
                  "internalType": "string",
                  "name": "description",
                  "type": "string"
                },
                {
                  "internalType": "string",
                  "name": "templateId",
                  "type": "string"
                },
                {
                  "internalType": "string",
                  "name": "mandate",
                  "type": "string"
                },
                {
                  "internalType": "string",
                  "name": "intendedAudience",
                  "type": "string"
                },
                {
                  "internalType": "bool",
                  "name": "isPublic",
                  "type": "bool"
                }
              ],
              "internalType": "struct DaoFactory.DaoMetadata",
              "name": "metadata",
              "type": "tuple"
            },
            {
              "internalType": "address",
              "name": "creator",
              "type": "address"
            },
            {
              "internalType": "uint256",
              "name": "createdAt",
              "type": "uint256"
            },
            {
              "internalType": "address[]",
              "name": "modules",
              "type": "address[]"
            }
          ],
          "internalType": "struct DaoFactory.DaoInfo[]",
          "name": "",
          "type": "tuple[]"
        },
        {
          "internalType": "uint256",
          "name": "total",
          "type": "uint256"
        }
      ],
      "stateMutability": "view",
      "type": "function"
    },
    {
      "inputs": [
        {
          "internalType": "string",
          "name": "templateId",
          "type": "string"
        },
        {
          "internalType": "uint256",
          "name": "offset",
          "type": "uint256"
        },
        {
          "internalType": "uint256",
          "name": "limit",
          "type": "uint256"
        }
      ],
      "name": "getDaosByTemplatePaginated",
      "outputs": [
        {
          "components": [
            {
              "internalType": "address",
              "name": "dao",
              "type": "address"
            },
            {
              "components": [
                {
                  "internalType": "string",
                  "name": "name",
                  "type": "string"
                },
                {
                  "internalType": "string",
                  "name": "description",
                  "type": "string"
                },
                {
                  "internalType": "string",
                  "name": "templateId",
                  "type": "string"
                },
                {
                  "internalType": "string",
                  "name": "mandate",
                  "type": "string"
                },
                {
                  "internalType": "string",
                  "name": "intendedAudience",
                  "type": "string"
                },
                {
                  "internalType": "bool",
                  "name": "isPublic",
                  "type": "bool"
                }
              ],
              "internalType": "struct DaoFactory.DaoMetadata",
              "name": "metadata",
              "type": "tuple"
            },
            {
              "internalType": "address",
              "name": "creator",
              "type": "address"
            },
            {
              "internalType": "uint256",
              "name": "createdAt",
              "type": "uint256"
            },
            {
              "internalType": "address[]",
              "name": "modules",
              "type": "address[]"
            }
          ],
          "internalType": "struct DaoFactory.DaoInfo[]",
          "name": "",
          "type": "tuple[]"
        },
        {
          "internalType": "uint256",
          "name": "total",
          "type": "uint256"
        }
      ],
      "stateMutability": "view",
      "type": "function"
    },
    {
      "inputs": [],
      "name": "getPublicDaoCount",
      "outputs": [
        {
          "internalType": "uint256",
          "name": "",
          "type": "uint256"
        }
      ],
      "stateMutability": "view",
      "type": "function"
    },
    {
      "inputs": [
        {
          "internalType": "uint256",
          "name": "offset",
          "type": "uint256"
        },
        {
          "internalType": "uint256",
          "name": "limit",
          "type": "uint256"
        }
      ],
      "name": "getPublicDaosPaginated",
      "outputs": [
        {
          "components": [
            {
              "internalType": "address",
              "name": "dao",
              "type": "address"
            },
            {
              "components": [
                {
                  "internalType": "string",
                  "name": "name",
                  "type": "string"
                },
                {
                  "internalType": "string",
                  "name": "description",
                  "type": "string"
                },
                {
                  "internalType": "string",
                  "name": "templateId",
                  "type": "string"
                },
                {
                  "internalType": "string",
                  "name": "mandate",
                  "type": "string"
                },
                {
                  "internalType": "string",
                  "name": "intendedAudience",
                  "type": "string"
                },
                {
                  "internalType": "bool",
                  "name": "isPublic",
                  "type": "bool"
                }
              ],
              "internalType": "struct DaoFactory.DaoMetadata",
              "name": "metadata",
              "type": "tuple"
            },
            {
              "internalType": "address",
              "name": "creator",
              "type": "address"
            },
            {
              "internalType": "uint256",
              "name": "createdAt",
              "type": "uint256"
            },
            {
              "internalType": "address[]",
              "name": "modules",
              "type": "address[]"
            }
          ],
          "internalType": "struct DaoFactory.DaoInfo[]",
          "name": "",
          "type": "tuple[]"
        },
        {
          "internalType": "uint256",
          "name": "total",
          "type": "uint256"
        }
      ],
      "stateMutability": "view",
      "type": "function"
    },
    {
      "inputs": [],
      "name": "kernelImpl",
      "outputs": [
        {
          "internalType": "address",
          "name": "",
          "type": "address"
        }
      ],
      "stateMutability": "view",
      "type": "function"
    },
    {
      "inputs": [
        {
          "internalType": "uint256",
          "name": "",
          "type": "uint256"
        }
      ],
      "name": "publicDaoIndexes",
      "outputs": [
        {
          "internalType": "uint256",
          "name": "",
          "type": "uint256"
        }
      ],
      "stateMutability": "view",
      "type": "function"
    },
    {
      "inputs": [
        {
          "internalType": "string",
          "name": "",
          "type": "string"
        },
        {
          "internalType": "uint256",
          "name": "",
          "type": "uint256"
        }
      ],
      "name": "templateToDaoIndexes",
      "outputs": [
        {
          "internalType": "uint256",
          "name": "",
          "type": "uint256"
        }
      ],
      "stateMutability": "view",
      "type": "function"
    }
  ],
  "bytecode": "0x608060405234801561001057600080fd5b506040516142c93803806142c9833981810160405281019061003291906100db565b806000806101000a81548173ffffffffffffffffffffffffffffffffffffffff021916908373ffffffffffffffffffffffffffffffffffffffff16021790555050610108565b600080fd5b600073ffffffffffffffffffffffffffffffffffffffff82169050919050565b60006100a88261007d565b9050919050565b6100b88161009d565b81146100c357600080fd5b50565b6000815190506100d5816100af565b92915050565b6000602082840312156100f1576100f0610078565b5b60006100ff848285016100c6565b91505092915050565b6141b2806101176000396000f3fe608060405234801561001057600080fd5b50600436106100f55760003560e01c80636e011eda11610097578063ccbbd26011610066578063ccbbd260146102fb578063d29200911461032e578063d4d8f8921461034c578063f55e838f1461036a576100f5565b80636e011eda1461023a5780637bda50751461026a578063811770ad1461029b5780639a7c0a83146102cb576100f5565b8063234805ba116100d3578063234805ba146101785780633af08f22146101a8578063522d13cd146101d957806369ae1a4e1461020a576100f5565b80630f1961e6146100fa5780631faed3701461012a578063219a2aae1461015a575b600080fd5b610114600480360381019061010f9190612b90565b61039a565b6040516101219190612c77565b60405180910390f35b610144600480360381019061013f9190612ce8565b61081c565b6040516101519190612d4e565b60405180910390f35b61016261084a565b60405161016f9190612d4e565b60405180910390f35b610192600480360381019061018d9190612d95565b610857565b60405161019f9190612d4e565b60405180910390f35b6101c260048036038101906101bd9190612dc2565b61087b565b6040516101d0929190613171565b60405180910390f35b6101f360048036038101906101ee91906131a1565b610ee8565b604051610201929190613171565b60405180910390f35b610224600480360381019061021f9190612d95565b611537565b6040516102319190613292565b60405180910390f35b610254600480360381019061024f91906132b4565b611a07565b6040516102619190612d4e565b60405180910390f35b610284600480360381019061027f91906132f4565b611a38565b604051610292929190613171565b60405180910390f35b6102b560048036038101906102b09190613464565b612061565b6040516102c29190612d4e565b60405180910390f35b6102e560048036038101906102e091906134c0565b6120a8565b6040516102f29190612d4e565b60405180910390f35b61031560048036038101906103109190612d95565b6120f4565b6040516103259493929190613592565b60405180910390f35b610336612473565b6040516103439190612c77565b60405180910390f35b610354612497565b6040516103619190612d4e565b60405180910390f35b610384600480360381019061037f91906134c0565b6124a4565b6040516103919190612d4e565b60405180910390f35b60008585905088889050146103e4576040517f08c379a00000000000000000000000000000000000000000000000000000000081526004016103db9061363b565b60405180910390fd5b600061040f60008054906101000a900473ffffffffffffffffffffffffffffffffffffffff166124bc565b905060008173ffffffffffffffffffffffffffffffffffffffff168a8a8a8a604051602401610441949392919061385b565b6040516020818303038152906040527f912083db000000000000000000000000000000000000000000000000000000007bffffffffffffffffffffffffffffffffffffffffffffffffffffffff19166020820180517bffffffffffffffffffffffffffffffffffffffffffffffffffffffff83818316178352505050506040516104cb91906138dd565b6000604051808303816000865af19150503d8060008114610508576040519150601f19603f3d011682016040523d82523d6000602084013e61050d565b606091505b5050905080610551576040517f08c379a000000000000000000000000000000000000000000000000000000000815260040161054890613940565b60405180910390fd5b60008073ffffffffffffffffffffffffffffffffffffffff168673ffffffffffffffffffffffffffffffffffffffff1614610740576000858460405160240161059b929190613960565b6040516020818303038152906040527f485cc955000000000000000000000000000000000000000000000000000000007bffffffffffffffffffffffffffffffffffffffffffffffffffffffff19166020820180517bffffffffffffffffffffffffffffffffffffffffffffffffffffffff83818316178352505050509050610623876124bc565b915060008273ffffffffffffffffffffffffffffffffffffffff168260405161064c91906138dd565b6000604051808303816000865af19150503d8060008114610689576040519150601f19603f3d011682016040523d82523d6000602084013e61068e565b606091505b50509050806106d2576040517f08c379a00000000000000000000000000000000000000000000000000000000081526004016106c9906139d5565b60405180910390fd5b8473ffffffffffffffffffffffffffffffffffffffff1663797cab25846040518263ffffffff1660e01b815260040161070b9190612c77565b600060405180830381600087803b15801561072557600080fd5b505af1158015610739573d6000803e3d6000fd5b5050505050505b61074c838c8c8a6124d0565b600180549050600260008573ffffffffffffffffffffffffffffffffffffffff1673ffffffffffffffffffffffffffffffffffffffff168152602001908152602001600020819055508273ffffffffffffffffffffffffffffffffffffffff167fc15d575826cdf3f792e13a89ca933aeca401669cd7c2ba5ce374b5ae3d833e8e8c8c8a80600001906107df9190613a04565b8c60a00160208101906107f29190613a93565b604051610803959493929190613afc565b60405180910390a2829350505050979650505050505050565b600060058383604051610830929190613b75565b908152602001604051809103902080549050905092915050565b6000600380549050905090565b6003818154811061086757600080fd5b906000526020600020016000915090505481565b6060600060648311156108c3576040517f08c379a00000000000000000000000000000000000000000000000000000000081526004016108ba90613bda565b60405180910390fd5b6000600460008773ffffffffffffffffffffffffffffffffffffffff1673ffffffffffffffffffffffffffffffffffffffff168152602001908152602001600020905060008180549050905080861061097757600067ffffffffffffffff81111561093157610930613339565b5b60405190808252806020026020018201604052801561096a57816020015b6109576128ff565b81526020019060019003908161094f5790505b5081935093505050610ee0565b600085876109859190613c29565b905081811115610993578190505b600087826109a19190613c5d565b905060008167ffffffffffffffff8111156109bf576109be613339565b5b6040519080825280602002602001820160405280156109f857816020015b6109e56128ff565b8152602001906001900390816109dd5790505b50905060005b82811015610ed357600186828c610a159190613c29565b81548110610a2657610a25613c91565b5b906000526020600020015481548110610a4257610a41613c91565b5b90600052602060002090600a02016040518060a00160405290816000820160009054906101000a900473ffffffffffffffffffffffffffffffffffffffff1673ffffffffffffffffffffffffffffffffffffffff1673ffffffffffffffffffffffffffffffffffffffff168152602001600182016040518060c0016040529081600082018054610ad190613cef565b80601f0160208091040260200160405190810160405280929190818152602001828054610afd90613cef565b8015610b4a5780601f10610b1f57610100808354040283529160200191610b4a565b820191906000526020600020905b815481529060010190602001808311610b2d57829003601f168201915b50505050508152602001600182018054610b6390613cef565b80601f0160208091040260200160405190810160405280929190818152602001828054610b8f90613cef565b8015610bdc5780601f10610bb157610100808354040283529160200191610bdc565b820191906000526020600020905b815481529060010190602001808311610bbf57829003601f168201915b50505050508152602001600282018054610bf590613cef565b80601f0160208091040260200160405190810160405280929190818152602001828054610c2190613cef565b8015610c6e5780601f10610c4357610100808354040283529160200191610c6e565b820191906000526020600020905b815481529060010190602001808311610c5157829003601f168201915b50505050508152602001600382018054610c8790613cef565b80601f0160208091040260200160405190810160405280929190818152602001828054610cb390613cef565b8015610d005780601f10610cd557610100808354040283529160200191610d00565b820191906000526020600020905b815481529060010190602001808311610ce357829003601f168201915b50505050508152602001600482018054610d1990613cef565b80601f0160208091040260200160405190810160405280929190818152602001828054610d4590613cef565b8015610d925780601f10610d6757610100808354040283529160200191610d92565b820191906000526020600020905b815481529060010190602001808311610d7557829003601f168201915b505050505081526020016005820160009054906101000a900460ff16151515158152505081526020016007820160009054906101000a900473ffffffffffffffffffffffffffffffffffffffff1673ffffffffffffffffffffffffffffffffffffffff1673ffffffffffffffffffffffffffffffffffffffff1681526020016008820154815260200160098201805480602002602001604051908101604052809291908181526020018280548015610e9f57602002820191906000526020600020905b8160009054906101000a900473ffffffffffffffffffffffffffffffffffffffff1673ffffffffffffffffffffffffffffffffffffffff1681526020019060010190808311610e55575b505050505081525050828281518110610ebb57610eba613c91565b5b602002602001018190525080806001019150506109fe565b5080849650965050505050505b935093915050565b606060006064831115610f30576040517f08c379a0000000000000000000000000000000000000000000000000000000008152600401610f2790613bda565b60405180910390fd5b600060058787604051610f44929190613b75565b90815260200160405180910390209050600081805490509050808610610fc557600067ffffffffffffffff811115610f7f57610f7e613339565b5b604051908082528060200260200182016040528015610fb857816020015b610fa56128ff565b815260200190600190039081610f9d5790505b508193509350505061152e565b60008587610fd39190613c29565b905081811115610fe1578190505b60008782610fef9190613c5d565b905060008167ffffffffffffffff81111561100d5761100c613339565b5b60405190808252806020026020018201604052801561104657816020015b6110336128ff565b81526020019060019003908161102b5790505b50905060005b8281101561152157600186828c6110639190613c29565b8154811061107457611073613c91565b5b9060005260206000200154815481106110905761108f613c91565b5b90600052602060002090600a02016040518060a00160405290816000820160009054906101000a900473ffffffffffffffffffffffffffffffffffffffff1673ffffffffffffffffffffffffffffffffffffffff1673ffffffffffffffffffffffffffffffffffffffff168152602001600182016040518060c001604052908160008201805461111f90613cef565b80601f016020809104026020016040519081016040528092919081815260200182805461114b90613cef565b80156111985780601f1061116d57610100808354040283529160200191611198565b820191906000526020600020905b81548152906001019060200180831161117b57829003601f168201915b505050505081526020016001820180546111b190613cef565b80601f01602080910402602001604051908101604052809291908181526020018280546111dd90613cef565b801561122a5780601f106111ff5761010080835404028352916020019161122a565b820191906000526020600020905b81548152906001019060200180831161120d57829003601f168201915b5050505050815260200160028201805461124390613cef565b80601f016020809104026020016040519081016040528092919081815260200182805461126f90613cef565b80156112bc5780601f10611291576101008083540402835291602001916112bc565b820191906000526020600020905b81548152906001019060200180831161129f57829003601f168201915b505050505081526020016003820180546112d590613cef565b80601f016020809104026020016040519081016040528092919081815260200182805461130190613cef565b801561134e5780601f106113235761010080835404028352916020019161134e565b820191906000526020600020905b81548152906001019060200180831161133157829003601f168201915b5050505050815260200160048201805461136790613cef565b80601f016020809104026020016040519081016040528092919081815260200182805461139390613cef565b80156113e05780601f106113b5576101008083540402835291602001916113e0565b820191906000526020600020905b8154815290600101906020018083116113c357829003601f168201915b505050505081526020016005820160009054906101000a900460ff16151515158152505081526020016007820160009054906101000a900473ffffffffffffffffffffffffffffffffffffffff1673ffffffffffffffffffffffffffffffffffffffff1673ffffffffffffffffffffffffffffffffffffffff16815260200160088201548152602001600982018054806020026020016040519081016040528092919081815260200182805480156114ed57602002820191906000526020600020905b8160009054906101000a900473ffffffffffffffffffffffffffffffffffffffff1673ffffffffffffffffffffffffffffffffffffffff16815260200190600101908083116114a3575b50505050508152505082828151811061150957611508613c91565b5b6020026020010181905250808060010191505061104c565b5080849650965050505050505b94509492505050565b61153f6128ff565b6001805490508210611586576040517f08c379a000000000000000000000000000000000000000000000000000000000815260040161157d90613d6c565b60405180910390fd5b6001828154811061159a57611599613c91565b5b90600052602060002090600a02016040518060a00160405290816000820160009054906101000a900473ffffffffffffffffffffffffffffffffffffffff1673ffffffffffffffffffffffffffffffffffffffff1673ffffffffffffffffffffffffffffffffffffffff168152602001600182016040518060c001604052908160008201805461162990613cef565b80601f016020809104026020016040519081016040528092919081815260200182805461165590613cef565b80156116a25780601f10611677576101008083540402835291602001916116a2565b820191906000526020600020905b81548152906001019060200180831161168557829003601f168201915b505050505081526020016001820180546116bb90613cef565b80601f01602080910402602001604051908101604052809291908181526020018280546116e790613cef565b80156117345780601f1061170957610100808354040283529160200191611734565b820191906000526020600020905b81548152906001019060200180831161171757829003601f168201915b5050505050815260200160028201805461174d90613cef565b80601f016020809104026020016040519081016040528092919081815260200182805461177990613cef565b80156117c65780601f1061179b576101008083540402835291602001916117c6565b820191906000526020600020905b8154815290600101906020018083116117a957829003601f168201915b505050505081526020016003820180546117df90613cef565b80601f016020809104026020016040519081016040528092919081815260200182805461180b90613cef565b80156118585780601f1061182d57610100808354040283529160200191611858565b820191906000526020600020905b81548152906001019060200180831161183b57829003601f168201915b5050505050815260200160048201805461187190613cef565b80601f016020809104026020016040519081016040528092919081815260200182805461189d90613cef565b80156118ea5780601f106118bf576101008083540402835291602001916118ea565b820191906000526020600020905b8154815290600101906020018083116118cd57829003601f168201915b505050505081526020016005820160009054906101000a900460ff16151515158152505081526020016007820160009054906101000a900473ffffffffffffffffffffffffffffffffffffffff1673ffffffffffffffffffffffffffffffffffffffff1673ffffffffffffffffffffffffffffffffffffffff16815260200160088201548152602001600982018054806020026020016040519081016040528092919081815260200182805480156119f757602002820191906000526020600020905b8160009054906101000a900473ffffffffffffffffffffffffffffffffffffffff1673ffffffffffffffffffffffffffffffffffffffff16815260200190600101908083116119ad575b5050505050815250509050919050565b60046020528160005260406000208181548110611a2357600080fd5b90600052602060002001600091509150505481565b606060006064831115611a80576040517f08c379a0000000000000000000000000000000000000000000000000000000008152600401611a7790613bda565b60405180910390fd5b60006003805490509050808510611af157600067ffffffffffffffff811115611aac57611aab613339565b5b604051908082528060200260200182016040528015611ae557816020015b611ad26128ff565b815260200190600190039081611aca5790505b5081925092505061205a565b60008486611aff9190613c29565b905081811115611b0d578190505b60008682611b1b9190613c5d565b905060008167ffffffffffffffff811115611b3957611b38613339565b5b604051908082528060200260200182016040528015611b7257816020015b611b5f6128ff565b815260200190600190039081611b575790505b50905060005b8281101561204e5760016003828b611b909190613c29565b81548110611ba157611ba0613c91565b5b906000526020600020015481548110611bbd57611bbc613c91565b5b90600052602060002090600a02016040518060a00160405290816000820160009054906101000a900473ffffffffffffffffffffffffffffffffffffffff1673ffffffffffffffffffffffffffffffffffffffff1673ffffffffffffffffffffffffffffffffffffffff168152602001600182016040518060c0016040529081600082018054611c4c90613cef565b80601f0160208091040260200160405190810160405280929190818152602001828054611c7890613cef565b8015611cc55780601f10611c9a57610100808354040283529160200191611cc5565b820191906000526020600020905b815481529060010190602001808311611ca857829003601f168201915b50505050508152602001600182018054611cde90613cef565b80601f0160208091040260200160405190810160405280929190818152602001828054611d0a90613cef565b8015611d575780601f10611d2c57610100808354040283529160200191611d57565b820191906000526020600020905b815481529060010190602001808311611d3a57829003601f168201915b50505050508152602001600282018054611d7090613cef565b80601f0160208091040260200160405190810160405280929190818152602001828054611d9c90613cef565b8015611de95780601f10611dbe57610100808354040283529160200191611de9565b820191906000526020600020905b815481529060010190602001808311611dcc57829003601f168201915b50505050508152602001600382018054611e0290613cef565b80601f0160208091040260200160405190810160405280929190818152602001828054611e2e90613cef565b8015611e7b5780601f10611e5057610100808354040283529160200191611e7b565b820191906000526020600020905b815481529060010190602001808311611e5e57829003601f168201915b50505050508152602001600482018054611e9490613cef565b80601f0160208091040260200160405190810160405280929190818152602001828054611ec090613cef565b8015611f0d5780601f10611ee257610100808354040283529160200191611f0d565b820191906000526020600020905b815481529060010190602001808311611ef057829003601f168201915b505050505081526020016005820160009054906101000a900460ff16151515158152505081526020016007820160009054906101000a900473ffffffffffffffffffffffffffffffffffffffff1673ffffffffffffffffffffffffffffffffffffffff1673ffffffffffffffffffffffffffffffffffffffff168152602001600882015481526020016009820180548060200260200160405190810160405280929190818152602001828054801561201a57602002820191906000526020600020905b8160009054906101000a900473ffffffffffffffffffffffffffffffffffffffff1673ffffffffffffffffffffffffffffffffffffffff1681526020019060010190808311611fd0575b50505050508152505082828151811061203657612035613c91565b5b60200260200101819052508080600101915050611b78565b50808495509550505050505b9250929050565b600582805160208101820180518482526020830160208501208183528095505050505050818154811061209357600080fd5b90600052602060002001600091509150505481565b6000600460008373ffffffffffffffffffffffffffffffffffffffff1673ffffffffffffffffffffffffffffffffffffffff168152602001908152602001600020805490509050919050565b6001818154811061210457600080fd5b90600052602060002090600a02016000915090508060000160009054906101000a900473ffffffffffffffffffffffffffffffffffffffff1690806001016040518060c001604052908160008201805461215d90613cef565b80601f016020809104026020016040519081016040528092919081815260200182805461218990613cef565b80156121d65780601f106121ab576101008083540402835291602001916121d6565b820191906000526020600020905b8154815290600101906020018083116121b957829003601f168201915b505050505081526020016001820180546121ef90613cef565b80601f016020809104026020016040519081016040528092919081815260200182805461221b90613cef565b80156122685780601f1061223d57610100808354040283529160200191612268565b820191906000526020600020905b81548152906001019060200180831161224b57829003601f168201915b5050505050815260200160028201805461228190613cef565b80601f01602080910402602001604051908101604052809291908181526020018280546122ad90613cef565b80156122fa5780601f106122cf576101008083540402835291602001916122fa565b820191906000526020600020905b8154815290600101906020018083116122dd57829003601f168201915b5050505050815260200160038201805461231390613cef565b80601f016020809104026020016040519081016040528092919081815260200182805461233f90613cef565b801561238c5780601f106123615761010080835404028352916020019161238c565b820191906000526020600020905b81548152906001019060200180831161236f57829003601f168201915b505050505081526020016004820180546123a590613cef565b80601f01602080910402602001604051908101604052809291908181526020018280546123d190613cef565b801561241e5780601f106123f35761010080835404028352916020019161241e565b820191906000526020600020905b81548152906001019060200180831161240157829003601f168201915b505050505081526020016005820160009054906101000a900460ff161515151581525050908060070160009054906101000a900473ffffffffffffffffffffffffffffffffffffffff16908060080154905084565b60008054906101000a900473ffffffffffffffffffffffffffffffffffffffff1681565b6000600180549050905090565b60026020528060005260406000206000915090505481565b60006124c9826000612807565b9050919050565b60006040518060a001604052808673ffffffffffffffffffffffffffffffffffffffff1681526020018361250390613ec2565b81526020013373ffffffffffffffffffffffffffffffffffffffff168152602001428152602001858580806020026020016040519081016040528093929190818152602001838360200280828437600081840152601f19601f82011690508083019250505050505050815250905060018190806001815401808255809150506001900390600052602060002090600a020160009091909190915060008201518160000160006101000a81548173ffffffffffffffffffffffffffffffffffffffff021916908373ffffffffffffffffffffffffffffffffffffffff16021790555060208201518160010160008201518160000190816126029190614081565b5060208201518160010190816126189190614081565b50604082015181600201908161262e9190614081565b5060608201518160030190816126449190614081565b50608082015181600401908161265a9190614081565b5060a08201518160050160006101000a81548160ff021916908315150217905550505060408201518160070160006101000a81548173ffffffffffffffffffffffffffffffffffffffff021916908373ffffffffffffffffffffffffffffffffffffffff1602179055506060820151816008015560808201518160090190805190602001906126ea929190612960565b5050506000600180805490506127009190613c5d565b90508260a00160208101906127159190613a93565b156127445760038190806001815401808255809150506001900390600052602060002001600090919091909150555b600460003373ffffffffffffffffffffffffffffffffffffffff1673ffffffffffffffffffffffffffffffffffffffff16815260200190815260200160002081908060018154018082558091505060019003906000526020600020016000909190919091505560058380604001906127bc9190613a04565b6040516127ca929190613b75565b9081526020016040518091039020819080600181540180825580915050600190039060005260206000200160009091909190915055505050505050565b6000814710156128505747826040517fcf479181000000000000000000000000000000000000000000000000000000008152600401612847929190614153565b60405180910390fd5b763d602d80600a3d3981f3363d3d373d3d3d363d730000008360601b60e81c176000526e5af43d82803e903d91602b57fd5bf38360781b176020526037600983f09050600073ffffffffffffffffffffffffffffffffffffffff168173ffffffffffffffffffffffffffffffffffffffff16036128f9576040517fb06ebf3d00000000000000000000000000000000000000000000000000000000815260040160405180910390fd5b92915050565b6040518060a00160405280600073ffffffffffffffffffffffffffffffffffffffff16815260200161292f6129ea565b8152602001600073ffffffffffffffffffffffffffffffffffffffff16815260200160008152602001606081525090565b8280548282559060005260206000209081019282156129d9579160200282015b828111156129d85782518260006101000a81548173ffffffffffffffffffffffffffffffffffffffff021916908373ffffffffffffffffffffffffffffffffffffffff16021790555091602001919060010190612980565b5b5090506129e69190612a22565b5090565b6040518060c0016040528060608152602001606081526020016060815260200160608152602001606081526020016000151581525090565b5b80821115612a3b576000816000905550600101612a23565b5090565b6000604051905090565b600080fd5b600080fd5b600080fd5b600080fd5b600080fd5b60008083601f840112612a7857612a77612a53565b5b8235905067ffffffffffffffff811115612a9557612a94612a58565b5b602083019150836020820283011115612ab157612ab0612a5d565b5b9250929050565b60008083601f840112612ace57612acd612a53565b5b8235905067ffffffffffffffff811115612aeb57612aea612a58565b5b602083019150836020820283011115612b0757612b06612a5d565b5b9250929050565b600080fd5b600060c08284031215612b2957612b28612b0e565b5b81905092915050565b600073ffffffffffffffffffffffffffffffffffffffff82169050919050565b6000612b5d82612b32565b9050919050565b612b6d81612b52565b8114612b7857600080fd5b50565b600081359050612b8a81612b64565b92915050565b600080600080600080600060a0888a031215612baf57612bae612a49565b5b600088013567ffffffffffffffff811115612bcd57612bcc612a4e565b5b612bd98a828b01612a62565b9750975050602088013567ffffffffffffffff811115612bfc57612bfb612a4e565b5b612c088a828b01612ab8565b9550955050604088013567ffffffffffffffff811115612c2b57612c2a612a4e565b5b612c378a828b01612b13565b9350506060612c488a828b01612b7b565b9250506080612c598a828b01612b7b565b91505092959891949750929550565b612c7181612b52565b82525050565b6000602082019050612c8c6000830184612c68565b92915050565b60008083601f840112612ca857612ca7612a53565b5b8235905067ffffffffffffffff811115612cc557612cc4612a58565b5b602083019150836001820283011115612ce157612ce0612a5d565b5b9250929050565b60008060208385031215612cff57612cfe612a49565b5b600083013567ffffffffffffffff811115612d1d57612d1c612a4e565b5b612d2985828601612c92565b92509250509250929050565b6000819050919050565b612d4881612d35565b82525050565b6000602082019050612d636000830184612d3f565b92915050565b612d7281612d35565b8114612d7d57600080fd5b50565b600081359050612d8f81612d69565b92915050565b600060208284031215612dab57612daa612a49565b5b6000612db984828501612d80565b91505092915050565b600080600060608486031215612ddb57612dda612a49565b5b6000612de986828701612b7b565b9350506020612dfa86828701612d80565b9250506040612e0b86828701612d80565b9150509250925092565b600081519050919050565b600082825260208201905092915050565b6000819050602082019050919050565b612e4a81612b52565b82525050565b600081519050919050565b600082825260208201905092915050565b60005b83811015612e8a578082015181840152602081019050612e6f565b60008484015250505050565b6000601f19601f8301169050919050565b6000612eb282612e50565b612ebc8185612e5b565b9350612ecc818560208601612e6c565b612ed581612e96565b840191505092915050565b60008115159050919050565b612ef581612ee0565b82525050565b600060c0830160008301518482036000860152612f188282612ea7565b91505060208301518482036020860152612f328282612ea7565b91505060408301518482036040860152612f4c8282612ea7565b91505060608301518482036060860152612f668282612ea7565b91505060808301518482036080860152612f808282612ea7565b91505060a0830151612f9560a0860182612eec565b508091505092915050565b612fa981612d35565b82525050565b600081519050919050565b600082825260208201905092915050565b6000819050602082019050919050565b6000612fe78383612e41565b60208301905092915050565b6000602082019050919050565b600061300b82612faf565b6130158185612fba565b935061302083612fcb565b8060005b838110156130515781516130388882612fdb565b975061304383612ff3565b925050600181019050613024565b5085935050505092915050565b600060a0830160008301516130766000860182612e41565b506020830151848203602086015261308e8282612efb565b91505060408301516130a36040860182612e41565b5060608301516130b66060860182612fa0565b50608083015184820360808601526130ce8282613000565b9150508091505092915050565b60006130e7838361305e565b905092915050565b6000602082019050919050565b600061310782612e15565b6131118185612e20565b93508360208202850161312385612e31565b8060005b8581101561315f578484038952815161314085826130db565b945061314b836130ef565b925060208a01995050600181019050613127565b50829750879550505050505092915050565b6000604082019050818103600083015261318b81856130fc565b905061319a6020830184612d3f565b9392505050565b600080600080606085870312156131bb576131ba612a49565b5b600085013567ffffffffffffffff8111156131d9576131d8612a4e565b5b6131e587828801612c92565b945094505060206131f887828801612d80565b925050604061320987828801612d80565b91505092959194509250565b600060a08301600083015161322d6000860182612e41565b50602083015184820360208601526132458282612efb565b915050604083015161325a6040860182612e41565b50606083015161326d6060860182612fa0565b50608083015184820360808601526132858282613000565b9150508091505092915050565b600060208201905081810360008301526132ac8184613215565b905092915050565b600080604083850312156132cb576132ca612a49565b5b60006132d985828601612b7b565b92505060206132ea85828601612d80565b9150509250929050565b6000806040838503121561330b5761330a612a49565b5b600061331985828601612d80565b925050602061332a85828601612d80565b9150509250929050565b600080fd5b7f4e487b7100000000000000000000000000000000000000000000000000000000600052604160045260246000fd5b61337182612e96565b810181811067ffffffffffffffff821117156133905761338f613339565b5b80604052505050565b60006133a3612a3f565b90506133af8282613368565b919050565b600067ffffffffffffffff8211156133cf576133ce613339565b5b6133d882612e96565b9050602081019050919050565b82818337600083830152505050565b6000613407613402846133b4565b613399565b90508281526020810184848401111561342357613422613334565b5b61342e8482856133e5565b509392505050565b600082601f83011261344b5761344a612a53565b5b813561345b8482602086016133f4565b91505092915050565b6000806040838503121561347b5761347a612a49565b5b600083013567ffffffffffffffff81111561349957613498612a4e565b5b6134a585828601613436565b92505060206134b685828601612d80565b9150509250929050565b6000602082840312156134d6576134d5612a49565b5b60006134e484828501612b7b565b91505092915050565b600060c083016000830151848203600086015261350a8282612ea7565b915050602083015184820360208601526135248282612ea7565b9150506040830151848203604086015261353e8282612ea7565b915050606083015184820360608601526135588282612ea7565b915050608083015184820360808601526135728282612ea7565b91505060a083015161358760a0860182612eec565b508091505092915050565b60006080820190506135a76000830187612c68565b81810360208301526135b981866134ed565b90506135c86040830185612c68565b6135d56060830184612d3f565b95945050505050565b600082825260208201905092915050565b7f4d6f64756c65732f696e697444617461206c656e677468206d69736d61746368600082015250565b60006136256020836135de565b9150613630826135ef565b602082019050919050565b6000602082019050818103600083015261365481613618565b9050919050565b600082825260208201905092915050565b6000819050919050565b60006136856020840184612b7b565b905092915050565b6000602082019050919050565b60006136a6838561365b565b93506136b18261366c565b8060005b858110156136ea576136c78284613676565b6136d18882612fdb565b97506136dc8361368d565b9250506001810190506136b5565b5085925050509392505050565b600082825260208201905092915050565b6000819050919050565b600082825260208201905092915050565b600061372f8385613712565b935061373c8385846133e5565b61374583612e96565b840190509392505050565b600061375d848484613723565b90509392505050565b600080fd5b600080fd5b600080fd5b6000808335600160200384360303811261379257613791613770565b5b83810192508235915060208301925067ffffffffffffffff8211156137ba576137b9613766565b5b6001820236038313156137d0576137cf61376b565b5b509250929050565b6000602082019050919050565b60006137f183856136f7565b93508360208402850161380384613708565b8060005b8781101561384957848403895261381e8284613775565b613829868284613750565b9550613834846137d8565b935060208b019a505050600181019050613807565b50829750879450505050509392505050565b6000604082019050818103600083015261387681868861369a565b9050818103602083015261388b8184866137e5565b905095945050505050565b600081519050919050565b600081905092915050565b60006138b782613896565b6138c181856138a1565b93506138d1818560208601612e6c565b80840191505092915050565b60006138e982846138ac565b915081905092915050565b7f496e697469616c697a6174696f6e206661696c65640000000000000000000000600082015250565b600061392a6015836135de565b9150613935826138f4565b602082019050919050565b600060208201905081810360008301526139598161391d565b9050919050565b60006040820190506139756000830185612c68565b6139826020830184612c68565b9392505050565b7f54726561737572794d6f64756c6520696e6974206661696c6564000000000000600082015250565b60006139bf601a836135de565b91506139ca82613989565b602082019050919050565b600060208201905081810360008301526139ee816139b2565b9050919050565b600080fd5b600080fd5b600080fd5b60008083356001602003843603038112613a2157613a206139f5565b5b80840192508235915067ffffffffffffffff821115613a4357613a426139fa565b5b602083019250600182023603831315613a5f57613a5e6139ff565b5b509250929050565b613a7081612ee0565b8114613a7b57600080fd5b50565b600081359050613a8d81613a67565b92915050565b600060208284031215613aa957613aa8612a49565b5b6000613ab784828501613a7e565b91505092915050565b6000613acc83856135de565b9350613ad98385846133e5565b613ae283612e96565b840190509392505050565b613af681612ee0565b82525050565b60006060820190508181036000830152613b1781878961369a565b90508181036020830152613b2c818587613ac0565b9050613b3b6040830184613aed565b9695505050505050565b600081905092915050565b6000613b5c8385613b45565b9350613b698385846133e5565b82840190509392505050565b6000613b82828486613b50565b91508190509392505050565b7f4c696d697420746f6f2068696768000000000000000000000000000000000000600082015250565b6000613bc4600e836135de565b9150613bcf82613b8e565b602082019050919050565b60006020820190508181036000830152613bf381613bb7565b9050919050565b7f4e487b7100000000000000000000000000000000000000000000000000000000600052601160045260246000fd5b6000613c3482612d35565b9150613c3f83612d35565b9250828201905080821115613c5757613c56613bfa565b5b92915050565b6000613c6882612d35565b9150613c7383612d35565b9250828203905081811115613c8b57613c8a613bfa565b5b92915050565b7f4e487b7100000000000000000000000000000000000000000000000000000000600052603260045260246000fd5b7f4e487b7100000000000000000000000000000000000000000000000000000000600052602260045260246000fd5b60006002820490506001821680613d0757607f821691505b602082108103613d1a57613d19613cc0565b5b50919050565b7f496e646578206f7574206f6620626f756e647300000000000000000000000000600082015250565b6000613d566013836135de565b9150613d6182613d20565b602082019050919050565b60006020820190508181036000830152613d8581613d49565b9050919050565b600080fd5b600080fd5b600060c08284031215613dac57613dab613d8c565b5b613db660c0613399565b9050600082013567ffffffffffffffff811115613dd657613dd5613d91565b5b613de284828501613436565b600083015250602082013567ffffffffffffffff811115613e0657613e05613d91565b5b613e1284828501613436565b602083015250604082013567ffffffffffffffff811115613e3657613e35613d91565b5b613e4284828501613436565b604083015250606082013567ffffffffffffffff811115613e6657613e65613d91565b5b613e7284828501613436565b606083015250608082013567ffffffffffffffff811115613e9657613e95613d91565b5b613ea284828501613436565b60808301525060a0613eb684828501613a7e565b60a08301525092915050565b6000613ece3683613d96565b9050919050565b60008190508160005260206000209050919050565b60006020601f8301049050919050565b600082821b905092915050565b600060088302613f377fffffffffffffffffffffffffffffffffffffffffffffffffffffffffffffffff82613efa565b613f418683613efa565b95508019841693508086168417925050509392505050565b6000819050919050565b6000613f7e613f79613f7484612d35565b613f59565b612d35565b9050919050565b6000819050919050565b613f9883613f63565b613fac613fa482613f85565b848454613f07565b825550505050565b600090565b613fc1613fb4565b613fcc818484613f8f565b505050565b5b81811015613ff057613fe5600082613fb9565b600181019050613fd2565b5050565b601f8211156140355761400681613ed5565b61400f84613eea565b8101602085101561401e578190505b61403261402a85613eea565b830182613fd1565b50505b505050565b600082821c905092915050565b60006140586000198460080261403a565b1980831691505092915050565b60006140718383614047565b9150826002028217905092915050565b61408a82612e50565b67ffffffffffffffff8111156140a3576140a2613339565b5b6140ad8254613cef565b6140b8828285613ff4565b600060209050601f8311600181146140eb57600084156140d9578287015190505b6140e38582614065565b86555061414b565b601f1984166140f986613ed5565b60005b82811015614121578489015182556001820191506020850194506020810190506140fc565b8683101561413e578489015161413a601f891682614047565b8355505b6001600288020188555050505b505050505050565b60006040820190506141686000830185612d3f565b6141756020830184612d3f565b939250505056fea2646970667358221220d21f51ebc9d564719c7cb97c715863029f76a852f143b01218fd1e3d959c777c64736f6c634300081c0033",
  "linkReferences": {},
  "deployedLinkReferences": {}
}