{
  "_format": "hh-sol-artifact-1",
  "contractName": "DaoKernel",
  "sourceName": "contracts/contracts/dao/DaoKernel.sol",
  "abi": [
    {
      "anonymous": false,
      "inputs": [
        {
          "indexed": false,
          "internalType": "bytes4",
          "name": "selector",
          "type": "bytes4"
        },
        {
          "indexed": false,
          "internalType": "address",
          "name": "module",
          "type": "address"
        },
        {
          "indexed": false,
          "internalType": "bytes",
          "name": "revertData",
          "type": "bytes"
        }
      ],
      "name": "FallbackRevert",
      "type": "event"
    },
    {
      "stateMutability": "payable",
      "type": "fallback"
    },
    {
      "inputs": [
        {
          "internalType": "address",
          "name": "_treasury",
          "type": "address"
        }
      ],
      "name": "addTreasuryModule",
      "outputs": [],
      "stateMutability": "nonpayable",
      "type": "function"
    },
    {
      "inputs": [],
      "name": "getFactory",
      "outputs": [
        {
          "internalType": "address",
          "name": "factory",
          "type": "address"
        }
      ],
      "stateMutability": "view",
      "type": "function"
    },
    {
      "inputs": [],
      "name": "getTreasuryModule",
      "outputs": [
        {
          "internalType": "address",
          "name": "",
          "type": "address"
        }
      ],
      "stateMutability": "view",
      "type": "function"
    },
    {
      "inputs": [
        {
          "internalType": "address[]",
          "name": "moduleAddrs",
          "type": "address[]"
        },
        {
          "internalType": "bytes[]",
          "name": "initData",
          "type": "bytes[]"
        }
      ],
      "name": "initModules",
      "outputs": [],
      "stateMutability": "nonpayable",
      "type": "function"
    },
    {
      "inputs": [],
      "name": "modules",
      "outputs": [
        {
          "internalType": "address[]",
          "name": "",
          "type": "address[]"
        }
      ],
      "stateMutability": "view",
      "type": "function"
    },
    {
      "inputs": [],
      "name": "treasuryModule",
      "outputs": [
        {
          "internalType": "address",
          "name": "",
          "type": "address"
        }
      ],
      "stateMutability": "view",
      "type": "function"
    },
    {
      "stateMutability": "payable",
      "type": "receive"
    }
  ],
  "bytecode": "0x6080604052348015600f57600080fd5b506118508061001f6000396000f3fe6080604052600436106100595760003560e01c8063797cab251461019c57806381a7b1b3146101c557806388cc58e4146101f0578063912083db1461021b578063d6fead9a14610244578063f7e80e981461026f57610060565b3661006057005b600061006a61029a565b9050600081600001600080357fffffffff00000000000000000000000000000000000000000000000000000000167bffffffffffffffffffffffffffffffffffffffffffffffffffffffff19167bffffffffffffffffffffffffffffffffffffffffffffffffffffffff1916815260200190815260200160002060009054906101000a900473ffffffffffffffffffffffffffffffffffffffff169050600073ffffffffffffffffffffffffffffffffffffffff168173ffffffffffffffffffffffffffffffffffffffff1603610176576040517f08c379a000000000000000000000000000000000000000000000000000000000815260040161016d90610ddf565b60405180910390fd5b3660008037600080366000845af43d6000803e8060008114610197573d6000f35b3d6000fd5b3480156101a857600080fd5b506101c360048036038101906101be9190610e71565b6102ca565b005b3480156101d157600080fd5b506101da6106a0565b6040516101e79190610ead565b60405180910390f35b3480156101fc57600080fd5b506102056106c9565b6040516102129190610ead565b60405180910390f35b34801561022757600080fd5b50610242600480360381019061023d9190610f83565b6106f2565b005b34801561025057600080fd5b50610259610c6b565b6040516102669190610ead565b60405180910390f35b34801561027b57600080fd5b50610284610c8f565b60405161029191906110c2565b60405180910390f35b6000807f8e8e8e8e8e8e8e8e8e8e8e8e8e8e8e8e8e8e8e8e8e8e8e8e8e8e8e8e8e8e8e8e60001b90508091505090565b3373ffffffffffffffffffffffffffffffffffffffff166102e96106c9565b73ffffffffffffffffffffffffffffffffffffffff161461033f576040517f08c379a000000000000000000000000000000000000000000000000000000000815260040161033690611130565b60405180910390fd5b600073ffffffffffffffffffffffffffffffffffffffff1660008054906101000a900473ffffffffffffffffffffffffffffffffffffffff1673ffffffffffffffffffffffffffffffffffffffff16146103ce576040517f08c379a00000000000000000000000000000000000000000000000000000000081526004016103c59061119c565b60405180910390fd5b806000806101000a81548173ffffffffffffffffffffffffffffffffffffffff021916908373ffffffffffffffffffffffffffffffffffffffff160217905550600061041861029a565b90506000808373ffffffffffffffffffffffffffffffffffffffff166040516024016040516020818303038152906040527f4b503f0b000000000000000000000000000000000000000000000000000000007bffffffffffffffffffffffffffffffffffffffffffffffffffffffff19166020820180517bffffffffffffffffffffffffffffffffffffffffffffffffffffffff83818316178352505050506040516104c4919061122d565b600060405180830381855afa9150503d80600081146104ff576040519150601f19603f3d011682016040523d82523d6000602084013e610504565b606091505b509150915081610549576040517f08c379a0000000000000000000000000000000000000000000000000000000008152600401610540906112b6565b60405180910390fd5b60008180602001905181019061055f919061147d565b905060005b81518110156106265785856000016000848481518110610587576105866114c6565b5b60200260200101517bffffffffffffffffffffffffffffffffffffffffffffffffffffffff19167bffffffffffffffffffffffffffffffffffffffffffffffffffffffff1916815260200190815260200160002060006101000a81548173ffffffffffffffffffffffffffffffffffffffff021916908373ffffffffffffffffffffffffffffffffffffffff1602179055508080600101915050610564565b506000610631610d2c565b905080600001869080600181540180825580915050600190039060005260206000200160009091909190916101000a81548173ffffffffffffffffffffffffffffffffffffffff021916908373ffffffffffffffffffffffffffffffffffffffff160217905550505050505050565b60008060009054906101000a900473ffffffffffffffffffffffffffffffffffffffff16905090565b60007f742d82a749e753434604994e78b7465221b2857476dd9086326e5d80df50146c54905090565b600073ffffffffffffffffffffffffffffffffffffffff166107126106c9565b73ffffffffffffffffffffffffffffffffffffffff1614610768576040517f08c379a000000000000000000000000000000000000000000000000000000000815260040161075f90611541565b60405180910390fd5b600084849050116107ae576040517f08c379a00000000000000000000000000000000000000000000000000000000081526004016107a5906115ad565b60405180910390fd5b8181905084849050146107f6576040517f08c379a00000000000000000000000000000000000000000000000000000000081526004016107ed90611619565b60405180910390fd5b6107ff33610d5c565b6000610809610d2c565b9050600061081561029a565b905060005b86869050811015610c6257600087878381811061083a576108396114c6565b5b905060200201602081019061084f9190610e71565b905083600001819080600181540180825580915050600190039060005260206000200160009091909190916101000a81548173ffffffffffffffffffffffffffffffffffffffff021916908373ffffffffffffffffffffffffffffffffffffffff1602179055506000808273ffffffffffffffffffffffffffffffffffffffff166040516024016040516020818303038152906040527f4b503f0b000000000000000000000000000000000000000000000000000000007bffffffffffffffffffffffffffffffffffffffffffffffffffffffff19166020820180517bffffffffffffffffffffffffffffffffffffffffffffffffffffffff8381831617835250505050604051610960919061122d565b600060405180830381855afa9150503d806000811461099b576040519150601f19603f3d011682016040523d82523d6000602084013e6109a0565b606091505b5091509150816109e5576040517f08c379a00000000000000000000000000000000000000000000000000000000081526004016109dc906116ab565b60405180910390fd5b6000818060200190518101906109fb919061147d565b905060005b8151811015610ac25784876000016000848481518110610a2357610a226114c6565b5b60200260200101517bffffffffffffffffffffffffffffffffffffffffffffffffffffffff19167bffffffffffffffffffffffffffffffffffffffffffffffffffffffff1916815260200190815260200160002060006101000a81548173ffffffffffffffffffffffffffffffffffffffff021916908373ffffffffffffffffffffffffffffffffffffffff1602179055508080600101915050610a00565b506000898987818110610ad857610ad76114c6565b5b9050602002810190610aea91906116da565b90501115610c515760008473ffffffffffffffffffffffffffffffffffffffff168a8a88818110610b1e57610b1d6114c6565b5b9050602002810190610b3091906116da565b604051602401610b4192919061178a565b6040516020818303038152906040527f4ddf47d4000000000000000000000000000000000000000000000000000000007bffffffffffffffffffffffffffffffffffffffffffffffffffffffff19166020820180517bffffffffffffffffffffffffffffffffffffffffffffffffffffffff8381831617835250505050604051610bcb919061122d565b600060405180830381855af49150503d8060008114610c06576040519150601f19603f3d011682016040523d82523d6000602084013e610c0b565b606091505b5050905080610c4f576040517f08c379a0000000000000000000000000000000000000000000000000000000008152600401610c46906117fa565b60405180910390fd5b505b50505050808060010191505061081a565b50505050505050565b60008054906101000a900473ffffffffffffffffffffffffffffffffffffffff1681565b60606000610c9b610d2c565b905080600001805480602002602001604051908101604052809291908181526020018280548015610d2157602002820191906000526020600020905b8160009054906101000a900473ffffffffffffffffffffffffffffffffffffffff1673ffffffffffffffffffffffffffffffffffffffff1681526020019060010190808311610cd7575b505050505091505090565b6000807f7e7e7e7e7e7e7e7e7e7e7e7e7e7e7e7e7e7e7e7e7e7e7e7e7e7e7e7e7e7e7e7e60001b90508091505090565b807f742d82a749e753434604994e78b7465221b2857476dd9086326e5d80df50146c5550565b600082825260208201905092915050565b7f4e6f206d6f64756c6520666f722073656c6563746f7200000000000000000000600082015250565b6000610dc9601683610d82565b9150610dd482610d93565b602082019050919050565b60006020820190508181036000830152610df881610dbc565b9050919050565b6000604051905090565b600080fd5b600080fd5b600073ffffffffffffffffffffffffffffffffffffffff82169050919050565b6000610e3e82610e13565b9050919050565b610e4e81610e33565b8114610e5957600080fd5b50565b600081359050610e6b81610e45565b92915050565b600060208284031215610e8757610e86610e09565b5b6000610e9584828501610e5c565b91505092915050565b610ea781610e33565b82525050565b6000602082019050610ec26000830184610e9e565b92915050565b600080fd5b600080fd5b600080fd5b60008083601f840112610eed57610eec610ec8565b5b8235905067ffffffffffffffff811115610f0a57610f09610ecd565b5b602083019150836020820283011115610f2657610f25610ed2565b5b9250929050565b60008083601f840112610f4357610f42610ec8565b5b8235905067ffffffffffffffff811115610f6057610f5f610ecd565b5b602083019150836020820283011115610f7c57610f7b610ed2565b5b9250929050565b60008060008060408587031215610f9d57610f9c610e09565b5b600085013567ffffffffffffffff811115610fbb57610fba610e0e565b5b610fc787828801610ed7565b9450945050602085013567ffffffffffffffff811115610fea57610fe9610e0e565b5b610ff687828801610f2d565b925092505092959194509250565b600081519050919050565b600082825260208201905092915050565b6000819050602082019050919050565b61103981610e33565b82525050565b600061104b8383611030565b60208301905092915050565b6000602082019050919050565b600061106f82611004565b611079818561100f565b935061108483611020565b8060005b838110156110b557815161109c888261103f565b97506110a783611057565b925050600181019050611088565b5085935050505092915050565b600060208201905081810360008301526110dc8184611064565b905092915050565b7f4f6e6c7920666163746f72792063616e20616464000000000000000000000000600082015250565b600061111a601483610d82565b9150611125826110e4565b602082019050919050565b600060208201905081810360008301526111498161110d565b9050919050565b7f547265617375727920616c726561647920736574000000000000000000000000600082015250565b6000611186601483610d82565b915061119182611150565b602082019050919050565b600060208201905081810360008301526111b581611179565b9050919050565b600081519050919050565b600081905092915050565b60005b838110156111f05780820151818401526020810190506111d5565b60008484015250505050565b6000611207826111bc565b61121181856111c7565b93506112218185602086016111d2565b80840191505092915050565b600061123982846111fc565b915081905092915050565b7f5472656173757279206d75737420696d706c656d656e742067657453656c656360008201527f746f727328290000000000000000000000000000000000000000000000000000602082015250565b60006112a0602683610d82565b91506112ab82611244565b604082019050919050565b600060208201905081810360008301526112cf81611293565b9050919050565b6000601f19601f8301169050919050565b7f4e487b7100000000000000000000000000000000000000000000000000000000600052604160045260246000fd5b61131f826112d6565b810181811067ffffffffffffffff8211171561133e5761133d6112e7565b5b80604052505050565b6000611351610dff565b905061135d8282611316565b919050565b600067ffffffffffffffff82111561137d5761137c6112e7565b5b602082029050602081019050919050565b60007fffffffff0000000000000000000000000000000000000000000000000000000082169050919050565b6113c38161138e565b81146113ce57600080fd5b50565b6000815190506113e0816113ba565b92915050565b60006113f96113f484611362565b611347565b9050808382526020820190506020840283018581111561141c5761141b610ed2565b5b835b81811015611445578061143188826113d1565b84526020840193505060208101905061141e565b5050509392505050565b600082601f83011261146457611463610ec8565b5b81516114748482602086016113e6565b91505092915050565b60006020828403121561149357611492610e09565b5b600082015167ffffffffffffffff8111156114b1576114b0610e0e565b5b6114bd8482850161144f565b91505092915050565b7f4e487b7100000000000000000000000000000000000000000000000000000000600052603260045260246000fd5b7f4b65726e656c3a20616c726561647920696e697469616c697a65640000000000600082015250565b600061152b601b83610d82565b9150611536826114f5565b602082019050919050565b6000602082019050818103600083015261155a8161151e565b9050919050565b7f4e6f206d6f64756c65732070726f766964656400000000000000000000000000600082015250565b6000611597601383610d82565b91506115a282611561565b602082019050919050565b600060208201905081810360008301526115c68161158a565b9050919050565b7f4d6f64756c65732f696e697444617461206c656e677468206d69736d61746368600082015250565b6000611603602083610d82565b915061160e826115cd565b602082019050919050565b60006020820190508181036000830152611632816115f6565b9050919050565b7f4d6f64756c65206d75737420696d706c656d656e742067657453656c6563746f60008201527f7273282900000000000000000000000000000000000000000000000000000000602082015250565b6000611695602483610d82565b91506116a082611639565b604082019050919050565b600060208201905081810360008301526116c481611688565b9050919050565b600080fd5b600080fd5b600080fd5b600080833560016020038436030381126116f7576116f66116cb565b5b80840192508235915067ffffffffffffffff821115611719576117186116d0565b5b602083019250600182023603831315611735576117346116d5565b5b509250929050565b600082825260208201905092915050565b82818337600083830152505050565b6000611769838561173d565b935061177683858461174e565b61177f836112d6565b840190509392505050565b600060208201905081810360008301526117a581848661175d565b90509392505050565b7f4d6f64756c6520696e6974206661696c65640000000000000000000000000000600082015250565b60006117e4601283610d82565b91506117ef826117ae565b602082019050919050565b60006020820190508181036000830152611813816117d7565b905091905056fea26469706673582212202fda91f2144f49ea37e1f36a9e60d2af37b460cbb9000cf8fb6f6a6d1c21216064736f6c634300081c0033",
  "linkReferences": {},
  "deployedLinkReferences": {}
}