{
  "_format": "hh-sol-artifact-1",
  "contractName": "DocumentSigningModule",
  "sourceName": "contracts/contracts/dao/modules/DocumentSigningModule.sol",
  "abi": [
    {
      "anonymous": false,
      "inputs": [
        {
          "indexed": true,
          "internalType": "uint256",
          "name": "documentId",
          "type": "uint256"
        },
        {
          "indexed": false,
          "internalType": "string",
          "name": "title",
          "type": "string"
        },
        {
          "indexed": false,
          "internalType": "address",
          "name": "creator",
          "type": "address"
        },
        {
          "indexed": false,
          "internalType": "uint256",
          "name": "requiredSignersCount",
          "type": "uint256"
        }
      ],
      "name": "DocumentCreated",
      "type": "event"
    },
    {
      "anonymous": false,
      "inputs": [
        {
          "indexed": true,
          "internalType": "uint256",
          "name": "documentId",
          "type": "uint256"
        }
      ],
      "name": "DocumentExecuted",
      "type": "event"
    },
    {
      "anonymous": false,
      "inputs": [
        {
          "indexed": true,
          "internalType": "uint256",
          "name": "documentId",
          "type": "uint256"
        },
        {
          "indexed": false,
          "internalType": "address",
          "name": "signer",
          "type": "address"
        }
      ],
      "name": "DocumentSigned",
      "type": "event"
    },
    {
      "inputs": [
        {
          "internalType": "string",
          "name": "ipfsHash",
          "type": "string"
        },
        {
          "internalType": "string",
          "name": "title",
          "type": "string"
        },
        {
          "internalType": "string",
          "name": "description",
          "type": "string"
        },
        {
          "internalType": "address[]",
          "name": "requiredSigners",
          "type": "address[]"
        }
      ],
      "name": "createDocument",
      "outputs": [
        {
          "internalType": "uint256",
          "name": "",
          "type": "uint256"
        }
      ],
      "stateMutability": "nonpayable",
      "type": "function"
    },
    {
      "inputs": [
        {
          "internalType": "uint256",
          "name": "offset",
          "type": "uint256"
        },
        {
          "internalType": "uint256",
          "name": "limit",
          "type": "uint256"
        }
      ],
      "name": "getAllDocumentsPaginated",
      "outputs": [
        {
          "internalType": "uint256[]",
          "name": "documentIds",
          "type": "uint256[]"
        },
        {
          "internalType": "string[]",
          "name": "titles",
          "type": "string[]"
        },
        {
          "internalType": "string[]",
          "name": "descriptions",
          "type": "string[]"
        },
        {
          "internalType": "address[]",
          "name": "creators",
          "type": "address[]"
        },
        {
          "internalType": "uint256[]",
          "name": "signedCounts",
          "type": "uint256[]"
        },
        {
          "internalType": "uint256[]",
          "name": "totalSigners",
          "type": "uint256[]"
        },
        {
          "internalType": "bool[]",
          "name": "isExecuted",
          "type": "bool[]"
        },
        {
          "internalType": "uint256",
          "name": "totalCount",
          "type": "uint256"
        }
      ],
      "stateMutability": "view",
      "type": "function"
    },
    {
      "inputs": [
        {
          "internalType": "uint256",
          "name": "documentId",
          "type": "uint256"
        }
      ],
      "name": "getDocument",
      "outputs": [
        {
          "internalType": "uint256",
          "name": "_documentId",
          "type": "uint256"
        },
        {
          "internalType": "string",
          "name": "ipfsHash",
          "type": "string"
        },
        {
          "internalType": "string",
          "name": "title",
          "type": "string"
        },
        {
          "internalType": "string",
          "name": "description",
          "type": "string"
        },
        {
          "internalType": "address",
          "name": "creator",
          "type": "address"
        },
        {
          "internalType": "address[]",
          "name": "requiredSigners",
          "type": "address[]"
        },
        {
          "internalType": "uint256",
          "name": "signedCount",
          "type": "uint256"
        },
        {
          "internalType": "bool",
          "name": "isExecuted",
          "type": "bool"
        },
        {
          "internalType": "uint256",
          "name": "createdAt",
          "type": "uint256"
        },
        {
          "internalType": "uint256",
          "name": "executedAt",
          "type": "uint256"
        }
      ],
      "stateMutability": "view",
      "type": "function"
    },
    {
      "inputs": [],
      "name": "getDocumentCount",
      "outputs": [
        {
          "internalType": "uint256",
          "name": "",
          "type": "uint256"
        }
      ],
      "stateMutability": "view",
      "type": "function"
    },
    {
      "inputs": [
        {
          "internalType": "uint256",
          "name": "offset",
          "type": "uint256"
        },
        {
          "internalType": "uint256",
          "name": "limit",
          "type": "uint256"
        }
      ],
      "name": "getExecutedDocumentsPaginated",
      "outputs": [
        {
          "internalType": "uint256[]",
          "name": "documentIds",
          "type": "uint256[]"
        },
        {
          "internalType": "string[]",
          "name": "titles",
          "type": "string[]"
        },
        {
          "internalType": "string[]",
          "name": "descriptions",
          "type": "string[]"
        },
        {
          "internalType": "address[]",
          "name": "creators",
          "type": "address[]"
        },
        {
          "internalType": "uint256[]",
          "name": "signedCounts",
          "type": "uint256[]"
        },
        {
          "internalType": "uint256[]",
          "name": "totalSigners",
          "type": "uint256[]"
        },
        {
          "internalType": "uint256",
          "name": "totalCount",
          "type": "uint256"
        }
      ],
      "stateMutability": "view",
      "type": "function"
    },
    {
      "inputs": [
        {
          "internalType": "uint256",
          "name": "offset",
          "type": "uint256"
        },
        {
          "internalType": "uint256",
          "name": "limit",
          "type": "uint256"
        }
      ],
      "name": "getPendingDocumentsPaginated",
      "outputs": [
        {
          "internalType": "uint256[]",
          "name": "documentIds",
          "type": "uint256[]"
        },
        {
          "internalType": "string[]",
          "name": "titles",
          "type": "string[]"
        },
        {
          "internalType": "string[]",
          "name": "descriptions",
          "type": "string[]"
        },
        {
          "internalType": "address[]",
          "name": "creators",
          "type": "address[]"
        },
        {
          "internalType": "uint256[]",
          "name": "signedCounts",
          "type": "uint256[]"
        },
        {
          "internalType": "uint256[]",
          "name": "totalSigners",
          "type": "uint256[]"
        },
        {
          "internalType": "uint256",
          "name": "totalCount",
          "type": "uint256"
        }
      ],
      "stateMutability": "view",
      "type": "function"
    },
    {
      "inputs": [],
      "name": "getSelectors",
      "outputs": [
        {
          "internalType": "bytes4[]",
          "name": "selectors",
          "type": "bytes4[]"
        }
      ],
      "stateMutability": "pure",
      "type": "function"
    },
    {
      "inputs": [
        {
          "internalType": "uint256",
          "name": "documentId",
          "type": "uint256"
        }
      ],
      "name": "signDocument",
      "outputs": [],
      "stateMutability": "nonpayable",
      "type": "function"
    }
  ],
  "bytecode": "0x60808060405234601557611430908161001b8239f35b600080fdfe6080604052600436101561001257600080fd5b60003560e01c80632073c411146100975780633d1c2273146100925780633f9b250a1461008d5780634b503f0b146100885780635ea3287a1461008357806363a50d501461007e578063b7a87f07146100795763c8733cd41461007457600080fd5b610bee565b610a67565b610893565b6106dc565b6104aa565b610384565b61025b565b346101aa5760803660031901126101aa5760043567ffffffffffffffff81116101aa576100c89036906004016101ec565b60243567ffffffffffffffff81116101aa576100e89036906004016101ec565b60443567ffffffffffffffff81116101aa576101089036906004016101ec565b906064359267ffffffffffffffff84116101aa57366023850112156101aa57836004013561013581610243565b9461014360405196876101c5565b8186526024602087019260051b820101903682116101aa57602401915b81831061018a5761018661017688888888610fed565b6040519081529081906020820190565b0390f35b82356001600160a01b03811681036101aa57815260209283019201610160565b600080fd5b634e487b7160e01b600052604160045260246000fd5b90601f8019910116810190811067ffffffffffffffff8211176101e757604052565b6101af565b81601f820112156101aa5780359067ffffffffffffffff82116101e75760405192610221601f8401601f1916602001856101c5565b828452602083830101116101aa57816000926020809301838601378301015290565b67ffffffffffffffff81116101e75760051b60200190565b346101aa5760003660031901126101aa5760206000805160206113db83398151915254604051908152f35b919082519283825260005b8481106102b2575050826000602080949584010152601f8019910116010190565b80602080928401015182828601015201610291565b906020808351928381520192019060005b8181106102e55750505090565b82516001600160a01b03168452602093840193909201916001016102d8565b969a999895919361034261012099969461033461036d97610350958c5261014060208d01526101408c0190610286565b908a820360408c0152610286565b9088820360608a0152610286565b6001600160a01b03909216608087015285820360a08701526102c7565b9660c0840152151560e08301526101008201520152565b346101aa5760203660031901126101aa576004356000526000805160206113bb8339815191526020526040600020805460018060a01b03600483015416906005830192600781015460ff600883015416600983015491600a840154936103ec60018201611101565b9661040560036103fe60028501611101565b9301611101565b604051928360208c5491828152019b60005260206000209060005b8181106104475750505061043b846101869a9b9c03856101c5565b6040519a8b9a8b610304565b82546001600160a01b03168e526020909d019c60019283019201610420565b602060408183019282815284518094520192019060005b81811061048a5750505090565b82516001600160e01b03191684526020938401939092019160010161047d565b346101aa5760003660031901126101aa57604051610186906104ce610100826101c5565b60078152601f196104df6007610243565b013660208301376104fe6104f2826111b9565b632073c41160e01b9052565b61051661050a826111cb565b63063a50d560e41b9052565b61052e610522826111db565b631fcd928560e11b9052565b61054661053a826111eb565b63b7a87f0760e01b9052565b61055e610552826111fb565b63321ccf3560e21b9052565b61057661056a8261120b565b632f51943d60e11b9052565b61058e6105828261121b565b633d1c227360e01b9052565b60405191829182610466565b906020808351928381520192019060005b8181106105b85750505090565b82518452602093840193909201916001016105ab565b9080602083519182815201916020808360051b8301019401926000915b8383106105fa57505050505090565b9091929394602080610618600193601f198682030187528951610286565b970193019301919392906105eb565b989796959361066f61068b946106618c610699999661065361067d97610100845261010084019061059a565b9160208184039101526105ce565b8c810360408e0152906105ce565b908a820360608c01526102c7565b9088820360808a015261059a565b9086820360a088015261059a565b9084820360c08601526020808251938481520191019160005b8181106106c457505060e09150930152565b835115158352602093840193909201916001016106b2565b346101aa5760403660031901126101aa5760043560243561070d6000805160206113db83398151915254918361123f565b81811161088c575b826000918181116000146108845761072d925061124c565b905b61073882611259565b906107428361128b565b9261074c8161128b565b61075582611259565b61075e83611259565b9061076884611259565b9261077285611259565b9460005b818110610790575050604051985088976101869789610627565b8061087e61086d60088c8f8f966001976107cd6107b0836107f79561123f565b6000526000805160206113bb833981519152602052604060002090565b936107da8386549261122b565b526107e760028501611101565b6107f1838361122b565b5261122b565b5061080460038201611101565b61080e868a61122b565b52610819858961122b565b506004810154610845906001600160a01b0316610836878c61122b565b6001600160a01b039091169052565b6007810154610854868c61122b565b526005810154610864868d61122b565b52015460ff1690565b610877838b61122b565b9015159052565b01610776565b50509061072f565b5080610715565b346101aa5760203660031901126101aa576004356108c8816000526000805160206113bb833981519152602052604060002090565b60088101906108e76108e26108de845460ff1690565b1590565b6112d5565b600681019161091d6109186108de61091133879060018060a01b0316600052602052604060002090565b5460ff1690565b611321565b60058201805460009490855b8181106109e6575b50506109599061094661096693949596611376565b3360009081526020919091526040902090565b805460ff19166001179055565b600783016109748154610dbc565b815560405133815285907f4f45c30875f552d4b5d0a40abede6e40cb9e3b5df6c24df5026d21f5417a7c7090602090a2549054146109ae57005b805460ff19166001179055600a429101557f3068585e120a8ac52245819417fbf44a07a4423d2e5d2b6d77c4e585d7d043ff600080a2005b610a0d610a196109f6838761135e565b9054339360039290921b1c6001600160a01b031690565b6001600160a01b031690565b14610a2657600101610929565b5060019550819050610946610931565b97969592610a629461066f61067d926106618c61068b9761065360c09c9860e0845260e084019061059a565b930152565b346101aa5760403660031901126101aa57600435602435610a986000805160206113db83398151915254918361123f565b90808211610be6575b5081600091818111600014610bde57610aba925061124c565b905b610ac582611259565b610ace8361128b565b91610ad88461128b565b93610ae281611259565b610aeb82611259565b90610af583611259565b92600094855b828110610b27575050508385528386528387528381528382528383526040519687966101869688610a36565b610b346107b0828461123f565b8a8a8a610b486108de600886015460ff1690565b610b59575b50505050600101610afb565b92610b958b8094610b88826001999f96610bd499610b7b60059989549261122b565b526107e760028801611101565b506107e760038501611101565b506004810154610bb2906001600160a01b0316610836858b61122b565b6007810154610bc1848b61122b565b520154610bce828a61122b565b52610dbc565b96908a8a8a610b4d565b505090610abc565b905038610aa1565b346101aa5760403660031901126101aa57600435602435610c1f6000805160206113db83398151915254918361123f565b90808211610d11575b5081600091818111600014610d0957610c41925061124c565b905b610c4c82611259565b610c558361128b565b91610c5f8461128b565b93610c6981611259565b610c7282611259565b90610c7c83611259565b92600094855b828110610cae575050508385528386528387528381528382528383526040519687966101869688610a36565b610cbb6107b0828461123f565b8a8a8a610ccc600885015460ff1690565b610cdd575b50505050600101610c82565b92610b958b8094610b88826001999f96610cff99610b7b60059989549261122b565b96908a8a8a610cd1565b505090610c43565b905038610c28565b15610d2057565b60405162461bcd60e51b815260206004820152601c60248201527f4174206c65617374206f6e65207369676e6572207265717569726564000000006044820152606490fd5b15610d6c57565b60405162461bcd60e51b815260206004820152601260248201527112541194c81a185cda081c995c5d5a5c995960721b6044820152606490fd5b634e487b7160e01b600052601160045260246000fd5b6000198114610dcb5760010190565b610da6565b90600182811c92168015610e00575b6020831014610dea57565b634e487b7160e01b600052602260045260246000fd5b91607f1691610ddf565b818110610e15575050565b60008155600101610e0a565b9190601f8111610e3057505050565b610e5c926000526020600020906020601f840160051c83019310610e5e575b601f0160051c0190610e0a565b565b9091508190610e4f565b919091825167ffffffffffffffff81116101e757610e9081610e8a8454610dd0565b84610e21565b6020601f8211600114610ed1578190610ec2939495600092610ec6575b50508160011b916000199060031b1c19161790565b9055565b015190503880610ead565b601f19821690610ee684600052602060002090565b9160005b818110610f2257509583600195969710610f09575b505050811b019055565b015160001960f88460031b161c19169055388080610eff565b9192602060018192868b015181550194019201610eea565b81519167ffffffffffffffff83116101e7576801000000000000000083116101e7576020908254848455808510610fa4575b500190600052602060002060005b838110610f875750505050565b82516001600160a01b031681830155602090920191600101610f7a565b610fbb908460005285846000209182019101610e0a565b38610f6c565b610fd960409295949395606083526060830190610286565b6001600160a01b0390951660208201520152565b906110a8936000600a7fdf47f690a6078ddad04ec68b97707a3b24fb67edab9c9bad207bd20f78b6e8979461102484511515610d19565b61103081511515610d65565b6000805160206113db8339815191525497889761106161104f8a610dbc565b6000805160206113db83398151915255565b6110926110858a6000526000805160206113bb833981519152602052604060002090565b938a855560018501610e68565b61109f8760028501610e68565b60038301610e68565b6004810180546001600160a01b031916331790556110c98460058301610f3a565b8260078201556110e06008820160ff198154169055565b426009820155015551906110fb604051928392339084610fc1565b0390a290565b906040519182600082549261111584610dd0565b8084529360018116908115611181575060011461113a575b50610e5c925003836101c5565b90506000929192526020600020906000915b818310611165575050906020610e5c928201013861112d565b602091935080600191548385890101520191019091849261114c565b905060209250610e5c94915060ff191682840152151560051b8201013861112d565b634e487b7160e01b600052603260045260246000fd5b8051156111c65760200190565b6111a3565b8051600110156111c65760400190565b8051600210156111c65760600190565b8051600310156111c65760800190565b8051600410156111c65760a00190565b8051600510156111c65760c00190565b8051600610156111c65760e00190565b80518210156111c65760209160051b010190565b91908201809211610dcb57565b91908203918211610dcb57565b9061126382610243565b61127060405191826101c5565b8281528092611281601f1991610243565b0190602036910137565b9061129582610243565b6112a260405191826101c5565b82815280926112b3601f1991610243565b019060005b8281106112c457505050565b8060606020809385010152016112b8565b156112dc57565b60405162461bcd60e51b815260206004820152601960248201527f446f63756d656e7420616c7265616479206578656375746564000000000000006044820152606490fd5b1561132857565b60405162461bcd60e51b815260206004820152600e60248201526d105b1c9958591e481cda59db995960921b6044820152606490fd5b80548210156111c65760005260206000200190600090565b1561137d57565b60405162461bcd60e51b81526020600482015260156024820152742737ba1030903932b8bab4b932b21039b4b3b732b960591b6044820152606490fdfee0a8a2903359284ea5925a18dcf69e7433428a9c0ee8959e105b99eff34c35b9e0a8a2903359284ea5925a18dcf69e7433428a9c0ee8959e105b99eff34c35baa2646970667358221220badbe114d4d1c0ad617b33f8efc3ea893c073050920a3e8615cb781163c4a57564736f6c634300081c0033",
  "linkReferences": {},
  "deployedLinkReferences": {}
}