{
  "_format": "hh-sol-artifact-1",
  "contractName": "MemberModule",
  "sourceName": "contracts/contracts/dao/modules/MemberModule.sol",
  "abi": [
    {
      "anonymous": false,
      "inputs": [
        {
          "indexed": true,
          "internalType": "address",
          "name": "requester",
          "type": "address"
        },
        {
          "indexed": false,
          "internalType": "bool",
          "name": "accepted",
          "type": "bool"
        }
      ],
      "name": "JoinRequestHandled",
      "type": "event"
    },
    {
      "anonymous": false,
      "inputs": [
        {
          "indexed": true,
          "internalType": "address",
          "name": "requester",
          "type": "address"
        }
      ],
      "name": "JoinRequested",
      "type": "event"
    },
    {
      "anonymous": false,
      "inputs": [
        {
          "indexed": true,
          "internalType": "address",
          "name": "member",
          "type": "address"
        },
        {
          "indexed": false,
          "internalType": "enum MemberStorage.Role",
          "name": "role",
          "type": "uint8"
        }
      ],
      "name": "MemberAdded",
      "type": "event"
    },
    {
      "anonymous": false,
      "inputs": [
        {
          "indexed": true,
          "internalType": "address",
          "name": "member",
          "type": "address"
        }
      ],
      "name": "MemberRemoved",
      "type": "event"
    },
    {
      "anonymous": false,
      "inputs": [
        {
          "indexed": true,
          "internalType": "address",
          "name": "member",
          "type": "address"
        },
        {
          "indexed": false,
          "internalType": "enum MemberStorage.Role",
          "name": "newRole",
          "type": "uint8"
        }
      ],
      "name": "RoleChanged",
      "type": "event"
    },
    {
      "inputs": [
        {
          "internalType": "address",
          "name": "requester",
          "type": "address"
        },
        {
          "internalType": "enum MemberStorage.Role",
          "name": "role",
          "type": "uint8"
        }
      ],
      "name": "acceptRequest",
      "outputs": [],
      "stateMutability": "nonpayable",
      "type": "function"
    },
    {
      "inputs": [
        {
          "internalType": "address",
          "name": "member",
          "type": "address"
        },
        {
          "internalType": "enum MemberStorage.Role",
          "name": "newRole",
          "type": "uint8"
        }
      ],
      "name": "changeRole",
      "outputs": [],
      "stateMutability": "nonpayable",
      "type": "function"
    },
    {
      "inputs": [],
      "name": "getJoinRequestCount",
      "outputs": [
        {
          "internalType": "uint256",
          "name": "",
          "type": "uint256"
        }
      ],
      "stateMutability": "view",
      "type": "function"
    },
    {
      "inputs": [
        {
          "internalType": "uint256",
          "name": "offset",
          "type": "uint256"
        },
        {
          "internalType": "uint256",
          "name": "limit",
          "type": "uint256"
        }
      ],
      "name": "getJoinRequestsPaginated",
      "outputs": [
        {
          "internalType": "address[]",
          "name": "",
          "type": "address[]"
        }
      ],
      "stateMutability": "view",
      "type": "function"
    },
    {
      "inputs": [],
      "name": "getMemberCount",
      "outputs": [
        {
          "internalType": "uint256",
          "name": "",
          "type": "uint256"
        }
      ],
      "stateMutability": "view",
      "type": "function"
    },
    {
      "inputs": [
        {
          "internalType": "uint256",
          "name": "offset",
          "type": "uint256"
        },
        {
          "internalType": "uint256",
          "name": "limit",
          "type": "uint256"
        }
      ],
      "name": "getMembersPaginated",
      "outputs": [
        {
          "internalType": "address[]",
          "name": "",
          "type": "address[]"
        }
      ],
      "stateMutability": "view",
      "type": "function"
    },
    {
      "inputs": [
        {
          "internalType": "address",
          "name": "user",
          "type": "address"
        }
      ],
      "name": "getRole",
      "outputs": [
        {
          "internalType": "uint8",
          "name": "",
          "type": "uint8"
        }
      ],
      "stateMutability": "view",
      "type": "function"
    },
    {
      "inputs": [],
      "name": "getSelectors",
      "outputs": [
        {
          "internalType": "bytes4[]",
          "name": "selectors",
          "type": "bytes4[]"
        }
      ],
      "stateMutability": "pure",
      "type": "function"
    },
    {
      "inputs": [
        {
          "internalType": "bytes",
          "name": "data",
          "type": "bytes"
        }
      ],
      "name": "init",
      "outputs": [],
      "stateMutability": "nonpayable",
      "type": "function"
    },
    {
      "inputs": [
        {
          "internalType": "address",
          "name": "",
          "type": "address"
        }
      ],
      "name": "joinRequests",
      "outputs": [
        {
          "internalType": "bool",
          "name": "",
          "type": "bool"
        }
      ],
      "stateMutability": "view",
      "type": "function"
    },
    {
      "inputs": [
        {
          "internalType": "address",
          "name": "requester",
          "type": "address"
        }
      ],
      "name": "rejectRequest",
      "outputs": [],
      "stateMutability": "nonpayable",
      "type": "function"
    },
    {
      "inputs": [
        {
          "internalType": "address",
          "name": "member",
          "type": "address"
        }
      ],
      "name": "removeMember",
      "outputs": [],
      "stateMutability": "nonpayable",
      "type": "function"
    },
    {
      "inputs": [],
      "name": "requestToJoin",
      "outputs": [],
      "stateMutability": "nonpayable",
      "type": "function"
    }
  ],
  "bytecode": "0x6080604052348015600f57600080fd5b506125ad8061001f6000396000f3fe608060405234801561001057600080fd5b50600436106100cf5760003560e01c80638bd1e6781161008c578063ca07b4b411610066578063ca07b4b414610212578063d7380ca01461022e578063d738c9c61461024a578063ef21310614610254576100cf565b80638bd1e678146101945780638d295cc9146101c4578063997072f7146101f4576100cf565b806304571045146100d45780630b1ca49a146100f05780633a54ba691461010c578063442767331461012a5780634b503f0b1461015a5780634ddf47d414610178575b600080fd5b6100ee60048036038101906100e99190611c39565b610284565b005b61010a60048036038101906101059190611c79565b61062a565b005b6101146109df565b6040516101219190611cbf565b60405180910390f35b610144600480360381019061013f9190611c79565b6109ec565b6040516101519190611cf6565b60405180910390f35b610162610a5d565b60405161016f9190611dfb565b60405180910390f35b610192600480360381019061018d9190611e82565b610f26565b005b6101ae60048036038101906101a99190611efb565b61111c565b6040516101bb9190611ff9565b60405180910390f35b6101de60048036038101906101d99190611efb565b6112b5565b6040516101eb9190611ff9565b60405180910390f35b6101fc61144e565b6040516102099190611cbf565b60405180910390f35b61022c60048036038101906102279190611c79565b61145b565b005b61024860048036038101906102439190611c39565b61164a565b005b610252611918565b005b61026e60048036038101906102699190611c79565b611b5f565b60405161027b9190612036565b60405180910390f35b60028081111561029757610296612051565b5b61029f611b7f565b60000160003373ffffffffffffffffffffffffffffffffffffffff1673ffffffffffffffffffffffffffffffffffffffff16815260200190815260200160002060009054906101000a900460ff1660028111156102ff576102fe612051565b5b1461033f576040517f08c379a0000000000000000000000000000000000000000000000000000000008152600401610336906120dd565b60405180910390fd5b6000808373ffffffffffffffffffffffffffffffffffffffff1673ffffffffffffffffffffffffffffffffffffffff16815260200190815260200160002060009054906101000a900460ff166103ca576040517f08c379a00000000000000000000000000000000000000000000000000000000081526004016103c190612149565b60405180910390fd5b600160028111156103de576103dd612051565b5b8160028111156103f1576103f0612051565b5b1480610420575060028081111561040b5761040a612051565b5b81600281111561041e5761041d612051565b5b145b61045f576040517f08c379a0000000000000000000000000000000000000000000000000000000008152600401610456906121b5565b60405180910390fd5b60008060008473ffffffffffffffffffffffffffffffffffffffff1673ffffffffffffffffffffffffffffffffffffffff16815260200190815260200160002060006101000a81548160ff021916908315150217905550806104bf611b7f565b60000160008473ffffffffffffffffffffffffffffffffffffffff1673ffffffffffffffffffffffffffffffffffffffff16815260200190815260200160002060006101000a81548160ff0219169083600281111561052157610520612051565b5b02179055506002829080600181540180825580915050600190039060005260206000200160009091909190916101000a81548173ffffffffffffffffffffffffffffffffffffffff021916908373ffffffffffffffffffffffffffffffffffffffff1602179055508173ffffffffffffffffffffffffffffffffffffffff167ff833c29297cb62e4d5e38257097ec5d6575967915f151215dd8fc03f8f548ce8826040516105cf919061221d565b60405180910390a28173ffffffffffffffffffffffffffffffffffffffff167f5f3d984ec8f0b4935390c76a7f8c50de8dc4edebc1c0327314e1d78c4e993dae600160405161061e9190612036565b60405180910390a25050565b60028081111561063d5761063c612051565b5b610645611b7f565b60000160003373ffffffffffffffffffffffffffffffffffffffff1673ffffffffffffffffffffffffffffffffffffffff16815260200190815260200160002060009054906101000a900460ff1660028111156106a5576106a4612051565b5b146106e5576040517f08c379a00000000000000000000000000000000000000000000000000000000081526004016106dc906120dd565b60405180910390fd5b600060028111156106f9576106f8612051565b5b610701611b7f565b60000160008373ffffffffffffffffffffffffffffffffffffffff1673ffffffffffffffffffffffffffffffffffffffff16815260200190815260200160002060009054906101000a900460ff16600281111561076157610760612051565b5b036107a1576040517f08c379a000000000000000000000000000000000000000000000000000000000815260040161079890612284565b60405180910390fd5b60006107ab611b7f565b60000160008373ffffffffffffffffffffffffffffffffffffffff1673ffffffffffffffffffffffffffffffffffffffff16815260200190815260200160002060006101000a81548160ff0219169083600281111561080d5761080c612051565b5b021790555060005b600280549050811015610998578173ffffffffffffffffffffffffffffffffffffffff166002828154811061084d5761084c6122a4565b5b9060005260206000200160009054906101000a900473ffffffffffffffffffffffffffffffffffffffff1673ffffffffffffffffffffffffffffffffffffffff160361098b57600260016002805490506108a79190612302565b815481106108b8576108b76122a4565b5b9060005260206000200160009054906101000a900473ffffffffffffffffffffffffffffffffffffffff16600282815481106108f7576108f66122a4565b5b9060005260206000200160006101000a81548173ffffffffffffffffffffffffffffffffffffffff021916908373ffffffffffffffffffffffffffffffffffffffff160217905550600280548061095157610950612336565b5b6001900381819060005260206000200160006101000a81549073ffffffffffffffffffffffffffffffffffffffff02191690559055610998565b8080600101915050610815565b508073ffffffffffffffffffffffffffffffffffffffff167f6e76fb4c77256006d9c38ec7d82b45a8c8f3c27b1d6766fffc42dfb8de68449260405160405180910390a250565b6000600180549050905090565b60006109f6611b7f565b60000160008373ffffffffffffffffffffffffffffffffffffffff1673ffffffffffffffffffffffffffffffffffffffff16815260200190815260200160002060009054906101000a900460ff166002811115610a5657610a55612051565b5b9050919050565b6060600b67ffffffffffffffff811115610a7a57610a79612365565b5b604051908082528060200260200182016040528015610aa85781602001602082028036833780820191505090505b50905063d738c9c660e01b81600081518110610ac757610ac66122a4565b5b60200260200101907bffffffffffffffffffffffffffffffffffffffffffffffffffffffff191690817bffffffffffffffffffffffffffffffffffffffffffffffffffffffff191681525050630457104560e01b81600181518110610b2f57610b2e6122a4565b5b60200260200101907bffffffffffffffffffffffffffffffffffffffffffffffffffffffff191690817bffffffffffffffffffffffffffffffffffffffffffffffffffffffff19168152505063ca07b4b460e01b81600281518110610b9757610b966122a4565b5b60200260200101907bffffffffffffffffffffffffffffffffffffffffffffffffffffffff191690817bffffffffffffffffffffffffffffffffffffffffffffffffffffffff191681525050630b1ca49a60e01b81600381518110610bff57610bfe6122a4565b5b60200260200101907bffffffffffffffffffffffffffffffffffffffffffffffffffffffff191690817bffffffffffffffffffffffffffffffffffffffffffffffffffffffff19168152505063d7380ca060e01b81600481518110610c6757610c666122a4565b5b60200260200101907bffffffffffffffffffffffffffffffffffffffffffffffffffffffff191690817bffffffffffffffffffffffffffffffffffffffffffffffffffffffff19168152505063997072f760e01b81600581518110610ccf57610cce6122a4565b5b60200260200101907bffffffffffffffffffffffffffffffffffffffffffffffffffffffff191690817bffffffffffffffffffffffffffffffffffffffffffffffffffffffff191681525050634427673360e01b81600681518110610d3757610d366122a4565b5b60200260200101907bffffffffffffffffffffffffffffffffffffffffffffffffffffffff191690817bffffffffffffffffffffffffffffffffffffffffffffffffffffffff191681525050638bd1e67860e01b81600781518110610d9f57610d9e6122a4565b5b60200260200101907bffffffffffffffffffffffffffffffffffffffffffffffffffffffff191690817bffffffffffffffffffffffffffffffffffffffffffffffffffffffff191681525050638d295cc960e01b81600881518110610e0757610e066122a4565b5b60200260200101907bffffffffffffffffffffffffffffffffffffffffffffffffffffffff191690817bffffffffffffffffffffffffffffffffffffffffffffffffffffffff191681525050633a54ba6960e01b81600981518110610e6f57610e6e6122a4565b5b60200260200101907bffffffffffffffffffffffffffffffffffffffffffffffffffffffff191690817bffffffffffffffffffffffffffffffffffffffffffffffffffffffff19168152505063ef21310660e01b81600a81518110610ed757610ed66122a4565b5b60200260200101907bffffffffffffffffffffffffffffffffffffffffffffffffffffffff191690817bffffffffffffffffffffffffffffffffffffffffffffffffffffffff19168152505090565b6000610f30611b7f565b905060006002811115610f4657610f45612051565b5b8160000160008073ffffffffffffffffffffffffffffffffffffffff1673ffffffffffffffffffffffffffffffffffffffff16815260200190815260200160002060009054906101000a900460ff166002811115610fa757610fa6612051565b5b14610fe7576040517f08c379a0000000000000000000000000000000000000000000000000000000008152600401610fde906123e0565b60405180910390fd5b60008383810190610ff8919061243e565b905060028260000160008373ffffffffffffffffffffffffffffffffffffffff1673ffffffffffffffffffffffffffffffffffffffff16815260200190815260200160002060006101000a81548160ff0219169083600281111561105f5761105e612051565b5b02179055506002819080600181540180825580915050600190039060005260206000200160009091909190916101000a81548173ffffffffffffffffffffffffffffffffffffffff021916908373ffffffffffffffffffffffffffffffffffffffff1602179055508073ffffffffffffffffffffffffffffffffffffffff167ff833c29297cb62e4d5e38257097ec5d6575967915f151215dd8fc03f8f548ce8600260405161110e919061221d565b60405180910390a250505050565b60606000600280549050905080841061118157600067ffffffffffffffff81111561114a57611149612365565b5b6040519080825280602002602001820160405280156111785781602001602082028036833780820191505090505b509150506112af565b6000838561118f919061246b565b90508181111561119d578190505b600085826111ab9190612302565b67ffffffffffffffff8111156111c4576111c3612365565b5b6040519080825280602002602001820160405280156111f25781602001602082028036833780820191505090505b50905060008690505b828110156112a75760028181548110611217576112166122a4565b5b9060005260206000200160009054906101000a900473ffffffffffffffffffffffffffffffffffffffff1682888361124f9190612302565b815181106112605761125f6122a4565b5b602002602001019073ffffffffffffffffffffffffffffffffffffffff16908173ffffffffffffffffffffffffffffffffffffffff168152505080806001019150506111fb565b508093505050505b92915050565b60606000600180549050905080841061131a57600067ffffffffffffffff8111156112e3576112e2612365565b5b6040519080825280602002602001820160405280156113115781602001602082028036833780820191505090505b50915050611448565b60008385611328919061246b565b905081811115611336578190505b600085826113449190612302565b67ffffffffffffffff81111561135d5761135c612365565b5b60405190808252806020026020018201604052801561138b5781602001602082028036833780820191505090505b50905060008690505b8281101561144057600181815481106113b0576113af6122a4565b5b9060005260206000200160009054906101000a900473ffffffffffffffffffffffffffffffffffffffff168288836113e89190612302565b815181106113f9576113f86122a4565b5b602002602001019073ffffffffffffffffffffffffffffffffffffffff16908173ffffffffffffffffffffffffffffffffffffffff16815250508080600101915050611394565b508093505050505b92915050565b6000600280549050905090565b60028081111561146e5761146d612051565b5b611476611b7f565b60000160003373ffffffffffffffffffffffffffffffffffffffff1673ffffffffffffffffffffffffffffffffffffffff16815260200190815260200160002060009054906101000a900460ff1660028111156114d6576114d5612051565b5b14611516576040517f08c379a000000000000000000000000000000000000000000000000000000000815260040161150d906120dd565b60405180910390fd5b6000808273ffffffffffffffffffffffffffffffffffffffff1673ffffffffffffffffffffffffffffffffffffffff16815260200190815260200160002060009054906101000a900460ff166115a1576040517f08c379a000000000000000000000000000000000000000000000000000000000815260040161159890612149565b60405180910390fd5b60008060008373ffffffffffffffffffffffffffffffffffffffff1673ffffffffffffffffffffffffffffffffffffffff16815260200190815260200160002060006101000a81548160ff0219169083151502179055508073ffffffffffffffffffffffffffffffffffffffff167f5f3d984ec8f0b4935390c76a7f8c50de8dc4edebc1c0327314e1d78c4e993dae600060405161163f9190612036565b60405180910390a250565b60028081111561165d5761165c612051565b5b611665611b7f565b60000160003373ffffffffffffffffffffffffffffffffffffffff1673ffffffffffffffffffffffffffffffffffffffff16815260200190815260200160002060009054906101000a900460ff1660028111156116c5576116c4612051565b5b14611705576040517f08c379a00000000000000000000000000000000000000000000000000000000081526004016116fc906120dd565b60405180910390fd5b6000600281111561171957611718612051565b5b611721611b7f565b60000160008473ffffffffffffffffffffffffffffffffffffffff1673ffffffffffffffffffffffffffffffffffffffff16815260200190815260200160002060009054906101000a900460ff16600281111561178157611780612051565b5b036117c1576040517f08c379a00000000000000000000000000000000000000000000000000000000081526004016117b890612284565b60405180910390fd5b600160028111156117d5576117d4612051565b5b8160028111156117e8576117e7612051565b5b1480611817575060028081111561180257611801612051565b5b81600281111561181557611814612051565b5b145b611856576040517f08c379a000000000000000000000000000000000000000000000000000000000815260040161184d906121b5565b60405180910390fd5b8061185f611b7f565b60000160008473ffffffffffffffffffffffffffffffffffffffff1673ffffffffffffffffffffffffffffffffffffffff16815260200190815260200160002060006101000a81548160ff021916908360028111156118c1576118c0612051565b5b02179055508173ffffffffffffffffffffffffffffffffffffffff167f3cdc6ed770815602e888513518c6a3c86c2238544ea0e0086d6647e30b387afe8260405161190c919061221d565b60405180910390a25050565b6000600281111561192c5761192b612051565b5b611934611b7f565b60000160003373ffffffffffffffffffffffffffffffffffffffff1673ffffffffffffffffffffffffffffffffffffffff16815260200190815260200160002060009054906101000a900460ff16600281111561199457611993612051565b5b146119d4576040517f08c379a00000000000000000000000000000000000000000000000000000000081526004016119cb906124eb565b60405180910390fd5b6000803373ffffffffffffffffffffffffffffffffffffffff1673ffffffffffffffffffffffffffffffffffffffff16815260200190815260200160002060009054906101000a900460ff1615611a60576040517f08c379a0000000000000000000000000000000000000000000000000000000008152600401611a5790612557565b60405180910390fd5b60016000803373ffffffffffffffffffffffffffffffffffffffff1673ffffffffffffffffffffffffffffffffffffffff16815260200190815260200160002060006101000a81548160ff0219169083151502179055506001339080600181540180825580915050600190039060005260206000200160009091909190916101000a81548173ffffffffffffffffffffffffffffffffffffffff021916908373ffffffffffffffffffffffffffffffffffffffff1602179055503373ffffffffffffffffffffffffffffffffffffffff167fc34568d64d2d2906cfd932c48ac91e167a570161c0c7799209864b2a46643d7960405160405180910390a2565b60006020528060005260406000206000915054906101000a900460ff1681565b6000807f3ffe2c6d267f6b32cb053e1046dfc1d5dbd97130de1ad8ac22e4e1c6381f586990508091505090565b600080fd5b600080fd5b600073ffffffffffffffffffffffffffffffffffffffff82169050919050565b6000611be182611bb6565b9050919050565b611bf181611bd6565b8114611bfc57600080fd5b50565b600081359050611c0e81611be8565b92915050565b60038110611c2157600080fd5b50565b600081359050611c3381611c14565b92915050565b60008060408385031215611c5057611c4f611bac565b5b6000611c5e85828601611bff565b9250506020611c6f85828601611c24565b9150509250929050565b600060208284031215611c8f57611c8e611bac565b5b6000611c9d84828501611bff565b91505092915050565b6000819050919050565b611cb981611ca6565b82525050565b6000602082019050611cd46000830184611cb0565b92915050565b600060ff82169050919050565b611cf081611cda565b82525050565b6000602082019050611d0b6000830184611ce7565b92915050565b600081519050919050565b600082825260208201905092915050565b6000819050602082019050919050565b60007fffffffff0000000000000000000000000000000000000000000000000000000082169050919050565b611d7281611d3d565b82525050565b6000611d848383611d69565b60208301905092915050565b6000602082019050919050565b6000611da882611d11565b611db28185611d1c565b9350611dbd83611d2d565b8060005b83811015611dee578151611dd58882611d78565b9750611de083611d90565b925050600181019050611dc1565b5085935050505092915050565b60006020820190508181036000830152611e158184611d9d565b905092915050565b600080fd5b600080fd5b600080fd5b60008083601f840112611e4257611e41611e1d565b5b8235905067ffffffffffffffff811115611e5f57611e5e611e22565b5b602083019150836001820283011115611e7b57611e7a611e27565b5b9250929050565b60008060208385031215611e9957611e98611bac565b5b600083013567ffffffffffffffff811115611eb757611eb6611bb1565b5b611ec385828601611e2c565b92509250509250929050565b611ed881611ca6565b8114611ee357600080fd5b50565b600081359050611ef581611ecf565b92915050565b60008060408385031215611f1257611f11611bac565b5b6000611f2085828601611ee6565b9250506020611f3185828601611ee6565b9150509250929050565b600081519050919050565b600082825260208201905092915050565b6000819050602082019050919050565b611f7081611bd6565b82525050565b6000611f828383611f67565b60208301905092915050565b6000602082019050919050565b6000611fa682611f3b565b611fb08185611f46565b9350611fbb83611f57565b8060005b83811015611fec578151611fd38882611f76565b9750611fde83611f8e565b925050600181019050611fbf565b5085935050505092915050565b600060208201905081810360008301526120138184611f9b565b905092915050565b60008115159050919050565b6120308161201b565b82525050565b600060208201905061204b6000830184612027565b92915050565b7f4e487b7100000000000000000000000000000000000000000000000000000000600052602160045260246000fd5b600082825260208201905092915050565b7f4f6e6c792061646d696e00000000000000000000000000000000000000000000600082015250565b60006120c7600a83612080565b91506120d282612091565b602082019050919050565b600060208201905081810360008301526120f6816120ba565b9050919050565b7f4e6f207265717565737400000000000000000000000000000000000000000000600082015250565b6000612133600a83612080565b915061213e826120fd565b602082019050919050565b6000602082019050818103600083015261216281612126565b9050919050565b7f496e76616c696420726f6c650000000000000000000000000000000000000000600082015250565b600061219f600c83612080565b91506121aa82612169565b602082019050919050565b600060208201905081810360008301526121ce81612192565b9050919050565b600381106121e6576121e5612051565b5b50565b60008190506121f7826121d5565b919050565b6000612207826121e9565b9050919050565b612217816121fc565b82525050565b6000602082019050612232600083018461220e565b92915050565b7f4e6f742061206d656d6265720000000000000000000000000000000000000000600082015250565b600061226e600c83612080565b915061227982612238565b602082019050919050565b6000602082019050818103600083015261229d81612261565b9050919050565b7f4e487b7100000000000000000000000000000000000000000000000000000000600052603260045260246000fd5b7f4e487b7100000000000000000000000000000000000000000000000000000000600052601160045260246000fd5b600061230d82611ca6565b915061231883611ca6565b92508282039050818111156123305761232f6122d3565b5b92915050565b7f4e487b7100000000000000000000000000000000000000000000000000000000600052603160045260246000fd5b7f4e487b7100000000000000000000000000000000000000000000000000000000600052604160045260246000fd5b7f416c726561647920696e697469616c697a656400000000000000000000000000600082015250565b60006123ca601383612080565b91506123d582612394565b602082019050919050565b600060208201905081810360008301526123f9816123bd565b9050919050565b600061240b82611bb6565b9050919050565b61241b81612400565b811461242657600080fd5b50565b60008135905061243881612412565b92915050565b60006020828403121561245457612453611bac565b5b600061246284828501612429565b91505092915050565b600061247682611ca6565b915061248183611ca6565b9250828201905080821115612499576124986122d3565b5b92915050565b7f416c72656164792061206d656d626572206f722061646d696e00000000000000600082015250565b60006124d5601983612080565b91506124e08261249f565b602082019050919050565b60006020820190508181036000830152612504816124c8565b9050919050565b7f416c726561647920726571756573746564000000000000000000000000000000600082015250565b6000612541601183612080565b915061254c8261250b565b602082019050919050565b6000602082019050818103600083015261257081612534565b905091905056fea2646970667358221220eb9cf2102195a6d2c2370813566f7f48fd4b82b1e98cc9245aa8729490d3bdfc64736f6c634300081c0033",
  "linkReferences": {},
  "deployedLinkReferences": {}
}