{
  "_format": "hh-sol-artifact-1",
  "contractName": "MemberModule",
  "sourceName": "contracts/contracts/dao/modules/MemberModule.sol",
  "abi": [
    {
      "anonymous": false,
      "inputs": [
        {
          "indexed": true,
          "internalType": "address",
          "name": "requester",
          "type": "address"
        },
        {
          "indexed": false,
          "internalType": "bool",
          "name": "accepted",
          "type": "bool"
        }
      ],
      "name": "JoinRequestHandled",
      "type": "event"
    },
    {
      "anonymous": false,
      "inputs": [
        {
          "indexed": true,
          "internalType": "address",
          "name": "requester",
          "type": "address"
        }
      ],
      "name": "JoinRequested",
      "type": "event"
    },
    {
      "anonymous": false,
      "inputs": [
        {
          "indexed": true,
          "internalType": "address",
          "name": "member",
          "type": "address"
        },
        {
          "indexed": false,
          "internalType": "enum MemberModule.Role",
          "name": "role",
          "type": "uint8"
        }
      ],
      "name": "MemberAdded",
      "type": "event"
    },
    {
      "anonymous": false,
      "inputs": [
        {
          "indexed": true,
          "internalType": "address",
          "name": "member",
          "type": "address"
        }
      ],
      "name": "MemberRemoved",
      "type": "event"
    },
    {
      "anonymous": false,
      "inputs": [
        {
          "indexed": true,
          "internalType": "address",
          "name": "member",
          "type": "address"
        },
        {
          "indexed": false,
          "internalType": "enum MemberModule.Role",
          "name": "newRole",
          "type": "uint8"
        }
      ],
      "name": "RoleChanged",
      "type": "event"
    },
    {
      "inputs": [
        {
          "internalType": "address",
          "name": "requester",
          "type": "address"
        },
        {
          "internalType": "enum MemberModule.Role",
          "name": "role",
          "type": "uint8"
        }
      ],
      "name": "acceptRequest",
      "outputs": [],
      "stateMutability": "nonpayable",
      "type": "function"
    },
    {
      "inputs": [
        {
          "internalType": "address",
          "name": "member",
          "type": "address"
        },
        {
          "internalType": "enum MemberModule.Role",
          "name": "newRole",
          "type": "uint8"
        }
      ],
      "name": "changeRole",
      "outputs": [],
      "stateMutability": "nonpayable",
      "type": "function"
    },
    {
      "inputs": [],
      "name": "getJoinRequestCount",
      "outputs": [
        {
          "internalType": "uint256",
          "name": "",
          "type": "uint256"
        }
      ],
      "stateMutability": "view",
      "type": "function"
    },
    {
      "inputs": [
        {
          "internalType": "uint256",
          "name": "offset",
          "type": "uint256"
        },
        {
          "internalType": "uint256",
          "name": "limit",
          "type": "uint256"
        }
      ],
      "name": "getJoinRequestsPaginated",
      "outputs": [
        {
          "internalType": "address[]",
          "name": "",
          "type": "address[]"
        },
        {
          "internalType": "uint256",
          "name": "total",
          "type": "uint256"
        }
      ],
      "stateMutability": "view",
      "type": "function"
    },
    {
      "inputs": [],
      "name": "getMemberCount",
      "outputs": [
        {
          "internalType": "uint256",
          "name": "",
          "type": "uint256"
        }
      ],
      "stateMutability": "view",
      "type": "function"
    },
    {
      "inputs": [
        {
          "internalType": "uint256",
          "name": "offset",
          "type": "uint256"
        },
        {
          "internalType": "uint256",
          "name": "limit",
          "type": "uint256"
        }
      ],
      "name": "getMembersPaginated",
      "outputs": [
        {
          "internalType": "address[]",
          "name": "",
          "type": "address[]"
        },
        {
          "internalType": "uint256",
          "name": "total",
          "type": "uint256"
        }
      ],
      "stateMutability": "view",
      "type": "function"
    },
    {
      "inputs": [
        {
          "internalType": "address",
          "name": "user",
          "type": "address"
        }
      ],
      "name": "getRole",
      "outputs": [
        {
          "internalType": "enum MemberModule.Role",
          "name": "",
          "type": "uint8"
        }
      ],
      "stateMutability": "view",
      "type": "function"
    },
    {
      "inputs": [],
      "name": "getSelectors",
      "outputs": [
        {
          "internalType": "bytes4[]",
          "name": "selectors",
          "type": "bytes4[]"
        }
      ],
      "stateMutability": "pure",
      "type": "function"
    },
    {
      "inputs": [
        {
          "internalType": "bytes",
          "name": "data",
          "type": "bytes"
        }
      ],
      "name": "init",
      "outputs": [],
      "stateMutability": "nonpayable",
      "type": "function"
    },
    {
      "inputs": [],
      "name": "initialized",
      "outputs": [
        {
          "internalType": "bool",
          "name": "",
          "type": "bool"
        }
      ],
      "stateMutability": "view",
      "type": "function"
    },
    {
      "inputs": [
        {
          "internalType": "address",
          "name": "",
          "type": "address"
        }
      ],
      "name": "joinRequests",
      "outputs": [
        {
          "internalType": "bool",
          "name": "",
          "type": "bool"
        }
      ],
      "stateMutability": "view",
      "type": "function"
    },
    {
      "inputs": [
        {
          "internalType": "address",
          "name": "requester",
          "type": "address"
        }
      ],
      "name": "rejectRequest",
      "outputs": [],
      "stateMutability": "nonpayable",
      "type": "function"
    },
    {
      "inputs": [
        {
          "internalType": "address",
          "name": "member",
          "type": "address"
        }
      ],
      "name": "removeMember",
      "outputs": [],
      "stateMutability": "nonpayable",
      "type": "function"
    },
    {
      "inputs": [],
      "name": "requestToJoin",
      "outputs": [],
      "stateMutability": "nonpayable",
      "type": "function"
    },
    {
      "inputs": [
        {
          "internalType": "address",
          "name": "",
          "type": "address"
        }
      ],
      "name": "roles",
      "outputs": [
        {
          "internalType": "enum MemberModule.Role",
          "name": "",
          "type": "uint8"
        }
      ],
      "stateMutability": "view",
      "type": "function"
    }
  ],
  "bytecode": "0x6080604052348015600f57600080fd5b5061291d8061001f6000396000f3fe608060405234801561001057600080fd5b50600436106100f55760003560e01c80638bd1e67811610097578063ca07b4b411610066578063ca07b4b414610288578063d7380ca0146102a4578063d738c9c6146102c0578063ef213106146102ca576100f5565b80638bd1e678146101d85780638d295cc914610209578063993746421461023a578063997072f71461026a576100f5565b80633a54ba69116100d35780633a54ba6914610150578063442767331461016e5780634b503f0b1461019e5780634ddf47d4146101bc576100f5565b806304571045146100fa5780630b1ca49a14610116578063158ef93e14610132575b600080fd5b610114600480360381019061010f9190611f1e565b6102fa565b005b610130600480360381019061012b9190611f5e565b61068e565b005b61013a610a23565b6040516101479190611fa6565b60405180910390f35b610158610a36565b6040516101659190611fda565b60405180910390f35b61018860048036038101906101839190611f5e565b610b01565b604051610195919061206c565b60405180910390f35b6101a6610b56565b6040516101b39190612171565b60405180910390f35b6101d660048036038101906101d191906121f8565b611087565b005b6101f260048036038101906101ed9190612271565b611223565b60405161020092919061236f565b60405180910390f35b610223600480360381019061021e9190612271565b61140c565b60405161023192919061236f565b60405180910390f35b610254600480360381019061024f9190611f5e565b61176e565b604051610261919061206c565b60405180910390f35b61027261178e565b60405161027f9190611fda565b60405180910390f35b6102a2600480360381019061029d9190611f5e565b61179b565b005b6102be60048036038101906102b99190611f1e565b611982565b005b6102c8611c32565b005b6102e460048036038101906102df9190611f5e565b611e71565b6040516102f19190611fa6565b60405180910390f35b60028081111561030d5761030c611ff5565b5b6000803373ffffffffffffffffffffffffffffffffffffffff1673ffffffffffffffffffffffffffffffffffffffff16815260200190815260200160002060009054906101000a900460ff16600281111561036b5761036a611ff5565b5b146103ab576040517f08c379a00000000000000000000000000000000000000000000000000000000081526004016103a2906123fc565b60405180910390fd5b600260008373ffffffffffffffffffffffffffffffffffffffff1673ffffffffffffffffffffffffffffffffffffffff16815260200190815260200160002060009054906101000a900460ff16610437576040517f08c379a000000000000000000000000000000000000000000000000000000000815260040161042e90612468565b60405180910390fd5b6001600281111561044b5761044a611ff5565b5b81600281111561045e5761045d611ff5565b5b148061048d575060028081111561047857610477611ff5565b5b81600281111561048b5761048a611ff5565b5b145b6104cc576040517f08c379a00000000000000000000000000000000000000000000000000000000081526004016104c3906124d4565b60405180910390fd5b6000600260008473ffffffffffffffffffffffffffffffffffffffff1673ffffffffffffffffffffffffffffffffffffffff16815260200190815260200160002060006101000a81548160ff021916908315150217905550806000808473ffffffffffffffffffffffffffffffffffffffff1673ffffffffffffffffffffffffffffffffffffffff16815260200190815260200160002060006101000a81548160ff0219169083600281111561058557610584611ff5565b5b02179055506001829080600181540180825580915050600190039060005260206000200160009091909190916101000a81548173ffffffffffffffffffffffffffffffffffffffff021916908373ffffffffffffffffffffffffffffffffffffffff1602179055508173ffffffffffffffffffffffffffffffffffffffff167ff833c29297cb62e4d5e38257097ec5d6575967915f151215dd8fc03f8f548ce882604051610633919061206c565b60405180910390a28173ffffffffffffffffffffffffffffffffffffffff167f5f3d984ec8f0b4935390c76a7f8c50de8dc4edebc1c0327314e1d78c4e993dae60016040516106829190611fa6565b60405180910390a25050565b6002808111156106a1576106a0611ff5565b5b6000803373ffffffffffffffffffffffffffffffffffffffff1673ffffffffffffffffffffffffffffffffffffffff16815260200190815260200160002060009054906101000a900460ff1660028111156106ff576106fe611ff5565b5b1461073f576040517f08c379a0000000000000000000000000000000000000000000000000000000008152600401610736906123fc565b60405180910390fd5b6000600281111561075357610752611ff5565b5b6000808373ffffffffffffffffffffffffffffffffffffffff1673ffffffffffffffffffffffffffffffffffffffff16815260200190815260200160002060009054906101000a900460ff1660028111156107b1576107b0611ff5565b5b036107f1576040517f08c379a00000000000000000000000000000000000000000000000000000000081526004016107e890612540565b60405180910390fd5b60008060008373ffffffffffffffffffffffffffffffffffffffff1673ffffffffffffffffffffffffffffffffffffffff16815260200190815260200160002060006101000a81548160ff0219169083600281111561085357610852611ff5565b5b021790555060005b6001805490508110156109dc578173ffffffffffffffffffffffffffffffffffffffff166001828154811061089357610892612560565b5b9060005260206000200160009054906101000a900473ffffffffffffffffffffffffffffffffffffffff1673ffffffffffffffffffffffffffffffffffffffff16036109cf5760018080805490506108eb91906125be565b815481106108fc576108fb612560565b5b9060005260206000200160009054906101000a900473ffffffffffffffffffffffffffffffffffffffff166001828154811061093b5761093a612560565b5b9060005260206000200160006101000a81548173ffffffffffffffffffffffffffffffffffffffff021916908373ffffffffffffffffffffffffffffffffffffffff1602179055506001805480610995576109946125f2565b5b6001900381819060005260206000200160006101000a81549073ffffffffffffffffffffffffffffffffffffffff021916905590556109dc565b808060010191505061085b565b508073ffffffffffffffffffffffffffffffffffffffff167f6e76fb4c77256006d9c38ec7d82b45a8c8f3c27b1d6766fffc42dfb8de68449260405160405180910390a250565b600460009054906101000a900460ff1681565b6000806000905060005b600380549050811015610af9576002600060038381548110610a6557610a64612560565b5b9060005260206000200160009054906101000a900473ffffffffffffffffffffffffffffffffffffffff1673ffffffffffffffffffffffffffffffffffffffff1673ffffffffffffffffffffffffffffffffffffffff16815260200190815260200160002060009054906101000a900460ff1615610aec578180610ae890612621565b9250505b8080600101915050610a40565b508091505090565b60008060008373ffffffffffffffffffffffffffffffffffffffff1673ffffffffffffffffffffffffffffffffffffffff16815260200190815260200160002060009054906101000a900460ff169050919050565b6060600e67ffffffffffffffff811115610b7357610b72612669565b5b604051908082528060200260200182016040528015610ba15781602001602082028036833780820191505090505b509050634ddf47d460e01b81600081518110610bc057610bbf612560565b5b60200260200101907bffffffffffffffffffffffffffffffffffffffffffffffffffffffff191690817bffffffffffffffffffffffffffffffffffffffffffffffffffffffff19168152505063d738c9c660e01b81600181518110610c2857610c27612560565b5b60200260200101907bffffffffffffffffffffffffffffffffffffffffffffffffffffffff191690817bffffffffffffffffffffffffffffffffffffffffffffffffffffffff191681525050630457104560e01b81600281518110610c9057610c8f612560565b5b60200260200101907bffffffffffffffffffffffffffffffffffffffffffffffffffffffff191690817bffffffffffffffffffffffffffffffffffffffffffffffffffffffff19168152505063ca07b4b460e01b81600381518110610cf857610cf7612560565b5b60200260200101907bffffffffffffffffffffffffffffffffffffffffffffffffffffffff191690817bffffffffffffffffffffffffffffffffffffffffffffffffffffffff191681525050630b1ca49a60e01b81600481518110610d6057610d5f612560565b5b60200260200101907bffffffffffffffffffffffffffffffffffffffffffffffffffffffff191690817bffffffffffffffffffffffffffffffffffffffffffffffffffffffff19168152505063d7380ca060e01b81600581518110610dc857610dc7612560565b5b60200260200101907bffffffffffffffffffffffffffffffffffffffffffffffffffffffff191690817bffffffffffffffffffffffffffffffffffffffffffffffffffffffff19168152505063997072f760e01b81600681518110610e3057610e2f612560565b5b60200260200101907bffffffffffffffffffffffffffffffffffffffffffffffffffffffff191690817bffffffffffffffffffffffffffffffffffffffffffffffffffffffff191681525050634427673360e01b81600781518110610e9857610e97612560565b5b60200260200101907bffffffffffffffffffffffffffffffffffffffffffffffffffffffff191690817bffffffffffffffffffffffffffffffffffffffffffffffffffffffff191681525050638bd1e67860e01b81600881518110610f0057610eff612560565b5b60200260200101907bffffffffffffffffffffffffffffffffffffffffffffffffffffffff191690817bffffffffffffffffffffffffffffffffffffffffffffffffffffffff191681525050638d295cc960e01b81600981518110610f6857610f67612560565b5b60200260200101907bffffffffffffffffffffffffffffffffffffffffffffffffffffffff191690817bffffffffffffffffffffffffffffffffffffffffffffffffffffffff191681525050633a54ba6960e01b81600a81518110610fd057610fcf612560565b5b60200260200101907bffffffffffffffffffffffffffffffffffffffffffffffffffffffff191690817bffffffffffffffffffffffffffffffffffffffffffffffffffffffff19168152505063ef21310660e01b81600b8151811061103857611037612560565b5b60200260200101907bffffffffffffffffffffffffffffffffffffffffffffffffffffffff191690817bffffffffffffffffffffffffffffffffffffffffffffffffffffffff19168152505090565b600460009054906101000a900460ff16156110d7576040517f08c379a00000000000000000000000000000000000000000000000000000000081526004016110ce906126e4565b60405180910390fd5b600082828101906110e89190612742565b905060026000808373ffffffffffffffffffffffffffffffffffffffff1673ffffffffffffffffffffffffffffffffffffffff16815260200190815260200160002060006101000a81548160ff0219169083600281111561114c5761114b611ff5565b5b02179055506001819080600181540180825580915050600190039060005260206000200160009091909190916101000a81548173ffffffffffffffffffffffffffffffffffffffff021916908373ffffffffffffffffffffffffffffffffffffffff1602179055508073ffffffffffffffffffffffffffffffffffffffff167ff833c29297cb62e4d5e38257097ec5d6575967915f151215dd8fc03f8f548ce860026040516111fb919061206c565b60405180910390a26001600460006101000a81548160ff021916908315150217905550505050565b60606000606483111561126b576040517f08c379a0000000000000000000000000000000000000000000000000000000008152600401611262906127bb565b60405180910390fd5b600060018054905090508085106112d157600067ffffffffffffffff81111561129757611296612669565b5b6040519080825280602002602001820160405280156112c55781602001602082028036833780820191505090505b50819250925050611405565b600084866112df91906127db565b9050818111156112ed578190505b600086826112fb91906125be565b905060008167ffffffffffffffff81111561131957611318612669565b5b6040519080825280602002602001820160405280156113475781602001602082028036833780820191505090505b50905060005b828110156113f9576001818a61136391906127db565b8154811061137457611373612560565b5b9060005260206000200160009054906101000a900473ffffffffffffffffffffffffffffffffffffffff168282815181106113b2576113b1612560565b5b602002602001019073ffffffffffffffffffffffffffffffffffffffff16908173ffffffffffffffffffffffffffffffffffffffff1681525050808060010191505061134d565b50808495509550505050505b9250929050565b606060006064831115611454576040517f08c379a000000000000000000000000000000000000000000000000000000000815260040161144b906127bb565b60405180910390fd5b6000805b60038054905081101561151157600260006003838154811061147d5761147c612560565b5b9060005260206000200160009054906101000a900473ffffffffffffffffffffffffffffffffffffffff1673ffffffffffffffffffffffffffffffffffffffff1673ffffffffffffffffffffffffffffffffffffffff16815260200190815260200160002060009054906101000a900460ff161561150457818061150090612621565b9250505b8080600101915050611458565b5080851061156e57600067ffffffffffffffff81111561153457611533612669565b5b6040519080825280602002602001820160405280156115625781602001602082028036833780820191505090505b50819250925050611767565b6000848661157c91906127db565b90508181111561158a578190505b6000868261159891906125be565b905060008167ffffffffffffffff8111156115b6576115b5612669565b5b6040519080825280602002602001820160405280156115e45781602001602082028036833780820191505090505b50905060008060005b6003805490508110801561160057508483105b1561175957600260006003838154811061161d5761161c612560565b5b9060005260206000200160009054906101000a900473ffffffffffffffffffffffffffffffffffffffff1673ffffffffffffffffffffffffffffffffffffffff1673ffffffffffffffffffffffffffffffffffffffff16815260200190815260200160002060009054906101000a900460ff1615611746578a821061173757600381815481106116b0576116af612560565b5b9060005260206000200160009054906101000a900473ffffffffffffffffffffffffffffffffffffffff168484815181106116ee576116ed612560565b5b602002602001019073ffffffffffffffffffffffffffffffffffffffff16908173ffffffffffffffffffffffffffffffffffffffff1681525050828061173390612621565b9350505b818061174290612621565b9250505b808061175190612621565b9150506115ed565b508286975097505050505050505b9250929050565b60006020528060005260406000206000915054906101000a900460ff1681565b6000600180549050905090565b6002808111156117ae576117ad611ff5565b5b6000803373ffffffffffffffffffffffffffffffffffffffff1673ffffffffffffffffffffffffffffffffffffffff16815260200190815260200160002060009054906101000a900460ff16600281111561180c5761180b611ff5565b5b1461184c576040517f08c379a0000000000000000000000000000000000000000000000000000000008152600401611843906123fc565b60405180910390fd5b600260008273ffffffffffffffffffffffffffffffffffffffff1673ffffffffffffffffffffffffffffffffffffffff16815260200190815260200160002060009054906101000a900460ff166118d8576040517f08c379a00000000000000000000000000000000000000000000000000000000081526004016118cf90612468565b60405180910390fd5b6000600260008373ffffffffffffffffffffffffffffffffffffffff1673ffffffffffffffffffffffffffffffffffffffff16815260200190815260200160002060006101000a81548160ff0219169083151502179055508073ffffffffffffffffffffffffffffffffffffffff167f5f3d984ec8f0b4935390c76a7f8c50de8dc4edebc1c0327314e1d78c4e993dae60006040516119779190611fa6565b60405180910390a250565b60028081111561199557611994611ff5565b5b6000803373ffffffffffffffffffffffffffffffffffffffff1673ffffffffffffffffffffffffffffffffffffffff16815260200190815260200160002060009054906101000a900460ff1660028111156119f3576119f2611ff5565b5b14611a33576040517f08c379a0000000000000000000000000000000000000000000000000000000008152600401611a2a906123fc565b60405180910390fd5b60006002811115611a4757611a46611ff5565b5b6000808473ffffffffffffffffffffffffffffffffffffffff1673ffffffffffffffffffffffffffffffffffffffff16815260200190815260200160002060009054906101000a900460ff166002811115611aa557611aa4611ff5565b5b03611ae5576040517f08c379a0000000000000000000000000000000000000000000000000000000008152600401611adc90612540565b60405180910390fd5b60016002811115611af957611af8611ff5565b5b816002811115611b0c57611b0b611ff5565b5b1480611b3b5750600280811115611b2657611b25611ff5565b5b816002811115611b3957611b38611ff5565b5b145b611b7a576040517f08c379a0000000000000000000000000000000000000000000000000000000008152600401611b71906124d4565b60405180910390fd5b806000808473ffffffffffffffffffffffffffffffffffffffff1673ffffffffffffffffffffffffffffffffffffffff16815260200190815260200160002060006101000a81548160ff02191690836002811115611bdb57611bda611ff5565b5b02179055508173ffffffffffffffffffffffffffffffffffffffff167f3cdc6ed770815602e888513518c6a3c86c2238544ea0e0086d6647e30b387afe82604051611c26919061206c565b60405180910390a25050565b60006002811115611c4657611c45611ff5565b5b6000803373ffffffffffffffffffffffffffffffffffffffff1673ffffffffffffffffffffffffffffffffffffffff16815260200190815260200160002060009054906101000a900460ff166002811115611ca457611ca3611ff5565b5b14611ce4576040517f08c379a0000000000000000000000000000000000000000000000000000000008152600401611cdb9061285b565b60405180910390fd5b600260003373ffffffffffffffffffffffffffffffffffffffff1673ffffffffffffffffffffffffffffffffffffffff16815260200190815260200160002060009054906101000a900460ff1615611d71576040517f08c379a0000000000000000000000000000000000000000000000000000000008152600401611d68906128c7565b60405180910390fd5b6001600260003373ffffffffffffffffffffffffffffffffffffffff1673ffffffffffffffffffffffffffffffffffffffff16815260200190815260200160002060006101000a81548160ff0219169083151502179055506003339080600181540180825580915050600190039060005260206000200160009091909190916101000a81548173ffffffffffffffffffffffffffffffffffffffff021916908373ffffffffffffffffffffffffffffffffffffffff1602179055503373ffffffffffffffffffffffffffffffffffffffff167fc34568d64d2d2906cfd932c48ac91e167a570161c0c7799209864b2a46643d7960405160405180910390a2565b60026020528060005260406000206000915054906101000a900460ff1681565b600080fd5b600080fd5b600073ffffffffffffffffffffffffffffffffffffffff82169050919050565b6000611ec682611e9b565b9050919050565b611ed681611ebb565b8114611ee157600080fd5b50565b600081359050611ef381611ecd565b92915050565b60038110611f0657600080fd5b50565b600081359050611f1881611ef9565b92915050565b60008060408385031215611f3557611f34611e91565b5b6000611f4385828601611ee4565b9250506020611f5485828601611f09565b9150509250929050565b600060208284031215611f7457611f73611e91565b5b6000611f8284828501611ee4565b91505092915050565b60008115159050919050565b611fa081611f8b565b82525050565b6000602082019050611fbb6000830184611f97565b92915050565b6000819050919050565b611fd481611fc1565b82525050565b6000602082019050611fef6000830184611fcb565b92915050565b7f4e487b7100000000000000000000000000000000000000000000000000000000600052602160045260246000fd5b6003811061203557612034611ff5565b5b50565b600081905061204682612024565b919050565b600061205682612038565b9050919050565b6120668161204b565b82525050565b6000602082019050612081600083018461205d565b92915050565b600081519050919050565b600082825260208201905092915050565b6000819050602082019050919050565b60007fffffffff0000000000000000000000000000000000000000000000000000000082169050919050565b6120e8816120b3565b82525050565b60006120fa83836120df565b60208301905092915050565b6000602082019050919050565b600061211e82612087565b6121288185612092565b9350612133836120a3565b8060005b8381101561216457815161214b88826120ee565b975061215683612106565b925050600181019050612137565b5085935050505092915050565b6000602082019050818103600083015261218b8184612113565b905092915050565b600080fd5b600080fd5b600080fd5b60008083601f8401126121b8576121b7612193565b5b8235905067ffffffffffffffff8111156121d5576121d4612198565b5b6020830191508360018202830111156121f1576121f061219d565b5b9250929050565b6000806020838503121561220f5761220e611e91565b5b600083013567ffffffffffffffff81111561222d5761222c611e96565b5b612239858286016121a2565b92509250509250929050565b61224e81611fc1565b811461225957600080fd5b50565b60008135905061226b81612245565b92915050565b6000806040838503121561228857612287611e91565b5b60006122968582860161225c565b92505060206122a78582860161225c565b9150509250929050565b600081519050919050565b600082825260208201905092915050565b6000819050602082019050919050565b6122e681611ebb565b82525050565b60006122f883836122dd565b60208301905092915050565b6000602082019050919050565b600061231c826122b1565b61232681856122bc565b9350612331836122cd565b8060005b8381101561236257815161234988826122ec565b975061235483612304565b925050600181019050612335565b5085935050505092915050565b600060408201905081810360008301526123898185612311565b90506123986020830184611fcb565b9392505050565b600082825260208201905092915050565b7f4f6e6c792061646d696e00000000000000000000000000000000000000000000600082015250565b60006123e6600a8361239f565b91506123f1826123b0565b602082019050919050565b60006020820190508181036000830152612415816123d9565b9050919050565b7f4e6f207265717565737400000000000000000000000000000000000000000000600082015250565b6000612452600a8361239f565b915061245d8261241c565b602082019050919050565b6000602082019050818103600083015261248181612445565b9050919050565b7f496e76616c696420726f6c650000000000000000000000000000000000000000600082015250565b60006124be600c8361239f565b91506124c982612488565b602082019050919050565b600060208201905081810360008301526124ed816124b1565b9050919050565b7f4e6f742061206d656d6265720000000000000000000000000000000000000000600082015250565b600061252a600c8361239f565b9150612535826124f4565b602082019050919050565b600060208201905081810360008301526125598161251d565b9050919050565b7f4e487b7100000000000000000000000000000000000000000000000000000000600052603260045260246000fd5b7f4e487b7100000000000000000000000000000000000000000000000000000000600052601160045260246000fd5b60006125c982611fc1565b91506125d483611fc1565b92508282039050818111156125ec576125eb61258f565b5b92915050565b7f4e487b7100000000000000000000000000000000000000000000000000000000600052603160045260246000fd5b600061262c82611fc1565b91507fffffffffffffffffffffffffffffffffffffffffffffffffffffffffffffffff820361265e5761265d61258f565b5b600182019050919050565b7f4e487b7100000000000000000000000000000000000000000000000000000000600052604160045260246000fd5b7f416c726561647920696e697469616c697a656400000000000000000000000000600082015250565b60006126ce60138361239f565b91506126d982612698565b602082019050919050565b600060208201905081810360008301526126fd816126c1565b9050919050565b600061270f82611e9b565b9050919050565b61271f81612704565b811461272a57600080fd5b50565b60008135905061273c81612716565b92915050565b60006020828403121561275857612757611e91565b5b60006127668482850161272d565b91505092915050565b7f4c696d697420746f6f2068696768000000000000000000000000000000000000600082015250565b60006127a5600e8361239f565b91506127b08261276f565b602082019050919050565b600060208201905081810360008301526127d481612798565b9050919050565b60006127e682611fc1565b91506127f183611fc1565b92508282019050808211156128095761280861258f565b5b92915050565b7f416c72656164792061206d656d626572206f722061646d696e00000000000000600082015250565b600061284560198361239f565b91506128508261280f565b602082019050919050565b6000602082019050818103600083015261287481612838565b9050919050565b7f416c726561647920726571756573746564000000000000000000000000000000600082015250565b60006128b160118361239f565b91506128bc8261287b565b602082019050919050565b600060208201905081810360008301526128e0816128a4565b905091905056fea26469706673582212205b68091adba3e710056b473e3a816215ccb9212c2ba252e3871a52d2edc1628964736f6c634300081c0033",
  "linkReferences": {},
  "deployedLinkReferences": {}
}