{
  "_format": "hh-sol-artifact-1",
  "contractName": "MemberModule",
  "sourceName": "contracts/contracts/dao/modules/MemberModule.sol",
  "abi": [
    {
      "anonymous": false,
      "inputs": [
        {
          "indexed": true,
          "internalType": "address",
          "name": "requester",
          "type": "address"
        },
        {
          "indexed": false,
          "internalType": "bool",
          "name": "accepted",
          "type": "bool"
        }
      ],
      "name": "JoinRequestHandled",
      "type": "event"
    },
    {
      "anonymous": false,
      "inputs": [
        {
          "indexed": true,
          "internalType": "address",
          "name": "requester",
          "type": "address"
        }
      ],
      "name": "JoinRequested",
      "type": "event"
    },
    {
      "anonymous": false,
      "inputs": [
        {
          "indexed": true,
          "internalType": "address",
          "name": "member",
          "type": "address"
        },
        {
          "indexed": false,
          "internalType": "enum MemberStorage.Role",
          "name": "role",
          "type": "uint8"
        }
      ],
      "name": "MemberAdded",
      "type": "event"
    },
    {
      "anonymous": false,
      "inputs": [
        {
          "indexed": true,
          "internalType": "address",
          "name": "member",
          "type": "address"
        }
      ],
      "name": "MemberRemoved",
      "type": "event"
    },
    {
      "anonymous": false,
      "inputs": [
        {
          "indexed": true,
          "internalType": "address",
          "name": "member",
          "type": "address"
        },
        {
          "indexed": false,
          "internalType": "enum MemberStorage.Role",
          "name": "newRole",
          "type": "uint8"
        }
      ],
      "name": "RoleChanged",
      "type": "event"
    },
    {
      "inputs": [
        {
          "internalType": "address",
          "name": "requester",
          "type": "address"
        },
        {
          "internalType": "enum MemberStorage.Role",
          "name": "role",
          "type": "uint8"
        }
      ],
      "name": "acceptRequest",
      "outputs": [],
      "stateMutability": "nonpayable",
      "type": "function"
    },
    {
      "inputs": [
        {
          "internalType": "address",
          "name": "member",
          "type": "address"
        },
        {
          "internalType": "enum MemberStorage.Role",
          "name": "newRole",
          "type": "uint8"
        }
      ],
      "name": "changeRole",
      "outputs": [],
      "stateMutability": "nonpayable",
      "type": "function"
    },
    {
      "inputs": [],
      "name": "getJoinRequestCount",
      "outputs": [
        {
          "internalType": "uint256",
          "name": "",
          "type": "uint256"
        }
      ],
      "stateMutability": "view",
      "type": "function"
    },
    {
      "inputs": [
        {
          "internalType": "uint256",
          "name": "offset",
          "type": "uint256"
        },
        {
          "internalType": "uint256",
          "name": "limit",
          "type": "uint256"
        }
      ],
      "name": "getJoinRequestsPaginated",
      "outputs": [
        {
          "internalType": "address[]",
          "name": "",
          "type": "address[]"
        }
      ],
      "stateMutability": "view",
      "type": "function"
    },
    {
      "inputs": [],
      "name": "getMemberCount",
      "outputs": [
        {
          "internalType": "uint256",
          "name": "",
          "type": "uint256"
        }
      ],
      "stateMutability": "view",
      "type": "function"
    },
    {
      "inputs": [
        {
          "internalType": "uint256",
          "name": "offset",
          "type": "uint256"
        },
        {
          "internalType": "uint256",
          "name": "limit",
          "type": "uint256"
        }
      ],
      "name": "getMembersPaginated",
      "outputs": [
        {
          "internalType": "address[]",
          "name": "",
          "type": "address[]"
        }
      ],
      "stateMutability": "view",
      "type": "function"
    },
    {
      "inputs": [
        {
          "internalType": "address",
          "name": "user",
          "type": "address"
        }
      ],
      "name": "getRole",
      "outputs": [
        {
          "internalType": "uint8",
          "name": "",
          "type": "uint8"
        }
      ],
      "stateMutability": "view",
      "type": "function"
    },
    {
      "inputs": [],
      "name": "getSelectors",
      "outputs": [
        {
          "internalType": "bytes4[]",
          "name": "selectors",
          "type": "bytes4[]"
        }
      ],
      "stateMutability": "pure",
      "type": "function"
    },
    {
      "inputs": [
        {
          "internalType": "bytes",
          "name": "data",
          "type": "bytes"
        }
      ],
      "name": "init",
      "outputs": [],
      "stateMutability": "nonpayable",
      "type": "function"
    },
    {
      "inputs": [
        {
          "internalType": "address",
          "name": "",
          "type": "address"
        }
      ],
      "name": "joinRequests",
      "outputs": [
        {
          "internalType": "bool",
          "name": "",
          "type": "bool"
        }
      ],
      "stateMutability": "view",
      "type": "function"
    },
    {
      "inputs": [
        {
          "internalType": "address",
          "name": "requester",
          "type": "address"
        }
      ],
      "name": "rejectRequest",
      "outputs": [],
      "stateMutability": "nonpayable",
      "type": "function"
    },
    {
      "inputs": [
        {
          "internalType": "address",
          "name": "member",
          "type": "address"
        }
      ],
      "name": "removeMember",
      "outputs": [],
      "stateMutability": "nonpayable",
      "type": "function"
    },
    {
      "inputs": [],
      "name": "requestToJoin",
      "outputs": [],
      "stateMutability": "nonpayable",
      "type": "function"
    }
  ],
  "bytecode": "0x6080604052348015600f57600080fd5b506126158061001f6000396000f3fe608060405234801561001057600080fd5b50600436106100cf5760003560e01c80638bd1e6781161008c578063ca07b4b411610066578063ca07b4b414610212578063d7380ca01461022e578063d738c9c61461024a578063ef21310614610254576100cf565b80638bd1e678146101945780638d295cc9146101c4578063997072f7146101f4576100cf565b806304571045146100d45780630b1ca49a146100f05780633a54ba691461010c578063442767331461012a5780634b503f0b1461015a5780634ddf47d414610178575b600080fd5b6100ee60048036038101906100e99190611ca1565b610284565b005b61010a60048036038101906101059190611ce1565b61062a565b005b6101146109df565b6040516101219190611d27565b60405180910390f35b610144600480360381019061013f9190611ce1565b6109ec565b6040516101519190611d5e565b60405180910390f35b610162610a5d565b60405161016f9190611e63565b60405180910390f35b610192600480360381019061018d9190611eea565b610f8e565b005b6101ae60048036038101906101a99190611f63565b611184565b6040516101bb9190612061565b60405180910390f35b6101de60048036038101906101d99190611f63565b61131d565b6040516101eb9190612061565b60405180910390f35b6101fc6114b6565b6040516102099190611d27565b60405180910390f35b61022c60048036038101906102279190611ce1565b6114c3565b005b61024860048036038101906102439190611ca1565b6116b2565b005b610252611980565b005b61026e60048036038101906102699190611ce1565b611bc7565b60405161027b919061209e565b60405180910390f35b600280811115610297576102966120b9565b5b61029f611be7565b60000160003373ffffffffffffffffffffffffffffffffffffffff1673ffffffffffffffffffffffffffffffffffffffff16815260200190815260200160002060009054906101000a900460ff1660028111156102ff576102fe6120b9565b5b1461033f576040517f08c379a000000000000000000000000000000000000000000000000000000000815260040161033690612145565b60405180910390fd5b6000808373ffffffffffffffffffffffffffffffffffffffff1673ffffffffffffffffffffffffffffffffffffffff16815260200190815260200160002060009054906101000a900460ff166103ca576040517f08c379a00000000000000000000000000000000000000000000000000000000081526004016103c1906121b1565b60405180910390fd5b600160028111156103de576103dd6120b9565b5b8160028111156103f1576103f06120b9565b5b1480610420575060028081111561040b5761040a6120b9565b5b81600281111561041e5761041d6120b9565b5b145b61045f576040517f08c379a00000000000000000000000000000000000000000000000000000000081526004016104569061221d565b60405180910390fd5b60008060008473ffffffffffffffffffffffffffffffffffffffff1673ffffffffffffffffffffffffffffffffffffffff16815260200190815260200160002060006101000a81548160ff021916908315150217905550806104bf611be7565b60000160008473ffffffffffffffffffffffffffffffffffffffff1673ffffffffffffffffffffffffffffffffffffffff16815260200190815260200160002060006101000a81548160ff02191690836002811115610521576105206120b9565b5b02179055506002829080600181540180825580915050600190039060005260206000200160009091909190916101000a81548173ffffffffffffffffffffffffffffffffffffffff021916908373ffffffffffffffffffffffffffffffffffffffff1602179055508173ffffffffffffffffffffffffffffffffffffffff167ff833c29297cb62e4d5e38257097ec5d6575967915f151215dd8fc03f8f548ce8826040516105cf9190612285565b60405180910390a28173ffffffffffffffffffffffffffffffffffffffff167f5f3d984ec8f0b4935390c76a7f8c50de8dc4edebc1c0327314e1d78c4e993dae600160405161061e919061209e565b60405180910390a25050565b60028081111561063d5761063c6120b9565b5b610645611be7565b60000160003373ffffffffffffffffffffffffffffffffffffffff1673ffffffffffffffffffffffffffffffffffffffff16815260200190815260200160002060009054906101000a900460ff1660028111156106a5576106a46120b9565b5b146106e5576040517f08c379a00000000000000000000000000000000000000000000000000000000081526004016106dc90612145565b60405180910390fd5b600060028111156106f9576106f86120b9565b5b610701611be7565b60000160008373ffffffffffffffffffffffffffffffffffffffff1673ffffffffffffffffffffffffffffffffffffffff16815260200190815260200160002060009054906101000a900460ff166002811115610761576107606120b9565b5b036107a1576040517f08c379a0000000000000000000000000000000000000000000000000000000008152600401610798906122ec565b60405180910390fd5b60006107ab611be7565b60000160008373ffffffffffffffffffffffffffffffffffffffff1673ffffffffffffffffffffffffffffffffffffffff16815260200190815260200160002060006101000a81548160ff0219169083600281111561080d5761080c6120b9565b5b021790555060005b600280549050811015610998578173ffffffffffffffffffffffffffffffffffffffff166002828154811061084d5761084c61230c565b5b9060005260206000200160009054906101000a900473ffffffffffffffffffffffffffffffffffffffff1673ffffffffffffffffffffffffffffffffffffffff160361098b57600260016002805490506108a7919061236a565b815481106108b8576108b761230c565b5b9060005260206000200160009054906101000a900473ffffffffffffffffffffffffffffffffffffffff16600282815481106108f7576108f661230c565b5b9060005260206000200160006101000a81548173ffffffffffffffffffffffffffffffffffffffff021916908373ffffffffffffffffffffffffffffffffffffffff16021790555060028054806109515761095061239e565b5b6001900381819060005260206000200160006101000a81549073ffffffffffffffffffffffffffffffffffffffff02191690559055610998565b8080600101915050610815565b508073ffffffffffffffffffffffffffffffffffffffff167f6e76fb4c77256006d9c38ec7d82b45a8c8f3c27b1d6766fffc42dfb8de68449260405160405180910390a250565b6000600180549050905090565b60006109f6611be7565b60000160008373ffffffffffffffffffffffffffffffffffffffff1673ffffffffffffffffffffffffffffffffffffffff16815260200190815260200160002060009054906101000a900460ff166002811115610a5657610a556120b9565b5b9050919050565b6060600e67ffffffffffffffff811115610a7a57610a796123cd565b5b604051908082528060200260200182016040528015610aa85781602001602082028036833780820191505090505b509050634ddf47d460e01b81600081518110610ac757610ac661230c565b5b60200260200101907bffffffffffffffffffffffffffffffffffffffffffffffffffffffff191690817bffffffffffffffffffffffffffffffffffffffffffffffffffffffff19168152505063d738c9c660e01b81600181518110610b2f57610b2e61230c565b5b60200260200101907bffffffffffffffffffffffffffffffffffffffffffffffffffffffff191690817bffffffffffffffffffffffffffffffffffffffffffffffffffffffff191681525050630457104560e01b81600281518110610b9757610b9661230c565b5b60200260200101907bffffffffffffffffffffffffffffffffffffffffffffffffffffffff191690817bffffffffffffffffffffffffffffffffffffffffffffffffffffffff19168152505063ca07b4b460e01b81600381518110610bff57610bfe61230c565b5b60200260200101907bffffffffffffffffffffffffffffffffffffffffffffffffffffffff191690817bffffffffffffffffffffffffffffffffffffffffffffffffffffffff191681525050630b1ca49a60e01b81600481518110610c6757610c6661230c565b5b60200260200101907bffffffffffffffffffffffffffffffffffffffffffffffffffffffff191690817bffffffffffffffffffffffffffffffffffffffffffffffffffffffff19168152505063d7380ca060e01b81600581518110610ccf57610cce61230c565b5b60200260200101907bffffffffffffffffffffffffffffffffffffffffffffffffffffffff191690817bffffffffffffffffffffffffffffffffffffffffffffffffffffffff19168152505063997072f760e01b81600681518110610d3757610d3661230c565b5b60200260200101907bffffffffffffffffffffffffffffffffffffffffffffffffffffffff191690817bffffffffffffffffffffffffffffffffffffffffffffffffffffffff191681525050634427673360e01b81600781518110610d9f57610d9e61230c565b5b60200260200101907bffffffffffffffffffffffffffffffffffffffffffffffffffffffff191690817bffffffffffffffffffffffffffffffffffffffffffffffffffffffff191681525050638bd1e67860e01b81600881518110610e0757610e0661230c565b5b60200260200101907bffffffffffffffffffffffffffffffffffffffffffffffffffffffff191690817bffffffffffffffffffffffffffffffffffffffffffffffffffffffff191681525050638d295cc960e01b81600981518110610e6f57610e6e61230c565b5b60200260200101907bffffffffffffffffffffffffffffffffffffffffffffffffffffffff191690817bffffffffffffffffffffffffffffffffffffffffffffffffffffffff191681525050633a54ba6960e01b81600a81518110610ed757610ed661230c565b5b60200260200101907bffffffffffffffffffffffffffffffffffffffffffffffffffffffff191690817bffffffffffffffffffffffffffffffffffffffffffffffffffffffff19168152505063ef21310660e01b81600b81518110610f3f57610f3e61230c565b5b60200260200101907bffffffffffffffffffffffffffffffffffffffffffffffffffffffff191690817bffffffffffffffffffffffffffffffffffffffffffffffffffffffff19168152505090565b6000610f98611be7565b905060006002811115610fae57610fad6120b9565b5b8160000160008073ffffffffffffffffffffffffffffffffffffffff1673ffffffffffffffffffffffffffffffffffffffff16815260200190815260200160002060009054906101000a900460ff16600281111561100f5761100e6120b9565b5b1461104f576040517f08c379a000000000000000000000000000000000000000000000000000000000815260040161104690612448565b60405180910390fd5b6000838381019061106091906124a6565b905060028260000160008373ffffffffffffffffffffffffffffffffffffffff1673ffffffffffffffffffffffffffffffffffffffff16815260200190815260200160002060006101000a81548160ff021916908360028111156110c7576110c66120b9565b5b02179055506002819080600181540180825580915050600190039060005260206000200160009091909190916101000a81548173ffffffffffffffffffffffffffffffffffffffff021916908373ffffffffffffffffffffffffffffffffffffffff1602179055508073ffffffffffffffffffffffffffffffffffffffff167ff833c29297cb62e4d5e38257097ec5d6575967915f151215dd8fc03f8f548ce860026040516111769190612285565b60405180910390a250505050565b6060600060028054905090508084106111e957600067ffffffffffffffff8111156111b2576111b16123cd565b5b6040519080825280602002602001820160405280156111e05781602001602082028036833780820191505090505b50915050611317565b600083856111f791906124d3565b905081811115611205578190505b60008582611213919061236a565b67ffffffffffffffff81111561122c5761122b6123cd565b5b60405190808252806020026020018201604052801561125a5781602001602082028036833780820191505090505b50905060008690505b8281101561130f576002818154811061127f5761127e61230c565b5b9060005260206000200160009054906101000a900473ffffffffffffffffffffffffffffffffffffffff168288836112b7919061236a565b815181106112c8576112c761230c565b5b602002602001019073ffffffffffffffffffffffffffffffffffffffff16908173ffffffffffffffffffffffffffffffffffffffff16815250508080600101915050611263565b508093505050505b92915050565b60606000600180549050905080841061138257600067ffffffffffffffff81111561134b5761134a6123cd565b5b6040519080825280602002602001820160405280156113795781602001602082028036833780820191505090505b509150506114b0565b6000838561139091906124d3565b90508181111561139e578190505b600085826113ac919061236a565b67ffffffffffffffff8111156113c5576113c46123cd565b5b6040519080825280602002602001820160405280156113f35781602001602082028036833780820191505090505b50905060008690505b828110156114a857600181815481106114185761141761230c565b5b9060005260206000200160009054906101000a900473ffffffffffffffffffffffffffffffffffffffff16828883611450919061236a565b815181106114615761146061230c565b5b602002602001019073ffffffffffffffffffffffffffffffffffffffff16908173ffffffffffffffffffffffffffffffffffffffff168152505080806001019150506113fc565b508093505050505b92915050565b6000600280549050905090565b6002808111156114d6576114d56120b9565b5b6114de611be7565b60000160003373ffffffffffffffffffffffffffffffffffffffff1673ffffffffffffffffffffffffffffffffffffffff16815260200190815260200160002060009054906101000a900460ff16600281111561153e5761153d6120b9565b5b1461157e576040517f08c379a000000000000000000000000000000000000000000000000000000000815260040161157590612145565b60405180910390fd5b6000808273ffffffffffffffffffffffffffffffffffffffff1673ffffffffffffffffffffffffffffffffffffffff16815260200190815260200160002060009054906101000a900460ff16611609576040517f08c379a0000000000000000000000000000000000000000000000000000000008152600401611600906121b1565b60405180910390fd5b60008060008373ffffffffffffffffffffffffffffffffffffffff1673ffffffffffffffffffffffffffffffffffffffff16815260200190815260200160002060006101000a81548160ff0219169083151502179055508073ffffffffffffffffffffffffffffffffffffffff167f5f3d984ec8f0b4935390c76a7f8c50de8dc4edebc1c0327314e1d78c4e993dae60006040516116a7919061209e565b60405180910390a250565b6002808111156116c5576116c46120b9565b5b6116cd611be7565b60000160003373ffffffffffffffffffffffffffffffffffffffff1673ffffffffffffffffffffffffffffffffffffffff16815260200190815260200160002060009054906101000a900460ff16600281111561172d5761172c6120b9565b5b1461176d576040517f08c379a000000000000000000000000000000000000000000000000000000000815260040161176490612145565b60405180910390fd5b60006002811115611781576117806120b9565b5b611789611be7565b60000160008473ffffffffffffffffffffffffffffffffffffffff1673ffffffffffffffffffffffffffffffffffffffff16815260200190815260200160002060009054906101000a900460ff1660028111156117e9576117e86120b9565b5b03611829576040517f08c379a0000000000000000000000000000000000000000000000000000000008152600401611820906122ec565b60405180910390fd5b6001600281111561183d5761183c6120b9565b5b8160028111156118505761184f6120b9565b5b148061187f575060028081111561186a576118696120b9565b5b81600281111561187d5761187c6120b9565b5b145b6118be576040517f08c379a00000000000000000000000000000000000000000000000000000000081526004016118b59061221d565b60405180910390fd5b806118c7611be7565b60000160008473ffffffffffffffffffffffffffffffffffffffff1673ffffffffffffffffffffffffffffffffffffffff16815260200190815260200160002060006101000a81548160ff02191690836002811115611929576119286120b9565b5b02179055508173ffffffffffffffffffffffffffffffffffffffff167f3cdc6ed770815602e888513518c6a3c86c2238544ea0e0086d6647e30b387afe826040516119749190612285565b60405180910390a25050565b60006002811115611994576119936120b9565b5b61199c611be7565b60000160003373ffffffffffffffffffffffffffffffffffffffff1673ffffffffffffffffffffffffffffffffffffffff16815260200190815260200160002060009054906101000a900460ff1660028111156119fc576119fb6120b9565b5b14611a3c576040517f08c379a0000000000000000000000000000000000000000000000000000000008152600401611a3390612553565b60405180910390fd5b6000803373ffffffffffffffffffffffffffffffffffffffff1673ffffffffffffffffffffffffffffffffffffffff16815260200190815260200160002060009054906101000a900460ff1615611ac8576040517f08c379a0000000000000000000000000000000000000000000000000000000008152600401611abf906125bf565b60405180910390fd5b60016000803373ffffffffffffffffffffffffffffffffffffffff1673ffffffffffffffffffffffffffffffffffffffff16815260200190815260200160002060006101000a81548160ff0219169083151502179055506001339080600181540180825580915050600190039060005260206000200160009091909190916101000a81548173ffffffffffffffffffffffffffffffffffffffff021916908373ffffffffffffffffffffffffffffffffffffffff1602179055503373ffffffffffffffffffffffffffffffffffffffff167fc34568d64d2d2906cfd932c48ac91e167a570161c0c7799209864b2a46643d7960405160405180910390a2565b60006020528060005260406000206000915054906101000a900460ff1681565b6000807f3ffe2c6d267f6b32cb053e1046dfc1d5dbd97130de1ad8ac22e4e1c6381f586990508091505090565b600080fd5b600080fd5b600073ffffffffffffffffffffffffffffffffffffffff82169050919050565b6000611c4982611c1e565b9050919050565b611c5981611c3e565b8114611c6457600080fd5b50565b600081359050611c7681611c50565b92915050565b60038110611c8957600080fd5b50565b600081359050611c9b81611c7c565b92915050565b60008060408385031215611cb857611cb7611c14565b5b6000611cc685828601611c67565b9250506020611cd785828601611c8c565b9150509250929050565b600060208284031215611cf757611cf6611c14565b5b6000611d0584828501611c67565b91505092915050565b6000819050919050565b611d2181611d0e565b82525050565b6000602082019050611d3c6000830184611d18565b92915050565b600060ff82169050919050565b611d5881611d42565b82525050565b6000602082019050611d736000830184611d4f565b92915050565b600081519050919050565b600082825260208201905092915050565b6000819050602082019050919050565b60007fffffffff0000000000000000000000000000000000000000000000000000000082169050919050565b611dda81611da5565b82525050565b6000611dec8383611dd1565b60208301905092915050565b6000602082019050919050565b6000611e1082611d79565b611e1a8185611d84565b9350611e2583611d95565b8060005b83811015611e56578151611e3d8882611de0565b9750611e4883611df8565b925050600181019050611e29565b5085935050505092915050565b60006020820190508181036000830152611e7d8184611e05565b905092915050565b600080fd5b600080fd5b600080fd5b60008083601f840112611eaa57611ea9611e85565b5b8235905067ffffffffffffffff811115611ec757611ec6611e8a565b5b602083019150836001820283011115611ee357611ee2611e8f565b5b9250929050565b60008060208385031215611f0157611f00611c14565b5b600083013567ffffffffffffffff811115611f1f57611f1e611c19565b5b611f2b85828601611e94565b92509250509250929050565b611f4081611d0e565b8114611f4b57600080fd5b50565b600081359050611f5d81611f37565b92915050565b60008060408385031215611f7a57611f79611c14565b5b6000611f8885828601611f4e565b9250506020611f9985828601611f4e565b9150509250929050565b600081519050919050565b600082825260208201905092915050565b6000819050602082019050919050565b611fd881611c3e565b82525050565b6000611fea8383611fcf565b60208301905092915050565b6000602082019050919050565b600061200e82611fa3565b6120188185611fae565b935061202383611fbf565b8060005b8381101561205457815161203b8882611fde565b975061204683611ff6565b925050600181019050612027565b5085935050505092915050565b6000602082019050818103600083015261207b8184612003565b905092915050565b60008115159050919050565b61209881612083565b82525050565b60006020820190506120b3600083018461208f565b92915050565b7f4e487b7100000000000000000000000000000000000000000000000000000000600052602160045260246000fd5b600082825260208201905092915050565b7f4f6e6c792061646d696e00000000000000000000000000000000000000000000600082015250565b600061212f600a836120e8565b915061213a826120f9565b602082019050919050565b6000602082019050818103600083015261215e81612122565b9050919050565b7f4e6f207265717565737400000000000000000000000000000000000000000000600082015250565b600061219b600a836120e8565b91506121a682612165565b602082019050919050565b600060208201905081810360008301526121ca8161218e565b9050919050565b7f496e76616c696420726f6c650000000000000000000000000000000000000000600082015250565b6000612207600c836120e8565b9150612212826121d1565b602082019050919050565b60006020820190508181036000830152612236816121fa565b9050919050565b6003811061224e5761224d6120b9565b5b50565b600081905061225f8261223d565b919050565b600061226f82612251565b9050919050565b61227f81612264565b82525050565b600060208201905061229a6000830184612276565b92915050565b7f4e6f742061206d656d6265720000000000000000000000000000000000000000600082015250565b60006122d6600c836120e8565b91506122e1826122a0565b602082019050919050565b60006020820190508181036000830152612305816122c9565b9050919050565b7f4e487b7100000000000000000000000000000000000000000000000000000000600052603260045260246000fd5b7f4e487b7100000000000000000000000000000000000000000000000000000000600052601160045260246000fd5b600061237582611d0e565b915061238083611d0e565b92508282039050818111156123985761239761233b565b5b92915050565b7f4e487b7100000000000000000000000000000000000000000000000000000000600052603160045260246000fd5b7f4e487b7100000000000000000000000000000000000000000000000000000000600052604160045260246000fd5b7f416c726561647920696e697469616c697a656400000000000000000000000000600082015250565b60006124326013836120e8565b915061243d826123fc565b602082019050919050565b6000602082019050818103600083015261246181612425565b9050919050565b600061247382611c1e565b9050919050565b61248381612468565b811461248e57600080fd5b50565b6000813590506124a08161247a565b92915050565b6000602082840312156124bc576124bb611c14565b5b60006124ca84828501612491565b91505092915050565b60006124de82611d0e565b91506124e983611d0e565b92508282019050808211156125015761250061233b565b5b92915050565b7f416c72656164792061206d656d626572206f722061646d696e00000000000000600082015250565b600061253d6019836120e8565b915061254882612507565b602082019050919050565b6000602082019050818103600083015261256c81612530565b9050919050565b7f416c726561647920726571756573746564000000000000000000000000000000600082015250565b60006125a96011836120e8565b91506125b482612573565b602082019050919050565b600060208201905081810360008301526125d88161259c565b905091905056fea264697066735822122079625d9484700e4ab387ee9fd47b038e7f5f637662d9abf4fbd2a9453c1e4e8564736f6c634300081c0033",
  "linkReferences": {},
  "deployedLinkReferences": {}
}