{
  "_format": "hh-sol-artifact-1",
  "contractName": "ModuleRegistry",
  "sourceName": "contracts/contracts/dao/ModuleRegistry.sol",
  "abi": [
    {
      "anonymous": false,
      "inputs": [
        {
          "indexed": true,
          "internalType": "bytes32",
          "name": "name",
          "type": "bytes32"
        },
        {
          "indexed": false,
          "internalType": "address",
          "name": "module",
          "type": "address"
        }
      ],
      "name": "ModuleRegistered",
      "type": "event"
    },
    {
      "inputs": [
        {
          "internalType": "bytes32",
          "name": "name",
          "type": "bytes32"
        }
      ],
      "name": "getModule",
      "outputs": [
        {
          "internalType": "address",
          "name": "",
          "type": "address"
        }
      ],
      "stateMutability": "view",
      "type": "function"
    },
    {
      "inputs": [
        {
          "internalType": "bytes32",
          "name": "",
          "type": "bytes32"
        }
      ],
      "name": "modules",
      "outputs": [
        {
          "internalType": "address",
          "name": "",
          "type": "address"
        }
      ],
      "stateMutability": "view",
      "type": "function"
    },
    {
      "inputs": [
        {
          "internalType": "bytes32",
          "name": "name",
          "type": "bytes32"
        },
        {
          "internalType": "address",
          "name": "module",
          "type": "address"
        }
      ],
      "name": "registerModule",
      "outputs": [],
      "stateMutability": "nonpayable",
      "type": "function"
    }
  ],
  "bytecode": "0x6080604052348015600f57600080fd5b506103248061001f6000396000f3fe608060405234801561001057600080fd5b50600436106100415760003560e01c806385acd64114610046578063a78e922b14610076578063b0b6cc1a14610092575b600080fd5b610060600480360381019061005b91906101f9565b6100c2565b60405161006d9190610267565b60405180910390f35b610090600480360381019061008b91906102ae565b6100fe565b005b6100ac60048036038101906100a791906101f9565b61018b565b6040516100b99190610267565b60405180910390f35b600080600083815260200190815260200160002060009054906101000a900473ffffffffffffffffffffffffffffffffffffffff169050919050565b8060008084815260200190815260200160002060006101000a81548173ffffffffffffffffffffffffffffffffffffffff021916908373ffffffffffffffffffffffffffffffffffffffff160217905550817fd63be02155b46636309fb0a4a79647c60971aecaad53cbc83aad90cd75fd9d548260405161017f9190610267565b60405180910390a25050565b60006020528060005260406000206000915054906101000a900473ffffffffffffffffffffffffffffffffffffffff1681565b600080fd5b6000819050919050565b6101d6816101c3565b81146101e157600080fd5b50565b6000813590506101f3816101cd565b92915050565b60006020828403121561020f5761020e6101be565b5b600061021d848285016101e4565b91505092915050565b600073ffffffffffffffffffffffffffffffffffffffff82169050919050565b600061025182610226565b9050919050565b61026181610246565b82525050565b600060208201905061027c6000830184610258565b92915050565b61028b81610246565b811461029657600080fd5b50565b6000813590506102a881610282565b92915050565b600080604083850312156102c5576102c46101be565b5b60006102d3858286016101e4565b92505060206102e485828601610299565b915050925092905056fea2646970667358221220dc288ab1993ba733bd6045fc6f819ed81358764b24a77b0fd297b185a2942d9d64736f6c634300081c0033",
  "linkReferences": {},
  "deployedLinkReferences": {}
}