{
  "_format": "hh-sol-artifact-1",
  "contractName": "ProposalVotingModule",
  "sourceName": "contracts/contracts/dao/modules/ProposalVotingModule.sol",
  "abi": [
    {
      "anonymous": false,
      "inputs": [
        {
          "indexed": true,
          "internalType": "uint256",
          "name": "proposalId",
          "type": "uint256"
        },
        {
          "indexed": true,
          "internalType": "address",
          "name": "proposer",
          "type": "address"
        },
        {
          "indexed": false,
          "internalType": "string",
          "name": "title",
          "type": "string"
        },
        {
          "indexed": false,
          "internalType": "string",
          "name": "description",
          "type": "string"
        }
      ],
      "name": "ProposalCreated",
      "type": "event"
    },
    {
      "anonymous": false,
      "inputs": [
        {
          "indexed": true,
          "internalType": "uint256",
          "name": "proposalId",
          "type": "uint256"
        },
        {
          "indexed": false,
          "internalType": "enum ProposalVotingStorage.Status",
          "name": "status",
          "type": "uint8"
        }
      ],
      "name": "ProposalFinalized",
      "type": "event"
    },
    {
      "anonymous": false,
      "inputs": [
        {
          "indexed": true,
          "internalType": "uint256",
          "name": "proposalId",
          "type": "uint256"
        },
        {
          "indexed": true,
          "internalType": "address",
          "name": "voter",
          "type": "address"
        },
        {
          "indexed": false,
          "internalType": "bool",
          "name": "approve",
          "type": "bool"
        }
      ],
      "name": "VoteCast",
      "type": "event"
    },
    {
      "inputs": [
        {
          "internalType": "string",
          "name": "title",
          "type": "string"
        },
        {
          "internalType": "string",
          "name": "description",
          "type": "string"
        }
      ],
      "name": "createProposal",
      "outputs": [],
      "stateMutability": "nonpayable",
      "type": "function"
    },
    {
      "inputs": [
        {
          "internalType": "uint256",
          "name": "proposalId",
          "type": "uint256"
        }
      ],
      "name": "getProposal",
      "outputs": [
        {
          "components": [
            {
              "internalType": "address",
              "name": "proposer",
              "type": "address"
            },
            {
              "internalType": "string",
              "name": "title",
              "type": "string"
            },
            {
              "internalType": "string",
              "name": "description",
              "type": "string"
            },
            {
              "internalType": "uint256",
              "name": "approvals",
              "type": "uint256"
            },
            {
              "internalType": "uint256",
              "name": "rejections",
              "type": "uint256"
            },
            {
              "internalType": "uint256",
              "name": "createdAt",
              "type": "uint256"
            },
            {
              "internalType": "uint8",
              "name": "status",
              "type": "uint8"
            }
          ],
          "internalType": "struct ProposalVotingModule.ProposalView",
          "name": "",
          "type": "tuple"
        }
      ],
      "stateMutability": "view",
      "type": "function"
    },
    {
      "inputs": [],
      "name": "getProposalCount",
      "outputs": [
        {
          "internalType": "uint256",
          "name": "",
          "type": "uint256"
        }
      ],
      "stateMutability": "view",
      "type": "function"
    },
    {
      "inputs": [
        {
          "internalType": "uint256",
          "name": "offset",
          "type": "uint256"
        },
        {
          "internalType": "uint256",
          "name": "limit",
          "type": "uint256"
        }
      ],
      "name": "getProposalsPaginated",
      "outputs": [
        {
          "components": [
            {
              "internalType": "address",
              "name": "proposer",
              "type": "address"
            },
            {
              "internalType": "string",
              "name": "title",
              "type": "string"
            },
            {
              "internalType": "string",
              "name": "description",
              "type": "string"
            },
            {
              "internalType": "uint256",
              "name": "approvals",
              "type": "uint256"
            },
            {
              "internalType": "uint256",
              "name": "rejections",
              "type": "uint256"
            },
            {
              "internalType": "uint256",
              "name": "createdAt",
              "type": "uint256"
            },
            {
              "internalType": "uint8",
              "name": "status",
              "type": "uint8"
            }
          ],
          "internalType": "struct ProposalVotingModule.ProposalView[]",
          "name": "",
          "type": "tuple[]"
        },
        {
          "internalType": "uint256",
          "name": "total",
          "type": "uint256"
        }
      ],
      "stateMutability": "view",
      "type": "function"
    },
    {
      "inputs": [],
      "name": "getSelectors",
      "outputs": [
        {
          "internalType": "bytes4[]",
          "name": "selectors",
          "type": "bytes4[]"
        }
      ],
      "stateMutability": "pure",
      "type": "function"
    },
    {
      "inputs": [
        {
          "internalType": "bytes",
          "name": "data",
          "type": "bytes"
        }
      ],
      "name": "init",
      "outputs": [],
      "stateMutability": "nonpayable",
      "type": "function"
    },
    {
      "inputs": [
        {
          "internalType": "uint256",
          "name": "proposalId",
          "type": "uint256"
        },
        {
          "internalType": "bool",
          "name": "approve",
          "type": "bool"
        }
      ],
      "name": "voteOnProposal",
      "outputs": [],
      "stateMutability": "nonpayable",
      "type": "function"
    }
  ],
  "bytecode": "0x6080604052348015600f57600080fd5b5061246e8061001f6000396000f3fe608060405234801561001057600080fd5b506004361061007d5760003560e01c806365e481e21161005b57806365e481e2146100d85780636c5721c5146100f4578063c08cc02d14610125578063c7f758a8146101435761007d565b80631614665c146100825780634b503f0b1461009e5780634ddf47d4146100bc575b600080fd5b61009c60048036038101906100979190611156565b610173565b005b6100a6610695565b6040516100b39190611280565b60405180910390f35b6100d660048036038101906100d19190611307565b610956565b005b6100f260048036038101906100ed91906113aa565b610a1b565b005b61010e6004803603810190610109919061142b565b610c2f565b60405161011c9291906116db565b60405180910390f35b61012d610e4c565b60405161013a919061170b565b60405180910390f35b61015d60048036038101906101589190611726565b610e64565b60405161016a91906117f6565b60405180910390f35b60003073ffffffffffffffffffffffffffffffffffffffff166344276733336040518263ffffffff1660e01b81526004016101ae9190611827565b602060405180830381865afa1580156101cb573d6000803e3d6000fd5b505050506040513d601f19601f820116820180604052508101906101ef919061186e565b905060018160ff161480610206575060028160ff16145b610245576040517f08c379a000000000000000000000000000000000000000000000000000000000815260040161023c906118f8565b60405180910390fd5b600061024f611051565b9050600081600201600086815260200190815260200160002090506000600281111561027e5761027d611918565b5b8160060160009054906101000a900460ff1660028111156102a2576102a1611918565b5b146102e2576040517f08c379a00000000000000000000000000000000000000000000000000000000081526004016102d990611993565b60405180910390fd5b8060000160009054906101000a900473ffffffffffffffffffffffffffffffffffffffff1673ffffffffffffffffffffffffffffffffffffffff163373ffffffffffffffffffffffffffffffffffffffff1603610374576040517f08c379a000000000000000000000000000000000000000000000000000000000815260040161036b906119ff565b60405180910390fd5b8060070160003373ffffffffffffffffffffffffffffffffffffffff1673ffffffffffffffffffffffffffffffffffffffff16815260200190815260200160002060009054906101000a900460ff1615610403576040517f08c379a00000000000000000000000000000000000000000000000000000000081526004016103fa90611a6b565b60405180910390fd5b60018160070160003373ffffffffffffffffffffffffffffffffffffffff1673ffffffffffffffffffffffffffffffffffffffff16815260200190815260200160002060006101000a81548160ff02191690831515021790555083156104825780600301600081548092919061047890611aba565b919050555061049d565b80600401600081548092919061049790611aba565b91905055505b3373ffffffffffffffffffffffffffffffffffffffff16857fe71fcdac32df1877c1700e7bda2a03157e20993363a28fc35ac495cefc76e4d4866040516104e49190611b11565b60405180910390a3600060013073ffffffffffffffffffffffffffffffffffffffff1663997072f76040518163ffffffff1660e01b8152600401602060405180830381865afa15801561053b573d6000803e3d6000fd5b505050506040513d601f19601f8201168201806040525081019061055f9190611b41565b6105699190611b6e565b90506000606460638560000154846105819190611ba2565b61058b9190611be4565b6105959190611c47565b90508083600301541061060d5760018360060160006101000a81548160ff021916908360028111156105ca576105c9611918565b5b0217905550867f34a42c4ce0a88d16ad098de6406057747139a2a3dd8dd8616ee7bbabcecb768e60016040516106009190611cc0565b60405180910390a261068c565b80826106199190611b6e565b8360040154111561068b5760028360060160006101000a81548160ff0219169083600281111561064c5761064b611918565b5b0217905550867f34a42c4ce0a88d16ad098de6406057747139a2a3dd8dd8616ee7bbabcecb768e60026040516106829190611cc0565b60405180910390a25b5b50505050505050565b6060600667ffffffffffffffff8111156106b2576106b1611cdb565b5b6040519080825280602002602001820160405280156106e05781602001602082028036833780820191505090505b509050634ddf47d460e01b816000815181106106ff576106fe611d0a565b5b60200260200101907bffffffffffffffffffffffffffffffffffffffffffffffffffffffff191690817bffffffffffffffffffffffffffffffffffffffffffffffffffffffff1916815250506365e481e260e01b8160018151811061076757610766611d0a565b5b60200260200101907bffffffffffffffffffffffffffffffffffffffffffffffffffffffff191690817bffffffffffffffffffffffffffffffffffffffffffffffffffffffff191681525050631614665c60e01b816002815181106107cf576107ce611d0a565b5b60200260200101907bffffffffffffffffffffffffffffffffffffffffffffffffffffffff191690817bffffffffffffffffffffffffffffffffffffffffffffffffffffffff19168152505063c7f758a860e01b8160038151811061083757610836611d0a565b5b60200260200101907bffffffffffffffffffffffffffffffffffffffffffffffffffffffff191690817bffffffffffffffffffffffffffffffffffffffffffffffffffffffff191681525050636c5721c560e01b8160048151811061089f5761089e611d0a565b5b60200260200101907bffffffffffffffffffffffffffffffffffffffffffffffffffffffff191690817bffffffffffffffffffffffffffffffffffffffffffffffffffffffff19168152505063c08cc02d60e01b8160058151811061090757610906611d0a565b5b60200260200101907bffffffffffffffffffffffffffffffffffffffffffffffffffffffff191690817bffffffffffffffffffffffffffffffffffffffffffffffffffffffff19168152505090565b6000610960611051565b905060008160000154146109a9576040517f08c379a00000000000000000000000000000000000000000000000000000000081526004016109a090611d85565b60405180910390fd5b600083838101906109ba9190611726565b90506000811180156109cd575060648111155b610a0c576040517f08c379a0000000000000000000000000000000000000000000000000000000008152600401610a0390611df1565b60405180910390fd5b80826000018190555050505050565b60003073ffffffffffffffffffffffffffffffffffffffff166344276733336040518263ffffffff1660e01b8152600401610a569190611827565b602060405180830381865afa158015610a73573d6000803e3d6000fd5b505050506040513d601f19601f82011682018060405250810190610a97919061186e565b905060018160ff161480610aae575060028160ff16145b610aed576040517f08c379a0000000000000000000000000000000000000000000000000000000008152600401610ae4906118f8565b60405180910390fd5b6000610af7611051565b90506000816001016000815480929190610b1090611aba565b91905055905060008260020160008381526020019081526020016000209050338160000160006101000a81548173ffffffffffffffffffffffffffffffffffffffff021916908373ffffffffffffffffffffffffffffffffffffffff1602179055508787826001019182610b85929190612028565b508585826002019182610b99929190612028565b5042816005018190555060008160060160006101000a81548160ff02191690836002811115610bcb57610bca611918565b5b02179055503373ffffffffffffffffffffffffffffffffffffffff16827fe1a39bb955c12c02b24074e4d2e09a80ed84a64ce9b4454b47456e8a26f96e758a8a8a8a604051610c1d9493929190612134565b60405180910390a35050505050505050565b606060006064831115610c77576040517f08c379a0000000000000000000000000000000000000000000000000000000008152600401610c6e906121bb565b60405180910390fd5b6000610c81611051565b9050600081600101549050808610610cf457600067ffffffffffffffff811115610cae57610cad611cdb565b5b604051908082528060200260200182016040528015610ce757816020015b610cd461107e565b815260200190600190039081610ccc5790505b5081935093505050610e45565b60008587610d029190611be4565b905081811115610d10578190505b60008782610d1e9190611b6e565b905060008167ffffffffffffffff811115610d3c57610d3b611cdb565b5b604051908082528060200260200182016040528015610d7557816020015b610d6261107e565b815260200190600190039081610d5a5790505b50905060005b82811015610e38573073ffffffffffffffffffffffffffffffffffffffff1663c7f758a8828c610dab9190611be4565b6040518263ffffffff1660e01b8152600401610dc7919061170b565b600060405180830381865afa158015610de4573d6000803e3d6000fd5b505050506040513d6000823e3d601f19601f82011682018060405250810190610e0d91906123ef565b828281518110610e2057610e1f611d0a565b5b60200260200101819052508080600101915050610d7b565b5080849650965050505050505b9250929050565b600080610e57611051565b9050806001015491505090565b610e6c61107e565b6000610e76611051565b9050600081600201600085815260200190815260200160002090506040518060e001604052808260000160009054906101000a900473ffffffffffffffffffffffffffffffffffffffff1673ffffffffffffffffffffffffffffffffffffffff168152602001826001018054610eeb90611e4b565b80601f0160208091040260200160405190810160405280929190818152602001828054610f1790611e4b565b8015610f645780601f10610f3957610100808354040283529160200191610f64565b820191906000526020600020905b815481529060010190602001808311610f4757829003601f168201915b50505050508152602001826002018054610f7d90611e4b565b80601f0160208091040260200160405190810160405280929190818152602001828054610fa990611e4b565b8015610ff65780601f10610fcb57610100808354040283529160200191610ff6565b820191906000526020600020905b815481529060010190602001808311610fd957829003601f168201915b505050505081526020018260030154815260200182600401548152602001826005015481526020018260060160009054906101000a900460ff16600281111561104257611041611918565b5b60ff1681525092505050919050565b6000807fd7e81c2a3890e60b16464ab0cf7b5ba45158fee4552a09746c096d6a3e51e71490508091505090565b6040518060e00160405280600073ffffffffffffffffffffffffffffffffffffffff1681526020016060815260200160608152602001600081526020016000815260200160008152602001600060ff1681525090565b6000604051905090565b600080fd5b600080fd5b6000819050919050565b6110fb816110e8565b811461110657600080fd5b50565b600081359050611118816110f2565b92915050565b60008115159050919050565b6111338161111e565b811461113e57600080fd5b50565b6000813590506111508161112a565b92915050565b6000806040838503121561116d5761116c6110de565b5b600061117b85828601611109565b925050602061118c85828601611141565b9150509250929050565b600081519050919050565b600082825260208201905092915050565b6000819050602082019050919050565b60007fffffffff0000000000000000000000000000000000000000000000000000000082169050919050565b6111f7816111c2565b82525050565b600061120983836111ee565b60208301905092915050565b6000602082019050919050565b600061122d82611196565b61123781856111a1565b9350611242836111b2565b8060005b8381101561127357815161125a88826111fd565b975061126583611215565b925050600181019050611246565b5085935050505092915050565b6000602082019050818103600083015261129a8184611222565b905092915050565b600080fd5b600080fd5b600080fd5b60008083601f8401126112c7576112c66112a2565b5b8235905067ffffffffffffffff8111156112e4576112e36112a7565b5b602083019150836001820283011115611300576112ff6112ac565b5b9250929050565b6000806020838503121561131e5761131d6110de565b5b600083013567ffffffffffffffff81111561133c5761133b6110e3565b5b611348858286016112b1565b92509250509250929050565b60008083601f84011261136a576113696112a2565b5b8235905067ffffffffffffffff811115611387576113866112a7565b5b6020830191508360018202830111156113a3576113a26112ac565b5b9250929050565b600080600080604085870312156113c4576113c36110de565b5b600085013567ffffffffffffffff8111156113e2576113e16110e3565b5b6113ee87828801611354565b9450945050602085013567ffffffffffffffff811115611411576114106110e3565b5b61141d87828801611354565b925092505092959194509250565b60008060408385031215611442576114416110de565b5b600061145085828601611109565b925050602061146185828601611109565b9150509250929050565b600081519050919050565b600082825260208201905092915050565b6000819050602082019050919050565b600073ffffffffffffffffffffffffffffffffffffffff82169050919050565b60006114c282611497565b9050919050565b6114d2816114b7565b82525050565b600081519050919050565b600082825260208201905092915050565b60005b838110156115125780820151818401526020810190506114f7565b60008484015250505050565b6000601f19601f8301169050919050565b600061153a826114d8565b61154481856114e3565b93506115548185602086016114f4565b61155d8161151e565b840191505092915050565b611571816110e8565b82525050565b600060ff82169050919050565b61158d81611577565b82525050565b600060e0830160008301516115ab60008601826114c9565b50602083015184820360208601526115c3828261152f565b915050604083015184820360408601526115dd828261152f565b91505060608301516115f26060860182611568565b5060808301516116056080860182611568565b5060a083015161161860a0860182611568565b5060c083015161162b60c0860182611584565b508091505092915050565b60006116428383611593565b905092915050565b6000602082019050919050565b60006116628261146b565b61166c8185611476565b93508360208202850161167e85611487565b8060005b858110156116ba578484038952815161169b8582611636565b94506116a68361164a565b925060208a01995050600181019050611682565b50829750879550505050505092915050565b6116d5816110e8565b82525050565b600060408201905081810360008301526116f58185611657565b905061170460208301846116cc565b9392505050565b600060208201905061172060008301846116cc565b92915050565b60006020828403121561173c5761173b6110de565b5b600061174a84828501611109565b91505092915050565b600060e08301600083015161176b60008601826114c9565b5060208301518482036020860152611783828261152f565b9150506040830151848203604086015261179d828261152f565b91505060608301516117b26060860182611568565b5060808301516117c56080860182611568565b5060a08301516117d860a0860182611568565b5060c08301516117eb60c0860182611584565b508091505092915050565b600060208201905081810360008301526118108184611753565b905092915050565b611821816114b7565b82525050565b600060208201905061183c6000830184611818565b92915050565b61184b81611577565b811461185657600080fd5b50565b60008151905061186881611842565b92915050565b600060208284031215611884576118836110de565b5b600061189284828501611859565b91505092915050565b600082825260208201905092915050565b7f4f6e6c79206d656d626572000000000000000000000000000000000000000000600082015250565b60006118e2600b8361189b565b91506118ed826118ac565b602082019050919050565b60006020820190508181036000830152611911816118d5565b9050919050565b7f4e487b7100000000000000000000000000000000000000000000000000000000600052602160045260246000fd5b7f4e6f742070656e64696e67000000000000000000000000000000000000000000600082015250565b600061197d600b8361189b565b915061198882611947565b602082019050919050565b600060208201905081810360008301526119ac81611970565b9050919050565b7f50726f706f7365722063616e6e6f7420766f7465000000000000000000000000600082015250565b60006119e960148361189b565b91506119f4826119b3565b602082019050919050565b60006020820190508181036000830152611a18816119dc565b9050919050565b7f416c726561647920766f74656400000000000000000000000000000000000000600082015250565b6000611a55600d8361189b565b9150611a6082611a1f565b602082019050919050565b60006020820190508181036000830152611a8481611a48565b9050919050565b7f4e487b7100000000000000000000000000000000000000000000000000000000600052601160045260246000fd5b6000611ac5826110e8565b91507fffffffffffffffffffffffffffffffffffffffffffffffffffffffffffffffff8203611af757611af6611a8b565b5b600182019050919050565b611b0b8161111e565b82525050565b6000602082019050611b266000830184611b02565b92915050565b600081519050611b3b816110f2565b92915050565b600060208284031215611b5757611b566110de565b5b6000611b6584828501611b2c565b91505092915050565b6000611b79826110e8565b9150611b84836110e8565b9250828203905081811115611b9c57611b9b611a8b565b5b92915050565b6000611bad826110e8565b9150611bb8836110e8565b9250828202611bc6816110e8565b91508282048414831517611bdd57611bdc611a8b565b5b5092915050565b6000611bef826110e8565b9150611bfa836110e8565b9250828201905080821115611c1257611c11611a8b565b5b92915050565b7f4e487b7100000000000000000000000000000000000000000000000000000000600052601260045260246000fd5b6000611c52826110e8565b9150611c5d836110e8565b925082611c6d57611c6c611c18565b5b828204905092915050565b60038110611c8957611c88611918565b5b50565b6000819050611c9a82611c78565b919050565b6000611caa82611c8c565b9050919050565b611cba81611c9f565b82525050565b6000602082019050611cd56000830184611cb1565b92915050565b7f4e487b7100000000000000000000000000000000000000000000000000000000600052604160045260246000fd5b7f4e487b7100000000000000000000000000000000000000000000000000000000600052603260045260246000fd5b7f416c726561647920696e697469616c697a656400000000000000000000000000600082015250565b6000611d6f60138361189b565b9150611d7a82611d39565b602082019050919050565b60006020820190508181036000830152611d9e81611d62565b9050919050565b7f417070726f76616c207468726573686f6c64206d75737420626520312d313030600082015250565b6000611ddb60208361189b565b9150611de682611da5565b602082019050919050565b60006020820190508181036000830152611e0a81611dce565b9050919050565b600082905092915050565b7f4e487b7100000000000000000000000000000000000000000000000000000000600052602260045260246000fd5b60006002820490506001821680611e6357607f821691505b602082108103611e7657611e75611e1c565b5b50919050565b60008190508160005260206000209050919050565b60006020601f8301049050919050565b600082821b905092915050565b600060088302611ede7fffffffffffffffffffffffffffffffffffffffffffffffffffffffffffffffff82611ea1565b611ee88683611ea1565b95508019841693508086168417925050509392505050565b6000819050919050565b6000611f25611f20611f1b846110e8565b611f00565b6110e8565b9050919050565b6000819050919050565b611f3f83611f0a565b611f53611f4b82611f2c565b848454611eae565b825550505050565b600090565b611f68611f5b565b611f73818484611f36565b505050565b5b81811015611f9757611f8c600082611f60565b600181019050611f79565b5050565b601f821115611fdc57611fad81611e7c565b611fb684611e91565b81016020851015611fc5578190505b611fd9611fd185611e91565b830182611f78565b50505b505050565b600082821c905092915050565b6000611fff60001984600802611fe1565b1980831691505092915050565b60006120188383611fee565b9150826002028217905092915050565b6120328383611e11565b67ffffffffffffffff81111561204b5761204a611cdb565b5b6120558254611e4b565b612060828285611f9b565b6000601f83116001811461208f576000841561207d578287013590505b612087858261200c565b8655506120ef565b601f19841661209d86611e7c565b60005b828110156120c5578489013582556001820191506020850194506020810190506120a0565b868310156120e257848901356120de601f891682611fee565b8355505b6001600288020188555050505b50505050505050565b82818337600083830152505050565b6000612113838561189b565b93506121208385846120f8565b6121298361151e565b840190509392505050565b6000604082019050818103600083015261214f818688612107565b90508181036020830152612164818486612107565b905095945050505050565b7f4c696d697420746f6f2068696768000000000000000000000000000000000000600082015250565b60006121a5600e8361189b565b91506121b08261216f565b602082019050919050565b600060208201905081810360008301526121d481612198565b9050919050565b600080fd5b6121e98261151e565b810181811067ffffffffffffffff8211171561220857612207611cdb565b5b80604052505050565b600061221b6110d4565b905061222782826121e0565b919050565b600080fd5b61223a816114b7565b811461224557600080fd5b50565b60008151905061225781612231565b92915050565b600080fd5b600067ffffffffffffffff82111561227d5761227c611cdb565b5b6122868261151e565b9050602081019050919050565b60006122a66122a184612262565b612211565b9050828152602081018484840111156122c2576122c161225d565b5b6122cd8482856114f4565b509392505050565b600082601f8301126122ea576122e96112a2565b5b81516122fa848260208601612293565b91505092915050565b600060e08284031215612319576123186121db565b5b61232360e0612211565b9050600061233384828501612248565b600083015250602082015167ffffffffffffffff8111156123575761235661222c565b5b612363848285016122d5565b602083015250604082015167ffffffffffffffff8111156123875761238661222c565b5b612393848285016122d5565b60408301525060606123a784828501611b2c565b60608301525060806123bb84828501611b2c565b60808301525060a06123cf84828501611b2c565b60a08301525060c06123e384828501611859565b60c08301525092915050565b600060208284031215612405576124046110de565b5b600082015167ffffffffffffffff811115612423576124226110e3565b5b61242f84828501612303565b9150509291505056fea264697066735822122010e41b73beaa94f679b168a9722464a5492989eea52dd7549fca482954e25e6a64736f6c634300081c0033",
  "linkReferences": {},
  "deployedLinkReferences": {}
}