{
  "_format": "hh-sol-artifact-1",
  "contractName": "ProposalVotingModule",
  "sourceName": "contracts/contracts/dao/modules/ProposalVotingModule.sol",
  "abi": [
    {
      "anonymous": false,
      "inputs": [
        {
          "indexed": true,
          "internalType": "uint256",
          "name": "proposalId",
          "type": "uint256"
        },
        {
          "indexed": true,
          "internalType": "address",
          "name": "proposer",
          "type": "address"
        },
        {
          "indexed": false,
          "internalType": "string",
          "name": "title",
          "type": "string"
        },
        {
          "indexed": false,
          "internalType": "string",
          "name": "description",
          "type": "string"
        }
      ],
      "name": "ProposalCreated",
      "type": "event"
    },
    {
      "anonymous": false,
      "inputs": [
        {
          "indexed": true,
          "internalType": "uint256",
          "name": "proposalId",
          "type": "uint256"
        },
        {
          "indexed": false,
          "internalType": "enum ProposalVotingStorage.Status",
          "name": "status",
          "type": "uint8"
        }
      ],
      "name": "ProposalFinalized",
      "type": "event"
    },
    {
      "anonymous": false,
      "inputs": [
        {
          "indexed": true,
          "internalType": "uint256",
          "name": "proposalId",
          "type": "uint256"
        },
        {
          "indexed": true,
          "internalType": "address",
          "name": "voter",
          "type": "address"
        },
        {
          "indexed": false,
          "internalType": "bool",
          "name": "approve",
          "type": "bool"
        }
      ],
      "name": "VoteCast",
      "type": "event"
    },
    {
      "inputs": [
        {
          "internalType": "string",
          "name": "title",
          "type": "string"
        },
        {
          "internalType": "string",
          "name": "description",
          "type": "string"
        }
      ],
      "name": "createProposal",
      "outputs": [],
      "stateMutability": "nonpayable",
      "type": "function"
    },
    {
      "inputs": [
        {
          "internalType": "uint256",
          "name": "proposalId",
          "type": "uint256"
        }
      ],
      "name": "getProposal",
      "outputs": [
        {
          "components": [
            {
              "internalType": "address",
              "name": "proposer",
              "type": "address"
            },
            {
              "internalType": "string",
              "name": "title",
              "type": "string"
            },
            {
              "internalType": "string",
              "name": "description",
              "type": "string"
            },
            {
              "internalType": "uint256",
              "name": "approvals",
              "type": "uint256"
            },
            {
              "internalType": "uint256",
              "name": "rejections",
              "type": "uint256"
            },
            {
              "internalType": "uint256",
              "name": "createdAt",
              "type": "uint256"
            },
            {
              "internalType": "uint8",
              "name": "status",
              "type": "uint8"
            }
          ],
          "internalType": "struct ProposalVotingModule.ProposalView",
          "name": "",
          "type": "tuple"
        }
      ],
      "stateMutability": "view",
      "type": "function"
    },
    {
      "inputs": [],
      "name": "getProposalApprovalThreshold",
      "outputs": [
        {
          "internalType": "uint256",
          "name": "",
          "type": "uint256"
        }
      ],
      "stateMutability": "view",
      "type": "function"
    },
    {
      "inputs": [],
      "name": "getProposalCount",
      "outputs": [
        {
          "internalType": "uint256",
          "name": "",
          "type": "uint256"
        }
      ],
      "stateMutability": "view",
      "type": "function"
    },
    {
      "inputs": [
        {
          "internalType": "uint256",
          "name": "offset",
          "type": "uint256"
        },
        {
          "internalType": "uint256",
          "name": "limit",
          "type": "uint256"
        }
      ],
      "name": "getProposalsPaginated",
      "outputs": [
        {
          "components": [
            {
              "internalType": "address",
              "name": "proposer",
              "type": "address"
            },
            {
              "internalType": "string",
              "name": "title",
              "type": "string"
            },
            {
              "internalType": "string",
              "name": "description",
              "type": "string"
            },
            {
              "internalType": "uint256",
              "name": "approvals",
              "type": "uint256"
            },
            {
              "internalType": "uint256",
              "name": "rejections",
              "type": "uint256"
            },
            {
              "internalType": "uint256",
              "name": "createdAt",
              "type": "uint256"
            },
            {
              "internalType": "uint8",
              "name": "status",
              "type": "uint8"
            }
          ],
          "internalType": "struct ProposalVotingModule.ProposalView[]",
          "name": "",
          "type": "tuple[]"
        },
        {
          "internalType": "uint256",
          "name": "total",
          "type": "uint256"
        }
      ],
      "stateMutability": "view",
      "type": "function"
    },
    {
      "inputs": [],
      "name": "getSelectors",
      "outputs": [
        {
          "internalType": "bytes4[]",
          "name": "selectors",
          "type": "bytes4[]"
        }
      ],
      "stateMutability": "pure",
      "type": "function"
    },
    {
      "inputs": [
        {
          "internalType": "bytes",
          "name": "data",
          "type": "bytes"
        }
      ],
      "name": "init",
      "outputs": [],
      "stateMutability": "nonpayable",
      "type": "function"
    },
    {
      "inputs": [
        {
          "internalType": "uint256",
          "name": "proposalId",
          "type": "uint256"
        },
        {
          "internalType": "bool",
          "name": "approve",
          "type": "bool"
        }
      ],
      "name": "voteOnProposal",
      "outputs": [],
      "stateMutability": "nonpayable",
      "type": "function"
    }
  ],
  "bytecode": "0x6080604052348015600f57600080fd5b506125568061001f6000396000f3fe608060405234801561001057600080fd5b50600436106100885760003560e01c806365e481e21161005b57806365e481e2146101015780636c5721c51461011d578063c08cc02d1461014e578063c7f758a81461016c57610088565b80630972b6611461008d5780631614665c146100ab5780634b503f0b146100c75780634ddf47d4146100e5575b600080fd5b61009561019c565b6040516100a291906111d5565b60405180910390f35b6100c560048036038101906100c09190611268565b6101af565b005b6100cf610727565b6040516100dc9190611392565b60405180910390f35b6100ff60048036038101906100fa9190611419565b6109e8565b005b61011b600480360381019061011691906114bc565b610aad565b005b6101376004803603810190610132919061153d565b610d17565b6040516101459291906117de565b60405180910390f35b610156610f34565b60405161016391906111d5565b60405180910390f35b6101866004803603810190610181919061180e565b610f4c565b60405161019391906118de565b60405180910390f35b60006101a6611139565b60000154905090565b60003073ffffffffffffffffffffffffffffffffffffffff166344276733336040518263ffffffff1660e01b81526004016101ea919061190f565b602060405180830381865afa158015610207573d6000803e3d6000fd5b505050506040513d601f19601f8201168201806040525081019061022b9190611956565b60ff1660028111156102405761023f611983565b5b90506001600281111561025657610255611983565b5b81600281111561026957610268611983565b5b1480610298575060028081111561028357610282611983565b5b81600281111561029657610295611983565b5b145b6102d7576040517f08c379a00000000000000000000000000000000000000000000000000000000081526004016102ce90611a0f565b60405180910390fd5b60006102e1611139565b905060008160020160008681526020019081526020016000209050600060028111156103105761030f611983565b5b8160060160009054906101000a900460ff16600281111561033457610333611983565b5b14610374576040517f08c379a000000000000000000000000000000000000000000000000000000000815260040161036b90611a7b565b60405180910390fd5b8060000160009054906101000a900473ffffffffffffffffffffffffffffffffffffffff1673ffffffffffffffffffffffffffffffffffffffff163373ffffffffffffffffffffffffffffffffffffffff1603610406576040517f08c379a00000000000000000000000000000000000000000000000000000000081526004016103fd90611ae7565b60405180910390fd5b8060070160003373ffffffffffffffffffffffffffffffffffffffff1673ffffffffffffffffffffffffffffffffffffffff16815260200190815260200160002060009054906101000a900460ff1615610495576040517f08c379a000000000000000000000000000000000000000000000000000000000815260040161048c90611b53565b60405180910390fd5b60018160070160003373ffffffffffffffffffffffffffffffffffffffff1673ffffffffffffffffffffffffffffffffffffffff16815260200190815260200160002060006101000a81548160ff02191690831515021790555083156105145780600301600081548092919061050a90611ba2565b919050555061052f565b80600401600081548092919061052990611ba2565b91905055505b3373ffffffffffffffffffffffffffffffffffffffff16857fe71fcdac32df1877c1700e7bda2a03157e20993363a28fc35ac495cefc76e4d4866040516105769190611bf9565b60405180910390a3600060013073ffffffffffffffffffffffffffffffffffffffff1663997072f76040518163ffffffff1660e01b8152600401602060405180830381865afa1580156105cd573d6000803e3d6000fd5b505050506040513d601f19601f820116820180604052508101906105f19190611c29565b6105fb9190611c56565b90506000606460638560000154846106139190611c8a565b61061d9190611ccc565b6106279190611d2f565b90508083600301541061069f5760018360060160006101000a81548160ff0219169083600281111561065c5761065b611983565b5b0217905550867f34a42c4ce0a88d16ad098de6406057747139a2a3dd8dd8616ee7bbabcecb768e60016040516106929190611da8565b60405180910390a261071e565b80826106ab9190611c56565b8360040154111561071d5760028360060160006101000a81548160ff021916908360028111156106de576106dd611983565b5b0217905550867f34a42c4ce0a88d16ad098de6406057747139a2a3dd8dd8616ee7bbabcecb768e60026040516107149190611da8565b60405180910390a25b5b50505050505050565b6060600667ffffffffffffffff81111561074457610743611dc3565b5b6040519080825280602002602001820160405280156107725781602001602082028036833780820191505090505b5090506365e481e260e01b8160008151811061079157610790611df2565b5b60200260200101907bffffffffffffffffffffffffffffffffffffffffffffffffffffffff191690817bffffffffffffffffffffffffffffffffffffffffffffffffffffffff191681525050631614665c60e01b816001815181106107f9576107f8611df2565b5b60200260200101907bffffffffffffffffffffffffffffffffffffffffffffffffffffffff191690817bffffffffffffffffffffffffffffffffffffffffffffffffffffffff19168152505063c7f758a860e01b8160028151811061086157610860611df2565b5b60200260200101907bffffffffffffffffffffffffffffffffffffffffffffffffffffffff191690817bffffffffffffffffffffffffffffffffffffffffffffffffffffffff191681525050636c5721c560e01b816003815181106108c9576108c8611df2565b5b60200260200101907bffffffffffffffffffffffffffffffffffffffffffffffffffffffff191690817bffffffffffffffffffffffffffffffffffffffffffffffffffffffff19168152505063c08cc02d60e01b8160048151811061093157610930611df2565b5b60200260200101907bffffffffffffffffffffffffffffffffffffffffffffffffffffffff191690817bffffffffffffffffffffffffffffffffffffffffffffffffffffffff191681525050630972b66160e01b8160058151811061099957610998611df2565b5b60200260200101907bffffffffffffffffffffffffffffffffffffffffffffffffffffffff191690817bffffffffffffffffffffffffffffffffffffffffffffffffffffffff19168152505090565b60006109f2611139565b90506000816000015414610a3b576040517f08c379a0000000000000000000000000000000000000000000000000000000008152600401610a3290611e6d565b60405180910390fd5b60008383810190610a4c919061180e565b9050600081118015610a5f575060648111155b610a9e576040517f08c379a0000000000000000000000000000000000000000000000000000000008152600401610a9590611ed9565b60405180910390fd5b80826000018190555050505050565b60003073ffffffffffffffffffffffffffffffffffffffff166344276733336040518263ffffffff1660e01b8152600401610ae8919061190f565b602060405180830381865afa158015610b05573d6000803e3d6000fd5b505050506040513d601f19601f82011682018060405250810190610b299190611956565b60ff166002811115610b3e57610b3d611983565b5b905060016002811115610b5457610b53611983565b5b816002811115610b6757610b66611983565b5b1480610b965750600280811115610b8157610b80611983565b5b816002811115610b9457610b93611983565b5b145b610bd5576040517f08c379a0000000000000000000000000000000000000000000000000000000008152600401610bcc90611a0f565b60405180910390fd5b6000610bdf611139565b90506000816001016000815480929190610bf890611ba2565b91905055905060008260020160008381526020019081526020016000209050338160000160006101000a81548173ffffffffffffffffffffffffffffffffffffffff021916908373ffffffffffffffffffffffffffffffffffffffff1602179055508787826001019182610c6d929190612110565b508585826002019182610c81929190612110565b5042816005018190555060008160060160006101000a81548160ff02191690836002811115610cb357610cb2611983565b5b02179055503373ffffffffffffffffffffffffffffffffffffffff16827fe1a39bb955c12c02b24074e4d2e09a80ed84a64ce9b4454b47456e8a26f96e758a8a8a8a604051610d05949392919061221c565b60405180910390a35050505050505050565b606060006064831115610d5f576040517f08c379a0000000000000000000000000000000000000000000000000000000008152600401610d56906122a3565b60405180910390fd5b6000610d69611139565b9050600081600101549050808610610ddc57600067ffffffffffffffff811115610d9657610d95611dc3565b5b604051908082528060200260200182016040528015610dcf57816020015b610dbc611166565b815260200190600190039081610db45790505b5081935093505050610f2d565b60008587610dea9190611ccc565b905081811115610df8578190505b60008782610e069190611c56565b905060008167ffffffffffffffff811115610e2457610e23611dc3565b5b604051908082528060200260200182016040528015610e5d57816020015b610e4a611166565b815260200190600190039081610e425790505b50905060005b82811015610f20573073ffffffffffffffffffffffffffffffffffffffff1663c7f758a8828c610e939190611ccc565b6040518263ffffffff1660e01b8152600401610eaf91906111d5565b600060405180830381865afa158015610ecc573d6000803e3d6000fd5b505050506040513d6000823e3d601f19601f82011682018060405250810190610ef591906124d7565b828281518110610f0857610f07611df2565b5b60200260200101819052508080600101915050610e63565b5080849650965050505050505b9250929050565b600080610f3f611139565b9050806001015491505090565b610f54611166565b6000610f5e611139565b9050600081600201600085815260200190815260200160002090506040518060e001604052808260000160009054906101000a900473ffffffffffffffffffffffffffffffffffffffff1673ffffffffffffffffffffffffffffffffffffffff168152602001826001018054610fd390611f33565b80601f0160208091040260200160405190810160405280929190818152602001828054610fff90611f33565b801561104c5780601f106110215761010080835404028352916020019161104c565b820191906000526020600020905b81548152906001019060200180831161102f57829003601f168201915b5050505050815260200182600201805461106590611f33565b80601f016020809104026020016040519081016040528092919081815260200182805461109190611f33565b80156110de5780601f106110b3576101008083540402835291602001916110de565b820191906000526020600020905b8154815290600101906020018083116110c157829003601f168201915b505050505081526020018260030154815260200182600401548152602001826005015481526020018260060160009054906101000a900460ff16600281111561112a57611129611983565b5b60ff1681525092505050919050565b6000807fd7e81c2a3890e60b16464ab0cf7b5ba45158fee4552a09746c096d6a3e51e71490508091505090565b6040518060e00160405280600073ffffffffffffffffffffffffffffffffffffffff1681526020016060815260200160608152602001600081526020016000815260200160008152602001600060ff1681525090565b6000819050919050565b6111cf816111bc565b82525050565b60006020820190506111ea60008301846111c6565b92915050565b6000604051905090565b600080fd5b600080fd5b61120d816111bc565b811461121857600080fd5b50565b60008135905061122a81611204565b92915050565b60008115159050919050565b61124581611230565b811461125057600080fd5b50565b6000813590506112628161123c565b92915050565b6000806040838503121561127f5761127e6111fa565b5b600061128d8582860161121b565b925050602061129e85828601611253565b9150509250929050565b600081519050919050565b600082825260208201905092915050565b6000819050602082019050919050565b60007fffffffff0000000000000000000000000000000000000000000000000000000082169050919050565b611309816112d4565b82525050565b600061131b8383611300565b60208301905092915050565b6000602082019050919050565b600061133f826112a8565b61134981856112b3565b9350611354836112c4565b8060005b8381101561138557815161136c888261130f565b975061137783611327565b925050600181019050611358565b5085935050505092915050565b600060208201905081810360008301526113ac8184611334565b905092915050565b600080fd5b600080fd5b600080fd5b60008083601f8401126113d9576113d86113b4565b5b8235905067ffffffffffffffff8111156113f6576113f56113b9565b5b602083019150836001820283011115611412576114116113be565b5b9250929050565b600080602083850312156114305761142f6111fa565b5b600083013567ffffffffffffffff81111561144e5761144d6111ff565b5b61145a858286016113c3565b92509250509250929050565b60008083601f84011261147c5761147b6113b4565b5b8235905067ffffffffffffffff811115611499576114986113b9565b5b6020830191508360018202830111156114b5576114b46113be565b5b9250929050565b600080600080604085870312156114d6576114d56111fa565b5b600085013567ffffffffffffffff8111156114f4576114f36111ff565b5b61150087828801611466565b9450945050602085013567ffffffffffffffff811115611523576115226111ff565b5b61152f87828801611466565b925092505092959194509250565b60008060408385031215611554576115536111fa565b5b60006115628582860161121b565b92505060206115738582860161121b565b9150509250929050565b600081519050919050565b600082825260208201905092915050565b6000819050602082019050919050565b600073ffffffffffffffffffffffffffffffffffffffff82169050919050565b60006115d4826115a9565b9050919050565b6115e4816115c9565b82525050565b600081519050919050565b600082825260208201905092915050565b60005b83811015611624578082015181840152602081019050611609565b60008484015250505050565b6000601f19601f8301169050919050565b600061164c826115ea565b61165681856115f5565b9350611666818560208601611606565b61166f81611630565b840191505092915050565b611683816111bc565b82525050565b600060ff82169050919050565b61169f81611689565b82525050565b600060e0830160008301516116bd60008601826115db565b50602083015184820360208601526116d58282611641565b915050604083015184820360408601526116ef8282611641565b9150506060830151611704606086018261167a565b506080830151611717608086018261167a565b5060a083015161172a60a086018261167a565b5060c083015161173d60c0860182611696565b508091505092915050565b600061175483836116a5565b905092915050565b6000602082019050919050565b60006117748261157d565b61177e8185611588565b93508360208202850161179085611599565b8060005b858110156117cc57848403895281516117ad8582611748565b94506117b88361175c565b925060208a01995050600181019050611794565b50829750879550505050505092915050565b600060408201905081810360008301526117f88185611769565b905061180760208301846111c6565b9392505050565b600060208284031215611824576118236111fa565b5b60006118328482850161121b565b91505092915050565b600060e08301600083015161185360008601826115db565b506020830151848203602086015261186b8282611641565b915050604083015184820360408601526118858282611641565b915050606083015161189a606086018261167a565b5060808301516118ad608086018261167a565b5060a08301516118c060a086018261167a565b5060c08301516118d360c0860182611696565b508091505092915050565b600060208201905081810360008301526118f8818461183b565b905092915050565b611909816115c9565b82525050565b60006020820190506119246000830184611900565b92915050565b61193381611689565b811461193e57600080fd5b50565b6000815190506119508161192a565b92915050565b60006020828403121561196c5761196b6111fa565b5b600061197a84828501611941565b91505092915050565b7f4e487b7100000000000000000000000000000000000000000000000000000000600052602160045260246000fd5b600082825260208201905092915050565b7f4f6e6c79206d656d626572000000000000000000000000000000000000000000600082015250565b60006119f9600b836119b2565b9150611a04826119c3565b602082019050919050565b60006020820190508181036000830152611a28816119ec565b9050919050565b7f4e6f742070656e64696e67000000000000000000000000000000000000000000600082015250565b6000611a65600b836119b2565b9150611a7082611a2f565b602082019050919050565b60006020820190508181036000830152611a9481611a58565b9050919050565b7f50726f706f7365722063616e6e6f7420766f7465000000000000000000000000600082015250565b6000611ad16014836119b2565b9150611adc82611a9b565b602082019050919050565b60006020820190508181036000830152611b0081611ac4565b9050919050565b7f416c726561647920766f74656400000000000000000000000000000000000000600082015250565b6000611b3d600d836119b2565b9150611b4882611b07565b602082019050919050565b60006020820190508181036000830152611b6c81611b30565b9050919050565b7f4e487b7100000000000000000000000000000000000000000000000000000000600052601160045260246000fd5b6000611bad826111bc565b91507fffffffffffffffffffffffffffffffffffffffffffffffffffffffffffffffff8203611bdf57611bde611b73565b5b600182019050919050565b611bf381611230565b82525050565b6000602082019050611c0e6000830184611bea565b92915050565b600081519050611c2381611204565b92915050565b600060208284031215611c3f57611c3e6111fa565b5b6000611c4d84828501611c14565b91505092915050565b6000611c61826111bc565b9150611c6c836111bc565b9250828203905081811115611c8457611c83611b73565b5b92915050565b6000611c95826111bc565b9150611ca0836111bc565b9250828202611cae816111bc565b91508282048414831517611cc557611cc4611b73565b5b5092915050565b6000611cd7826111bc565b9150611ce2836111bc565b9250828201905080821115611cfa57611cf9611b73565b5b92915050565b7f4e487b7100000000000000000000000000000000000000000000000000000000600052601260045260246000fd5b6000611d3a826111bc565b9150611d45836111bc565b925082611d5557611d54611d00565b5b828204905092915050565b60038110611d7157611d70611983565b5b50565b6000819050611d8282611d60565b919050565b6000611d9282611d74565b9050919050565b611da281611d87565b82525050565b6000602082019050611dbd6000830184611d99565b92915050565b7f4e487b7100000000000000000000000000000000000000000000000000000000600052604160045260246000fd5b7f4e487b7100000000000000000000000000000000000000000000000000000000600052603260045260246000fd5b7f416c726561647920696e697469616c697a656400000000000000000000000000600082015250565b6000611e576013836119b2565b9150611e6282611e21565b602082019050919050565b60006020820190508181036000830152611e8681611e4a565b9050919050565b7f417070726f76616c207468726573686f6c64206d75737420626520312d313030600082015250565b6000611ec36020836119b2565b9150611ece82611e8d565b602082019050919050565b60006020820190508181036000830152611ef281611eb6565b9050919050565b600082905092915050565b7f4e487b7100000000000000000000000000000000000000000000000000000000600052602260045260246000fd5b60006002820490506001821680611f4b57607f821691505b602082108103611f5e57611f5d611f04565b5b50919050565b60008190508160005260206000209050919050565b60006020601f8301049050919050565b600082821b905092915050565b600060088302611fc67fffffffffffffffffffffffffffffffffffffffffffffffffffffffffffffffff82611f89565b611fd08683611f89565b95508019841693508086168417925050509392505050565b6000819050919050565b600061200d612008612003846111bc565b611fe8565b6111bc565b9050919050565b6000819050919050565b61202783611ff2565b61203b61203382612014565b848454611f96565b825550505050565b600090565b612050612043565b61205b81848461201e565b505050565b5b8181101561207f57612074600082612048565b600181019050612061565b5050565b601f8211156120c45761209581611f64565b61209e84611f79565b810160208510156120ad578190505b6120c16120b985611f79565b830182612060565b50505b505050565b600082821c905092915050565b60006120e7600019846008026120c9565b1980831691505092915050565b600061210083836120d6565b9150826002028217905092915050565b61211a8383611ef9565b67ffffffffffffffff81111561213357612132611dc3565b5b61213d8254611f33565b612148828285612083565b6000601f8311600181146121775760008415612165578287013590505b61216f85826120f4565b8655506121d7565b601f19841661218586611f64565b60005b828110156121ad57848901358255600182019150602085019450602081019050612188565b868310156121ca57848901356121c6601f8916826120d6565b8355505b6001600288020188555050505b50505050505050565b82818337600083830152505050565b60006121fb83856119b2565b93506122088385846121e0565b61221183611630565b840190509392505050565b600060408201905081810360008301526122378186886121ef565b9050818103602083015261224c8184866121ef565b905095945050505050565b7f4c696d697420746f6f2068696768000000000000000000000000000000000000600082015250565b600061228d600e836119b2565b915061229882612257565b602082019050919050565b600060208201905081810360008301526122bc81612280565b9050919050565b600080fd5b6122d182611630565b810181811067ffffffffffffffff821117156122f0576122ef611dc3565b5b80604052505050565b60006123036111f0565b905061230f82826122c8565b919050565b600080fd5b612322816115c9565b811461232d57600080fd5b50565b60008151905061233f81612319565b92915050565b600080fd5b600067ffffffffffffffff82111561236557612364611dc3565b5b61236e82611630565b9050602081019050919050565b600061238e6123898461234a565b6122f9565b9050828152602081018484840111156123aa576123a9612345565b5b6123b5848285611606565b509392505050565b600082601f8301126123d2576123d16113b4565b5b81516123e284826020860161237b565b91505092915050565b600060e08284031215612401576124006122c3565b5b61240b60e06122f9565b9050600061241b84828501612330565b600083015250602082015167ffffffffffffffff81111561243f5761243e612314565b5b61244b848285016123bd565b602083015250604082015167ffffffffffffffff81111561246f5761246e612314565b5b61247b848285016123bd565b604083015250606061248f84828501611c14565b60608301525060806124a384828501611c14565b60808301525060a06124b784828501611c14565b60a08301525060c06124cb84828501611941565b60c08301525092915050565b6000602082840312156124ed576124ec6111fa565b5b600082015167ffffffffffffffff81111561250b5761250a6111ff565b5b612517848285016123eb565b9150509291505056fea26469706673582212201d08352d820d84b30062def858b23d36e9ab00289218e4f84e1a4727c646888464736f6c634300081c0033",
  "linkReferences": {},
  "deployedLinkReferences": {}
}