{
  "_format": "hh-sol-artifact-1",
  "contractName": "TaskManagementModule",
  "sourceName": "contracts/contracts/dao/modules/TaskManagementModule.sol",
  "abi": [
    {
      "anonymous": false,
      "inputs": [
        {
          "indexed": true,
          "internalType": "uint256",
          "name": "taskId",
          "type": "uint256"
        },
        {
          "indexed": false,
          "internalType": "string",
          "name": "title",
          "type": "string"
        },
        {
          "indexed": false,
          "internalType": "address",
          "name": "creator",
          "type": "address"
        }
      ],
      "name": "TaskCreated",
      "type": "event"
    },
    {
      "anonymous": false,
      "inputs": [
        {
          "indexed": true,
          "internalType": "uint256",
          "name": "taskId",
          "type": "uint256"
        }
      ],
      "name": "TaskDeleted",
      "type": "event"
    },
    {
      "anonymous": false,
      "inputs": [
        {
          "indexed": true,
          "internalType": "uint256",
          "name": "taskId",
          "type": "uint256"
        },
        {
          "indexed": false,
          "internalType": "enum TaskStorage.TaskStatus",
          "name": "oldStatus",
          "type": "uint8"
        },
        {
          "indexed": false,
          "internalType": "enum TaskStorage.TaskStatus",
          "name": "newStatus",
          "type": "uint8"
        }
      ],
      "name": "TaskStatusUpdated",
      "type": "event"
    },
    {
      "anonymous": false,
      "inputs": [
        {
          "indexed": true,
          "internalType": "uint256",
          "name": "taskId",
          "type": "uint256"
        },
        {
          "indexed": false,
          "internalType": "string",
          "name": "title",
          "type": "string"
        },
        {
          "indexed": false,
          "internalType": "string",
          "name": "description",
          "type": "string"
        },
        {
          "indexed": false,
          "internalType": "enum TaskStorage.TaskPriority",
          "name": "priority",
          "type": "uint8"
        },
        {
          "indexed": false,
          "internalType": "uint256",
          "name": "dueDate",
          "type": "uint256"
        }
      ],
      "name": "TaskUpdated",
      "type": "event"
    },
    {
      "inputs": [
        {
          "internalType": "string",
          "name": "title",
          "type": "string"
        },
        {
          "internalType": "string",
          "name": "description",
          "type": "string"
        },
        {
          "internalType": "enum TaskStorage.TaskPriority",
          "name": "priority",
          "type": "uint8"
        },
        {
          "internalType": "uint256",
          "name": "dueDate",
          "type": "uint256"
        }
      ],
      "name": "createTask",
      "outputs": [
        {
          "internalType": "uint256",
          "name": "",
          "type": "uint256"
        }
      ],
      "stateMutability": "nonpayable",
      "type": "function"
    },
    {
      "inputs": [
        {
          "internalType": "uint256",
          "name": "taskId",
          "type": "uint256"
        }
      ],
      "name": "deleteTask",
      "outputs": [],
      "stateMutability": "nonpayable",
      "type": "function"
    },
    {
      "inputs": [],
      "name": "getSelectors",
      "outputs": [
        {
          "internalType": "bytes4[]",
          "name": "selectors",
          "type": "bytes4[]"
        }
      ],
      "stateMutability": "pure",
      "type": "function"
    },
    {
      "inputs": [
        {
          "internalType": "uint256",
          "name": "taskId",
          "type": "uint256"
        }
      ],
      "name": "getTask",
      "outputs": [
        {
          "internalType": "uint256",
          "name": "_taskId",
          "type": "uint256"
        },
        {
          "internalType": "string",
          "name": "title",
          "type": "string"
        },
        {
          "internalType": "string",
          "name": "description",
          "type": "string"
        },
        {
          "internalType": "address",
          "name": "creator",
          "type": "address"
        },
        {
          "internalType": "enum TaskStorage.TaskStatus",
          "name": "status",
          "type": "uint8"
        },
        {
          "internalType": "enum TaskStorage.TaskPriority",
          "name": "priority",
          "type": "uint8"
        },
        {
          "internalType": "uint256",
          "name": "dueDate",
          "type": "uint256"
        },
        {
          "internalType": "uint256",
          "name": "createdAt",
          "type": "uint256"
        },
        {
          "internalType": "uint256",
          "name": "updatedAt",
          "type": "uint256"
        }
      ],
      "stateMutability": "view",
      "type": "function"
    },
    {
      "inputs": [],
      "name": "getTaskCount",
      "outputs": [
        {
          "internalType": "uint256",
          "name": "",
          "type": "uint256"
        }
      ],
      "stateMutability": "view",
      "type": "function"
    },
    {
      "inputs": [
        {
          "internalType": "uint256",
          "name": "offset",
          "type": "uint256"
        },
        {
          "internalType": "uint256",
          "name": "limit",
          "type": "uint256"
        }
      ],
      "name": "getTasksPaginated",
      "outputs": [
        {
          "components": [
            {
              "internalType": "uint256",
              "name": "taskId",
              "type": "uint256"
            },
            {
              "internalType": "string",
              "name": "title",
              "type": "string"
            },
            {
              "internalType": "string",
              "name": "description",
              "type": "string"
            },
            {
              "internalType": "address",
              "name": "creator",
              "type": "address"
            },
            {
              "internalType": "enum TaskStorage.TaskStatus",
              "name": "status",
              "type": "uint8"
            },
            {
              "internalType": "enum TaskStorage.TaskPriority",
              "name": "priority",
              "type": "uint8"
            },
            {
              "internalType": "uint256",
              "name": "dueDate",
              "type": "uint256"
            },
            {
              "internalType": "uint256",
              "name": "createdAt",
              "type": "uint256"
            },
            {
              "internalType": "uint256",
              "name": "updatedAt",
              "type": "uint256"
            }
          ],
          "internalType": "struct TaskStorage.Task[]",
          "name": "tasks",
          "type": "tuple[]"
        },
        {
          "internalType": "uint256",
          "name": "totalCount",
          "type": "uint256"
        }
      ],
      "stateMutability": "view",
      "type": "function"
    },
    {
      "inputs": [
        {
          "internalType": "address",
          "name": "user",
          "type": "address"
        }
      ],
      "name": "getUserTasks",
      "outputs": [
        {
          "internalType": "uint256[]",
          "name": "",
          "type": "uint256[]"
        }
      ],
      "stateMutability": "view",
      "type": "function"
    },
    {
      "inputs": [
        {
          "internalType": "uint256",
          "name": "taskId",
          "type": "uint256"
        },
        {
          "internalType": "string",
          "name": "title",
          "type": "string"
        },
        {
          "internalType": "string",
          "name": "description",
          "type": "string"
        },
        {
          "internalType": "enum TaskStorage.TaskPriority",
          "name": "priority",
          "type": "uint8"
        },
        {
          "internalType": "uint256",
          "name": "dueDate",
          "type": "uint256"
        }
      ],
      "name": "updateTask",
      "outputs": [],
      "stateMutability": "nonpayable",
      "type": "function"
    },
    {
      "inputs": [
        {
          "internalType": "uint256",
          "name": "taskId",
          "type": "uint256"
        },
        {
          "internalType": "enum TaskStorage.TaskStatus",
          "name": "newStatus",
          "type": "uint8"
        }
      ],
      "name": "updateTaskStatus",
      "outputs": [],
      "stateMutability": "nonpayable",
      "type": "function"
    }
  ],
  "bytecode": "0x6080806040523460155761135e908161001b8239f35b600080fdfe6080604052600436101561001257600080fd5b60003560e01c806312ead59d14610c905780631d65e77e14610bb95780634b503f0b14610a72578063560f31921461090357806395d576601461084b5780639e7081a61461056f578063ab9b681114610472578063c17a340e146104475763dde157281461007f57600080fd5b346104425760a03660031901126104425760043560243567ffffffffffffffff8111610442576100b390369060040161105e565b60443567ffffffffffffffff8111610442576100d390369060040161105e565b60643590600482101561044257608435908460005260008051602061130983398151915260205260406000206003810160018060a01b0381541633036103fd5761011e428511611110565b60018201865167ffffffffffffffff811161032f5761013d825461115c565b601f81116103b5575b50806020601f821160011461035057600091610345575b508160011b916000199060031b1c19161790555b60028201835167ffffffffffffffff811161032f57610190825461115c565b601f81116102e7575b506020601f821160011461024d57936101ff886102389561022d958561021f9c9a967f5e15e2062c1fe45a2917e2ea6b54a02beacddd3dca4a74f010323e9e11b7e4469e9c9a600091610242575b508160011b916000199060031b1c1916179055611196565b8460048201556006429101556040519687966080885260808801906110b5565b9086820360208801526110b5565b926040850190611103565b60608301520390a2005b9050870151386101e7565b601f1982169083600052806000209160005b8181106102cf5750986102389561022d956001867f5e15e2062c1fe45a2917e2ea6b54a02beacddd3dca4a74f010323e9e11b7e4469e9c9a966101ff9661021f9f99879e9a106102b6575b5050811b019055611196565b89015160001960f88460031b161c1916905538806102aa565b9192602060018192868c01518155019401920161025f565b826000526020600020601f830160051c81019160208410610325575b601f0160051c01905b8181106103195750610199565b6000815560010161030c565b9091508190610303565b634e487b7160e01b600052604160045260246000fd5b90508801513861015d565b60008481528181209250601f198416905b8b82821061039d5750509083600194939210610384575b5050811b019055610171565b8a015160001960f88460031b161c191690553880610378565b60018495602093958493015181550194019201610361565b826000526020600020601f830160051c810191602084106103f3575b601f0160051c01905b8181106103e75750610146565b600081556001016103da565b90915081906103d1565b60405162461bcd60e51b815260206004820152601c60248201527f4f6e6c792063726561746f722063616e20757064617465207461736b000000006044820152606490fd5b600080fd5b346104425760003660031901126104425760206000805160206112e983398151915254604051908152f35b346104425760403660031901126104425760043560243560058110156104425760008281526000805160206113098339815191526020526040902060038101805490916001600160a01b038216330361052a577f19cbfdfbc7748abcaf8232be4851f822437450e90472e2421d2667238909cbdf9361051d60ff936105279360409680548760a01b8660a01b16908860a01b1916179055600642910155855194859160a01c166110f6565b60208301906110f6565ba2005b60405162461bcd60e51b815260206004820152601e60248201527f4f6e6c792063726561746f722063616e207570646174652073746174757300006044820152606490fd5b34610442576040366003190112610442576000805160206112e98339815191525460043561059f602435826112db565b828111610844575b60008282111561083d5750818103908111610827575b6105c6816112af565b916105d4604051938461103c565b818352601f196105e3836112af565b0160005b8181106107d057505060005b8281106106e25750505060405190604082016040835281518091526060830190602060608260051b8601019301916000905b828210610639578580868960208301520390f35b90919293602080600192605f19898203018552875190815181526101008061068561067386860151610120888701526101208601906110b5565b604086015185820360408701526110b5565b93878060a01b0360608201511660608501526106a9608082015160808601906110f6565b6106bb60a082015160a0860190611103565b60c081015160c085015260e081015160e08501520151910152960192019201909291610625565b6106ec81836112db565b600052600080516020611309833981519152602052604060002090815460038301549260ff8460a01c169360ff8160a81c169460048301549060058401549261075c6002600687015496604051986107438a61101f565b89526107516001820161120b565b60208a01520161120b565b60408701526001600160a01b0316606086015260058110156107ba57608085015260048610156107ba5760019560a085015260c084015260e08301526101008201526107a882876112c7565b526107b381866112c7565b50016105f3565b634e487b7160e01b600052602160045260246000fd5b6020906040516107df8161101f565b60008152606083820152606060408201526000606082015260006080820152600060a0820152600060c0820152600060e08201526000610100820152828288010152016105e7565b634e487b7160e01b600052601160045260246000fd5b90506105bd565b50816105a7565b34610442576020366003190112610442576004356001600160a01b038116810361044257610878906111ba565b6040518060208354918281520190819360005260206000209060005b8181106108ed57505050816108aa91038261103c565b6040519182916020830190602084525180915260408301919060005b8181106108d4575050500390f35b82518452859450602093840193909201916001016108c6565b8254845260209093019260019283019201610894565b3461044257602036600319011261044257600435600081815260008051602061130983398151915260205260409020600301546001600160a01b03163303610a2d5761094e336111ba565b60005b81549081811015610a25578361096782856111f3565b90549060031b1c1461097d576001915001610951565b6000198201918211610827576109a76109996109c093856111f3565b90549060031b1c91846111f3565b90919082549060031b91821b91600019901b1916179055565b80548015610a0f5760001901906109d782826111f3565b8154906000199060031b1b19169055555b7fd078b251d950cc55c44340be1db732337ef4939a76e1367ee271ad2cb19c46af600080a2005b634e487b7160e01b600052603160045260246000fd5b5050506109e8565b60405162461bcd60e51b815260206004820152601c60248201527f4f6e6c792063726561746f722063616e2064656c657465207461736b000000006044820152606490fd5b3461044257600036600319011261044257604051610120610a93818361103c565b600882526020820190601f1901368237815115610ba3576312ead59d60e01b8152815160011015610ba35763ab9b681160e01b6040830152815160021015610ba357631bbc2ae560e31b6060830152815160031015610ba357632b0798c960e11b6080830152815160041015610ba357630eb2f3bf60e11b60a0830152815160051015610ba357634f3840d360e11b60c0830152815160061015610ba3576304aeabb360e51b60e0830152815160071015610ba3576360bd1a0760e11b6101008301526040805160208082529351938101849052928392918301919060005b818110610b80575050500390f35b82516001600160e01b031916845285945060209384019390920191600101610b72565b634e487b7160e01b600052603260045260246000fd5b346104425760203660031901126104425760043560005260008051602061130983398151915260205260406000208054600382015460048301546005840154600685015491610c7c610c48610c1c6002610c1560018b0161120b565b990161120b565b610c3a604051998a998a5261012060208b01526101208a01906110b5565b9088820360408a01526110b5565b6001600160a01b038616606088015294610c6c6080880160a083901c60ff166110f6565b60ff60a088019160a81c16611103565b60c085015260e08401526101008301520390f35b346104425760803660031901126104425760043567ffffffffffffffff811161044257610cc190369060040161105e565b60243567ffffffffffffffff811161044257610ce190369060040161105e565b60443590600482101561044257606435610cfc428211611110565b6000805160206112e98339815191525492600019841461082757600184016000805160206112e9833981519152558360005260008051602061130983398151915260205260406000209284845560018401865167ffffffffffffffff811161032f57610d68825461115c565b601f8111610fd7575b50806020601f8211600114610f7257600091610f67575b508160011b916000199060031b1c19161790555b8051600285019167ffffffffffffffff821161032f57610dbc835461115c565b601f8111610f1f575b50602090601f8311600114610eb357610e199493929160009183610ea8575b50508160011b916000199060031b1c19161790555b6003840180546001600160a81b0319163360ff60a01b1916178155611196565b6004820155426005820155600642910155610e33336111ba565b918254926801000000000000000084101561032f57610e988392610e84846109a7887fdc691e972cb25fd6e968744b5a6416d42a052ac1305e3b7ed6777b621304b7f296600160209b0181556111f3565b6040519182916040835260408301906110b5565b33878301520390a2604051908152f35b015190508980610de4565b90601f1983169184600052816000209260005b818110610f075750916001939185610e199897969410610eee575b505050811b019055610df9565b015160001960f88460031b161c19169055898080610ee1565b92936020600181928786015181550195019301610ec6565b836000526020600020601f840160051c81019160208510610f5d575b601f0160051c01905b818110610f515750610dc5565b60008155600101610f44565b9091508190610f3b565b905088015189610d88565b60008481528181209250601f198416905b8b828210610fbf5750509083600194939210610fa6575b5050811b019055610d9c565b8a015160001960f88460031b161c191690558980610f9a565b60018495602093958493015181550194019201610f83565b826000526020600020601f830160051c81019160208410611015575b601f0160051c01905b8181106110095750610d71565b60008155600101610ffc565b9091508190610ff3565b610120810190811067ffffffffffffffff82111761032f57604052565b90601f8019910116810190811067ffffffffffffffff82111761032f57604052565b81601f820112156104425780359067ffffffffffffffff821161032f5760405192611093601f8401601f19166020018561103c565b8284526020838301011161044257816000926020809301838601378301015290565b919082519283825260005b8481106110e1575050826000602080949584010152601f8019910116010190565b806020809284010151828286010152016110c0565b9060058210156107ba5752565b9060048210156107ba5752565b1561111757565b60405162461bcd60e51b815260206004820152601a60248201527f4475652064617465206d75737420626520696e206675747572650000000000006044820152606490fd5b90600182811c9216801561118c575b602083101461117657565b634e487b7160e01b600052602260045260246000fd5b91607f169161116b565b9060048110156107ba57815460ff60a81b191660a89190911b60ff60a81b16179055565b6001600160a01b031660009081527f285a1b532e57eac9d6945977fd158a4d18aea68e19465fc1666858460d0103c86020526040902090565b8054821015610ba35760005260206000200190600090565b906040519182600082549261121f8461115c565b808452936001811690811561128d5750600114611246575b506112449250038361103c565b565b90506000929192526020600020906000915b8183106112715750509060206112449282010138611237565b6020919350806001915483858901015201910190918492611258565b90506020925061124494915060ff191682840152151560051b82010138611237565b67ffffffffffffffff811161032f5760051b60200190565b8051821015610ba35760209160051b010190565b919082018092116108275756fe285a1b532e57eac9d6945977fd158a4d18aea68e19465fc1666858460d0103c9285a1b532e57eac9d6945977fd158a4d18aea68e19465fc1666858460d0103c7a2646970667358221220bff096369f73a4c708959bbbb1120c5d794671d9f634e6b878348c7b8eece3b364736f6c634300081c0033",
  "linkReferences": {},
  "deployedLinkReferences": {}
}