{
  "_format": "hh-sol-artifact-1",
  "contractName": "TreasuryModule",
  "sourceName": "contracts/contracts/dao/modules/TreasuryModule.sol",
  "abi": [
    {
      "inputs": [
        {
          "internalType": "address",
          "name": "initialOwner",
          "type": "address"
        }
      ],
      "stateMutability": "nonpayable",
      "type": "constructor"
    },
    {
      "inputs": [
        {
          "internalType": "address",
          "name": "owner",
          "type": "address"
        }
      ],
      "name": "OwnableInvalidOwner",
      "type": "error"
    },
    {
      "inputs": [
        {
          "internalType": "address",
          "name": "account",
          "type": "address"
        }
      ],
      "name": "OwnableUnauthorizedAccount",
      "type": "error"
    },
    {
      "anonymous": false,
      "inputs": [
        {
          "indexed": true,
          "internalType": "address",
          "name": "from",
          "type": "address"
        },
        {
          "indexed": false,
          "internalType": "uint256",
          "name": "amount",
          "type": "uint256"
        }
      ],
      "name": "Deposit",
      "type": "event"
    },
    {
      "anonymous": false,
      "inputs": [
        {
          "indexed": true,
          "internalType": "address",
          "name": "previousOwner",
          "type": "address"
        },
        {
          "indexed": true,
          "internalType": "address",
          "name": "newOwner",
          "type": "address"
        }
      ],
      "name": "OwnershipTransferred",
      "type": "event"
    },
    {
      "anonymous": false,
      "inputs": [
        {
          "indexed": true,
          "internalType": "address",
          "name": "to",
          "type": "address"
        },
        {
          "indexed": false,
          "internalType": "uint256",
          "name": "amount",
          "type": "uint256"
        }
      ],
      "name": "Withdraw",
      "type": "event"
    },
    {
      "inputs": [
        {
          "internalType": "uint256",
          "name": "amount",
          "type": "uint256"
        }
      ],
      "name": "depositToken",
      "outputs": [],
      "stateMutability": "nonpayable",
      "type": "function"
    },
    {
      "inputs": [],
      "name": "getSelectors",
      "outputs": [
        {
          "internalType": "bytes4[]",
          "name": "selectors",
          "type": "bytes4[]"
        }
      ],
      "stateMutability": "pure",
      "type": "function"
    },
    {
      "inputs": [],
      "name": "getTokenBalance",
      "outputs": [
        {
          "internalType": "uint256",
          "name": "",
          "type": "uint256"
        }
      ],
      "stateMutability": "view",
      "type": "function"
    },
    {
      "inputs": [
        {
          "internalType": "address",
          "name": "tokenAddress",
          "type": "address"
        },
        {
          "internalType": "address",
          "name": "owner",
          "type": "address"
        }
      ],
      "name": "initialize",
      "outputs": [],
      "stateMutability": "nonpayable",
      "type": "function"
    },
    {
      "inputs": [],
      "name": "initialized",
      "outputs": [
        {
          "internalType": "bool",
          "name": "",
          "type": "bool"
        }
      ],
      "stateMutability": "view",
      "type": "function"
    },
    {
      "inputs": [],
      "name": "owner",
      "outputs": [
        {
          "internalType": "address",
          "name": "",
          "type": "address"
        }
      ],
      "stateMutability": "view",
      "type": "function"
    },
    {
      "inputs": [],
      "name": "renounceOwnership",
      "outputs": [],
      "stateMutability": "nonpayable",
      "type": "function"
    },
    {
      "inputs": [],
      "name": "token",
      "outputs": [
        {
          "internalType": "contract IERC20",
          "name": "",
          "type": "address"
        }
      ],
      "stateMutability": "view",
      "type": "function"
    },
    {
      "inputs": [
        {
          "internalType": "address",
          "name": "newOwner",
          "type": "address"
        }
      ],
      "name": "transferOwnership",
      "outputs": [],
      "stateMutability": "nonpayable",
      "type": "function"
    },
    {
      "inputs": [
        {
          "internalType": "address",
          "name": "to",
          "type": "address"
        },
        {
          "internalType": "uint256",
          "name": "amount",
          "type": "uint256"
        }
      ],
      "name": "withdrawToken",
      "outputs": [],
      "stateMutability": "nonpayable",
      "type": "function"
    }
  ],
  "bytecode": "0x608060405234801561001057600080fd5b50604051611586380380611586833981810160405281019061003291906101e2565b80600073ffffffffffffffffffffffffffffffffffffffff168173ffffffffffffffffffffffffffffffffffffffff16036100a55760006040517f1e4fbdf700000000000000000000000000000000000000000000000000000000815260040161009c919061021e565b60405180910390fd5b6100b4816100bb60201b60201c565b5050610239565b60008060009054906101000a900473ffffffffffffffffffffffffffffffffffffffff169050816000806101000a81548173ffffffffffffffffffffffffffffffffffffffff021916908373ffffffffffffffffffffffffffffffffffffffff1602179055508173ffffffffffffffffffffffffffffffffffffffff168173ffffffffffffffffffffffffffffffffffffffff167f8be0079c531659141344cd1fd0a4f28419497f9722a3daafe3b4186f6b6457e060405160405180910390a35050565b600080fd5b600073ffffffffffffffffffffffffffffffffffffffff82169050919050565b60006101af82610184565b9050919050565b6101bf816101a4565b81146101ca57600080fd5b50565b6000815190506101dc816101b6565b92915050565b6000602082840312156101f8576101f761017f565b5b6000610206848285016101cd565b91505092915050565b610218816101a4565b82525050565b6000602082019050610233600083018461020f565b92915050565b61133e806102486000396000f3fe608060405234801561001057600080fd5b506004361061009e5760003560e01c806382b2e2571161006657806382b2e257146101215780638da5cb5b1461013f5780639e281a981461015d578063f2fde38b14610179578063fc0c546a146101955761009e565b8063158ef93e146100a3578063485cc955146100c15780634b503f0b146100dd5780636215be77146100fb578063715018a614610117575b600080fd5b6100ab6101b3565b6040516100b89190610bae565b60405180910390f35b6100db60048036038101906100d69190610c2c565b6101c6565b005b6100e561035c565b6040516100f29190610d56565b60405180910390f35b61011560048036038101906101109190610dae565b6104e5565b005b61011f61065a565b005b61012961066e565b6040516101369190610dea565b60405180910390f35b610147610711565b6040516101549190610e14565b60405180910390f35b61017760048036038101906101729190610e2f565b61073a565b005b610193600480360381019061018e9190610e6f565b610994565b005b61019d610a1a565b6040516101aa9190610efb565b60405180910390f35b600160149054906101000a900460ff1681565b600160149054906101000a900460ff1615610216576040517f08c379a000000000000000000000000000000000000000000000000000000000815260040161020d90610f73565b60405180910390fd5b600073ffffffffffffffffffffffffffffffffffffffff168273ffffffffffffffffffffffffffffffffffffffff1603610285576040517f08c379a000000000000000000000000000000000000000000000000000000000815260040161027c90610fdf565b60405180910390fd5b600073ffffffffffffffffffffffffffffffffffffffff168173ffffffffffffffffffffffffffffffffffffffff16036102f4576040517f08c379a00000000000000000000000000000000000000000000000000000000081526004016102eb9061104b565b60405180910390fd5b81600160006101000a81548173ffffffffffffffffffffffffffffffffffffffff021916908373ffffffffffffffffffffffffffffffffffffffff16021790555061033e81610a40565b60018060146101000a81548160ff0219169083151502179055505050565b6060600367ffffffffffffffff8111156103795761037861106b565b5b6040519080825280602002602001820160405280156103a75781602001602082028036833780820191505090505b509050636215be7760e01b816000815181106103c6576103c561109a565b5b60200260200101907bffffffffffffffffffffffffffffffffffffffffffffffffffffffff191690817bffffffffffffffffffffffffffffffffffffffffffffffffffffffff191681525050639e281a9860e01b8160018151811061042e5761042d61109a565b5b60200260200101907bffffffffffffffffffffffffffffffffffffffffffffffffffffffff191690817bffffffffffffffffffffffffffffffffffffffffffffffffffffffff1916815250506382b2e25760e01b816002815181106104965761049561109a565b5b60200260200101907bffffffffffffffffffffffffffffffffffffffffffffffffffffffff191690817bffffffffffffffffffffffffffffffffffffffffffffffffffffffff19168152505090565b60008111610528576040517f08c379a000000000000000000000000000000000000000000000000000000000815260040161051f90611115565b60405180910390fd5b600160009054906101000a900473ffffffffffffffffffffffffffffffffffffffff1673ffffffffffffffffffffffffffffffffffffffff166323b872dd3330846040518463ffffffff1660e01b815260040161058793929190611135565b6020604051808303816000875af11580156105a6573d6000803e3d6000fd5b505050506040513d601f19601f820116820180604052508101906105ca9190611198565b610609576040517f08c379a000000000000000000000000000000000000000000000000000000000815260040161060090611211565b60405180910390fd5b3373ffffffffffffffffffffffffffffffffffffffff167fe1fffcc4923d04b559f4d29a8bfc6cda04eb5b0d3c460751c2402c5c5cc9109c8260405161064f9190610dea565b60405180910390a250565b610662610b04565b61066c6000610a40565b565b6000600160009054906101000a900473ffffffffffffffffffffffffffffffffffffffff1673ffffffffffffffffffffffffffffffffffffffff166370a08231306040518263ffffffff1660e01b81526004016106cb9190610e14565b602060405180830381865afa1580156106e8573d6000803e3d6000fd5b505050506040513d601f19601f8201168201806040525081019061070c9190611246565b905090565b60008060009054906101000a900473ffffffffffffffffffffffffffffffffffffffff16905090565b610742610b04565b60008111610785576040517f08c379a000000000000000000000000000000000000000000000000000000000815260040161077c90611115565b60405180910390fd5b80600160009054906101000a900473ffffffffffffffffffffffffffffffffffffffff1673ffffffffffffffffffffffffffffffffffffffff166370a08231306040518263ffffffff1660e01b81526004016107e19190610e14565b602060405180830381865afa1580156107fe573d6000803e3d6000fd5b505050506040513d601f19601f820116820180604052508101906108229190611246565b1015610863576040517f08c379a000000000000000000000000000000000000000000000000000000000815260040161085a906112bf565b60405180910390fd5b600160009054906101000a900473ffffffffffffffffffffffffffffffffffffffff1673ffffffffffffffffffffffffffffffffffffffff1663a9059cbb83836040518363ffffffff1660e01b81526004016108c09291906112df565b6020604051808303816000875af11580156108df573d6000803e3d6000fd5b505050506040513d601f19601f820116820180604052508101906109039190611198565b610942576040517f08c379a000000000000000000000000000000000000000000000000000000000815260040161093990611211565b60405180910390fd5b8173ffffffffffffffffffffffffffffffffffffffff167f884edad9ce6fa2440d8a54cc123490eb96d2768479d49ff9c7366125a9424364826040516109889190610dea565b60405180910390a25050565b61099c610b04565b600073ffffffffffffffffffffffffffffffffffffffff168173ffffffffffffffffffffffffffffffffffffffff1603610a0e5760006040517f1e4fbdf7000000000000000000000000000000000000000000000000000000008152600401610a059190610e14565b60405180910390fd5b610a1781610a40565b50565b600160009054906101000a900473ffffffffffffffffffffffffffffffffffffffff1681565b60008060009054906101000a900473ffffffffffffffffffffffffffffffffffffffff169050816000806101000a81548173ffffffffffffffffffffffffffffffffffffffff021916908373ffffffffffffffffffffffffffffffffffffffff1602179055508173ffffffffffffffffffffffffffffffffffffffff168173ffffffffffffffffffffffffffffffffffffffff167f8be0079c531659141344cd1fd0a4f28419497f9722a3daafe3b4186f6b6457e060405160405180910390a35050565b610b0c610b8b565b73ffffffffffffffffffffffffffffffffffffffff16610b2a610711565b73ffffffffffffffffffffffffffffffffffffffff1614610b8957610b4d610b8b565b6040517f118cdaa7000000000000000000000000000000000000000000000000000000008152600401610b809190610e14565b60405180910390fd5b565b600033905090565b60008115159050919050565b610ba881610b93565b82525050565b6000602082019050610bc36000830184610b9f565b92915050565b600080fd5b600073ffffffffffffffffffffffffffffffffffffffff82169050919050565b6000610bf982610bce565b9050919050565b610c0981610bee565b8114610c1457600080fd5b50565b600081359050610c2681610c00565b92915050565b60008060408385031215610c4357610c42610bc9565b5b6000610c5185828601610c17565b9250506020610c6285828601610c17565b9150509250929050565b600081519050919050565b600082825260208201905092915050565b6000819050602082019050919050565b60007fffffffff0000000000000000000000000000000000000000000000000000000082169050919050565b610ccd81610c98565b82525050565b6000610cdf8383610cc4565b60208301905092915050565b6000602082019050919050565b6000610d0382610c6c565b610d0d8185610c77565b9350610d1883610c88565b8060005b83811015610d49578151610d308882610cd3565b9750610d3b83610ceb565b925050600181019050610d1c565b5085935050505092915050565b60006020820190508181036000830152610d708184610cf8565b905092915050565b6000819050919050565b610d8b81610d78565b8114610d9657600080fd5b50565b600081359050610da881610d82565b92915050565b600060208284031215610dc457610dc3610bc9565b5b6000610dd284828501610d99565b91505092915050565b610de481610d78565b82525050565b6000602082019050610dff6000830184610ddb565b92915050565b610e0e81610bee565b82525050565b6000602082019050610e296000830184610e05565b92915050565b60008060408385031215610e4657610e45610bc9565b5b6000610e5485828601610c17565b9250506020610e6585828601610d99565b9150509250929050565b600060208284031215610e8557610e84610bc9565b5b6000610e9384828501610c17565b91505092915050565b6000819050919050565b6000610ec1610ebc610eb784610bce565b610e9c565b610bce565b9050919050565b6000610ed382610ea6565b9050919050565b6000610ee582610ec8565b9050919050565b610ef581610eda565b82525050565b6000602082019050610f106000830184610eec565b92915050565b600082825260208201905092915050565b7f416c726561647920696e697469616c697a656400000000000000000000000000600082015250565b6000610f5d601383610f16565b9150610f6882610f27565b602082019050919050565b60006020820190508181036000830152610f8c81610f50565b9050919050565b7f546f6b656e206164647265737320726571756972656400000000000000000000600082015250565b6000610fc9601683610f16565b9150610fd482610f93565b602082019050919050565b60006020820190508181036000830152610ff881610fbc565b9050919050565b7f4f776e6572206164647265737320726571756972656400000000000000000000600082015250565b6000611035601683610f16565b915061104082610fff565b602082019050919050565b6000602082019050818103600083015261106481611028565b9050919050565b7f4e487b7100000000000000000000000000000000000000000000000000000000600052604160045260246000fd5b7f4e487b7100000000000000000000000000000000000000000000000000000000600052603260045260246000fd5b7f416d6f756e74206d757374206265203e20300000000000000000000000000000600082015250565b60006110ff601283610f16565b915061110a826110c9565b602082019050919050565b6000602082019050818103600083015261112e816110f2565b9050919050565b600060608201905061114a6000830186610e05565b6111576020830185610e05565b6111646040830184610ddb565b949350505050565b61117581610b93565b811461118057600080fd5b50565b6000815190506111928161116c565b92915050565b6000602082840312156111ae576111ad610bc9565b5b60006111bc84828501611183565b91505092915050565b7f5472616e73666572206661696c65640000000000000000000000000000000000600082015250565b60006111fb600f83610f16565b9150611206826111c5565b602082019050919050565b6000602082019050818103600083015261122a816111ee565b9050919050565b60008151905061124081610d82565b92915050565b60006020828403121561125c5761125b610bc9565b5b600061126a84828501611231565b91505092915050565b7f496e73756666696369656e742062616c616e6365000000000000000000000000600082015250565b60006112a9601483610f16565b91506112b482611273565b602082019050919050565b600060208201905081810360008301526112d88161129c565b9050919050565b60006040820190506112f46000830185610e05565b6113016020830184610ddb565b939250505056fea2646970667358221220baf646f47cba46aebe39af58bace853528c6bc0ac3497be774be221ee3deab3464736f6c634300081c0033",
  "linkReferences": {},
  "deployedLinkReferences": {}
}